{
  "contractName": "DataGeneratedId",
  "abi": [
    {
      "inputs": [
        {
          "internalType": "address",
          "name": "_id_informasi",
          "type": "address"
        },
        {
          "internalType": "bytes",
          "name": "_id_produk",
          "type": "bytes"
        },
        {
          "internalType": "address",
          "name": "_addr",
          "type": "address"
        }
      ],
      "stateMutability": "nonpayable",
      "type": "constructor"
    },
    {
      "inputs": [],
      "name": "id_informasi",
      "outputs": [
        {
          "internalType": "address",
          "name": "",
          "type": "address"
        }
      ],
      "stateMutability": "view",
      "type": "function"
    },
    {
      "inputs": [],
      "name": "id_produk",
      "outputs": [
        {
          "internalType": "bytes",
          "name": "",
          "type": "bytes"
        }
      ],
      "stateMutability": "view",
      "type": "function"
    },
    {
      "inputs": [],
      "name": "txnContractAddress",
      "outputs": [
        {
          "internalType": "address",
          "name": "",
          "type": "address"
        }
      ],
      "stateMutability": "view",
      "type": "function"
    },
    {
      "inputs": [],
      "name": "getId",
      "outputs": [
        {
          "internalType": "address",
          "name": "",
          "type": "address"
        },
        {
          "internalType": "bytes",
          "name": "",
          "type": "bytes"
        }
      ],
      "stateMutability": "view",
      "type": "function"
    },
    {
      "inputs": [],
      "name": "getInformasi",
      "outputs": [
        {
          "internalType": "address",
          "name": "",
          "type": "address"
        }
      ],
      "stateMutability": "view",
      "type": "function"
    },
    {
      "inputs": [],
      "name": "getProduk",
      "outputs": [
        {
          "internalType": "bytes",
          "name": "",
          "type": "bytes"
        }
      ],
      "stateMutability": "view",
      "type": "function"
    }
  ],
  "bytecode": "0x60a060405234801561001057600080fd5b50604051610e03380380610e0383398101604081905261002f91610182565b6001600160601b0319606084901b1660805281516100549060009060208501906100c0565b5061005e81610066565b5050506102ce565b60008160405161007590610144565b61007f9190610269565b604051809103906000f08015801561009b573d6000803e3d6000fd5b50600180546001600160a01b0319166001600160a01b03929092169190911790555050565b8280546100cc9061027d565b90600052602060002090601f0160209004810192826100ee5760008555610134565b82601f1061010757805160ff1916838001178555610134565b82800160010185558215610134579182015b82811115610134578251825591602001919060010190610119565b50610140929150610151565b5090565b6106fa8061070983390190565b5b808211156101405760008155600101610152565b80516001600160a01b038116811461017d57600080fd5b919050565b600080600060608486031215610196578283fd5b61019f84610166565b602085810151919450906001600160401b03808211156101bd578485fd5b818701915087601f8301126101d0578485fd5b8151818111156101e2576101e26102b8565b604051601f8201601f1916810185018381118282101715610205576102056102b8565b60405281815283820185018a101561021b578687fd5b8692505b8183101561023c578383018501518184018601529184019161021f565b8183111561024c57868583830101525b809650505050505061026060408501610166565b90509250925092565b6001600160a01b0391909116815260200190565b60028104600182168061029157607f821691505b602082108114156102b257634e487b7160e01b600052602260045260246000fd5b50919050565b634e487b7160e01b600052604160045260246000fd5b60805160601c6104106102f96000396000818160d901528181610101015261024601526104106000f3fe608060405234801561001057600080fd5b50600436106100625760003560e01c806341f10ea7146100675780635c17f535146100855780635d1ca6311461008d5780637dc9dd23146100a35780637df7ee74146100b8578063b03acf5b146100c0575b600080fd5b61006f6100c8565b60405161007c9190610345565b60405180910390f35b61006f6100d7565b6100956100fb565b60405161007c929190610359565b6100ab6101b6565b60405161007c9190610385565b61006f610244565b6100ab610268565b6001546001600160a01b031681565b7f000000000000000000000000000000000000000000000000000000000000000090565b600060607f0000000000000000000000000000000000000000000000000000000000000000600080805461012e9061039f565b80601f016020809104026020016040519081016040528092919081815260200182805461015a9061039f565b80156101a75780601f1061017c576101008083540402835291602001916101a7565b820191906000526020600020905b81548152906001019060200180831161018a57829003601f168201915b50505050509050915091509091565b600080546101c39061039f565b80601f01602080910402602001604051908101604052809291908181526020018280546101ef9061039f565b801561023c5780601f106102115761010080835404028352916020019161023c565b820191906000526020600020905b81548152906001019060200180831161021f57829003601f168201915b505050505081565b7f000000000000000000000000000000000000000000000000000000000000000081565b6060600080546102779061039f565b80601f01602080910402602001604051908101604052809291908181526020018280546102a39061039f565b80156102f05780601f106102c5576101008083540402835291602001916102f0565b820191906000526020600020905b8154815290600101906020018083116102d357829003601f168201915b5050505050905090565b60008151808452815b8181101561031f57602081850181015186830182015201610303565b818111156103305782602083870101525b50601f01601f19169290920160200192915050565b6001600160a01b0391909116815260200190565b6001600160a01b038316815260406020820181905260009061037d908301846102fa565b949350505050565b60006020825261039860208301846102fa565b9392505050565b6002810460018216806103b357607f821691505b602082108114156103d457634e487b7160e01b600052602260045260246000fd5b5091905056fea26469706673582212200a7a8747d8e0d35b0e056269bdf5487c9c7f833ada579a750d68421bcebc367f64736f6c6343000800003360a0604052600060015534801561001557600080fd5b506040516106fa3803806106fa8339810160408190526100349161005c565b6001600160a01b03811661004757600080fd5b60601b6001600160601b03191660805261008a565b60006020828403121561006d578081fd5b81516001600160a01b0381168114610083578182fd5b9392505050565b60805160601c6106536100a7600039600060df01526106536000f3fe608060405234801561001057600080fd5b50600436106100575760003560e01c806302d05d3f1461005c57806327506f531461007a57806378ce13651461008f5780639ace38c2146100a45780639e9ab89b146100c8575b600080fd5b6100646100dd565b60405161007191906104c0565b60405180910390f35b610082610101565b60405161007191906104d4565b610097610215565b60405161007191906105b4565b6100b76100b23660046104a8565b61021b565b60405161007195949392919061054e565b6100db6100d6366004610465565b610256565b005b7f000000000000000000000000000000000000000000000000000000000000000081565b60015460609060008167ffffffffffffffff81111561013057634e487b7160e01b600052604160045260246000fd5b60405190808252806020026020018201604052801561016957816020015b61015661041b565b81526020019060019003908161014e5790505b50905060005b8281101561020e5760008181526020818152604091829020825160a0810184528154815260018201546001600160a01b039081169382019390935260028201549092169282019290925260038201546060820152600490910154608082015282518390839081106101f057634e487b7160e01b600052603260045260246000fd5b60200260200101819052508080610206906105ec565b91505061016f565b5091505090565b60015481565b6000602081905290815260409020805460018201546002830154600384015460049094015492936001600160a01b0392831693929091169185565b60015443906102eb576040805160a0810182528681526001600160a01b0380871660208084019182528783168486019081526060850188815260808601888152600180546000908152948590529790932095518655925195850180549685166001600160a01b0319978816179055516002850180549190941695169490941790915551600382015590516004909101556103bd565b81600080600180546102fd91906105d5565b815260200190815260200160002060000154146103355760405162461bcd60e51b815260040161032c9061057d565b60405180910390fd5b6040805160a0810182528681526001600160a01b0380871660208084019182528783168486019081526060850188815260808601888152600180546000908152948590529790932095518655925195850180549685166001600160a01b0319978816179055516002850180549190941695169490941790915551600382015590516004909101555b60018060008282546103cf91906105bd565b90915550506040517f08ce16702f64d2cdc93c2d36818cee685abd25dcf25f93b5008c07c328652bb69061040c908790879087908790879061054e565b60405180910390a15050505050565b6040805160a08101825260008082526020820181905291810182905260608101829052608081019190915290565b80356001600160a01b038116811461046057600080fd5b919050565b6000806000806080858703121561047a578384fd5b8435935061048a60208601610449565b925061049860408601610449565b9396929550929360600135925050565b6000602082840312156104b9578081fd5b5035919050565b6001600160a01b0391909116815260200190565b602080825282518282018190526000919060409081850190868401855b8281101561054157815180518552868101516001600160a01b0390811688870152868201511686860152606080820151908601526080908101519085015260a090930192908501906001016104f1565b5091979650505050505050565b9485526001600160a01b0393841660208601529190921660408401526060830191909152608082015260a00190565b6020808252601b908201527f5472616e73616374696f6e206572726f72206f63637572726564210000000000604082015260600190565b90815260200190565b600082198211156105d0576105d0610607565b500190565b6000828210156105e7576105e7610607565b500390565b600060001982141561060057610600610607565b5060010190565b634e487b7160e01b600052601160045260246000fdfea264697066735822122066815cd6d3b2b092d9963d8f562dd7f1d623f22c22d6ab0f90474b19915f3ffc64736f6c63430008000033",
  "immutableReferences": {
    "5": [
      {
        "length": 32,
        "start": 217
      },
      {
        "length": 32,
        "start": 257
      },
      {
        "length": 32,
        "start": 582
      }
    ]
  },
  "source": "// SPDX-License-Identifier: MIT\r\npragma solidity ^0.8.0;\r\npragma experimental ABIEncoderV2;\r\nimport \"./Transactions.sol\";\r\n\r\ncontract DataGeneratedId {\r\n    address public immutable id_informasi;\r\n    bytes public id_produk;\r\n\r\n    address public txnContractAddress;\r\n\r\n    constructor(address _id_informasi, bytes memory _id_produk, address _addr) {\r\n        id_informasi = _id_informasi;\r\n        id_produk = _id_produk;\r\n        initializeTxnContract(_addr);\r\n    }\r\n\r\n    function initializeTxnContract(address addr) internal {\r\n        Transactions txnContract = new Transactions(addr);\r\n        txnContractAddress = address(txnContract);\r\n    }\r\n\r\n    function getId() public view returns (address, bytes memory) {\r\n        return (id_informasi, id_produk);\r\n    }\r\n\r\n    function getInformasi() public view returns (address) {\r\n        return id_informasi;\r\n    }\r\n\r\n    function getProduk() public view returns (bytes memory) {\r\n        return id_produk;\r\n    }\r\n}\r\n",
  "sourcePath": "D:\\ACTIVITY\\SEM 8\\0. SKRIPSI\\REF\\WEB\\alkes-blockchain\\contracts\\DataGeneratedId.sol",
  "compiler": {
    "name": "solc",
    "version": "0.8.0+commit.c7dfd78e.Emscripten.clang"
  },
  "schemaVersion": "3.4.16",
  "updatedAt": "2024-01-29T13:58:57.185Z",
  "devdoc": {
    "kind": "dev",
    "methods": {},
    "version": 1
  },
  "userdoc": {
    "kind": "user",
    "methods": {},
    "version": 1
  }
}