{
  "contractName": "Medicine",
  "abi": [
    {
      "inputs": [
        {
          "internalType": "address",
          "name": "_manufacturerAddr",
          "type": "address"
        },
        {
          "internalType": "bytes32",
          "name": "_description",
          "type": "bytes32"
        },
        {
          "internalType": "address[]",
          "name": "_rawAddr",
          "type": "address[]"
        },
        {
          "internalType": "uint256",
          "name": "_quantity",
          "type": "uint256"
        },
        {
          "internalType": "address[]",
          "name": "_transporterAddr",
          "type": "address[]"
        }
      ],
      "stateMutability": "nonpayable",
      "type": "constructor"
    },
    {
      "anonymous": false,
      "inputs": [
        {
          "indexed": true,
          "internalType": "address",
          "name": "BatchID",
          "type": "address"
        },
        {
          "indexed": true,
          "internalType": "address",
          "name": "Shipper",
          "type": "address"
        },
        {
          "indexed": true,
          "internalType": "address",
          "name": "Receiver",
          "type": "address"
        },
        {
          "indexed": false,
          "internalType": "uint256",
          "name": "TransporterType",
          "type": "uint256"
        },
        {
          "indexed": false,
          "internalType": "uint256",
          "name": "Status",
          "type": "uint256"
        }
      ],
      "name": "ShippmentUpdate",
      "type": "event"
    },
    {
      "inputs": [],
      "name": "getMedicineInfo",
      "outputs": [
        {
          "internalType": "address",
          "name": "_manufacturerAddr",
          "type": "address"
        },
        {
          "internalType": "bytes32",
          "name": "_description",
          "type": "bytes32"
        },
        {
          "internalType": "address[]",
          "name": "_rawAddr",
          "type": "address[]"
        },
        {
          "internalType": "uint256",
          "name": "_quantity",
          "type": "uint256"
        },
        {
          "internalType": "address[]",
          "name": "_transporterAddr",
          "type": "address[]"
        },
        {
          "internalType": "address",
          "name": "_distributor",
          "type": "address"
        },
        {
          "internalType": "uint256",
          "name": "_status",
          "type": "uint256"
        },
        {
          "internalType": "address",
          "name": "_txnContract",
          "type": "address"
        },
        {
          "internalType": "address",
          "name": "_wholesaler",
          "type": "address"
        }
      ],
      "stateMutability": "view",
      "type": "function"
    },
    {
      "inputs": [],
      "name": "getWDC",
      "outputs": [
        {
          "internalType": "address[3]",
          "name": "WDP",
          "type": "address[3]"
        }
      ],
      "stateMutability": "view",
      "type": "function"
    },
    {
      "inputs": [],
      "name": "getBatchIDStatus",
      "outputs": [
        {
          "internalType": "uint256",
          "name": "",
          "type": "uint256"
        }
      ],
      "stateMutability": "view",
      "type": "function"
    },
    {
      "inputs": [
        {
          "internalType": "address",
          "name": "_transporterAddr",
          "type": "address"
        }
      ],
      "name": "pickMedicine",
      "outputs": [],
      "stateMutability": "nonpayable",
      "type": "function"
    },
    {
      "inputs": [
        {
          "internalType": "address",
          "name": "_transporterAddr",
          "type": "address"
        }
      ],
      "name": "updateTransporterArray",
      "outputs": [],
      "stateMutability": "nonpayable",
      "type": "function"
    },
    {
      "inputs": [
        {
          "internalType": "address",
          "name": "addr",
          "type": "address"
        }
      ],
      "name": "updateWholesalerAddress",
      "outputs": [],
      "stateMutability": "nonpayable",
      "type": "function"
    },
    {
      "inputs": [
        {
          "internalType": "address",
          "name": "addr",
          "type": "address"
        }
      ],
      "name": "updateDistributorAddress",
      "outputs": [],
      "stateMutability": "nonpayable",
      "type": "function"
    },
    {
      "inputs": [
        {
          "internalType": "address",
          "name": "_receiverAddr",
          "type": "address"
        }
      ],
      "name": "receivedMedicine",
      "outputs": [
        {
          "internalType": "uint256",
          "name": "",
          "type": "uint256"
        }
      ],
      "stateMutability": "nonpayable",
      "type": "function"
    },
    {
      "inputs": [
        {
          "internalType": "address",
          "name": "receiver",
          "type": "address"
        },
        {
          "internalType": "address",
          "name": "sender",
          "type": "address"
        }
      ],
      "name": "sendWtoD",
      "outputs": [],
      "stateMutability": "nonpayable",
      "type": "function"
    },
    {
      "inputs": [
        {
          "internalType": "address",
          "name": "receiver",
          "type": "address"
        }
      ],
      "name": "receivedWtoD",
      "outputs": [],
      "stateMutability": "nonpayable",
      "type": "function"
    },
    {
      "inputs": [
        {
          "internalType": "address",
          "name": "receiver",
          "type": "address"
        },
        {
          "internalType": "address",
          "name": "sender",
          "type": "address"
        }
      ],
      "name": "sendDtoC",
      "outputs": [],
      "stateMutability": "nonpayable",
      "type": "function"
    },
    {
      "inputs": [
        {
          "internalType": "address",
          "name": "receiver",
          "type": "address"
        }
      ],
      "name": "receivedDtoC",
      "outputs": [],
      "stateMutability": "nonpayable",
      "type": "function"
    }
  ],
  "bytecode": "0x60806040523480156200001157600080fd5b50604051620039dc380380620039dc833981810160405281019062000037919062000434565b846000806101000a81548173ffffffffffffffffffffffffffffffffffffffff021916908373ffffffffffffffffffffffffffffffffffffffff16021790555084600460006101000a81548173ffffffffffffffffffffffffffffffffffffffff021916908373ffffffffffffffffffffffffffffffffffffffff160217905550836001819055508260029080519060200190620000d792919062000291565b50816008819055508060039080519060200190620000f792919062000291565b506000600560006101000a81548173ffffffffffffffffffffffffffffffffffffffff021916908373ffffffffffffffffffffffffffffffffffffffff1602179055506000600660006101000a81548173ffffffffffffffffffffffffffffffffffffffff021916908373ffffffffffffffffffffffffffffffffffffffff16021790555060006006811115620001b7577f4e487b7100000000000000000000000000000000000000000000000000000000600052602160045260246000fd5b600960006101000a81548160ff0219169083600681111562000202577f4e487b7100000000000000000000000000000000000000000000000000000000600052602160045260246000fd5b0217905550600085604051620002189062000320565b620002249190620004f9565b604051809103906000f08015801562000241573d6000803e3d6000fd5b50905080600960016101000a81548173ffffffffffffffffffffffffffffffffffffffff021916908373ffffffffffffffffffffffffffffffffffffffff1602179055505050505050506200063e565b8280548282559060005260206000209081019282156200030d579160200282015b828111156200030c5782518260006101000a81548173ffffffffffffffffffffffffffffffffffffffff021916908373ffffffffffffffffffffffffffffffffffffffff16021790555091602001919060010190620002b2565b5b5090506200031c91906200032e565b5090565b61143480620025a883390190565b5b80821115620003495760008160009055506001016200032f565b5090565b6000620003646200035e846200054a565b62000516565b905080838252602082019050828560208602820111156200038457600080fd5b60005b85811015620003b857816200039d8882620003c2565b84526020840193506020830192505060018101905062000387565b5050509392505050565b600081519050620003d381620005f0565b92915050565b600082601f830112620003eb57600080fd5b8151620003fd8482602086016200034d565b91505092915050565b60008151905062000417816200060a565b92915050565b6000815190506200042e8162000624565b92915050565b600080600080600060a086880312156200044d57600080fd5b60006200045d88828901620003c2565b9550506020620004708882890162000406565b945050604086015167ffffffffffffffff8111156200048e57600080fd5b6200049c88828901620003d9565b9350506060620004af888289016200041d565b925050608086015167ffffffffffffffff811115620004cd57600080fd5b620004db88828901620003d9565b9150509295509295909350565b620004f38162000579565b82525050565b6000602082019050620005106000830184620004e8565b92915050565b6000604051905081810181811067ffffffffffffffff8211171562000540576200053f620005c1565b5b8060405250919050565b600067ffffffffffffffff821115620005685762000567620005c1565b5b602082029050602081019050919050565b6000620005868262000597565b9050919050565b6000819050919050565b600073ffffffffffffffffffffffffffffffffffffffff82169050919050565b6000819050919050565b7f4e487b7100000000000000000000000000000000000000000000000000000000600052604160045260246000fd5b620005fb8162000579565b81146200060757600080fd5b50565b62000615816200058d565b81146200062157600080fd5b50565b6200062f81620005b7565b81146200063b57600080fd5b50565b611f5a806200064e6000396000f3fe608060405234801561001057600080fd5b50600436106100b45760003560e01c8063ac42a41511610071578063ac42a41514610177578063c8f5f18914610193578063d2f3fcc7146101af578063e002c8a5146101cd578063e138d4ce146101f3578063f5c0e3831461020f576100b4565b80631fedd36c146100b95780632f1d7588146100e957806393a668b71461010557806396991e7914610121578063aab3a9d61461013d578063abb428a614610159575b600080fd5b6100d360048036038101906100ce919061174e565b61022b565b6040516100e09190611d8a565b60405180910390f35b61010360048036038101906100fe9190611777565b61092a565b005b61011f600480360381019061011a919061174e565b610a88565b005b61013b6004803603810190610136919061174e565b610ba4565b005b6101576004803603810190610152919061174e565b610be8565b005b610161610c4e565b60405161016e9190611beb565b60405180910390f35b610191600480360381019061018c919061174e565b610d60565b005b6101ad60048036038101906101a8919061174e565b6111f1565b005b6101b761130c565b6040516101c49190611d8a565b60405180910390f35b6101d561135b565b6040516101ea99989796959493929190611b50565b60405180910390f35b61020d6004803603810190610208919061174e565b611575565b005b61022960048036038101906102249190611777565b6115b9565b005b6000600560009054906101000a900473ffffffffffffffffffffffffffffffffffffffff1673ffffffffffffffffffffffffffffffffffffffff168273ffffffffffffffffffffffffffffffffffffffff1614806102d65750600660009054906101000a900473ffffffffffffffffffffffffffffffffffffffff1673ffffffffffffffffffffffffffffffffffffffff168273ffffffffffffffffffffffffffffffffffffffff16145b610315576040517f08c379a000000000000000000000000000000000000000000000000000000000815260040161030c90611d0a565b60405180910390fd5b6001600960009054906101000a900460ff16600681111561035f577f4e487b7100000000000000000000000000000000000000000000000000000000600052602160045260246000fd5b10156103a0576040517f08c379a000000000000000000000000000000000000000000000000000000000815260040161039790611caa565b60405180910390fd5b600560009054906101000a900473ffffffffffffffffffffffffffffffffffffffff1673ffffffffffffffffffffffffffffffffffffffff168273ffffffffffffffffffffffffffffffffffffffff161480156104b4575060016006811115610432577f4e487b7100000000000000000000000000000000000000000000000000000000600052602160045260246000fd5b600681111561046a577f4e487b7100000000000000000000000000000000000000000000000000000000600052602160045260246000fd5b600960009054906101000a900460ff1660068111156104b2577f4e487b7100000000000000000000000000000000000000000000000000000000600052602160045260246000fd5b145b1561066257600360068111156104f3577f4e487b7100000000000000000000000000000000000000000000000000000000600052602160045260246000fd5b600960006101000a81548160ff0219169083600681111561053d577f4e487b7100000000000000000000000000000000000000000000000000000000600052602160045260246000fd5b0217905550600560009054906101000a900473ffffffffffffffffffffffffffffffffffffffff1673ffffffffffffffffffffffffffffffffffffffff166003600160038054905061058f9190611e1c565b815481106105c6577f4e487b7100000000000000000000000000000000000000000000000000000000600052603260045260246000fd5b9060005260206000200160009054906101000a900473ffffffffffffffffffffffffffffffffffffffff1673ffffffffffffffffffffffffffffffffffffffff163073ffffffffffffffffffffffffffffffffffffffff167f7e89c4b1a4e2b51aae84eb1f90e8a34cb792ece5ac5cb63db4830c891220b28d60026003604051610651929190611c58565b60405180910390a460019050610925565b600660009054906101000a900473ffffffffffffffffffffffffffffffffffffffff1673ffffffffffffffffffffffffffffffffffffffff168273ffffffffffffffffffffffffffffffffffffffff161480156107765750600260068111156106f4577f4e487b7100000000000000000000000000000000000000000000000000000000600052602160045260246000fd5b600681111561072c577f4e487b7100000000000000000000000000000000000000000000000000000000600052602160045260246000fd5b600960009054906101000a900460ff166006811115610774577f4e487b7100000000000000000000000000000000000000000000000000000000600052602160045260246000fd5b145b1561092457600460068111156107b5577f4e487b7100000000000000000000000000000000000000000000000000000000600052602160045260246000fd5b600960006101000a81548160ff021916908360068111156107ff577f4e487b7100000000000000000000000000000000000000000000000000000000600052602160045260246000fd5b0217905550600660009054906101000a900473ffffffffffffffffffffffffffffffffffffffff1673ffffffffffffffffffffffffffffffffffffffff16600360016003805490506108519190611e1c565b81548110610888577f4e487b7100000000000000000000000000000000000000000000000000000000600052603260045260246000fd5b9060005260206000200160009054906101000a900473ffffffffffffffffffffffffffffffffffffffff1673ffffffffffffffffffffffffffffffffffffffff163073ffffffffffffffffffffffffffffffffffffffff167f7e89c4b1a4e2b51aae84eb1f90e8a34cb792ece5ac5cb63db4830c891220b28d60036004604051610913929190611c81565b60405180910390a460029050610925565b5b919050565b8073ffffffffffffffffffffffffffffffffffffffff16600660009054906101000a900473ffffffffffffffffffffffffffffffffffffffff1673ffffffffffffffffffffffffffffffffffffffff16146109ba576040517f08c379a00000000000000000000000000000000000000000000000000000000081526004016109b190611d4a565b60405180910390fd5b81600760006101000a81548173ffffffffffffffffffffffffffffffffffffffff021916908373ffffffffffffffffffffffffffffffffffffffff16021790555060056006811115610a35577f4e487b7100000000000000000000000000000000000000000000000000000000600052602160045260246000fd5b600960006101000a81548160ff02191690836006811115610a7f577f4e487b7100000000000000000000000000000000000000000000000000000000600052602160045260246000fd5b02179055505050565b8073ffffffffffffffffffffffffffffffffffffffff16600660009054906101000a900473ffffffffffffffffffffffffffffffffffffffff1673ffffffffffffffffffffffffffffffffffffffff1614610b18576040517f08c379a0000000000000000000000000000000000000000000000000000000008152600401610b0f90611d4a565b60405180910390fd5b60046006811115610b52577f4e487b7100000000000000000000000000000000000000000000000000000000600052602160045260246000fd5b600960006101000a81548160ff02191690836006811115610b9c577f4e487b7100000000000000000000000000000000000000000000000000000000600052602160045260246000fd5b021790555050565b80600660006101000a81548173ffffffffffffffffffffffffffffffffffffffff021916908373ffffffffffffffffffffffffffffffffffffffff16021790555050565b6003819080600181540180825580915050600190039060005260206000200160009091909190916101000a81548173ffffffffffffffffffffffffffffffffffffffff021916908373ffffffffffffffffffffffffffffffffffffffff16021790555050565b610c56611717565b6040518060600160405280600560009054906101000a900473ffffffffffffffffffffffffffffffffffffffff1673ffffffffffffffffffffffffffffffffffffffff1673ffffffffffffffffffffffffffffffffffffffff168152602001600660009054906101000a900473ffffffffffffffffffffffffffffffffffffffff1673ffffffffffffffffffffffffffffffffffffffff1673ffffffffffffffffffffffffffffffffffffffff168152602001600760009054906101000a900473ffffffffffffffffffffffffffffffffffffffff1673ffffffffffffffffffffffffffffffffffffffff1673ffffffffffffffffffffffffffffffffffffffff16815250905090565b60036001600380549050610d749190611e1c565b81548110610dab577f4e487b7100000000000000000000000000000000000000000000000000000000600052603260045260246000fd5b9060005260206000200160009054906101000a900473ffffffffffffffffffffffffffffffffffffffff1673ffffffffffffffffffffffffffffffffffffffff168173ffffffffffffffffffffffffffffffffffffffff1614610e43576040517f08c379a0000000000000000000000000000000000000000000000000000000008152600401610e3a90611d6a565b60405180910390fd5b60006006811115610e7d577f4e487b7100000000000000000000000000000000000000000000000000000000600052602160045260246000fd5b6006811115610eb5577f4e487b7100000000000000000000000000000000000000000000000000000000600052602160045260246000fd5b600960009054906101000a900460ff166006811115610efd577f4e487b7100000000000000000000000000000000000000000000000000000000600052602160045260246000fd5b14610f3d576040517f08c379a0000000000000000000000000000000000000000000000000000000008152600401610f3490611cca565b60405180910390fd5b600073ffffffffffffffffffffffffffffffffffffffff16600560009054906101000a900473ffffffffffffffffffffffffffffffffffffffff1673ffffffffffffffffffffffffffffffffffffffff16146110c25760016006811115610fcd577f4e487b7100000000000000000000000000000000000000000000000000000000600052602160045260246000fd5b600960006101000a81548160ff02191690836006811115611017577f4e487b7100000000000000000000000000000000000000000000000000000000600052602160045260246000fd5b0217905550600560009054906101000a900473ffffffffffffffffffffffffffffffffffffffff1673ffffffffffffffffffffffffffffffffffffffff168173ffffffffffffffffffffffffffffffffffffffff163073ffffffffffffffffffffffffffffffffffffffff167f7e89c4b1a4e2b51aae84eb1f90e8a34cb792ece5ac5cb63db4830c891220b28d6001806040516110b5929190611c06565b60405180910390a46111ee565b600260068111156110fc577f4e487b7100000000000000000000000000000000000000000000000000000000600052602160045260246000fd5b600960006101000a81548160ff02191690836006811115611146577f4e487b7100000000000000000000000000000000000000000000000000000000600052602160045260246000fd5b0217905550600660009054906101000a900473ffffffffffffffffffffffffffffffffffffffff1673ffffffffffffffffffffffffffffffffffffffff168173ffffffffffffffffffffffffffffffffffffffff163073ffffffffffffffffffffffffffffffffffffffff167f7e89c4b1a4e2b51aae84eb1f90e8a34cb792ece5ac5cb63db4830c891220b28d600160026040516111e5929190611c2f565b60405180910390a45b50565b8073ffffffffffffffffffffffffffffffffffffffff16600760009054906101000a900473ffffffffffffffffffffffffffffffffffffffff1673ffffffffffffffffffffffffffffffffffffffff1614611281576040517f08c379a000000000000000000000000000000000000000000000000000000000815260040161127890611cea565b60405180910390fd5b6006808111156112ba577f4e487b7100000000000000000000000000000000000000000000000000000000600052602160045260246000fd5b600960006101000a81548160ff02191690836006811115611304577f4e487b7100000000000000000000000000000000000000000000000000000000600052602160045260246000fd5b021790555050565b6000600960009054906101000a900460ff166006811115611356577f4e487b7100000000000000000000000000000000000000000000000000000000600052602160045260246000fd5b905090565b600080606060006060600080600080600460009054906101000a900473ffffffffffffffffffffffffffffffffffffffff1660015460026008546003600660009054906101000a900473ffffffffffffffffffffffffffffffffffffffff16600960009054906101000a900460ff166006811115611402577f4e487b7100000000000000000000000000000000000000000000000000000000600052602160045260246000fd5b600960019054906101000a900473ffffffffffffffffffffffffffffffffffffffff16600560009054906101000a900473ffffffffffffffffffffffffffffffffffffffff16868054806020026020016040519081016040528092919081815260200182805480156114c957602002820191906000526020600020905b8160009054906101000a900473ffffffffffffffffffffffffffffffffffffffff1673ffffffffffffffffffffffffffffffffffffffff168152602001906001019080831161147f575b505050505096508480548060200260200160405190810160405280929190818152602001828054801561155157602002820191906000526020600020905b8160009054906101000a900473ffffffffffffffffffffffffffffffffffffffff1673ffffffffffffffffffffffffffffffffffffffff1681526020019060010190808311611507575b50505050509450985098509850985098509850985098509850909192939495969798565b80600560006101000a81548173ffffffffffffffffffffffffffffffffffffffff021916908373ffffffffffffffffffffffffffffffffffffffff16021790555050565b8073ffffffffffffffffffffffffffffffffffffffff16600560009054906101000a900473ffffffffffffffffffffffffffffffffffffffff1673ffffffffffffffffffffffffffffffffffffffff1614611649576040517f08c379a000000000000000000000000000000000000000000000000000000000815260040161164090611d2a565b60405180910390fd5b81600660006101000a81548173ffffffffffffffffffffffffffffffffffffffff021916908373ffffffffffffffffffffffffffffffffffffffff160217905550600260068111156116c4577f4e487b7100000000000000000000000000000000000000000000000000000000600052602160045260246000fd5b600960006101000a81548160ff0219169083600681111561170e577f4e487b7100000000000000000000000000000000000000000000000000000000600052602160045260246000fd5b02179055505050565b6040518060600160405280600390602082028036833780820191505090505090565b60008135905061174881611f0d565b92915050565b60006020828403121561176057600080fd5b600061176e84828501611739565b91505092915050565b6000806040838503121561178a57600080fd5b600061179885828601611739565b92505060206117a985828601611739565b9150509250929050565b60006117bf83836117cb565b60208301905092915050565b6117d481611e50565b82525050565b6117e381611e50565b82525050565b6117f281611dbf565b6117fc8184611def565b925061180782611da5565b8060005b8381101561183857815161181f87826117b3565b965061182a83611dd5565b92505060018101905061180b565b505050505050565b600061184b82611dca565b6118558185611dfa565b935061186083611daf565b8060005b8381101561189157815161187888826117b3565b975061188383611de2565b925050600181019050611864565b5085935050505092915050565b6118a781611e62565b82525050565b6118b681611e96565b82525050565b6118c581611ea8565b82525050565b6118d481611eba565b82525050565b6118e381611ecc565b82525050565b60006118f6601983611e0b565b91507f50726f64756374206e6f74207069636b656420757020796574000000000000006000830152602082019050919050565b6000611936602083611e0b565b91507f5061636b616765206d757374206265206174204d616e7566616374757265722e6000830152602082019050919050565b6000611976602083611e0b565b91507f5468697320437573746f6d6572206973206e6f74204173736f6369617465642e6000830152602082019050919050565b60006119b6603583611e0b565b91507f4f6e6c792057686f6c6573616c6572206f72204469737472696275746f72206360008301527f616e2063616c6c20746869732066756e6374696f6e00000000000000000000006020830152604082019050919050565b6000611a1c602283611e0b565b91507f746869732057686f6c6573616c6572206973206e6f74204173736f636961746560008301527f642e0000000000000000000000000000000000000000000000000000000000006020830152604082019050919050565b6000611a82602383611e0b565b91507f54686973204469737472696275746f72206973206e6f74204173736f6369617460008301527f65642e00000000000000000000000000000000000000000000000000000000006020830152604082019050919050565b6000611ae8602783611e0b565b91507f4f6e6c79205472616e73706f727465722063616e2063616c6c2074686973206660008301527f756e6374696f6e000000000000000000000000000000000000000000000000006020830152604082019050919050565b611b4a81611e8c565b82525050565b600061012082019050611b66600083018c6117da565b611b73602083018b61189e565b8181036040830152611b85818a611840565b9050611b946060830189611b41565b8181036080830152611ba68188611840565b9050611bb560a08301876117da565b611bc260c0830186611b41565b611bcf60e08301856117da565b611bdd6101008301846117da565b9a9950505050505050505050565b6000606082019050611c0060008301846117e9565b92915050565b6000604082019050611c1b60008301856118ad565b611c2860208301846118ad565b9392505050565b6000604082019050611c4460008301856118ad565b611c5160208301846118bc565b9392505050565b6000604082019050611c6d60008301856118bc565b611c7a60208301846118cb565b9392505050565b6000604082019050611c9660008301856118cb565b611ca360208301846118da565b9392505050565b60006020820190508181036000830152611cc3816118e9565b9050919050565b60006020820190508181036000830152611ce381611929565b9050919050565b60006020820190508181036000830152611d0381611969565b9050919050565b60006020820190508181036000830152611d23816119a9565b9050919050565b60006020820190508181036000830152611d4381611a0f565b9050919050565b60006020820190508181036000830152611d6381611a75565b9050919050565b60006020820190508181036000830152611d8381611adb565b9050919050565b6000602082019050611d9f6000830184611b41565b92915050565b6000819050919050565b6000819050602082019050919050565b600060039050919050565b600081519050919050565b6000602082019050919050565b6000602082019050919050565b600081905092915050565b600082825260208201905092915050565b600082825260208201905092915050565b6000611e2782611e8c565b9150611e3283611e8c565b925082821015611e4557611e44611ede565b5b828203905092915050565b6000611e5b82611e6c565b9050919050565b6000819050919050565b600073ffffffffffffffffffffffffffffffffffffffff82169050919050565b6000819050919050565b6000611ea182611e8c565b9050919050565b6000611eb382611e8c565b9050919050565b6000611ec582611e8c565b9050919050565b6000611ed782611e8c565b9050919050565b7f4e487b7100000000000000000000000000000000000000000000000000000000600052601160045260246000fd5b611f1681611e50565b8114611f2157600080fd5b5056fea2646970667358221220d3743b0b1c4cb0314bf2a3c1869491161cb57f7ed2b68a054b39909e5626939d64736f6c63430008000033608060405260006002553480156200001657600080fd5b50604051620014343803806200143483398181016040528101906200003c91906200009a565b806000806101000a81548173ffffffffffffffffffffffffffffffffffffffff021916908373ffffffffffffffffffffffffffffffffffffffff1602179055505062000114565b6000815190506200009481620000fa565b92915050565b600060208284031215620000ad57600080fd5b6000620000bd8482850162000083565b91505092915050565b6000620000d382620000da565b9050919050565b600073ffffffffffffffffffffffffffffffffffffffff82169050919050565b6200010581620000c6565b81146200011157600080fd5b50565b61131080620001246000396000f3fe608060405234801561001057600080fd5b50600436106100575760003560e01c806318bee97e1461005c57806327506f531461007a5780633626a3681461009857806378ce1365146100b45780639ace38c2146100d2575b600080fd5b610064610108565b6040516100719190610e31565b60405180910390f35b61008261012c565b60405161008f9190610e4c565b60405180910390f35b6100b260048036038101906100ad9190610b17565b61042a565b005b6100bc6107c6565b6040516100c99190610f88565b60405180910390f35b6100ec60048036038101906100e79190610bd0565b6107cc565b6040516100ff9796959493929190610e6e565b60405180910390f35b60008054906101000a900473ffffffffffffffffffffffffffffffffffffffff1681565b60606000600254905060008167ffffffffffffffff811115610177577f4e487b7100000000000000000000000000000000000000000000000000000000600052604160045260246000fd5b6040519080825280602002602001820160405280156101b057816020015b61019d61095e565b8152602001906001900390816101955790505b50905060005b8281101561042157600160008281526020019081526020016000206040518060e0016040529081600082015481526020016001820160009054906101000a900473ffffffffffffffffffffffffffffffffffffffff1673ffffffffffffffffffffffffffffffffffffffff1673ffffffffffffffffffffffffffffffffffffffff1681526020016002820160009054906101000a900473ffffffffffffffffffffffffffffffffffffffff1673ffffffffffffffffffffffffffffffffffffffff1673ffffffffffffffffffffffffffffffffffffffff168152602001600382015481526020016004820180546102ac9061117c565b80601f01602080910402602001604051908101604052809291908181526020018280546102d89061117c565b80156103255780601f106102fa57610100808354040283529160200191610325565b820191906000526020600020905b81548152906001019060200180831161030857829003601f168201915b5050505050815260200160058201805461033e9061117c565b80601f016020809104026020016040519081016040528092919081815260200182805461036a9061117c565b80156103b75780601f1061038c576101008083540402835291602001916103b7565b820191906000526020600020905b81548152906001019060200180831161039a57829003601f168201915b50505050508152602001600682015481525050828281518110610403577f4e487b7100000000000000000000000000000000000000000000000000000000600052603260045260246000fd5b60200260200101819052508080610419906111ae565b9150506101b6565b50809250505090565b60004290506000600254141561059c576040518060e001604052808881526020018773ffffffffffffffffffffffffffffffffffffffff1681526020018673ffffffffffffffffffffffffffffffffffffffff168152602001858152602001848152602001838152602001828152506001600060025481526020019081526020016000206000820151816000015560208201518160010160006101000a81548173ffffffffffffffffffffffffffffffffffffffff021916908373ffffffffffffffffffffffffffffffffffffffff16021790555060408201518160020160006101000a81548173ffffffffffffffffffffffffffffffffffffffff021916908373ffffffffffffffffffffffffffffffffffffffff16021790555060608201518160030155608082015181600401908051906020019061056c9291906109cd565b5060a08201518160050190805190602001906105899291906109cd565b5060c08201518160060155905050610760565b836001600060016002546105b091906110c0565b81526020019081526020016000206000015414610602576040517f08c379a00000000000000000000000000000000000000000000000000000000081526004016105f990610f68565b60405180910390fd5b6040518060e001604052808881526020018773ffffffffffffffffffffffffffffffffffffffff1681526020018673ffffffffffffffffffffffffffffffffffffffff168152602001858152602001848152602001838152602001828152506001600060025481526020019081526020016000206000820151816000015560208201518160010160006101000a81548173ffffffffffffffffffffffffffffffffffffffff021916908373ffffffffffffffffffffffffffffffffffffffff16021790555060408201518160020160006101000a81548173ffffffffffffffffffffffffffffffffffffffff021916908373ffffffffffffffffffffffffffffffffffffffff1602179055506060820151816003015560808201518160040190805190602001906107349291906109cd565b5060a08201518160050190805190602001906107519291906109cd565b5060c082015181600601559050505b600160026000828254610773919061106a565b925050819055507fe8fdde79d5c50584882865d04c966eb4120c519359629c763d4a432470e7a94a878787878588886040516107b59796959493929190610eeb565b60405180910390a150505050505050565b60025481565b60016020528060005260406000206000915090508060000154908060010160009054906101000a900473ffffffffffffffffffffffffffffffffffffffff16908060020160009054906101000a900473ffffffffffffffffffffffffffffffffffffffff16908060030154908060040180546108479061117c565b80601f01602080910402602001604051908101604052809291908181526020018280546108739061117c565b80156108c05780601f10610895576101008083540402835291602001916108c0565b820191906000526020600020905b8154815290600101906020018083116108a357829003601f168201915b5050505050908060050180546108d59061117c565b80601f01602080910402602001604051908101604052809291908181526020018280546109019061117c565b801561094e5780601f106109235761010080835404028352916020019161094e565b820191906000526020600020905b81548152906001019060200180831161093157829003601f168201915b5050505050908060060154905087565b6040518060e0016040528060008019168152602001600073ffffffffffffffffffffffffffffffffffffffff168152602001600073ffffffffffffffffffffffffffffffffffffffff168152602001600080191681526020016060815260200160608152602001600081525090565b8280546109d99061117c565b90600052602060002090601f0160209004810192826109fb5760008555610a42565b82601f10610a1457805160ff1916838001178555610a42565b82800160010185558215610a42579182015b82811115610a41578251825591602001919060010190610a26565b5b509050610a4f9190610a53565b5090565b5b80821115610a6c576000816000905550600101610a54565b5090565b6000610a83610a7e84610fd4565b610fa3565b905082815260208101848484011115610a9b57600080fd5b610aa684828561113a565b509392505050565b600081359050610abd81611295565b92915050565b600081359050610ad2816112ac565b92915050565b600082601f830112610ae957600080fd5b8135610af9848260208601610a70565b91505092915050565b600081359050610b11816112c3565b92915050565b60008060008060008060c08789031215610b3057600080fd5b6000610b3e89828a01610ac3565b9650506020610b4f89828a01610aae565b9550506040610b6089828a01610aae565b9450506060610b7189828a01610ac3565b935050608087013567ffffffffffffffff811115610b8e57600080fd5b610b9a89828a01610ad8565b92505060a087013567ffffffffffffffff811115610bb757600080fd5b610bc389828a01610ad8565b9150509295509295509295565b600060208284031215610be257600080fd5b6000610bf084828501610b02565b91505092915050565b6000610c058383610d70565b905092915050565b610c16816110f4565b82525050565b610c25816110f4565b82525050565b6000610c3682611014565b610c408185611037565b935083602082028501610c5285611004565b8060005b85811015610c8e5784840389528151610c6f8582610bf9565b9450610c7a8361102a565b925060208a01995050600181019050610c56565b50829750879550505050505092915050565b610ca981611106565b82525050565b610cb881611106565b82525050565b6000610cc98261101f565b610cd38185611048565b9350610ce3818560208601611149565b610cec81611284565b840191505092915050565b6000610d028261101f565b610d0c8185611059565b9350610d1c818560208601611149565b610d2581611284565b840191505092915050565b6000610d3d601b83611059565b91507f5472616e73616374696f6e206572726f72206f636375727265642100000000006000830152602082019050919050565b600060e083016000830151610d886000860182610ca0565b506020830151610d9b6020860182610c0d565b506040830151610dae6040860182610c0d565b506060830151610dc16060860182610ca0565b5060808301518482036080860152610dd98282610cbe565b91505060a083015184820360a0860152610df38282610cbe565b91505060c0830151610e0860c0860182610e13565b508091505092915050565b610e1c81611130565b82525050565b610e2b81611130565b82525050565b6000602082019050610e466000830184610c1c565b92915050565b60006020820190508181036000830152610e668184610c2b565b905092915050565b600060e082019050610e83600083018a610caf565b610e906020830189610c1c565b610e9d6040830188610c1c565b610eaa6060830187610caf565b8181036080830152610ebc8186610cf7565b905081810360a0830152610ed08185610cf7565b9050610edf60c0830184610e22565b98975050505050505050565b600060e082019050610f00600083018a610caf565b610f0d6020830189610c1c565b610f1a6040830188610c1c565b610f276060830187610caf565b610f346080830186610e22565b81810360a0830152610f468185610cf7565b905081810360c0830152610f5a8184610cf7565b905098975050505050505050565b60006020820190508181036000830152610f8181610d30565b9050919050565b6000602082019050610f9d6000830184610e22565b92915050565b6000604051905081810181811067ffffffffffffffff82111715610fca57610fc9611255565b5b8060405250919050565b600067ffffffffffffffff821115610fef57610fee611255565b5b601f19601f8301169050602081019050919050565b6000819050602082019050919050565b600081519050919050565b600081519050919050565b6000602082019050919050565b600082825260208201905092915050565b600082825260208201905092915050565b600082825260208201905092915050565b600061107582611130565b915061108083611130565b9250827fffffffffffffffffffffffffffffffffffffffffffffffffffffffffffffffff038211156110b5576110b46111f7565b5b828201905092915050565b60006110cb82611130565b91506110d683611130565b9250828210156110e9576110e86111f7565b5b828203905092915050565b60006110ff82611110565b9050919050565b6000819050919050565b600073ffffffffffffffffffffffffffffffffffffffff82169050919050565b6000819050919050565b82818337600083830152505050565b60005b8381101561116757808201518184015260208101905061114c565b83811115611176576000848401525b50505050565b6000600282049050600182168061119457607f821691505b602082108114156111a8576111a7611226565b5b50919050565b60006111b982611130565b91507fffffffffffffffffffffffffffffffffffffffffffffffffffffffffffffffff8214156111ec576111eb6111f7565b5b600182019050919050565b7f4e487b7100000000000000000000000000000000000000000000000000000000600052601160045260246000fd5b7f4e487b7100000000000000000000000000000000000000000000000000000000600052602260045260246000fd5b7f4e487b7100000000000000000000000000000000000000000000000000000000600052604160045260246000fd5b6000601f19601f8301169050919050565b61129e816110f4565b81146112a957600080fd5b50565b6112b581611106565b81146112c057600080fd5b50565b6112cc81611130565b81146112d757600080fd5b5056fea2646970667358221220f99e552f867aebe41b13813854daa3c826a1af13846b898f3eab70393e2d1fe464736f6c63430008000033",
  "immutableReferences": {},
  "source": "// SPDX-License-Identifier: MIT\r\n\r\n// pragma solidity >=0.6.6 <=0.8.23;\r\n\r\npragma solidity ^0.8.0;\r\n\r\nimport './Transactions.sol';\r\n\r\ncontract Medicine {\r\n\r\n    address Owner;\r\n\r\n    enum medicineStatus {\r\n        atManufacturer,\r\n        pickedForW,\r\n        pickedForD,\r\n        deliveredAtW,\r\n        deliveredAtD,\r\n        pickedForC,\r\n        deliveredAtC\r\n    }\r\n\r\n    bytes32 description;\r\n    address[] rawMaterials;\r\n    address[] transporters;\r\n    address manufacturer;\r\n    address wholesaler;\r\n    address distributor;\r\n    address customer;\r\n    uint quantity;\r\n    medicineStatus status;\r\n    address txnContractAddress;\r\n\r\n    event ShippmentUpdate(\r\n        address indexed BatchID,\r\n        address indexed Shipper,\r\n        address indexed Receiver,\r\n        uint TransporterType,\r\n        uint Status\r\n    );\r\n\r\n\r\n    constructor(\r\n        address _manufacturerAddr,\r\n        bytes32 _description,\r\n        address[] memory _rawAddr,\r\n        uint _quantity,\r\n        address[] memory _transporterAddr\r\n    ) public {\r\n        Owner = _manufacturerAddr;\r\n        manufacturer = _manufacturerAddr;\r\n        description = _description;\r\n        rawMaterials = _rawAddr;\r\n        quantity = _quantity;\r\n        transporters = _transporterAddr;\r\n        wholesaler = address(0x0);\r\n        distributor = address(0x0);\r\n        status = medicineStatus(0);\r\n        Transactions txnContract = new Transactions(_manufacturerAddr);\r\n        txnContractAddress = address(txnContract);\r\n    }\r\n\r\n\r\n    function getMedicineInfo () public view returns(\r\n        address _manufacturerAddr,\r\n        bytes32 _description,\r\n        address[] memory _rawAddr,\r\n        uint _quantity,\r\n        address[] memory _transporterAddr,\r\n        address _distributor,\r\n        uint _status,\r\n        address _txnContract,\r\n        address _wholesaler\r\n    ) {\r\n        return(\r\n            manufacturer,\r\n            description,\r\n            rawMaterials,\r\n            quantity,\r\n            transporters,\r\n            distributor,\r\n            uint(status),\r\n            txnContractAddress,\r\n            wholesaler\r\n        );\r\n    }\r\n\r\n \r\n    function getWDC() public view returns(\r\n        address[3] memory WDP\r\n    ) {\r\n        return (\r\n            [wholesaler, distributor, customer]\r\n        );\r\n    }\r\n\r\n    function getBatchIDStatus() public view returns(\r\n        uint\r\n    ) {\r\n        return uint(status);\r\n    }\r\n\r\n\r\n    function pickMedicine(\r\n        address _transporterAddr\r\n    ) public {\r\n        require(\r\n            _transporterAddr == transporters[transporters.length - 1],\r\n            \"Only Transporter can call this function\"\r\n        );\r\n        require(\r\n            status == medicineStatus(0),\r\n            \"Package must be at Manufacturer.\"\r\n        );\r\n\r\n        if(wholesaler != address(0x0)){\r\n            status = medicineStatus(1);\r\n            emit ShippmentUpdate(address(this), _transporterAddr, wholesaler, 1, 1);\r\n        }else{\r\n            status = medicineStatus(2);\r\n            emit ShippmentUpdate(address(this), _transporterAddr, distributor, 1, 2);\r\n        }\r\n    }\r\n    \r\n    function updateTransporterArray(address _transporterAddr) public {\r\n        transporters.push(_transporterAddr);\r\n    }\r\n\r\n    function updateWholesalerAddress(address addr) public {\r\n        wholesaler = addr;\r\n    }\r\n\r\n    function updateDistributorAddress(address addr) public {\r\n        distributor = addr;\r\n    }\r\n\r\n    function receivedMedicine(\r\n        address _receiverAddr\r\n    ) public returns(uint) {\r\n\r\n        require(\r\n            _receiverAddr == wholesaler || _receiverAddr == distributor,\r\n            \"Only Wholesaler or Distributor can call this function\"\r\n        );\r\n\r\n        require(\r\n            uint(status) >= 1,\r\n            \"Product not picked up yet\"\r\n        );\r\n\r\n        if(_receiverAddr == wholesaler && status == medicineStatus(1)){\r\n            status = medicineStatus(3);\r\n            emit ShippmentUpdate(address(this), transporters[transporters.length - 1], wholesaler, 2, 3);\r\n            return 1;\r\n        } else if(_receiverAddr == distributor && status == medicineStatus(2)){\r\n            status = medicineStatus(4);\r\n            emit ShippmentUpdate(address(this), transporters[transporters.length - 1], distributor,3, 4);\r\n            return 2;\r\n        }\r\n    }\r\n\r\n\r\n    function sendWtoD(\r\n        address receiver,\r\n        address sender\r\n    ) public {\r\n        require(\r\n            wholesaler == sender,\r\n            \"this Wholesaler is not Associated.\"\r\n        );\r\n        distributor = receiver;\r\n        status = medicineStatus(2);\r\n    }\r\n\r\n\r\n    function receivedWtoD(\r\n        address receiver\r\n    ) public {\r\n        require(\r\n            distributor == receiver,\r\n            \"This Distributor is not Associated.\"\r\n        );\r\n        status = medicineStatus(4);\r\n    }\r\n\r\n\r\n    function sendDtoC(\r\n        address receiver,\r\n        address sender\r\n    ) public {\r\n        require(\r\n            distributor == sender,\r\n            \"This Distributor is not Associated.\"\r\n        );\r\n        customer = receiver;\r\n        status = medicineStatus(5);\r\n    }\r\n\r\n\r\n    function receivedDtoC(\r\n        address receiver\r\n    ) public {\r\n        require(\r\n            customer == receiver,\r\n            \"This Customer is not Associated.\"\r\n        );\r\n        status = medicineStatus(6);\r\n    }\r\n}",
  "sourcePath": "D:\\ACTIVITY\\SEM 8\\0. SKRIPSI\\REF\\WEB\\alkes-blockchain\\contracts\\Medicine.sol",
  "compiler": {
    "name": "solc",
    "version": "0.8.0+commit.c7dfd78e.Emscripten.clang"
  },
  "schemaVersion": "3.4.16",
  "updatedAt": "2023-11-28T16:26:59.283Z",
  "devdoc": {
    "kind": "dev",
    "methods": {},
    "version": 1
  },
  "userdoc": {
    "kind": "user",
    "methods": {},
    "version": 1
  }
}