{
  "contractName": "MedicineD_C",
  "abi": [
    {
      "inputs": [
        {
          "internalType": "address",
          "name": "_address",
          "type": "address"
        },
        {
          "internalType": "address",
          "name": "Sender",
          "type": "address"
        },
        {
          "internalType": "address",
          "name": "Transporter",
          "type": "address"
        },
        {
          "internalType": "address",
          "name": "Receiver",
          "type": "address"
        }
      ],
      "stateMutability": "nonpayable",
      "type": "constructor"
    },
    {
      "inputs": [
        {
          "internalType": "address",
          "name": "_address",
          "type": "address"
        },
        {
          "internalType": "address",
          "name": "transporterAddr",
          "type": "address"
        }
      ],
      "name": "pickDC",
      "outputs": [],
      "stateMutability": "nonpayable",
      "type": "function"
    },
    {
      "inputs": [
        {
          "internalType": "address",
          "name": "_address",
          "type": "address"
        },
        {
          "internalType": "address",
          "name": "Receiver",
          "type": "address"
        }
      ],
      "name": "receiveDC",
      "outputs": [],
      "stateMutability": "nonpayable",
      "type": "function"
    },
    {
      "inputs": [],
      "name": "get_addressStatus",
      "outputs": [
        {
          "internalType": "uint256",
          "name": "",
          "type": "uint256"
        }
      ],
      "stateMutability": "view",
      "type": "function"
    }
  ],
  "bytecode": "0x608060405234801561001057600080fd5b5060405161098c38038061098c8339818101604052810190610032919061021d565b826000806101000a81548173ffffffffffffffffffffffffffffffffffffffff021916908373ffffffffffffffffffffffffffffffffffffffff16021790555083600160006101000a81548173ffffffffffffffffffffffffffffffffffffffff021916908373ffffffffffffffffffffffffffffffffffffffff16021790555082600260006101000a81548173ffffffffffffffffffffffffffffffffffffffff021916908373ffffffffffffffffffffffffffffffffffffffff16021790555081600360006101000a81548173ffffffffffffffffffffffffffffffffffffffff021916908373ffffffffffffffffffffffffffffffffffffffff16021790555080600460006101000a81548173ffffffffffffffffffffffffffffffffffffffff021916908373ffffffffffffffffffffffffffffffffffffffff160217905550600060028111156101b0577f4e487b7100000000000000000000000000000000000000000000000000000000600052602160045260246000fd5b600460146101000a81548160ff021916908360028111156101fa577f4e487b7100000000000000000000000000000000000000000000000000000000600052602160045260246000fd5b0217905550505050506102c9565b600081519050610217816102b2565b92915050565b6000806000806080858703121561023357600080fd5b600061024187828801610208565b945050602061025287828801610208565b935050604061026387828801610208565b925050606061027487828801610208565b91505092959194509250565b600061028b82610292565b9050919050565b600073ffffffffffffffffffffffffffffffffffffffff82169050919050565b6102bb81610280565b81146102c657600080fd5b50565b6106b4806102d86000396000f3fe608060405234801561001057600080fd5b50600436106100415760003560e01c806353157b1a14610046578063c0114d0614610062578063f7addc3e14610080575b600080fd5b610060600480360381019061005b9190610455565b61009c565b005b61006a61026a565b60405161007791906105ff565b60405180910390f35b61009a60048036038101906100959190610455565b6102b9565b005b8073ffffffffffffffffffffffffffffffffffffffff16600360009054906101000a900473ffffffffffffffffffffffffffffffffffffffff1673ffffffffffffffffffffffffffffffffffffffff161461012c576040517f08c379a0000000000000000000000000000000000000000000000000000000008152600401610123906105bf565b60405180910390fd5b60016002811115610166577f4e487b7100000000000000000000000000000000000000000000000000000000600052602160045260246000fd5b600460146101000a81548160ff021916908360028111156101b0577f4e487b7100000000000000000000000000000000000000000000000000000000600052602160045260246000fd5b02179055508173ffffffffffffffffffffffffffffffffffffffff16632f1d7588600460009054906101000a900473ffffffffffffffffffffffffffffffffffffffff16600260009054906101000a900473ffffffffffffffffffffffffffffffffffffffff166040518363ffffffff1660e01b8152600401610234929190610596565b600060405180830381600087803b15801561024e57600080fd5b505af1158015610262573d6000803e3d6000fd5b505050505050565b6000600460149054906101000a900460ff1660028111156102b4577f4e487b7100000000000000000000000000000000000000000000000000000000600052602160045260246000fd5b905090565b600460009054906101000a900473ffffffffffffffffffffffffffffffffffffffff1673ffffffffffffffffffffffffffffffffffffffff168173ffffffffffffffffffffffffffffffffffffffff1614610349576040517f08c379a0000000000000000000000000000000000000000000000000000000008152600401610340906105df565b60405180910390fd5b600280811115610382577f4e487b7100000000000000000000000000000000000000000000000000000000600052602160045260246000fd5b600460146101000a81548160ff021916908360028111156103cc577f4e487b7100000000000000000000000000000000000000000000000000000000600052602160045260246000fd5b02179055508173ffffffffffffffffffffffffffffffffffffffff1663c8f5f189826040518263ffffffff1660e01b815260040161040a919061057b565b600060405180830381600087803b15801561042457600080fd5b505af1158015610438573d6000803e3d6000fd5b505050505050565b60008135905061044f81610667565b92915050565b6000806040838503121561046857600080fd5b600061047685828601610440565b925050602061048785828601610440565b9150509250929050565b61049a8161062b565b82525050565b60006104ad60338361061a565b91507f4f6e6c79204173736f636961746564207472616e73706f727465722063616e2060008301527f63616c6c20746869732066756e6374696f6e2e000000000000000000000000006020830152604082019050919050565b600061051360308361061a565b91507f4f6e6c79204173736f6369617465642072656365697665722063616e2063616c60008301527f6c20746869732066756e6374696f6e2e000000000000000000000000000000006020830152604082019050919050565b6105758161065d565b82525050565b60006020820190506105906000830184610491565b92915050565b60006040820190506105ab6000830185610491565b6105b86020830184610491565b9392505050565b600060208201905081810360008301526105d8816104a0565b9050919050565b600060208201905081810360008301526105f881610506565b9050919050565b6000602082019050610614600083018461056c565b92915050565b600082825260208201905092915050565b60006106368261063d565b9050919050565b600073ffffffffffffffffffffffffffffffffffffffff82169050919050565b6000819050919050565b6106708161062b565b811461067b57600080fd5b5056fea264697066735822122051ba2037a2983148ccd08842b6f0737b9e8db845d6747363e5669748735502a964736f6c63430008000033",
  "immutableReferences": {},
  "source": "// SPDX-License-Identifier: MIT\r\n// pragma solidity >=0.6.6 <=0.8.23;\r\n\r\npragma solidity ^0.8.0;\r\n\r\nimport './Medicine.sol';\r\n\r\ncontract MedicineD_C {\r\n\r\n    address Owner;\r\n\r\n    enum packageStatus { atcreator, picked, delivered }\r\n\r\n    address medAddr;\r\n    address sender;\r\n    address transporter;\r\n    address receiver;\r\n    packageStatus status;\r\n\r\n    constructor(\r\n        address _address,\r\n        address Sender,\r\n        address Transporter,\r\n        address Receiver\r\n    ) public {\r\n        Owner = Sender;\r\n        medAddr = _address;\r\n        sender = Sender;\r\n        transporter = Transporter;\r\n        receiver = Receiver;\r\n        status = packageStatus(0);\r\n    }\r\n\r\n    function pickDC(\r\n        address _address,\r\n        address transporterAddr\r\n    ) public {\r\n        require(\r\n            transporter == transporterAddr,\r\n            \"Only Associated transporter can call this function.\"\r\n        );\r\n        status = packageStatus(1);\r\n\r\n        Medicine(_address).sendDtoC(\r\n            receiver,\r\n            sender\r\n        );\r\n    }\r\n\r\n\r\n    function receiveDC(\r\n        address _address,\r\n        address Receiver\r\n    ) public {\r\n        require(\r\n            Receiver == receiver,\r\n            \"Only Associated receiver can call this function.\"\r\n        );\r\n        status = packageStatus(2);\r\n        Medicine(_address).receivedDtoC(\r\n            Receiver\r\n        );\r\n    }\r\n\r\n    function get_addressStatus() public view returns(\r\n        uint\r\n    ) {\r\n        return uint(status);\r\n    }\r\n\r\n}",
  "sourcePath": "D:\\ACTIVITY\\SEM 8\\0. SKRIPSI\\REF\\WEB\\alkes-blockchain\\contracts\\MedicineD_C.sol",
  "compiler": {
    "name": "solc",
    "version": "0.8.0+commit.c7dfd78e.Emscripten.clang"
  },
  "schemaVersion": "3.4.16",
  "updatedAt": "2023-11-29T16:33:11.948Z",
  "devdoc": {
    "kind": "dev",
    "methods": {},
    "version": 1
  },
  "userdoc": {
    "kind": "user",
    "methods": {},
    "version": 1
  }
}