{
  "contractName": "MedicineW_D",
  "abi": [
    {
      "inputs": [
        {
          "internalType": "address",
          "name": "_address",
          "type": "address"
        },
        {
          "internalType": "address",
          "name": "Sender",
          "type": "address"
        },
        {
          "internalType": "address",
          "name": "Transporter",
          "type": "address"
        },
        {
          "internalType": "address",
          "name": "Receiver",
          "type": "address"
        }
      ],
      "stateMutability": "nonpayable",
      "type": "constructor"
    },
    {
      "inputs": [
        {
          "internalType": "address",
          "name": "_address",
          "type": "address"
        },
        {
          "internalType": "address",
          "name": "_transporter",
          "type": "address"
        }
      ],
      "name": "pickWD",
      "outputs": [],
      "stateMutability": "nonpayable",
      "type": "function"
    },
    {
      "inputs": [
        {
          "internalType": "address",
          "name": "_address",
          "type": "address"
        },
        {
          "internalType": "address",
          "name": "Receiver",
          "type": "address"
        }
      ],
      "name": "receiveWD",
      "outputs": [],
      "stateMutability": "nonpayable",
      "type": "function"
    },
    {
      "inputs": [],
      "name": "getBatchIDStatus",
      "outputs": [
        {
          "internalType": "uint256",
          "name": "",
          "type": "uint256"
        }
      ],
      "stateMutability": "view",
      "type": "function"
    }
  ],
  "bytecode": "0x608060405234801561001057600080fd5b506040516103b83803806103b88339818101604052608081101561003357600080fd5b50805160208201516040830151606090930151600080546001600160a01b03199081166001600160a01b03948516908117835560018054831696861696909617909555600280548216909517909455600380548516958416959095179094556004805490931691161760ff60a01b191690556103039081906100b590396000f3fe608060405234801561001057600080fd5b50600436106100415760003560e01c8063443c28d814610046578063d2f3fcc714610076578063d7dcbe3b14610090575b600080fd5b6100746004803603604081101561005c57600080fd5b506001600160a01b03813581169160200135166100be565b005b61007e610190565b60408051918252519081900360200190f35b610074600480360360408110156100a657600080fd5b506001600160a01b03813581169160200135166101b0565b6003546001600160a01b0382811691161461010a5760405162461bcd60e51b815260040180806020018281038252602f81526020018061029f602f913960400191505060405180910390fd5b6004805460ff60a01b1916600160a01b178082556002546040805163f5c0e38360e01b81526001600160a01b03938416948101949094529082166024840152519084169163f5c0e38391604480830192600092919082900301818387803b15801561017457600080fd5b505af1158015610188573d6000803e3d6000fd5b505050505050565b600454600090600160a01b900460ff1660028111156101ab57fe5b905090565b6004546001600160a01b038281169116146101fc5760405162461bcd60e51b815260040180806020018281038252603081526020018061026f6030913960400191505060405180910390fd5b600480546002919060ff60a01b1916600160a01b830217905550816001600160a01b03166393a668b7826040518263ffffffff1660e01b815260040180826001600160a01b03166001600160a01b03168152602001915050600060405180830381600087803b15801561017457600080fdfe4f6e6c79204173736f6369617465642072656365697665722063616e2063616c6c20746869732066756e6374696f6e2e4f6e6c79204173736f63696174656420736869707065722063616e2063616c6c20746869732066756e6374696f6e2ea264697066735822122063fd754ea96d05f187220e02f869bb0fb7b8a5a533e79960a9271d185d2d225864736f6c63430006060033",
  "immutableReferences": {},
  "source": "// SPDX-License-Identifier: MIT\r\npragma solidity >=0.6.6 <=0.8.23;\r\n\r\nimport './Medicine.sol';\r\n\r\ncontract MedicineW_D {\r\n\r\n    address Owner;\r\n\r\n    enum packageStatus { atcreator, picked, delivered }\r\n\r\n    address medId;\r\n    address sender;\r\n    address transporter;\r\n    address receiver;\r\n    packageStatus status;\r\n\r\n    constructor(\r\n        address _address,\r\n        address Sender,\r\n        address Transporter,\r\n        address Receiver\r\n    ) public {\r\n        Owner = Sender;\r\n        medId = _address;\r\n        sender = Sender;\r\n        transporter = Transporter;\r\n        receiver = Receiver;\r\n        status = packageStatus(0);\r\n    }\r\n\r\n\r\n    function pickWD(\r\n        address _address,\r\n        address _transporter\r\n    ) public {\r\n        require(\r\n            transporter == _transporter,\r\n            \"Only Associated shipper can call this function.\"\r\n        );\r\n        status = packageStatus(1);\r\n\r\n        Medicine(_address).sendWtoD(\r\n            receiver,\r\n            sender\r\n        );\r\n    }\r\n\r\n    function receiveWD(\r\n        address _address,\r\n        address Receiver\r\n    ) public {\r\n        require(\r\n            Receiver == receiver,\r\n            \"Only Associated receiver can call this function.\"\r\n        );\r\n        status = packageStatus(2);\r\n\r\n        Medicine(_address).receivedWtoD(\r\n            Receiver\r\n        );\r\n    }\r\n\r\n    function getBatchIDStatus() public view returns(\r\n        uint\r\n    ) {\r\n        return uint(status);\r\n    }\r\n\r\n}",
  "sourcePath": "D:\\ACTIVITY\\SEM 8\\0. SKRIPSI\\REF\\WEB\\alkes-blockchain\\contracts\\MedicineW_D.sol",
  "compiler": {
    "name": "solc",
    "version": "0.6.6+commit.6c089d02.Emscripten.clang"
  },
  "schemaVersion": "3.4.16",
  "updatedAt": "2023-11-22T14:02:25.551Z",
  "devdoc": {
    "methods": {}
  },
  "userdoc": {
    "methods": {}
  }
}