{
  "contractName": "RawAlkes",
  "abi": [
    {
      "inputs": [
        {
          "internalType": "address",
          "name": "_creatorAddr",
          "type": "address"
        },
        {
          "internalType": "address",
          "name": "_productid",
          "type": "address"
        },
        {
          "components": [
            {
              "internalType": "bytes",
              "name": "namaAlkes",
              "type": "bytes"
            },
            {
              "internalType": "bytes",
              "name": "deskripsiAlkes",
              "type": "bytes"
            },
            {
              "internalType": "bytes",
              "name": "kategori_alkes",
              "type": "bytes"
            },
            {
              "internalType": "bytes",
              "name": "subkategori_alkes",
              "type": "bytes"
            },
            {
              "internalType": "bytes",
              "name": "klasifikasiAlkes",
              "type": "bytes"
            },
            {
              "internalType": "bytes",
              "name": "tipeAlkes",
              "type": "bytes"
            },
            {
              "internalType": "bytes",
              "name": "kelasResiko",
              "type": "bytes"
            },
            {
              "internalType": "bytes",
              "name": "kuantitas",
              "type": "bytes"
            },
            {
              "internalType": "bytes",
              "name": "noIzinEdar",
              "type": "bytes"
            }
          ],
          "internalType": "struct RawAlkes.AlkesDetails",
          "name": "_alkesDetails",
          "type": "tuple"
        },
        {
          "internalType": "address",
          "name": "_distributorAddr",
          "type": "address"
        },
        {
          "internalType": "address",
          "name": "_kemenkesAddr",
          "type": "address"
        },
        {
          "internalType": "address",
          "name": "_rumahSakitAddr",
          "type": "address"
        },
        {
          "internalType": "address",
          "name": "_pasienAddr",
          "type": "address"
        }
      ],
      "stateMutability": "nonpayable",
      "type": "constructor"
    },
    {
      "inputs": [],
      "name": "alkesDetails",
      "outputs": [
        {
          "internalType": "bytes",
          "name": "namaAlkes",
          "type": "bytes"
        },
        {
          "internalType": "bytes",
          "name": "deskripsiAlkes",
          "type": "bytes"
        },
        {
          "internalType": "bytes",
          "name": "kategori_alkes",
          "type": "bytes"
        },
        {
          "internalType": "bytes",
          "name": "subkategori_alkes",
          "type": "bytes"
        },
        {
          "internalType": "bytes",
          "name": "klasifikasiAlkes",
          "type": "bytes"
        },
        {
          "internalType": "bytes",
          "name": "tipeAlkes",
          "type": "bytes"
        },
        {
          "internalType": "bytes",
          "name": "kelasResiko",
          "type": "bytes"
        },
        {
          "internalType": "bytes",
          "name": "kuantitas",
          "type": "bytes"
        },
        {
          "internalType": "bytes",
          "name": "noIzinEdar",
          "type": "bytes"
        }
      ],
      "stateMutability": "view",
      "type": "function"
    },
    {
      "inputs": [],
      "name": "creationTimestamp",
      "outputs": [
        {
          "internalType": "uint256",
          "name": "",
          "type": "uint256"
        }
      ],
      "stateMutability": "view",
      "type": "function"
    },
    {
      "inputs": [],
      "name": "distributor",
      "outputs": [
        {
          "internalType": "address",
          "name": "",
          "type": "address"
        }
      ],
      "stateMutability": "view",
      "type": "function"
    },
    {
      "inputs": [],
      "name": "kemenkes",
      "outputs": [
        {
          "internalType": "address",
          "name": "",
          "type": "address"
        }
      ],
      "stateMutability": "view",
      "type": "function"
    },
    {
      "inputs": [],
      "name": "manufakturer",
      "outputs": [
        {
          "internalType": "address",
          "name": "",
          "type": "address"
        }
      ],
      "stateMutability": "view",
      "type": "function"
    },
    {
      "inputs": [],
      "name": "owner",
      "outputs": [
        {
          "internalType": "address",
          "name": "",
          "type": "address"
        }
      ],
      "stateMutability": "view",
      "type": "function"
    },
    {
      "inputs": [],
      "name": "pasien",
      "outputs": [
        {
          "internalType": "address",
          "name": "",
          "type": "address"
        }
      ],
      "stateMutability": "view",
      "type": "function"
    },
    {
      "inputs": [],
      "name": "productid",
      "outputs": [
        {
          "internalType": "address",
          "name": "",
          "type": "address"
        }
      ],
      "stateMutability": "view",
      "type": "function"
    },
    {
      "inputs": [],
      "name": "rumahSakit",
      "outputs": [
        {
          "internalType": "address",
          "name": "",
          "type": "address"
        }
      ],
      "stateMutability": "view",
      "type": "function"
    },
    {
      "inputs": [],
      "name": "status",
      "outputs": [
        {
          "internalType": "enum RawAlkes.PackageStatus",
          "name": "",
          "type": "uint8"
        }
      ],
      "stateMutability": "view",
      "type": "function"
    },
    {
      "inputs": [],
      "name": "txnContractAddress",
      "outputs": [
        {
          "internalType": "address",
          "name": "",
          "type": "address"
        }
      ],
      "stateMutability": "view",
      "type": "function"
    },
    {
      "inputs": [],
      "name": "getRawAlkes",
      "outputs": [
        {
          "internalType": "address",
          "name": "",
          "type": "address"
        },
        {
          "components": [
            {
              "internalType": "bytes",
              "name": "namaAlkes",
              "type": "bytes"
            },
            {
              "internalType": "bytes",
              "name": "deskripsiAlkes",
              "type": "bytes"
            },
            {
              "internalType": "bytes",
              "name": "kategori_alkes",
              "type": "bytes"
            },
            {
              "internalType": "bytes",
              "name": "subkategori_alkes",
              "type": "bytes"
            },
            {
              "internalType": "bytes",
              "name": "klasifikasiAlkes",
              "type": "bytes"
            },
            {
              "internalType": "bytes",
              "name": "tipeAlkes",
              "type": "bytes"
            },
            {
              "internalType": "bytes",
              "name": "kelasResiko",
              "type": "bytes"
            },
            {
              "internalType": "bytes",
              "name": "kuantitas",
              "type": "bytes"
            },
            {
              "internalType": "bytes",
              "name": "noIzinEdar",
              "type": "bytes"
            }
          ],
          "internalType": "struct RawAlkes.AlkesDetails",
          "name": "",
          "type": "tuple"
        },
        {
          "internalType": "address",
          "name": "",
          "type": "address"
        },
        {
          "internalType": "address",
          "name": "",
          "type": "address"
        },
        {
          "internalType": "address",
          "name": "",
          "type": "address"
        },
        {
          "internalType": "address",
          "name": "",
          "type": "address"
        },
        {
          "internalType": "address",
          "name": "",
          "type": "address"
        },
        {
          "internalType": "address",
          "name": "",
          "type": "address"
        },
        {
          "internalType": "uint256",
          "name": "",
          "type": "uint256"
        }
      ],
      "stateMutability": "view",
      "type": "function"
    },
    {
      "inputs": [],
      "name": "getNamaAlkes",
      "outputs": [
        {
          "internalType": "bytes",
          "name": "",
          "type": "bytes"
        }
      ],
      "stateMutability": "view",
      "type": "function"
    },
    {
      "inputs": [],
      "name": "getKlasifikasiALkes",
      "outputs": [
        {
          "internalType": "bytes",
          "name": "",
          "type": "bytes"
        }
      ],
      "stateMutability": "view",
      "type": "function"
    },
    {
      "inputs": [],
      "name": "getRawAlkesStatus",
      "outputs": [
        {
          "internalType": "uint256",
          "name": "",
          "type": "uint256"
        }
      ],
      "stateMutability": "view",
      "type": "function"
    },
    {
      "inputs": [
        {
          "internalType": "address",
          "name": "addr",
          "type": "address"
        }
      ],
      "name": "updatedistributorAddress",
      "outputs": [],
      "stateMutability": "nonpayable",
      "type": "function"
    },
    {
      "inputs": [
        {
          "internalType": "address",
          "name": "addr",
          "type": "address"
        }
      ],
      "name": "distributorToKemenkes",
      "outputs": [],
      "stateMutability": "nonpayable",
      "type": "function"
    },
    {
      "inputs": [
        {
          "internalType": "bytes",
          "name": "nomor",
          "type": "bytes"
        },
        {
          "internalType": "address",
          "name": "addr",
          "type": "address"
        }
      ],
      "name": "izinEdarApprove",
      "outputs": [],
      "stateMutability": "nonpayable",
      "type": "function"
    },
    {
      "inputs": [
        {
          "internalType": "address",
          "name": "addr",
          "type": "address"
        }
      ],
      "name": "distributorToRs",
      "outputs": [],
      "stateMutability": "nonpayable",
      "type": "function"
    },
    {
      "inputs": [
        {
          "internalType": "address",
          "name": "addr",
          "type": "address"
        }
      ],
      "name": "faskesToPasien",
      "outputs": [],
      "stateMutability": "nonpayable",
      "type": "function"
    }
  ],
  "bytecode": "0x60e06040523480156200001157600080fd5b506040516200244338038062002443833981016040819052620000349162000423565b6001600160a01b038716158015906200005557506001600160a01b03861615155b80156200006a57506001600160a01b03841615155b80156200007f57506001600160a01b03831615155b80156200009457506001600160a01b03821615155b8015620000a957506001600160a01b03811615155b620000b357600080fd5b6001600160601b0319606088811b821660805287901b1660a052845180518691600591620000e9918391602090910190620002c1565b506020828101518051620001049260018501920190620002c1565b506040820151805162000122916002840191602090910190620002c1565b506060820151805162000140916003840191602090910190620002c1565b50608082015180516200015e916004840191602090910190620002c1565b5060a082015180516200017c916005840191602090910190620002c1565b5060c082015180516200019a916006840191602090910190620002c1565b5060e08201518051620001b8916007840191602090910190620002c1565b506101008201518051620001d7916008840191602090910190620002c1565b505050606087901b6001600160601b03191660c052600080546001600160a01b03199081166001600160a01b038781169190911790925560018054821686841617905560028054821685841617905560038054909116918316919091179055600e805460ff19169055426004556200024f846200025c565b50505050505050620006d1565b6000816040516200026d9062000350565b6200027991906200063e565b604051809103906000f08015801562000296573d6000803e3d6000fd5b50600e80546001600160a01b0390921661010002610100600160a81b03199092169190911790555050565b828054620002cf906200067e565b90600052602060002090601f016020900481019282620002f357600085556200033e565b82601f106200030e57805160ff19168380011785556200033e565b828001600101855582156200033e579182015b828111156200033e57825182559160200191906001019062000321565b506200034c9291506200035e565b5090565b6106fa8062001d4983390190565b5b808211156200034c57600081556001016200035f565b80516001600160a01b03811681146200038d57600080fd5b919050565b600082601f830112620003a3578081fd5b81516001600160401b03811115620003bf57620003bf620006bb565b6020620003d5601f8301601f1916820162000652565b8281528582848701011115620003e9578384fd5b835b8381101562000408578581018301518282018401528201620003eb565b838111156200041957848385840101525b5095945050505050565b600080600080600080600060e0888a0312156200043e578283fd5b620004498862000375565b9650620004596020890162000375565b60408901519096506001600160401b038082111562000476578485fd5b818a01915061012080838d0312156200048d578586fd5b620004988162000652565b9050825182811115620004a9578687fd5b620004b78d82860162000392565b825250602083015182811115620004cc578687fd5b620004da8d82860162000392565b602083015250604083015182811115620004f2578687fd5b620005008d82860162000392565b60408301525060608301518281111562000518578687fd5b620005268d82860162000392565b6060830152506080830151828111156200053e578687fd5b6200054c8d82860162000392565b60808301525060a08301518281111562000564578687fd5b620005728d82860162000392565b60a08301525060c0830151828111156200058a578687fd5b620005988d82860162000392565b60c08301525060e083015182811115620005b0578687fd5b620005be8d82860162000392565b60e0830152506101008084015183811115620005d8578788fd5b620005e68e82870162000392565b828401525050809750505050620006006060890162000375565b9350620006106080890162000375565b92506200062060a0890162000375565b91506200063060c0890162000375565b905092959891949750929550565b6001600160a01b0391909116815260200190565b6040518181016001600160401b0381118282101715620006765762000676620006bb565b604052919050565b6002810460018216806200069357607f821691505b60208210811415620006b557634e487b7160e01b600052602260045260246000fd5b50919050565b634e487b7160e01b600052604160045260246000fd5b60805160601c60a05160601c60c05160601c611631620007186000396000818161038201526109120152600081816108f00152610f9f01526000610e9601526116316000f3fe608060405234801561001057600080fd5b506004361061012c5760003560e01c80638da5cb5b116100ad578063d786f52a11610071578063d786f52a14610226578063d9f20edf14610239578063e1009dfa14610241578063e7b9307a14610256578063ee200582146102695761012c565b80638da5cb5b146101f3578063b3311086146101fb578063bfe1092814610203578063c9cd4f2d1461020b578063d6fa1967146102135761012c565b806341f10ea7116100f457806341f10ea7146101a157806342848c2a146101a957806347041166146101b157806367bc4718146101b95780637618bd6d146101d65761012c565b806312a42e23146101315780631ef3f1bd1461014f578063200d2ed2146101645780633143d603146101795780634176ee751461018c575b600080fd5b610139610271565b60405161014691906112dd565b60405180910390f35b61016261015d3660046111b1565b610280565b005b61016c6102e1565b6040516101469190611550565b6101626101873660046111b1565b6102ea565b61019461033f565b60405161014691906115a1565b61013961036c565b610139610380565b6101396103a4565b6101c16103b3565b6040516101469998979695949392919061148b565b6101de6108b5565b604051610146999897969594939291906112f1565b610139610e94565b610194610eb8565b610139610ebe565b610139610ecd565b6101626102213660046111d2565b610edc565b6101626102343660046111b1565b610f48565b610139610f9d565b610249610fc1565b6040516101469190611478565b6101626102643660046111b1565b611056565b61024961109e565b6002546001600160a01b031681565b6001600160a01b0381166102af5760405162461bcd60e51b81526004016102a690611578565b60405180910390fd5b600080546001600160a01b0319166001600160a01b038316179055600e80546001919060ff191682805b021790555050565b600e5460ff1681565b6001600160a01b0381166103105760405162461bcd60e51b81526004016102a690611578565b600280546001600160a01b0319166001600160a01b038316179055600e80546003919060ff19166001836102d9565b600e5460009060ff16600481111561036757634e487b7160e01b600052602160045260246000fd5b905090565b600e5461010090046001600160a01b031681565b7f000000000000000000000000000000000000000000000000000000000000000081565b6003546001600160a01b031681565b6005805481906103c2906115aa565b80601f01602080910402602001604051908101604052809291908181526020018280546103ee906115aa565b801561043b5780601f106104105761010080835404028352916020019161043b565b820191906000526020600020905b81548152906001019060200180831161041e57829003601f168201915b505050505090806001018054610450906115aa565b80601f016020809104026020016040519081016040528092919081815260200182805461047c906115aa565b80156104c95780601f1061049e576101008083540402835291602001916104c9565b820191906000526020600020905b8154815290600101906020018083116104ac57829003601f168201915b5050505050908060020180546104de906115aa565b80601f016020809104026020016040519081016040528092919081815260200182805461050a906115aa565b80156105575780601f1061052c57610100808354040283529160200191610557565b820191906000526020600020905b81548152906001019060200180831161053a57829003601f168201915b50505050509080600301805461056c906115aa565b80601f0160208091040260200160405190810160405280929190818152602001828054610598906115aa565b80156105e55780601f106105ba576101008083540402835291602001916105e5565b820191906000526020600020905b8154815290600101906020018083116105c857829003601f168201915b5050505050908060040180546105fa906115aa565b80601f0160208091040260200160405190810160405280929190818152602001828054610626906115aa565b80156106735780601f1061064857610100808354040283529160200191610673565b820191906000526020600020905b81548152906001019060200180831161065657829003601f168201915b505050505090806005018054610688906115aa565b80601f01602080910402602001604051908101604052809291908181526020018280546106b4906115aa565b80156107015780601f106106d657610100808354040283529160200191610701565b820191906000526020600020905b8154815290600101906020018083116106e457829003601f168201915b505050505090806006018054610716906115aa565b80601f0160208091040260200160405190810160405280929190818152602001828054610742906115aa565b801561078f5780601f106107645761010080835404028352916020019161078f565b820191906000526020600020905b81548152906001019060200180831161077257829003601f168201915b5050505050908060070180546107a4906115aa565b80601f01602080910402602001604051908101604052809291908181526020018280546107d0906115aa565b801561081d5780601f106107f25761010080835404028352916020019161081d565b820191906000526020600020905b81548152906001019060200180831161080057829003601f168201915b505050505090806008018054610832906115aa565b80601f016020809104026020016040519081016040528092919081815260200182805461085e906115aa565b80156108ab5780601f10610880576101008083540402835291602001916108ab565b820191906000526020600020905b81548152906001019060200180831161088e57829003601f168201915b5050505050905089565b60006108bf6110b0565b60008054600154600254600354600e54600454604080516101208101909152600580548998899889988998899889987f0000000000000000000000000000000000000000000000000000000000000000987f0000000000000000000000000000000000000000000000000000000000000000976001600160a01b039788169796871696958616959485169461010090940490931692899082908290610963906115aa565b80601f016020809104026020016040519081016040528092919081815260200182805461098f906115aa565b80156109dc5780601f106109b1576101008083540402835291602001916109dc565b820191906000526020600020905b8154815290600101906020018083116109bf57829003601f168201915b505050505081526020016001820180546109f5906115aa565b80601f0160208091040260200160405190810160405280929190818152602001828054610a21906115aa565b8015610a6e5780601f10610a4357610100808354040283529160200191610a6e565b820191906000526020600020905b815481529060010190602001808311610a5157829003601f168201915b50505050508152602001600282018054610a87906115aa565b80601f0160208091040260200160405190810160405280929190818152602001828054610ab3906115aa565b8015610b005780601f10610ad557610100808354040283529160200191610b00565b820191906000526020600020905b815481529060010190602001808311610ae357829003601f168201915b50505050508152602001600382018054610b19906115aa565b80601f0160208091040260200160405190810160405280929190818152602001828054610b45906115aa565b8015610b925780601f10610b6757610100808354040283529160200191610b92565b820191906000526020600020905b815481529060010190602001808311610b7557829003601f168201915b50505050508152602001600482018054610bab906115aa565b80601f0160208091040260200160405190810160405280929190818152602001828054610bd7906115aa565b8015610c245780601f10610bf957610100808354040283529160200191610c24565b820191906000526020600020905b815481529060010190602001808311610c0757829003601f168201915b50505050508152602001600582018054610c3d906115aa565b80601f0160208091040260200160405190810160405280929190818152602001828054610c69906115aa565b8015610cb65780601f10610c8b57610100808354040283529160200191610cb6565b820191906000526020600020905b815481529060010190602001808311610c9957829003601f168201915b50505050508152602001600682018054610ccf906115aa565b80601f0160208091040260200160405190810160405280929190818152602001828054610cfb906115aa565b8015610d485780601f10610d1d57610100808354040283529160200191610d48565b820191906000526020600020905b815481529060010190602001808311610d2b57829003601f168201915b50505050508152602001600782018054610d61906115aa565b80601f0160208091040260200160405190810160405280929190818152602001828054610d8d906115aa565b8015610dda5780601f10610daf57610100808354040283529160200191610dda565b820191906000526020600020905b815481529060010190602001808311610dbd57829003601f168201915b50505050508152602001600882018054610df3906115aa565b80601f0160208091040260200160405190810160405280929190818152602001828054610e1f906115aa565b8015610e6c5780601f10610e4157610100808354040283529160200191610e6c565b820191906000526020600020905b815481529060010190602001808311610e4f57829003601f168201915b5050505050815250509750985098509850985098509850985098509850909192939495969798565b7f000000000000000000000000000000000000000000000000000000000000000081565b60045481565b6000546001600160a01b031681565b6001546001600160a01b031681565b8151610eef90600d9060208501906110fc565b506001600160a01b038116610f165760405162461bcd60e51b81526004016102a690611578565b600180546001600160a01b03929092166001600160a01b031990921691909117905550600e805460ff19166002179055565b6001600160a01b038116610f6e5760405162461bcd60e51b81526004016102a690611578565b600380546001600160a01b0319166001600160a01b038316179055600e80546004919060ff19166001836102d9565b7f000000000000000000000000000000000000000000000000000000000000000081565b606060056000018054610fd3906115aa565b80601f0160208091040260200160405190810160405280929190818152602001828054610fff906115aa565b801561104c5780601f106110215761010080835404028352916020019161104c565b820191906000526020600020905b81548152906001019060200180831161102f57829003601f168201915b5050505050905090565b6001600160a01b03811661107c5760405162461bcd60e51b81526004016102a690611578565b600180546001600160a01b0319166001600160a01b0392909216919091179055565b606060056004018054610fd3906115aa565b6040518061012001604052806060815260200160608152602001606081526020016060815260200160608152602001606081526020016060815260200160608152602001606081525090565b828054611108906115aa565b90600052602060002090601f01602090048101928261112a5760008555611170565b82601f1061114357805160ff1916838001178555611170565b82800160010185558215611170579182015b82811115611170578251825591602001919060010190611155565b5061117c929150611180565b5090565b5b8082111561117c5760008155600101611181565b80356001600160a01b03811681146111ac57600080fd5b919050565b6000602082840312156111c2578081fd5b6111cb82611195565b9392505050565b600080604083850312156111e4578081fd5b823567ffffffffffffffff808211156111fb578283fd5b818501915085601f83011261120e578283fd5b8135602082821115611222576112226115e5565b604051601f8301601f1916810182018481118282101715611245576112456115e5565b604052828152848301820189101561125b578586fd5b828286018383013780830182018690529550611278878201611195565b9450505050509250929050565b6001600160a01b03169052565b60008151808452815b818110156112b75760208185018101518683018201520161129b565b818111156112c85782602083870101525b50601f01601f19169290920160200192915050565b6001600160a01b0391909116815260200190565b600061012060018060a01b038c1683528060208401528a51818285015261131c610240850182611292565b91505060208b015161011f19808584030161014086015261133d8383611292565b925060408d01519150808584030161016086015261135b8383611292565b925060608d0151915080858403016101808601526113798383611292565b925060808d0151915080858403016101a08601526113978383611292565b925060a08d0151915080858403016101c08601526113b58383611292565b925060c08d0151915080858403016101e08601526113d38383611292565b925060e08d0151915080858403016102008601526113f18383611292565b92506101009150818d015181868503016102208701526114118482611292565b94505050611422604085018c611285565b61142f606085018b611285565b61143c608085018a611285565b61144960a0850189611285565b61145660c0850188611285565b61146360e0850187611285565b848185015250509a9950505050505050505050565b6000602082526111cb6020830184611292565b600061012080835261149f8184018d611292565b905082810360208401526114b3818c611292565b905082810360408401526114c7818b611292565b905082810360608401526114db818a611292565b905082810360808401526114ef8189611292565b905082810360a08401526115038188611292565b905082810360c08401526115178187611292565b905082810360e084015261152b8186611292565b90508281036101008401526115408185611292565b9c9b505050505050505050505050565b602081016005831061157257634e487b7160e01b600052602160045260246000fd5b91905290565b6020808252600f908201526e496e76616c6964206164647265737360881b604082015260600190565b90815260200190565b6002810460018216806115be57607f821691505b602082108114156115df57634e487b7160e01b600052602260045260246000fd5b50919050565b634e487b7160e01b600052604160045260246000fdfea2646970667358221220b2c42b3baebe45c362cbd69374b7a710af11253872f64a44e508b1f0a93ee25f64736f6c6343000800003360a0604052600060015534801561001557600080fd5b506040516106fa3803806106fa8339810160408190526100349161005c565b6001600160a01b03811661004757600080fd5b60601b6001600160601b03191660805261008a565b60006020828403121561006d578081fd5b81516001600160a01b0381168114610083578182fd5b9392505050565b60805160601c6106536100a7600039600060df01526106536000f3fe608060405234801561001057600080fd5b50600436106100575760003560e01c806302d05d3f1461005c57806327506f531461007a57806378ce13651461008f5780639ace38c2146100a45780639e9ab89b146100c8575b600080fd5b6100646100dd565b60405161007191906104c0565b60405180910390f35b610082610101565b60405161007191906104d4565b610097610215565b60405161007191906105b4565b6100b76100b23660046104a8565b61021b565b60405161007195949392919061054e565b6100db6100d6366004610465565b610256565b005b7f000000000000000000000000000000000000000000000000000000000000000081565b60015460609060008167ffffffffffffffff81111561013057634e487b7160e01b600052604160045260246000fd5b60405190808252806020026020018201604052801561016957816020015b61015661041b565b81526020019060019003908161014e5790505b50905060005b8281101561020e5760008181526020818152604091829020825160a0810184528154815260018201546001600160a01b039081169382019390935260028201549092169282019290925260038201546060820152600490910154608082015282518390839081106101f057634e487b7160e01b600052603260045260246000fd5b60200260200101819052508080610206906105ec565b91505061016f565b5091505090565b60015481565b6000602081905290815260409020805460018201546002830154600384015460049094015492936001600160a01b0392831693929091169185565b60015443906102eb576040805160a0810182528681526001600160a01b0380871660208084019182528783168486019081526060850188815260808601888152600180546000908152948590529790932095518655925195850180549685166001600160a01b0319978816179055516002850180549190941695169490941790915551600382015590516004909101556103bd565b81600080600180546102fd91906105d5565b815260200190815260200160002060000154146103355760405162461bcd60e51b815260040161032c9061057d565b60405180910390fd5b6040805160a0810182528681526001600160a01b0380871660208084019182528783168486019081526060850188815260808601888152600180546000908152948590529790932095518655925195850180549685166001600160a01b0319978816179055516002850180549190941695169490941790915551600382015590516004909101555b60018060008282546103cf91906105bd565b90915550506040517f08ce16702f64d2cdc93c2d36818cee685abd25dcf25f93b5008c07c328652bb69061040c908790879087908790879061054e565b60405180910390a15050505050565b6040805160a08101825260008082526020820181905291810182905260608101829052608081019190915290565b80356001600160a01b038116811461046057600080fd5b919050565b6000806000806080858703121561047a578384fd5b8435935061048a60208601610449565b925061049860408601610449565b9396929550929360600135925050565b6000602082840312156104b9578081fd5b5035919050565b6001600160a01b0391909116815260200190565b602080825282518282018190526000919060409081850190868401855b8281101561054157815180518552868101516001600160a01b0390811688870152868201511686860152606080820151908601526080908101519085015260a090930192908501906001016104f1565b5091979650505050505050565b9485526001600160a01b0393841660208601529190921660408401526060830191909152608082015260a00190565b6020808252601b908201527f5472616e73616374696f6e206572726f72206f63637572726564210000000000604082015260600190565b90815260200190565b600082198211156105d0576105d0610607565b500190565b6000828210156105e7576105e7610607565b500390565b600060001982141561060057610600610607565b5060010190565b634e487b7160e01b600052601160045260246000fdfea264697066735822122066815cd6d3b2b092d9963d8f562dd7f1d623f22c22d6ab0f90474b19915f3ffc64736f6c63430008000033",
  "immutableReferences": {
    "146": [
      {
        "length": 32,
        "start": 3734
      }
    ],
    "173": [
      {
        "length": 32,
        "start": 2288
      },
      {
        "length": 32,
        "start": 3999
      }
    ],
    "177": [
      {
        "length": 32,
        "start": 898
      },
      {
        "length": 32,
        "start": 2322
      }
    ]
  },
  "source": "// SPDX-License-Identifier: MIT\r\npragma solidity ^0.8.0;\r\npragma experimental ABIEncoderV2;\r\n\r\nimport \"./Transactions.sol\";\r\n\r\ncontract RawAlkes {\r\n    address public immutable owner;\r\n\r\n    enum PackageStatus {\r\n        AtManufacturer,\r\n        AtDistributor,\r\n        AtKemenkes,\r\n        AtFaskes,\r\n        AtPasien\r\n    }\r\n\r\n    struct AlkesDetails {\r\n        bytes namaAlkes;\r\n        bytes deskripsiAlkes;\r\n        bytes kategori_alkes;\r\n        bytes subkategori_alkes;\r\n        bytes klasifikasiAlkes;\r\n        bytes tipeAlkes;\r\n        bytes kelasResiko;\r\n        bytes kuantitas;\r\n        bytes noIzinEdar;\r\n    }\r\n    // struct DataGeneratedId {\r\n    //     bytes id_informasi;\r\n    //     bytes id_produk;\r\n\r\n    // }\r\n\r\n    address public immutable productid;\r\n    address public distributor;\r\n    address public immutable manufakturer;\r\n    address public kemenkes;\r\n    address public rumahSakit;\r\n    address public pasien;\r\n    uint public creationTimestamp;\r\n\r\n    AlkesDetails public alkesDetails;\r\n    // DataGeneratedId public generatedIds;\r\n    PackageStatus public status;\r\n    address public txnContractAddress;\r\n\r\n    constructor(\r\n        address _creatorAddr,\r\n        address _productid,\r\n        AlkesDetails memory _alkesDetails,\r\n        address _distributorAddr,\r\n        address _kemenkesAddr,\r\n        address _rumahSakitAddr,\r\n        address _pasienAddr // DataGeneratedId memory _generatedIds\r\n    ) {\r\n        require(\r\n            _creatorAddr != address(0) &&\r\n                _productid != address(0) &&\r\n                _distributorAddr != address(0) &&\r\n                _kemenkesAddr != address(0) &&\r\n                _rumahSakitAddr != address(0) &&\r\n                _pasienAddr != address(0)\r\n        );\r\n        // require(_productid != address(0) );\r\n        // require(_distributorAddr != address(0));\r\n        // require(_kemenkesAddr != address(0));\r\n        // require(_rumahSakitAddr != address(0));\r\n\r\n        owner = _creatorAddr;\r\n        productid = _productid;\r\n        alkesDetails = _alkesDetails;\r\n        manufakturer = _creatorAddr;\r\n        distributor = _distributorAddr;\r\n        kemenkes = _kemenkesAddr;\r\n        rumahSakit = _rumahSakitAddr;\r\n        pasien = _pasienAddr;\r\n        status = PackageStatus.AtManufacturer;\r\n\t\t\t\tcreationTimestamp = block.timestamp;\r\n\r\n        initializeTxnContract(_distributorAddr);\r\n    }\r\n\r\n    function initializeTxnContract(address distributorAddr) internal {\r\n        Transactions txnContract = new Transactions(distributorAddr);\r\n        txnContractAddress = address(txnContract);\r\n    }\r\n\r\n    function getRawAlkes()\r\n        public\r\n        view\r\n        returns (\r\n            address,\r\n            AlkesDetails memory,\r\n            address,\r\n            address,\r\n            address,\r\n            address,\r\n            address,\r\n            address,\r\n\t\t\t\t\t\tuint\r\n        )\r\n    {\r\n\r\n        return (\r\n            productid,\r\n            alkesDetails,\r\n            manufakturer,\r\n            distributor,\r\n            kemenkes,\r\n            rumahSakit,\r\n            pasien,\r\n            txnContractAddress,\r\n\t\t\t\t\t\tcreationTimestamp\r\n\t\t\t\t\t\t\r\n        );\r\n    }\r\n\r\n   \r\n    function getNamaAlkes() public view returns (bytes memory) {\r\n        return alkesDetails.namaAlkes;\r\n    }\r\n\r\n    function getKlasifikasiALkes() public view returns (bytes memory) {\r\n        return alkesDetails.klasifikasiAlkes;\r\n    }\r\n\r\n    function getRawAlkesStatus() public view returns (uint) {\r\n        return uint(status);\r\n    }\r\n\r\n    function updatedistributorAddress(address addr) public {\r\n        require(addr != address(0), \"Invalid address\");\r\n\r\n        distributor = addr;\r\n        status = PackageStatus.AtDistributor;\r\n    }\r\n\r\n    function distributorToKemenkes(address addr) public {\r\n        require(addr != address(0), \"Invalid address\");\r\n\r\n        kemenkes = addr;\r\n    }\r\n\r\n    function izinEdarApprove(bytes memory nomor, address addr) public {\r\n        alkesDetails.noIzinEdar = nomor;\r\n        require(addr != address(0), \"Invalid address\");\r\n        kemenkes = addr;\r\n        status = PackageStatus.AtKemenkes;\r\n    }\r\n\r\n    function distributorToRs(address addr) public {\r\n        require(addr != address(0), \"Invalid address\");\r\n        rumahSakit = addr;\r\n        status = PackageStatus.AtFaskes;\r\n    }\r\n    function faskesToPasien(address addr) public {\r\n        require(addr != address(0), \"Invalid address\");\r\n        pasien = addr;\r\n        status = PackageStatus.AtPasien;\r\n    }\r\n}\r\n",
  "sourcePath": "D:\\ACTIVITY\\SEM 8\\0. SKRIPSI\\REF\\WEB\\alkes-blockchain\\contracts\\RawAlkes.sol",
  "compiler": {
    "name": "solc",
    "version": "0.8.0+commit.c7dfd78e.Emscripten.clang"
  },
  "schemaVersion": "3.4.16",
  "updatedAt": "2024-01-28T06:48:46.512Z",
  "devdoc": {
    "kind": "dev",
    "methods": {},
    "version": 1
  },
  "userdoc": {
    "kind": "user",
    "methods": {},
    "version": 1
  }
}