{
  "contractName": "RawAlkes",
  "abi": [
    {
      "inputs": [
        {
          "internalType": "address",
          "name": "_creatorAddr",
          "type": "address"
        },
        {
          "internalType": "address",
          "name": "_productid",
          "type": "address"
        },
        {
          "internalType": "bytes32",
          "name": "_namaAlkes",
          "type": "bytes32"
        },
        {
          "internalType": "bytes32",
          "name": "_deskripsiAlkes",
          "type": "bytes32"
        },
        {
          "internalType": "bytes32",
          "name": "_klasifikasiAlkes",
          "type": "bytes32"
        },
        {
          "internalType": "bytes32",
          "name": "_tipeAlkes",
          "type": "bytes32"
        },
        {
          "internalType": "bytes32",
          "name": "_kelasAlkes",
          "type": "bytes32"
        },
        {
          "internalType": "bytes32",
          "name": "_kelasResiko",
          "type": "bytes32"
        },
        {
          "internalType": "address",
          "name": "_manufacturerAddr",
          "type": "address"
        }
      ],
      "stateMutability": "nonpayable",
      "type": "constructor"
    },
    {
      "anonymous": false,
      "inputs": [
        {
          "indexed": true,
          "internalType": "address",
          "name": "ProductID",
          "type": "address"
        },
        {
          "indexed": true,
          "internalType": "address",
          "name": "Transporter",
          "type": "address"
        },
        {
          "indexed": true,
          "internalType": "address",
          "name": "Manufacturer",
          "type": "address"
        },
        {
          "indexed": false,
          "internalType": "uint256",
          "name": "TransporterType",
          "type": "uint256"
        },
        {
          "indexed": false,
          "internalType": "uint256",
          "name": "Status",
          "type": "uint256"
        }
      ],
      "name": "ShippmentUpdate",
      "type": "event"
    },
    {
      "inputs": [],
      "name": "getRawAlkes",
      "outputs": [
        {
          "internalType": "address",
          "name": "",
          "type": "address"
        },
        {
          "internalType": "bytes32",
          "name": "",
          "type": "bytes32"
        },
        {
          "internalType": "bytes32",
          "name": "",
          "type": "bytes32"
        },
        {
          "internalType": "bytes32",
          "name": "",
          "type": "bytes32"
        },
        {
          "internalType": "bytes32",
          "name": "",
          "type": "bytes32"
        },
        {
          "internalType": "bytes32",
          "name": "",
          "type": "bytes32"
        },
        {
          "internalType": "bytes32",
          "name": "",
          "type": "bytes32"
        },
        {
          "internalType": "address",
          "name": "",
          "type": "address"
        },
        {
          "internalType": "address",
          "name": "",
          "type": "address"
        },
        {
          "internalType": "address",
          "name": "",
          "type": "address"
        }
      ],
      "stateMutability": "view",
      "type": "function"
    },
    {
      "inputs": [],
      "name": "getRawMaterialStatus",
      "outputs": [
        {
          "internalType": "uint256",
          "name": "",
          "type": "uint256"
        }
      ],
      "stateMutability": "view",
      "type": "function"
    },
    {
      "inputs": [
        {
          "internalType": "address",
          "name": "addr",
          "type": "address"
        }
      ],
      "name": "updateManufacturerAddress",
      "outputs": [],
      "stateMutability": "nonpayable",
      "type": "function"
    },
    {
      "inputs": [
        {
          "internalType": "address",
          "name": "_transporterAddr",
          "type": "address"
        }
      ],
      "name": "pickPackage",
      "outputs": [],
      "stateMutability": "nonpayable",
      "type": "function"
    },
    {
      "inputs": [
        {
          "internalType": "address",
          "name": "_manufacturerAddr",
          "type": "address"
        }
      ],
      "name": "receivedPackage",
      "outputs": [],
      "stateMutability": "nonpayable",
      "type": "function"
    }
  ],
  "bytecode": "0x608060405234801561001057600080fd5b5060405161121238038061121283398101604081905261002f91610128565b600080546001600160a01b03199081166001600160a01b038c811691821784556001805484168d831617905560028b905560038a90556004899055600588905560068790556007869055600980548416918616919091179055600a80549092161760ff60a01b1916905560405182906100a7906100fe565b6100b191906101a8565b604051809103906000f0801580156100cd573d6000803e3d6000fd5b50600c80546001600160a01b0319166001600160a01b0392909216919091179055506101bc98505050505050505050565b610b63806106af83390190565b80516001600160a01b038116811461012257600080fd5b92915050565b60008060008060008060008060006101208a8c031215610146578485fd5b6101508b8b61010b565b985061015f8b60208c0161010b565b975060408a0151965060608a0151955060808a0151945060a08a0151935060c08a0151925060e08a015191506101998b6101008c0161010b565b90509295985092959850929598565b6001600160a01b0391909116815260200190565b6104e4806101cb6000396000f3fe608060405234801561001057600080fd5b50600436106100575760003560e01c806350e073bc1461005c57806352b9996814610071578063638e9a3d146100845780636b099dca146100975780637618bd6d146100b5575b600080fd5b61006f61006a3660046102f5565b6100d3565b005b61006f61007f3660046102f5565b6100f5565b61006f6100923660046102f5565b6101d0565b61009f610296565b6040516100ac91906104a5565b60405180910390f35b6100bd6102b6565b6040516100ac9a99989796959493929190610323565b600980546001600160a01b0319166001600160a01b0392909216919091179055565b6009546001600160a01b0382811691161461012b5760405162461bcd60e51b8152600401610122906103c1565b60405180910390fd5b6001600a54600160a01b900460ff16600281111561014557fe5b146101625760405162461bcd60e51b81526004016101229061038a565b600a805460ff60a01b1916600160a11b179055600954600854600180546040516001600160a01b039485169493841693909116917f7e89c4b1a4e2b51aae84eb1f90e8a34cb792ece5ac5cb63db4830c891220b28d916101c5919060029061037c565b60405180910390a450565b6008546001600160a01b038281169116146101fd5760405162461bcd60e51b815260040161012290610455565b6000600a54600160a01b900460ff16600281111561021757fe5b146102345760405162461bcd60e51b81526004016101229061041e565b600a805460ff60a01b1916600160a01b179055600954600854600180546040516001600160a01b039485169493841693909116917f7e89c4b1a4e2b51aae84eb1f90e8a34cb792ece5ac5cb63db4830c891220b28d916101c59190819061037c565b600a54600090600160a01b900460ff1660028111156102b157fe5b905090565b600154600254600354600454600554600654600754600a54600954600c546001600160a01b03998a169992831692918216911690919293949596979899565b600060208284031215610306578081fd5b81356001600160a01b038116811461031c578182fd5b9392505050565b6001600160a01b039a8b168152602081019990995260408901979097526060880195909552608087019390935260a086019190915260c0850152841660e084015283166101008301529091166101208201526101400190565b918252602082015260400190565b60208082526019908201527f50726f64756374206e6f74207069636b65642075702079657400000000000000604082015260600190565b60208082526039908201527f4f6e6c79204d616e756661637475726572206f6620746865207061636b61676560408201527f2063616e20726563656965766520746865207061636b61676500000000000000606082015260800190565b6020808252601c908201527f5061636b616765206d75737420626520617420537570706c6965722e00000000604082015260600190565b60208082526030908201527f4f6e6c79207472616e73706f72746572206f6620746865207061636b6167652060408201526f63616e207069636b207061636b61676560801b606082015260800190565b9081526020019056fea264697066735822122073ca1ca56492c39504bfc120555da037aa77d87414372a999c166ba668187d9664736f6c634300060600336080604052600060025534801561001557600080fd5b50604051610b63380380610b6383398101604081905261003491610059565b600080546001600160a01b0319166001600160a01b0392909216919091179055610087565b60006020828403121561006a578081fd5b81516001600160a01b0381168114610080578182fd5b9392505050565b610acd806100966000396000f3fe608060405234801561001057600080fd5b506004361061004c5760003560e01c806327506f53146100515780633626a3681461006f57806378ce1365146100845780639ace38c214610099575b600080fd5b6100596100bf565b60405161006691906108b6565b60405180910390f35b61008261007d3660046107bb565b6102c7565b005b61008c61050b565b6040516100669190610a76565b6100ac6100a7366004610853565b610511565b604051610066979695949392919061097f565b600254606090818167ffffffffffffffff811180156100dd57600080fd5b5060405190808252806020026020018201604052801561011757816020015b61010461066a565b8152602001906001900390816100fc5790505b50905060005b828110156102bf57600081815260016020818152604092839020835160e08101855281548152818401546001600160a01b0390811682850152600280840154909116828701526003830154606083015260048301805487516101009782161597909702600019011691909104601f81018590048502860185019096528585529094919360808601939092908301828280156101f95780601f106101ce576101008083540402835291602001916101f9565b820191906000526020600020905b8154815290600101906020018083116101dc57829003601f168201915b505050918352505060058201805460408051602060026001851615610100026000190190941693909304601f810184900484028201840190925281815293820193929183018282801561028d5780601f106102625761010080835404028352916020019161028d565b820191906000526020600020905b81548152906001019060200180831161027057829003601f168201915b505050505081526020016006820154815250508282815181106102ac57fe5b602090810291909101015260010161011d565b509150505b90565b60025442906103a6576040805160e0810182528881526001600160a01b038089166020808401918252898316848601908152606085018a8152608086018a815260a087018a905260c08701899052600280546000908152600180875299902088518155955198860180549988166001600160a01b03199a8b1617905592519285018054939096169290971691909117909355915160038201559251805192939261037792600485019201906106a5565b5060a082015180516103939160058401916020909101906106a5565b5060c082015181600601559050506104b5565b6002546000190160009081526001602052604090205484146103e35760405162461bcd60e51b81526004016103da90610a3f565b60405180910390fd5b6040805160e0810182528881526001600160a01b038089166020808401918252898316848601908152606085018a8152608086018a815260a087018a905260c08701899052600280546000908152600180875299902088518155955198860180549988166001600160a01b03199a8b1617905592519285018054939096169290971691909117909355915160038201559251805192939261048a92600485019201906106a5565b5060a082015180516104a69160058401916020909101906106a5565b5060c082015181600601559050505b6002805460010190556040517f30d01d358fb0899fe4d50947b2e9301c952d9eed09b14c7ecdcbeed4434557c4906104fa90899089908990899087908a908a906109df565b60405180910390a150505050505050565b60025481565b60016020818152600092835260409283902080548184015460028084015460038501546004860180548a516101009a8216159a909a02600019011693909304601f810188900488028901880190995288885293976001600160a01b039384169793909116959394938301828280156105ca5780601f1061059f576101008083540402835291602001916105ca565b820191906000526020600020905b8154815290600101906020018083116105ad57829003601f168201915b5050505060058301805460408051602060026001851615610100026000190190941693909304601f810184900484028201840190925281815294959493509083018282801561065a5780601f1061062f5761010080835404028352916020019161065a565b820191906000526020600020905b81548152906001019060200180831161063d57829003601f168201915b5050505050908060060154905087565b6040805160e08101825260008082526020820181905291810182905260608082018390526080820181905260a082015260c081019190915290565b828054600181600116156101000203166002900490600052602060002090601f016020900481019282601f106106e657805160ff1916838001178555610713565b82800160010185558215610713579182015b828111156107135782518255916020019190600101906106f8565b5061071f929150610723565b5090565b6102c491905b8082111561071f5760008155600101610729565b600082601f83011261074d578081fd5b813567ffffffffffffffff80821115610764578283fd5b604051601f8301601f191681016020018281118282101715610784578485fd5b60405282815292508284830160200186101561079f57600080fd5b8260208601602083013760006020848301015250505092915050565b60008060008060008060c087890312156107d3578182fd5b8635955060208701356107e581610a7f565b945060408701356107f581610a7f565b935060608701359250608087013567ffffffffffffffff80821115610818578384fd5b6108248a838b0161073d565b935060a0890135915080821115610839578283fd5b5061084689828a0161073d565b9150509295509295509295565b600060208284031215610864578081fd5b5035919050565b60008151808452815b8181101561089057602081850181015186830182015201610874565b818111156108a15782602083870101525b50601f01601f19169290920160200192915050565b60208082528251828201819052600091906040908185019080840286018301878501865b8381101561097157888303603f19018552815180518452878101516001600160a01b03908116898601528782015116878501526060808201519085015260808082015160e082870181905291906109338388018261086b565b91505060a09150818301518682038388015261094f828261086b565b60c09485015197909401969096525050948701949250908601906001016108da565b509098975050505050505050565b8781526001600160a01b038781166020830152861660408201526060810185905260e0608082018190526000906109b89083018661086b565b82810360a08401526109ca818661086b565b9150508260c083015298975050505050505050565b8781526001600160a01b03878116602083015286166040820152606081018590526080810184905260e060a08201819052600090610a1f9083018561086b565b82810360c0840152610a31818561086b565b9a9950505050505050505050565b6020808252601b908201527f5472616e73616374696f6e206572726f72206f63637572726564210000000000604082015260600190565b90815260200190565b6001600160a01b0381168114610a9457600080fd5b5056fea26469706673582212207e713d4fbf578a0496227affe57bf23b339d87874a24d0304c063d1f4d4b999064736f6c63430006060033",
  "immutableReferences": {},
  "source": "// SPDX-License-Identifier: MIT\r\npragma solidity >=0.6.6 <=0.8.23;\r\npragma experimental ABIEncoderV2;\r\n\r\nimport \"./Transactions.sol\";\r\n\r\ncontract RawAlkes {\r\n    address Owner;\r\n\r\n    enum packageStatus {\r\n        atCreator,\r\n        picked,\r\n        delivered\r\n    }\r\n\r\n    event ShippmentUpdate(\r\n        address indexed ProductID,\r\n        address indexed Transporter,\r\n        address indexed Manufacturer,\r\n        uint TransporterType,\r\n        uint Status\r\n    );\r\n\r\n    address productid;\r\n    bytes32 namaAlkes;\r\n    bytes32 deskripsiAlkes;\r\n    bytes32 klasifikasiAlkes;\r\n    bytes32 tipeAlkes;\r\n    bytes32 kelasAlkes;\r\n    bytes32 kelasResiko;\r\n    address transporter;\r\n    address manufacturer;\r\n    address supplier;\r\n    packageStatus status;\r\n    bytes32 packageReceiverDescription;\r\n    address txnContractAddress;\r\n\r\n    constructor(\r\n        address _creatorAddr,\r\n        address _productid,\r\n        bytes32 _namaAlkes,\r\n        bytes32 _deskripsiAlkes,\r\n        bytes32 _klasifikasiAlkes,\r\n        bytes32 _tipeAlkes,\r\n        bytes32 _kelasAlkes,\r\n        bytes32 _kelasResiko,\r\n        address _manufacturerAddr\r\n    ) public {\r\n        Owner = _creatorAddr;\r\n        productid = _productid;\r\n        namaAlkes = _namaAlkes;\r\n        deskripsiAlkes = _deskripsiAlkes;\r\n        klasifikasiAlkes = _klasifikasiAlkes;\r\n        tipeAlkes = _tipeAlkes;\r\n        kelasAlkes = _kelasAlkes;\r\n        kelasResiko = _kelasResiko;\r\n        manufacturer = _manufacturerAddr;\r\n        supplier = _creatorAddr;\r\n        status = packageStatus(0);\r\n        Transactions txnContract = new Transactions(_manufacturerAddr);\r\n        txnContractAddress = address(txnContract);\r\n    }\r\n\r\n    function getRawAlkes()\r\n        public\r\n        view\r\n        returns (address, bytes32, bytes32, bytes32, bytes32, bytes32, bytes32, address, address, address)\r\n    {\r\n        return (\r\n            productid,\r\n            namaAlkes,\r\n            deskripsiAlkes,\r\n            klasifikasiAlkes,\r\n            tipeAlkes,\r\n            kelasAlkes,\r\n            kelasResiko,\r\n            supplier,\r\n            manufacturer,\r\n            txnContractAddress\r\n        );\r\n    }\r\n\r\n    function getRawMaterialStatus() public view returns (uint) {\r\n        return uint(status);\r\n    }\r\n\r\n    function updateManufacturerAddress(address addr) public {\r\n        manufacturer = addr;\r\n    }\r\n\r\n    function pickPackage(address _transporterAddr) public {\r\n        require(\r\n            _transporterAddr == transporter,\r\n            \"Only transporter of the package can pick package\"\r\n        );\r\n        require(status == packageStatus(0), \"Package must be at Supplier.\");\r\n        status = packageStatus(1);\r\n        emit ShippmentUpdate(productid, transporter, manufacturer, 1, 1);\r\n    }\r\n\r\n    function receivedPackage(address _manufacturerAddr) public {\r\n        require(\r\n            _manufacturerAddr == manufacturer,\r\n            \"Only Manufacturer of the package can receieve the package\"\r\n        );\r\n\r\n        require(status == packageStatus(1), \"Product not picked up yet\");\r\n        status = packageStatus(2);\r\n        emit ShippmentUpdate(productid, transporter, manufacturer, 1, 2);\r\n    }\r\n}\r\n",
  "sourcePath": "D:\\ACTIVITY\\SEM 8\\0. SKRIPSI\\REF\\WEB\\alkes-blockchain\\contracts\\RawAlkes.sol",
  "compiler": {
    "name": "solc",
    "version": "0.6.6+commit.6c089d02.Emscripten.clang"
  },
  "schemaVersion": "3.4.16",
  "updatedAt": "2023-11-28T07:57:11.761Z",
  "devdoc": {
    "methods": {}
  },
  "userdoc": {
    "methods": {}
  }
}