{
  "contractName": "RawAlkes",
  "abi": [
    {
      "inputs": [
        {
          "internalType": "address",
          "name": "_creatorAddr",
          "type": "address"
        },
        {
          "internalType": "address",
          "name": "_productid",
          "type": "address"
        },
        {
          "components": [
            {
              "internalType": "bytes32",
              "name": "namaAlkes",
              "type": "bytes32"
            },
            {
              "internalType": "bytes32",
              "name": "deskripsiAlkes",
              "type": "bytes32"
            },
            {
              "internalType": "bytes32",
              "name": "klasifikasiAlkes",
              "type": "bytes32"
            },
            {
              "internalType": "bytes32",
              "name": "tipeAlkes",
              "type": "bytes32"
            },
            {
              "internalType": "bytes32",
              "name": "kelasAlkes",
              "type": "bytes32"
            },
            {
              "internalType": "bytes32",
              "name": "kelasResiko",
              "type": "bytes32"
            },
            {
              "internalType": "bytes32",
              "name": "noIzinEdar",
              "type": "bytes32"
            }
          ],
          "internalType": "struct RawAlkes.AlkesDetails",
          "name": "_alkesDetails",
          "type": "tuple"
        },
        {
          "internalType": "address",
          "name": "_distributorAddr",
          "type": "address"
        },
        {
          "internalType": "address",
          "name": "_kemenkesAddr",
          "type": "address"
        },
        {
          "internalType": "address",
          "name": "_rumahSakitAddr",
          "type": "address"
        }
      ],
      "stateMutability": "nonpayable",
      "type": "constructor"
    },
    {
      "inputs": [],
      "name": "alkesDetails",
      "outputs": [
        {
          "internalType": "bytes32",
          "name": "namaAlkes",
          "type": "bytes32"
        },
        {
          "internalType": "bytes32",
          "name": "deskripsiAlkes",
          "type": "bytes32"
        },
        {
          "internalType": "bytes32",
          "name": "klasifikasiAlkes",
          "type": "bytes32"
        },
        {
          "internalType": "bytes32",
          "name": "tipeAlkes",
          "type": "bytes32"
        },
        {
          "internalType": "bytes32",
          "name": "kelasAlkes",
          "type": "bytes32"
        },
        {
          "internalType": "bytes32",
          "name": "kelasResiko",
          "type": "bytes32"
        },
        {
          "internalType": "bytes32",
          "name": "noIzinEdar",
          "type": "bytes32"
        }
      ],
      "stateMutability": "view",
      "type": "function"
    },
    {
      "inputs": [],
      "name": "distributor",
      "outputs": [
        {
          "internalType": "address",
          "name": "",
          "type": "address"
        }
      ],
      "stateMutability": "view",
      "type": "function"
    },
    {
      "inputs": [],
      "name": "kemenkes",
      "outputs": [
        {
          "internalType": "address",
          "name": "",
          "type": "address"
        }
      ],
      "stateMutability": "view",
      "type": "function"
    },
    {
      "inputs": [],
      "name": "manufakturer",
      "outputs": [
        {
          "internalType": "address",
          "name": "",
          "type": "address"
        }
      ],
      "stateMutability": "view",
      "type": "function"
    },
    {
      "inputs": [],
      "name": "owner",
      "outputs": [
        {
          "internalType": "address",
          "name": "",
          "type": "address"
        }
      ],
      "stateMutability": "view",
      "type": "function"
    },
    {
      "inputs": [],
      "name": "productid",
      "outputs": [
        {
          "internalType": "address",
          "name": "",
          "type": "address"
        }
      ],
      "stateMutability": "view",
      "type": "function"
    },
    {
      "inputs": [],
      "name": "rumahSakit",
      "outputs": [
        {
          "internalType": "address",
          "name": "",
          "type": "address"
        }
      ],
      "stateMutability": "view",
      "type": "function"
    },
    {
      "inputs": [],
      "name": "status",
      "outputs": [
        {
          "internalType": "enum RawAlkes.PackageStatus",
          "name": "",
          "type": "uint8"
        }
      ],
      "stateMutability": "view",
      "type": "function"
    },
    {
      "inputs": [],
      "name": "txnContractAddress",
      "outputs": [
        {
          "internalType": "address",
          "name": "",
          "type": "address"
        }
      ],
      "stateMutability": "view",
      "type": "function"
    },
    {
      "inputs": [],
      "name": "getRawAlkes",
      "outputs": [
        {
          "internalType": "address",
          "name": "",
          "type": "address"
        },
        {
          "components": [
            {
              "internalType": "bytes32",
              "name": "namaAlkes",
              "type": "bytes32"
            },
            {
              "internalType": "bytes32",
              "name": "deskripsiAlkes",
              "type": "bytes32"
            },
            {
              "internalType": "bytes32",
              "name": "klasifikasiAlkes",
              "type": "bytes32"
            },
            {
              "internalType": "bytes32",
              "name": "tipeAlkes",
              "type": "bytes32"
            },
            {
              "internalType": "bytes32",
              "name": "kelasAlkes",
              "type": "bytes32"
            },
            {
              "internalType": "bytes32",
              "name": "kelasResiko",
              "type": "bytes32"
            },
            {
              "internalType": "bytes32",
              "name": "noIzinEdar",
              "type": "bytes32"
            }
          ],
          "internalType": "struct RawAlkes.AlkesDetails",
          "name": "",
          "type": "tuple"
        },
        {
          "internalType": "address",
          "name": "",
          "type": "address"
        },
        {
          "internalType": "address",
          "name": "",
          "type": "address"
        },
        {
          "internalType": "address",
          "name": "",
          "type": "address"
        },
        {
          "internalType": "address",
          "name": "",
          "type": "address"
        },
        {
          "internalType": "address",
          "name": "",
          "type": "address"
        }
      ],
      "stateMutability": "view",
      "type": "function"
    },
    {
      "inputs": [],
      "name": "getNamaAlkes",
      "outputs": [
        {
          "internalType": "bytes32",
          "name": "",
          "type": "bytes32"
        }
      ],
      "stateMutability": "view",
      "type": "function"
    },
    {
      "inputs": [],
      "name": "getKlasifikasiALkes",
      "outputs": [
        {
          "internalType": "bytes32",
          "name": "",
          "type": "bytes32"
        }
      ],
      "stateMutability": "view",
      "type": "function"
    },
    {
      "inputs": [],
      "name": "getRawAlkesStatus",
      "outputs": [
        {
          "internalType": "uint256",
          "name": "",
          "type": "uint256"
        }
      ],
      "stateMutability": "view",
      "type": "function"
    },
    {
      "inputs": [
        {
          "internalType": "address",
          "name": "addr",
          "type": "address"
        }
      ],
      "name": "updatedistributorAddress",
      "outputs": [],
      "stateMutability": "nonpayable",
      "type": "function"
    },
    {
      "inputs": [
        {
          "internalType": "address",
          "name": "addr",
          "type": "address"
        }
      ],
      "name": "distributorToKemenkes",
      "outputs": [],
      "stateMutability": "nonpayable",
      "type": "function"
    },
    {
      "inputs": [
        {
          "internalType": "bytes32",
          "name": "nomor",
          "type": "bytes32"
        },
        {
          "internalType": "address",
          "name": "addr",
          "type": "address"
        }
      ],
      "name": "izinEdarApprove",
      "outputs": [],
      "stateMutability": "nonpayable",
      "type": "function"
    },
    {
      "inputs": [
        {
          "internalType": "address",
          "name": "addr",
          "type": "address"
        }
      ],
      "name": "distributorToRs",
      "outputs": [],
      "stateMutability": "nonpayable",
      "type": "function"
    }
  ],
  "bytecode": "0x60e060405234801561001057600080fd5b5060405161117c38038061117c83398101604081905261002f916101cb565b6001600160a01b0386161580159061004f57506001600160a01b03851615155b801561006357506001600160a01b03831615155b801561007757506001600160a01b03821615155b801561008b57506001600160a01b03811615155b61009457600080fd5b6001600160601b0319606087811b8216608081815288831b90931660a0908152875160035560208801516004556040880151600555918701516006559186015160075585015160085560c08086015160095552600080546001600160a01b038581166001600160a01b031992831617909255600180548584169083161790556002805492841692909116919091179055600a805460ff1916905561013783610142565b5050505050506102d6565b600081604051610151906101a2565b61015b91906102c2565b604051809103906000f080158015610177573d6000803e3d6000fd5b50600a80546001600160a01b0390921661010002610100600160a81b03199092169190911790555050565b6106f580610a8783390190565b80516001600160a01b03811681146101c657600080fd5b919050565b6000806000806000808688036101808112156101e5578283fd5b6101ee886101af565b96506101fc602089016101af565b955060e0603f198201121561020f578283fd5b5060405160e081016001600160401b038111828210171561023e57634e487b7160e01b84526041600452602484fd5b806040525060408801518152606088015160208201526080880151604082015260a0880151606082015260c0880151608082015260e088015160a082015261010088015160c08201528094505061029861012088016101af565b92506102a761014088016101af565b91506102b661016088016101af565b90509295509295509295565b6001600160a01b0391909116815260200190565b60805160601c60a05160601c60c05160601c61076b61031c6000396000818161038a015261044301526000818161041f01526104c701526000610485015261076b6000f3fe608060405234801561001057600080fd5b506004361061010b5760003560e01c806367bc4718116100a2578063c9cd4f2d11610071578063c9cd4f2d146101e9578063d9f20edf146101f1578063e1009dfa146101f9578063e7b9307a14610201578063ee200582146102145761010b565b806367bc4718146101a35780637618bd6d146101be5780638da5cb5b146101d9578063bfe10928146101e15761010b565b80633143d603116100de5780633143d6031461016b5780634176ee751461017e57806341f10ea71461019357806342848c2a1461019b5761010b565b80630a4381f81461011057806312a42e23146101255780631ef3f1bd14610143578063200d2ed214610156575b600080fd5b61012361011e3660046105b6565b61021c565b005b61012d610282565b60405161013a91906105ee565b60405180910390f35b610123610151366004610595565b610291565b61015e6102e9565b60405161013a91906106e4565b610123610179366004610595565b6102f2565b610186610347565b60405161013a91906106ab565b61012d610374565b61012d610388565b6101ab6103ac565b60405161013a97969594939291906106b4565b6101c66103c4565b60405161013a9796959493929190610602565b61012d610483565b61012d6104a7565b61012d6104b6565b61012d6104c5565b6101866104e9565b61012361020f366004610595565b6104ef565b610186610537565b60098290556001600160a01b0381166102505760405162461bcd60e51b81526004016102479061070c565b60405180910390fd5b600180546001600160a01b03929092166001600160a01b031990921691909117905550600a805460ff19166002179055565b6002546001600160a01b031681565b6001600160a01b0381166102b75760405162461bcd60e51b81526004016102479061070c565b600080546001600160a01b0319166001600160a01b038316179055600a80546001919060ff191682805b021790555050565b600a5460ff1681565b6001600160a01b0381166103185760405162461bcd60e51b81526004016102479061070c565b600280546001600160a01b0319166001600160a01b038316179055600a80546003919060ff19166001836102e1565b600a5460009060ff16600381111561036f57634e487b7160e01b600052602160045260246000fd5b905090565b600a5461010090046001600160a01b031681565b7f000000000000000000000000000000000000000000000000000000000000000081565b60035460045460055460065460075460085460095487565b60006103ce61053d565b5050600054600154600254600a546040805160e08101825260035481526004546020820152600554918101919091526006546060820152600754608082015260085460a082015260095460c08201527f00000000000000000000000000000000000000000000000000000000000000009590947f0000000000000000000000000000000000000000000000000000000000000000946001600160a01b0391821694908216939082169261010090910490911690565b7f000000000000000000000000000000000000000000000000000000000000000081565b6000546001600160a01b031681565b6001546001600160a01b031681565b7f000000000000000000000000000000000000000000000000000000000000000081565b60035490565b6001600160a01b0381166105155760405162461bcd60e51b81526004016102479061070c565b600180546001600160a01b0319166001600160a01b0392909216919091179055565b60055490565b6040805160e081018252600080825260208201819052918101829052606081018290526080810182905260a0810182905260c081019190915290565b80356001600160a01b038116811461059057600080fd5b919050565b6000602082840312156105a6578081fd5b6105af82610579565b9392505050565b600080604083850312156105c8578081fd5b823591506105d860208401610579565b90509250929050565b6001600160a01b03169052565b6001600160a01b0391909116815260200190565b60006101a08201905060018060a01b038916825287516020830152602088015160408301526040880151606083015260608801516080830152608088015160a083015260a088015160c083015260c088015160e08301526106676101008301886105e1565b6106756101208301876105e1565b6106836101408301866105e1565b6106916101608301856105e1565b61069f6101808301846105e1565b98975050505050505050565b90815260200190565b968752602087019590955260408601939093526060850191909152608084015260a083015260c082015260e00190565b602081016004831061070657634e487b7160e01b600052602160045260246000fd5b91905290565b6020808252600f908201526e496e76616c6964206164647265737360881b60408201526060019056fea2646970667358221220637b8d48930db3ef6d5927a4f7c6b2d1a1a23d484873e61191b265d044307d0d64736f6c634300080000336080604052600060025534801561001557600080fd5b506040516106f53803806106f58339810160408190526100349161006c565b6001600160a01b03811661004757600080fd5b600080546001600160a01b0319166001600160a01b039290921691909117905561009a565b60006020828403121561007d578081fd5b81516001600160a01b0381168114610093578182fd5b9392505050565b61064c806100a96000396000f3fe608060405234801561001057600080fd5b50600436106100575760003560e01c806302d05d3f1461005c57806327506f531461007a57806378ce13651461008f5780639ace38c2146100a45780639e9ab89b146100c8575b600080fd5b6100646100dd565b60405161007191906104b9565b60405180910390f35b6100826100ec565b60405161007191906104cd565b610097610201565b60405161007191906105ad565b6100b76100b23660046104a1565b610207565b604051610071959493929190610547565b6100db6100d636600461045e565b610242565b005b6000546001600160a01b031681565b60025460609060008167ffffffffffffffff81111561011b57634e487b7160e01b600052604160045260246000fd5b60405190808252806020026020018201604052801561015457816020015b610141610414565b8152602001906001900390816101395790505b50905060005b828110156101fa57600081815260016020818152604092839020835160a08101855281548152928101546001600160a01b039081169284019290925260028101549091169282019290925260038201546060820152600490910154608082015282518390839081106101dc57634e487b7160e01b600052603260045260246000fd5b602002602001018190525080806101f2906105e5565b91505061015a565b5091505090565b60025481565b6001602081905260009182526040909120805491810154600282015460038301546004909301546001600160a01b0392831693919092169185565b60025443906102dc576040805160a0810182528681526001600160a01b03808716602080840191825287831684860190815260608501888152608086018881526002805460009081526001958690529890982096518755935192860180549386166001600160a01b0319948516179055905195850180549690941695909116949094179091559151600382015590516004909101556103b5565b816001600060016002546102f091906105ce565b815260200190815260200160002060000154146103285760405162461bcd60e51b815260040161031f90610576565b60405180910390fd5b6040805160a0810182528681526001600160a01b03808716602080840191825287831684860190815260608501888152608086018881526002805460009081526001958690529890982096518755935192860180549386166001600160a01b0319948516179055905195850180549690941695909116949094179091559151600382015590516004909101555b6001600260008282546103c891906105b6565b90915550506040517f08ce16702f64d2cdc93c2d36818cee685abd25dcf25f93b5008c07c328652bb6906104059087908790879087908790610547565b60405180910390a15050505050565b6040805160a08101825260008082526020820181905291810182905260608101829052608081019190915290565b80356001600160a01b038116811461045957600080fd5b919050565b60008060008060808587031215610473578384fd5b8435935061048360208601610442565b925061049160408601610442565b9396929550929360600135925050565b6000602082840312156104b2578081fd5b5035919050565b6001600160a01b0391909116815260200190565b602080825282518282018190526000919060409081850190868401855b8281101561053a57815180518552868101516001600160a01b0390811688870152868201511686860152606080820151908601526080908101519085015260a090930192908501906001016104ea565b5091979650505050505050565b9485526001600160a01b0393841660208601529190921660408401526060830191909152608082015260a00190565b6020808252601b908201527f5472616e73616374696f6e206572726f72206f63637572726564210000000000604082015260600190565b90815260200190565b600082198211156105c9576105c9610600565b500190565b6000828210156105e0576105e0610600565b500390565b60006000198214156105f9576105f9610600565b5060010190565b634e487b7160e01b600052601160045260246000fdfea26469706673582212208bacfc914aca64dec8619fa88b9c52ef408f555866612eb8c60e3e48dbbe832864736f6c63430008000033",
  "immutableReferences": {
    "63": [
      {
        "length": 32,
        "start": 1157
      }
    ],
    "85": [
      {
        "length": 32,
        "start": 1055
      },
      {
        "length": 32,
        "start": 1223
      }
    ],
    "89": [
      {
        "length": 32,
        "start": 906
      },
      {
        "length": 32,
        "start": 1091
      }
    ]
  },
  "source": "// SPDX-License-Identifier: MIT\r\npragma solidity ^0.8.0;\r\npragma experimental ABIEncoderV2;\r\n\r\nimport \"./Transactions.sol\";\r\n\r\ncontract RawAlkes {\r\n    address public immutable owner;\r\n\r\n    enum PackageStatus {\r\n        AtManufacturer,\r\n        AtDistributor,\r\n        AtKemenkes,\r\n        AtRumahSakit\r\n    }\r\n\r\n    struct AlkesDetails {\r\n        bytes32 namaAlkes;\r\n        bytes32 deskripsiAlkes;\r\n        bytes32 klasifikasiAlkes;\r\n        bytes32 tipeAlkes;\r\n        bytes32 kelasAlkes;\r\n        bytes32 kelasResiko;\r\n        bytes32 noIzinEdar;\r\n    }\r\n\r\n    address public immutable productid;\r\n    address public distributor;\r\n    address public immutable manufakturer;\r\n    address public kemenkes;\r\n    address public rumahSakit;\r\n\r\n    AlkesDetails public alkesDetails;\r\n    PackageStatus public status;\r\n    address public txnContractAddress;\r\n\r\n    constructor(\r\n        address _creatorAddr,\r\n        address _productid,\r\n        AlkesDetails memory _alkesDetails,\r\n        address _distributorAddr,\r\n        address _kemenkesAddr,\r\n        address _rumahSakitAddr\r\n    ) {\r\n        require(\r\n            _creatorAddr != address(0) &&\r\n                _productid != address(0) &&\r\n                _distributorAddr != address(0) &&\r\n                _kemenkesAddr != address(0) &&\r\n                _rumahSakitAddr != address(0)\r\n        );\r\n        // require(_productid != address(0) );\r\n        // require(_distributorAddr != address(0));\r\n        // require(_kemenkesAddr != address(0));\r\n        // require(_rumahSakitAddr != address(0));\r\n\r\n        owner = _creatorAddr;\r\n        productid = _productid;\r\n        alkesDetails = _alkesDetails;\r\n        manufakturer = _creatorAddr;\r\n        distributor = _distributorAddr;\r\n        kemenkes = _kemenkesAddr;\r\n        rumahSakit = _rumahSakitAddr;\r\n        status = PackageStatus.AtManufacturer;\r\n        initializeTxnContract(_distributorAddr);\r\n    }\r\n\r\n    function initializeTxnContract(address distributorAddr) internal {\r\n        Transactions txnContract = new Transactions(distributorAddr);\r\n        txnContractAddress = address(txnContract);\r\n    }\r\n\r\n    function getRawAlkes()\r\n        public\r\n        view\r\n        returns (\r\n            address,\r\n            AlkesDetails memory,\r\n            address,\r\n            address,\r\n            address,\r\n            address,\r\n            address\r\n        )\r\n    {\r\n        return (\r\n            productid,\r\n            alkesDetails,\r\n            manufakturer,\r\n            distributor,\r\n            kemenkes,\r\n            rumahSakit,\r\n            txnContractAddress\r\n        );\r\n    }\r\n\r\n    function getNamaAlkes() public view returns (bytes32) {\r\n        return alkesDetails.namaAlkes;\r\n    }\r\n\r\n    function getKlasifikasiALkes() public view returns (bytes32) {\r\n        return alkesDetails.klasifikasiAlkes;\r\n    }\r\n\r\n    function getRawAlkesStatus() public view returns (uint) {\r\n        return uint(status);\r\n    }\r\n\r\n    function updatedistributorAddress(address addr) public {\r\n        require(addr != address(0), \"Invalid address\");\r\n\r\n        distributor = addr;\r\n        status = PackageStatus.AtDistributor;\r\n    }\r\n\r\n    function distributorToKemenkes(address addr) public {\r\n        require(addr != address(0), \"Invalid address\");\r\n\r\n        kemenkes = addr;\r\n    }\r\n\r\n    function izinEdarApprove(bytes32 nomor, address addr) public {\r\n        alkesDetails.noIzinEdar = nomor;\r\n        require(addr != address(0), \"Invalid address\");\r\n        kemenkes = addr;\r\n        status = PackageStatus.AtKemenkes;\r\n    }\r\n\r\n    function distributorToRs(address addr) public {\r\n        require(addr != address(0), \"Invalid address\");\r\n        rumahSakit = addr;\r\n        status = PackageStatus.AtRumahSakit;\r\n    }\r\n}\r\n",
  "sourcePath": "D:\\ACTIVITY\\SEM 8\\0. SKRIPSI\\REF\\WEB\\alkes-blockchain\\contracts\\RawAlkes.sol",
  "compiler": {
    "name": "solc",
    "version": "0.8.0+commit.c7dfd78e.Emscripten.clang"
  },
  "schemaVersion": "3.4.16",
  "updatedAt": "2023-12-20T15:14:19.911Z",
  "devdoc": {
    "kind": "dev",
    "methods": {},
    "version": 1
  },
  "userdoc": {
    "kind": "user",
    "methods": {},
    "version": 1
  }
}