{
  "contractName": "RawAlkes",
  "abi": [
    {
      "inputs": [
        {
          "internalType": "address",
          "name": "_creatorAddr",
          "type": "address"
        },
        {
          "internalType": "address",
          "name": "_productid",
          "type": "address"
        },
        {
          "components": [
            {
              "internalType": "bytes",
              "name": "namaAlkes",
              "type": "bytes"
            },
            {
              "internalType": "bytes",
              "name": "deskripsiAlkes",
              "type": "bytes"
            },
            {
              "internalType": "bytes",
              "name": "kategori_alkes",
              "type": "bytes"
            },
            {
              "internalType": "bytes",
              "name": "subkategori_alkes",
              "type": "bytes"
            },
            {
              "internalType": "bytes",
              "name": "klasifikasiAlkes",
              "type": "bytes"
            },
            {
              "internalType": "bytes",
              "name": "tipeAlkes",
              "type": "bytes"
            },
            {
              "internalType": "bytes",
              "name": "kelasResiko",
              "type": "bytes"
            },
            {
              "internalType": "bytes",
              "name": "kuantitas",
              "type": "bytes"
            },
            {
              "internalType": "bytes",
              "name": "noIzinEdar",
              "type": "bytes"
            }
          ],
          "internalType": "struct RawAlkes.AlkesDetails",
          "name": "_alkesDetails",
          "type": "tuple"
        },
        {
          "internalType": "address",
          "name": "_distributorAddr",
          "type": "address"
        },
        {
          "internalType": "address",
          "name": "_kemenkesAddr",
          "type": "address"
        },
        {
          "internalType": "address",
          "name": "_rumahSakitAddr",
          "type": "address"
        },
        {
          "internalType": "address",
          "name": "_pasienAddr",
          "type": "address"
        }
      ],
      "stateMutability": "nonpayable",
      "type": "constructor"
    },
    {
      "inputs": [],
      "name": "alkesDetails",
      "outputs": [
        {
          "internalType": "bytes",
          "name": "namaAlkes",
          "type": "bytes"
        },
        {
          "internalType": "bytes",
          "name": "deskripsiAlkes",
          "type": "bytes"
        },
        {
          "internalType": "bytes",
          "name": "kategori_alkes",
          "type": "bytes"
        },
        {
          "internalType": "bytes",
          "name": "subkategori_alkes",
          "type": "bytes"
        },
        {
          "internalType": "bytes",
          "name": "klasifikasiAlkes",
          "type": "bytes"
        },
        {
          "internalType": "bytes",
          "name": "tipeAlkes",
          "type": "bytes"
        },
        {
          "internalType": "bytes",
          "name": "kelasResiko",
          "type": "bytes"
        },
        {
          "internalType": "bytes",
          "name": "kuantitas",
          "type": "bytes"
        },
        {
          "internalType": "bytes",
          "name": "noIzinEdar",
          "type": "bytes"
        }
      ],
      "stateMutability": "view",
      "type": "function"
    },
    {
      "inputs": [],
      "name": "distributor",
      "outputs": [
        {
          "internalType": "address",
          "name": "",
          "type": "address"
        }
      ],
      "stateMutability": "view",
      "type": "function"
    },
    {
      "inputs": [],
      "name": "kemenkes",
      "outputs": [
        {
          "internalType": "address",
          "name": "",
          "type": "address"
        }
      ],
      "stateMutability": "view",
      "type": "function"
    },
    {
      "inputs": [],
      "name": "manufakturer",
      "outputs": [
        {
          "internalType": "address",
          "name": "",
          "type": "address"
        }
      ],
      "stateMutability": "view",
      "type": "function"
    },
    {
      "inputs": [],
      "name": "owner",
      "outputs": [
        {
          "internalType": "address",
          "name": "",
          "type": "address"
        }
      ],
      "stateMutability": "view",
      "type": "function"
    },
    {
      "inputs": [],
      "name": "pasien",
      "outputs": [
        {
          "internalType": "address",
          "name": "",
          "type": "address"
        }
      ],
      "stateMutability": "view",
      "type": "function"
    },
    {
      "inputs": [],
      "name": "productid",
      "outputs": [
        {
          "internalType": "address",
          "name": "",
          "type": "address"
        }
      ],
      "stateMutability": "view",
      "type": "function"
    },
    {
      "inputs": [],
      "name": "rumahSakit",
      "outputs": [
        {
          "internalType": "address",
          "name": "",
          "type": "address"
        }
      ],
      "stateMutability": "view",
      "type": "function"
    },
    {
      "inputs": [],
      "name": "status",
      "outputs": [
        {
          "internalType": "enum RawAlkes.PackageStatus",
          "name": "",
          "type": "uint8"
        }
      ],
      "stateMutability": "view",
      "type": "function"
    },
    {
      "inputs": [],
      "name": "txnContractAddress",
      "outputs": [
        {
          "internalType": "address",
          "name": "",
          "type": "address"
        }
      ],
      "stateMutability": "view",
      "type": "function"
    },
    {
      "inputs": [],
      "name": "getRawAlkes",
      "outputs": [
        {
          "internalType": "address",
          "name": "",
          "type": "address"
        },
        {
          "components": [
            {
              "internalType": "bytes",
              "name": "namaAlkes",
              "type": "bytes"
            },
            {
              "internalType": "bytes",
              "name": "deskripsiAlkes",
              "type": "bytes"
            },
            {
              "internalType": "bytes",
              "name": "kategori_alkes",
              "type": "bytes"
            },
            {
              "internalType": "bytes",
              "name": "subkategori_alkes",
              "type": "bytes"
            },
            {
              "internalType": "bytes",
              "name": "klasifikasiAlkes",
              "type": "bytes"
            },
            {
              "internalType": "bytes",
              "name": "tipeAlkes",
              "type": "bytes"
            },
            {
              "internalType": "bytes",
              "name": "kelasResiko",
              "type": "bytes"
            },
            {
              "internalType": "bytes",
              "name": "kuantitas",
              "type": "bytes"
            },
            {
              "internalType": "bytes",
              "name": "noIzinEdar",
              "type": "bytes"
            }
          ],
          "internalType": "struct RawAlkes.AlkesDetails",
          "name": "",
          "type": "tuple"
        },
        {
          "internalType": "address",
          "name": "",
          "type": "address"
        },
        {
          "internalType": "address",
          "name": "",
          "type": "address"
        },
        {
          "internalType": "address",
          "name": "",
          "type": "address"
        },
        {
          "internalType": "address",
          "name": "",
          "type": "address"
        },
        {
          "internalType": "address",
          "name": "",
          "type": "address"
        },
        {
          "internalType": "address",
          "name": "",
          "type": "address"
        }
      ],
      "stateMutability": "view",
      "type": "function"
    },
    {
      "inputs": [],
      "name": "getNamaAlkes",
      "outputs": [
        {
          "internalType": "bytes",
          "name": "",
          "type": "bytes"
        }
      ],
      "stateMutability": "view",
      "type": "function"
    },
    {
      "inputs": [],
      "name": "getKlasifikasiALkes",
      "outputs": [
        {
          "internalType": "bytes",
          "name": "",
          "type": "bytes"
        }
      ],
      "stateMutability": "view",
      "type": "function"
    },
    {
      "inputs": [],
      "name": "getRawAlkesStatus",
      "outputs": [
        {
          "internalType": "uint256",
          "name": "",
          "type": "uint256"
        }
      ],
      "stateMutability": "view",
      "type": "function"
    },
    {
      "inputs": [
        {
          "internalType": "address",
          "name": "addr",
          "type": "address"
        }
      ],
      "name": "updatedistributorAddress",
      "outputs": [],
      "stateMutability": "nonpayable",
      "type": "function"
    },
    {
      "inputs": [
        {
          "internalType": "address",
          "name": "addr",
          "type": "address"
        }
      ],
      "name": "distributorToKemenkes",
      "outputs": [],
      "stateMutability": "nonpayable",
      "type": "function"
    },
    {
      "inputs": [
        {
          "internalType": "bytes",
          "name": "nomor",
          "type": "bytes"
        },
        {
          "internalType": "address",
          "name": "addr",
          "type": "address"
        }
      ],
      "name": "izinEdarApprove",
      "outputs": [],
      "stateMutability": "nonpayable",
      "type": "function"
    },
    {
      "inputs": [
        {
          "internalType": "address",
          "name": "addr",
          "type": "address"
        }
      ],
      "name": "distributorToRs",
      "outputs": [],
      "stateMutability": "nonpayable",
      "type": "function"
    }
  ],
  "bytecode": "0x60e06040523480156200001157600080fd5b50604051620023a0380380620023a083398101604081905262000034916200041f565b6001600160a01b038716158015906200005557506001600160a01b03861615155b80156200006a57506001600160a01b03841615155b80156200007f57506001600160a01b03831615155b80156200009457506001600160a01b03821615155b8015620000a957506001600160a01b03811615155b620000b357600080fd5b6001600160601b0319606088811b821660805287901b1660a052845180518691600491620000e9918391602090910190620002bd565b506020828101518051620001049260018501920190620002bd565b506040820151805162000122916002840191602090910190620002bd565b506060820151805162000140916003840191602090910190620002bd565b50608082015180516200015e916004840191602090910190620002bd565b5060a082015180516200017c916005840191602090910190620002bd565b5060c082015180516200019a916006840191602090910190620002bd565b5060e08201518051620001b8916007840191602090910190620002bd565b506101008201518051620001d7916008840191602090910190620002bd565b505050606087901b6001600160601b03191660c052600080546001600160a01b03199081166001600160a01b038781169190911790925560018054821686841617905560028054821685841617905560038054909116918316919091179055600d805460ff191690556200024b8462000258565b50505050505050620006cd565b60008160405162000269906200034c565b6200027591906200063a565b604051809103906000f08015801562000292573d6000803e3d6000fd5b50600d80546001600160a01b0390921661010002610100600160a81b03199092169190911790555050565b828054620002cb906200067a565b90600052602060002090601f016020900481019282620002ef57600085556200033a565b82601f106200030a57805160ff19168380011785556200033a565b828001600101855582156200033a579182015b828111156200033a5782518255916020019190600101906200031d565b50620003489291506200035a565b5090565b6106fa8062001ca683390190565b5b808211156200034857600081556001016200035b565b80516001600160a01b03811681146200038957600080fd5b919050565b600082601f8301126200039f578081fd5b81516001600160401b03811115620003bb57620003bb620006b7565b6020620003d1601f8301601f191682016200064e565b8281528582848701011115620003e5578384fd5b835b8381101562000404578581018301518282018401528201620003e7565b838111156200041557848385840101525b5095945050505050565b600080600080600080600060e0888a0312156200043a578283fd5b620004458862000371565b9650620004556020890162000371565b60408901519096506001600160401b038082111562000472578485fd5b818a01915061012080838d03121562000489578586fd5b62000494816200064e565b9050825182811115620004a5578687fd5b620004b38d8286016200038e565b825250602083015182811115620004c8578687fd5b620004d68d8286016200038e565b602083015250604083015182811115620004ee578687fd5b620004fc8d8286016200038e565b60408301525060608301518281111562000514578687fd5b620005228d8286016200038e565b6060830152506080830151828111156200053a578687fd5b620005488d8286016200038e565b60808301525060a08301518281111562000560578687fd5b6200056e8d8286016200038e565b60a08301525060c08301518281111562000586578687fd5b620005948d8286016200038e565b60c08301525060e083015182811115620005ac578687fd5b620005ba8d8286016200038e565b60e0830152506101008084015183811115620005d4578788fd5b620005e28e8287016200038e565b828401525050809750505050620005fc6060890162000371565b93506200060c6080890162000371565b92506200061c60a0890162000371565b91506200062c60c0890162000371565b905092959891949750929550565b6001600160a01b0391909116815260200190565b6040518181016001600160401b0381118282101715620006725762000672620006b7565b604052919050565b6002810460018216806200068f57607f821691505b60208210811415620006b157634e487b7160e01b600052602260045260246000fd5b50919050565b634e487b7160e01b600052604160045260246000fd5b60805160601c60a05160601c60c05160601c611592620007146000396000818161035001526108db0152600081816108b90152610f0a01526000610e5c01526115926000f3fe608060405234801561001057600080fd5b50600436106101165760003560e01c80637618bd6d116100a2578063d6fa196711610071578063d6fa1967146101f4578063d9f20edf14610207578063e1009dfa1461020f578063e7b9307a14610224578063ee2005821461023757610116565b80637618bd6d146101c05780638da5cb5b146101dc578063bfe10928146101e4578063c9cd4f2d146101ec57610116565b80634176ee75116100e95780634176ee751461017657806341f10ea71461018b57806342848c2a14610193578063470411661461019b57806367bc4718146101a357610116565b806312a42e231461011b5780631ef3f1bd14610139578063200d2ed21461014e5780633143d60314610163575b600080fd5b61012361023f565b6040516101309190611247565b60405180910390f35b61014c61014736600461111b565b61024e565b005b6101566102af565b60405161013091906114b1565b61014c61017136600461111b565b6102b8565b61017e61030d565b6040516101309190611502565b61012361033a565b61012361034e565b610123610372565b6101ab610381565b604051610130999897969594939291906113ec565b6101c8610883565b60405161013098979695949392919061125b565b610123610e5a565b610123610e7e565b610123610e8d565b61014c61020236600461113c565b610e9c565b610123610f08565b610217610f2c565b60405161013091906113d9565b61014c61023236600461111b565b610fc1565b610217611009565b6002546001600160a01b031681565b6001600160a01b03811661027d5760405162461bcd60e51b8152600401610274906114d9565b60405180910390fd5b600080546001600160a01b0319166001600160a01b038316179055600d80546001919060ff191682805b021790555050565b600d5460ff1681565b6001600160a01b0381166102de5760405162461bcd60e51b8152600401610274906114d9565b600280546001600160a01b0319166001600160a01b038316179055600d80546003919060ff19166001836102a7565b600d5460009060ff16600381111561033557634e487b7160e01b600052602160045260246000fd5b905090565b600d5461010090046001600160a01b031681565b7f000000000000000000000000000000000000000000000000000000000000000081565b6003546001600160a01b031681565b6004805481906103909061150b565b80601f01602080910402602001604051908101604052809291908181526020018280546103bc9061150b565b80156104095780601f106103de57610100808354040283529160200191610409565b820191906000526020600020905b8154815290600101906020018083116103ec57829003601f168201915b50505050509080600101805461041e9061150b565b80601f016020809104026020016040519081016040528092919081815260200182805461044a9061150b565b80156104975780601f1061046c57610100808354040283529160200191610497565b820191906000526020600020905b81548152906001019060200180831161047a57829003601f168201915b5050505050908060020180546104ac9061150b565b80601f01602080910402602001604051908101604052809291908181526020018280546104d89061150b565b80156105255780601f106104fa57610100808354040283529160200191610525565b820191906000526020600020905b81548152906001019060200180831161050857829003601f168201915b50505050509080600301805461053a9061150b565b80601f01602080910402602001604051908101604052809291908181526020018280546105669061150b565b80156105b35780601f10610588576101008083540402835291602001916105b3565b820191906000526020600020905b81548152906001019060200180831161059657829003601f168201915b5050505050908060040180546105c89061150b565b80601f01602080910402602001604051908101604052809291908181526020018280546105f49061150b565b80156106415780601f1061061657610100808354040283529160200191610641565b820191906000526020600020905b81548152906001019060200180831161062457829003601f168201915b5050505050908060050180546106569061150b565b80601f01602080910402602001604051908101604052809291908181526020018280546106829061150b565b80156106cf5780601f106106a4576101008083540402835291602001916106cf565b820191906000526020600020905b8154815290600101906020018083116106b257829003601f168201915b5050505050908060060180546106e49061150b565b80601f01602080910402602001604051908101604052809291908181526020018280546107109061150b565b801561075d5780601f106107325761010080835404028352916020019161075d565b820191906000526020600020905b81548152906001019060200180831161074057829003601f168201915b5050505050908060070180546107729061150b565b80601f016020809104026020016040519081016040528092919081815260200182805461079e9061150b565b80156107eb5780601f106107c0576101008083540402835291602001916107eb565b820191906000526020600020905b8154815290600101906020018083116107ce57829003601f168201915b5050505050908060080180546108009061150b565b80601f016020809104026020016040519081016040528092919081815260200182805461082c9061150b565b80156108795780601f1061084e57610100808354040283529160200191610879565b820191906000526020600020905b81548152906001019060200180831161085c57829003601f168201915b5050505050905089565b600061088d61101a565b60008054600154600254600354600d5460408051610120810190915260048054889788978897889788977f0000000000000000000000000000000000000000000000000000000000000000977f0000000000000000000000000000000000000000000000000000000000000000966001600160a01b03968716969586169594851694938416936101009093049092169188908290829061092c9061150b565b80601f01602080910402602001604051908101604052809291908181526020018280546109589061150b565b80156109a55780601f1061097a576101008083540402835291602001916109a5565b820191906000526020600020905b81548152906001019060200180831161098857829003601f168201915b505050505081526020016001820180546109be9061150b565b80601f01602080910402602001604051908101604052809291908181526020018280546109ea9061150b565b8015610a375780601f10610a0c57610100808354040283529160200191610a37565b820191906000526020600020905b815481529060010190602001808311610a1a57829003601f168201915b50505050508152602001600282018054610a509061150b565b80601f0160208091040260200160405190810160405280929190818152602001828054610a7c9061150b565b8015610ac95780601f10610a9e57610100808354040283529160200191610ac9565b820191906000526020600020905b815481529060010190602001808311610aac57829003601f168201915b50505050508152602001600382018054610ae29061150b565b80601f0160208091040260200160405190810160405280929190818152602001828054610b0e9061150b565b8015610b5b5780601f10610b3057610100808354040283529160200191610b5b565b820191906000526020600020905b815481529060010190602001808311610b3e57829003601f168201915b50505050508152602001600482018054610b749061150b565b80601f0160208091040260200160405190810160405280929190818152602001828054610ba09061150b565b8015610bed5780601f10610bc257610100808354040283529160200191610bed565b820191906000526020600020905b815481529060010190602001808311610bd057829003601f168201915b50505050508152602001600582018054610c069061150b565b80601f0160208091040260200160405190810160405280929190818152602001828054610c329061150b565b8015610c7f5780601f10610c5457610100808354040283529160200191610c7f565b820191906000526020600020905b815481529060010190602001808311610c6257829003601f168201915b50505050508152602001600682018054610c989061150b565b80601f0160208091040260200160405190810160405280929190818152602001828054610cc49061150b565b8015610d115780601f10610ce657610100808354040283529160200191610d11565b820191906000526020600020905b815481529060010190602001808311610cf457829003601f168201915b50505050508152602001600782018054610d2a9061150b565b80601f0160208091040260200160405190810160405280929190818152602001828054610d569061150b565b8015610da35780601f10610d7857610100808354040283529160200191610da3565b820191906000526020600020905b815481529060010190602001808311610d8657829003601f168201915b50505050508152602001600882018054610dbc9061150b565b80601f0160208091040260200160405190810160405280929190818152602001828054610de89061150b565b8015610e355780601f10610e0a57610100808354040283529160200191610e35565b820191906000526020600020905b815481529060010190602001808311610e1857829003601f168201915b5050505050815250509650975097509750975097509750975097509091929394959697565b7f000000000000000000000000000000000000000000000000000000000000000081565b6000546001600160a01b031681565b6001546001600160a01b031681565b8151610eaf90600c906020850190611066565b506001600160a01b038116610ed65760405162461bcd60e51b8152600401610274906114d9565b600180546001600160a01b03929092166001600160a01b031990921691909117905550600d805460ff19166002179055565b7f000000000000000000000000000000000000000000000000000000000000000081565b606060046000018054610f3e9061150b565b80601f0160208091040260200160405190810160405280929190818152602001828054610f6a9061150b565b8015610fb75780601f10610f8c57610100808354040283529160200191610fb7565b820191906000526020600020905b815481529060010190602001808311610f9a57829003601f168201915b5050505050905090565b6001600160a01b038116610fe75760405162461bcd60e51b8152600401610274906114d9565b600180546001600160a01b0319166001600160a01b0392909216919091179055565b6060600480018054610f3e9061150b565b6040518061012001604052806060815260200160608152602001606081526020016060815260200160608152602001606081526020016060815260200160608152602001606081525090565b8280546110729061150b565b90600052602060002090601f01602090048101928261109457600085556110da565b82601f106110ad57805160ff19168380011785556110da565b828001600101855582156110da579182015b828111156110da5782518255916020019190600101906110bf565b506110e69291506110ea565b5090565b5b808211156110e657600081556001016110eb565b80356001600160a01b038116811461111657600080fd5b919050565b60006020828403121561112c578081fd5b611135826110ff565b9392505050565b6000806040838503121561114e578081fd5b823567ffffffffffffffff80821115611165578283fd5b818501915085601f830112611178578283fd5b813560208282111561118c5761118c611546565b604051601f8301601f19168101820184811182821017156111af576111af611546565b60405282815284830182018910156111c5578586fd5b8282860183830137808301820186905295506111e28782016110ff565b9450505050509250929050565b6001600160a01b03169052565b60008151808452815b8181101561122157602081850181015186830182015201611205565b818111156112325782602083870101525b50601f01601f19169290920160200192915050565b6001600160a01b0391909116815260200190565b600061010060018060a01b038b168352806020840152895161012080838601526112896102208601836111fc565b915060208c015160ff198087850301838801526112a684836111fc565b935060408e0151925080878503016101408801526112c484846111fc565b935060608e0151925080878503016101608801526112e284846111fc565b935060808e01519250808785030161018088015261130084846111fc565b935060a08e0151925080878503016101a088015261131e84846111fc565b935060c08e0151925080878503016101c088015261133c84846111fc565b935060e08e0151925080878503016101e088015261135a84846111fc565b9350848e01519450808785030161020088015250505061137a81836111fc565b9250505061138b60408301896111ef565b61139860608301886111ef565b6113a560808301876111ef565b6113b260a08301866111ef565b6113bf60c08301856111ef565b6113cc60e08301846111ef565b9998505050505050505050565b60006020825261113560208301846111fc565b60006101208083526114008184018d6111fc565b90508281036020840152611414818c6111fc565b90508281036040840152611428818b6111fc565b9050828103606084015261143c818a6111fc565b9050828103608084015261145081896111fc565b905082810360a084015261146481886111fc565b905082810360c084015261147881876111fc565b905082810360e084015261148c81866111fc565b90508281036101008401526114a181856111fc565b9c9b505050505050505050505050565b60208101600483106114d357634e487b7160e01b600052602160045260246000fd5b91905290565b6020808252600f908201526e496e76616c6964206164647265737360881b604082015260600190565b90815260200190565b60028104600182168061151f57607f821691505b6020821081141561154057634e487b7160e01b600052602260045260246000fd5b50919050565b634e487b7160e01b600052604160045260246000fdfea2646970667358221220ec923ec3437a8f647ea5a2cec7b920c15e55e6b6b97782d1eb2810aeb349f39d64736f6c6343000800003360a0604052600060015534801561001557600080fd5b506040516106fa3803806106fa8339810160408190526100349161005c565b6001600160a01b03811661004757600080fd5b60601b6001600160601b03191660805261008a565b60006020828403121561006d578081fd5b81516001600160a01b0381168114610083578182fd5b9392505050565b60805160601c6106536100a7600039600060df01526106536000f3fe608060405234801561001057600080fd5b50600436106100575760003560e01c806302d05d3f1461005c57806327506f531461007a57806378ce13651461008f5780639ace38c2146100a45780639e9ab89b146100c8575b600080fd5b6100646100dd565b60405161007191906104c0565b60405180910390f35b610082610101565b60405161007191906104d4565b610097610215565b60405161007191906105b4565b6100b76100b23660046104a8565b61021b565b60405161007195949392919061054e565b6100db6100d6366004610465565b610256565b005b7f000000000000000000000000000000000000000000000000000000000000000081565b60015460609060008167ffffffffffffffff81111561013057634e487b7160e01b600052604160045260246000fd5b60405190808252806020026020018201604052801561016957816020015b61015661041b565b81526020019060019003908161014e5790505b50905060005b8281101561020e5760008181526020818152604091829020825160a0810184528154815260018201546001600160a01b039081169382019390935260028201549092169282019290925260038201546060820152600490910154608082015282518390839081106101f057634e487b7160e01b600052603260045260246000fd5b60200260200101819052508080610206906105ec565b91505061016f565b5091505090565b60015481565b6000602081905290815260409020805460018201546002830154600384015460049094015492936001600160a01b0392831693929091169185565b60015443906102eb576040805160a0810182528681526001600160a01b0380871660208084019182528783168486019081526060850188815260808601888152600180546000908152948590529790932095518655925195850180549685166001600160a01b0319978816179055516002850180549190941695169490941790915551600382015590516004909101556103bd565b81600080600180546102fd91906105d5565b815260200190815260200160002060000154146103355760405162461bcd60e51b815260040161032c9061057d565b60405180910390fd5b6040805160a0810182528681526001600160a01b0380871660208084019182528783168486019081526060850188815260808601888152600180546000908152948590529790932095518655925195850180549685166001600160a01b0319978816179055516002850180549190941695169490941790915551600382015590516004909101555b60018060008282546103cf91906105bd565b90915550506040517f08ce16702f64d2cdc93c2d36818cee685abd25dcf25f93b5008c07c328652bb69061040c908790879087908790879061054e565b60405180910390a15050505050565b6040805160a08101825260008082526020820181905291810182905260608101829052608081019190915290565b80356001600160a01b038116811461046057600080fd5b919050565b6000806000806080858703121561047a578384fd5b8435935061048a60208601610449565b925061049860408601610449565b9396929550929360600135925050565b6000602082840312156104b9578081fd5b5035919050565b6001600160a01b0391909116815260200190565b602080825282518282018190526000919060409081850190868401855b8281101561054157815180518552868101516001600160a01b0390811688870152868201511686860152606080820151908601526080908101519085015260a090930192908501906001016104f1565b5091979650505050505050565b9485526001600160a01b0393841660208601529190921660408401526060830191909152608082015260a00190565b6020808252601b908201527f5472616e73616374696f6e206572726f72206f63637572726564210000000000604082015260600190565b90815260200190565b600082198211156105d0576105d0610607565b500190565b6000828210156105e7576105e7610607565b500390565b600060001982141561060057610600610607565b5060010190565b634e487b7160e01b600052601160045260246000fdfea264697066735822122066815cd6d3b2b092d9963d8f562dd7f1d623f22c22d6ab0f90474b19915f3ffc64736f6c63430008000033",
  "immutableReferences": {
    "146": [
      {
        "length": 32,
        "start": 3676
      }
    ],
    "172": [
      {
        "length": 32,
        "start": 2233
      },
      {
        "length": 32,
        "start": 3850
      }
    ],
    "176": [
      {
        "length": 32,
        "start": 848
      },
      {
        "length": 32,
        "start": 2267
      }
    ]
  },
  "source": "// SPDX-License-Identifier: MIT\r\npragma solidity ^0.8.0;\r\npragma experimental ABIEncoderV2;\r\n\r\nimport \"./Transactions.sol\";\r\n\r\ncontract RawAlkes {\r\n    address public immutable owner;\r\n\r\n    enum PackageStatus {\r\n        AtManufacturer,\r\n        AtDistributor,\r\n        AtKemenkes,\r\n        AtRumahSakit\r\n    }\r\n\r\n    struct AlkesDetails {\r\n        bytes namaAlkes;\r\n        bytes deskripsiAlkes;\r\n        bytes kategori_alkes;\r\n        bytes subkategori_alkes;\r\n        bytes klasifikasiAlkes;\r\n        bytes tipeAlkes;\r\n        bytes kelasResiko;\r\n        bytes kuantitas;\r\n        bytes noIzinEdar;\r\n    }\r\n    // struct DataGeneratedId {\r\n    //     bytes id_informasi;\r\n    //     bytes id_produk;\r\n        \r\n    // }\r\n\r\n    address public immutable productid;\r\n    address public distributor;\r\n    address public immutable manufakturer;\r\n    address public kemenkes;\r\n    address public rumahSakit;\r\n    address public pasien;\r\n\r\n    AlkesDetails public alkesDetails;\r\n    // DataGeneratedId public generatedIds;\r\n    PackageStatus public status;\r\n    address public txnContractAddress;\r\n\r\n    constructor(\r\n        address _creatorAddr,\r\n        address _productid,\r\n        AlkesDetails memory _alkesDetails,\r\n        address _distributorAddr,\r\n        address _kemenkesAddr,\r\n        address _rumahSakitAddr,\r\n        address _pasienAddr\r\n        // DataGeneratedId memory _generatedIds\r\n    ) {\r\n        require(\r\n            _creatorAddr != address(0) &&\r\n                _productid != address(0) &&\r\n                _distributorAddr != address(0) &&\r\n                _kemenkesAddr != address(0) &&\r\n                _rumahSakitAddr != address(0) &&\r\n                _pasienAddr != address(0)\r\n        );\r\n        // require(_productid != address(0) );\r\n        // require(_distributorAddr != address(0));\r\n        // require(_kemenkesAddr != address(0));\r\n        // require(_rumahSakitAddr != address(0));\r\n\r\n        owner = _creatorAddr;\r\n        productid = _productid;\r\n        alkesDetails = _alkesDetails;\r\n        manufakturer = _creatorAddr;\r\n        distributor = _distributorAddr;\r\n        kemenkes = _kemenkesAddr;\r\n        rumahSakit = _rumahSakitAddr;\r\n        pasien = _pasienAddr;\r\n        status = PackageStatus.AtManufacturer;\r\n        initializeTxnContract(_distributorAddr);\r\n    }\r\n\r\n    function initializeTxnContract(address distributorAddr) internal {\r\n        Transactions txnContract = new Transactions(distributorAddr);\r\n        txnContractAddress = address(txnContract);\r\n    }\r\n\r\n    function getRawAlkes()\r\n        public\r\n        view\r\n        returns (\r\n            address,\r\n            AlkesDetails memory,\r\n            address,\r\n            address,\r\n            address,\r\n            address,\r\n            address,\r\n            address\r\n        )\r\n    {\r\n        return (\r\n            productid,\r\n            alkesDetails,\r\n            manufakturer,\r\n            distributor,\r\n            kemenkes,\r\n            rumahSakit,\r\n            pasien,\r\n            txnContractAddress\r\n        );\r\n    }\r\n\r\n    function getNamaAlkes() public view returns (bytes memory) {\r\n        return alkesDetails.namaAlkes;\r\n    }\r\n\r\n    function getKlasifikasiALkes() public view returns (bytes memory) {\r\n        return alkesDetails.klasifikasiAlkes;\r\n    }\r\n\r\n    function getRawAlkesStatus() public view returns (uint) {\r\n        return uint(status);\r\n    }\r\n\r\n    function updatedistributorAddress(address addr) public {\r\n        require(addr != address(0), \"Invalid address\");\r\n\r\n        distributor = addr;\r\n        status = PackageStatus.AtDistributor;\r\n    }\r\n\r\n    function distributorToKemenkes(address addr) public {\r\n        require(addr != address(0), \"Invalid address\");\r\n\r\n        kemenkes = addr;\r\n    }\r\n\r\n    function izinEdarApprove(bytes memory nomor, address addr) public {\r\n        alkesDetails.noIzinEdar = nomor;\r\n        require(addr != address(0), \"Invalid address\");\r\n        kemenkes = addr;\r\n        status = PackageStatus.AtKemenkes;\r\n    }\r\n\r\n    function distributorToRs(address addr) public {\r\n        require(addr != address(0), \"Invalid address\");\r\n        rumahSakit = addr;\r\n        status = PackageStatus.AtRumahSakit;\r\n    }\r\n}\r\n",
  "sourcePath": "D:\\ACTIVITY\\SEM 8\\0. SKRIPSI\\REF\\WEB\\alkes-blockchain\\contracts\\RawAlkes.sol",
  "compiler": {
    "name": "solc",
    "version": "0.8.0+commit.c7dfd78e.Emscripten.clang"
  },
  "schemaVersion": "3.4.16",
  "updatedAt": "2024-01-24T14:07:15.524Z",
  "devdoc": {
    "kind": "dev",
    "methods": {},
    "version": 1
  },
  "userdoc": {
    "kind": "user",
    "methods": {},
    "version": 1
  }
}