{
  "contractName": "RawAlkes",
  "abi": [
    {
      "inputs": [
        {
          "internalType": "address",
          "name": "_creatorAddr",
          "type": "address"
        },
        {
          "internalType": "address",
          "name": "_productid",
          "type": "address"
        },
        {
          "internalType": "bytes32",
          "name": "_namaAlkes",
          "type": "bytes32"
        },
        {
          "internalType": "bytes32",
          "name": "_deskripsiAlkes",
          "type": "bytes32"
        },
        {
          "internalType": "bytes32",
          "name": "_klasifikasiAlkes",
          "type": "bytes32"
        },
        {
          "internalType": "bytes32",
          "name": "_tipeAlkes",
          "type": "bytes32"
        },
        {
          "internalType": "bytes32",
          "name": "_kelasAlkes",
          "type": "bytes32"
        },
        {
          "internalType": "bytes32",
          "name": "_kelasResiko",
          "type": "bytes32"
        },
        {
          "internalType": "address",
          "name": "_manufacturerAddr",
          "type": "address"
        }
      ],
      "stateMutability": "nonpayable",
      "type": "constructor"
    },
    {
      "anonymous": false,
      "inputs": [
        {
          "indexed": true,
          "internalType": "address",
          "name": "ProductID",
          "type": "address"
        },
        {
          "indexed": true,
          "internalType": "address",
          "name": "Transporter",
          "type": "address"
        },
        {
          "indexed": true,
          "internalType": "address",
          "name": "Manufacturer",
          "type": "address"
        },
        {
          "indexed": false,
          "internalType": "uint256",
          "name": "TransporterType",
          "type": "uint256"
        },
        {
          "indexed": false,
          "internalType": "uint256",
          "name": "Status",
          "type": "uint256"
        }
      ],
      "name": "ShippmentUpdate",
      "type": "event"
    },
    {
      "inputs": [],
      "name": "Owner",
      "outputs": [
        {
          "internalType": "address",
          "name": "",
          "type": "address"
        }
      ],
      "stateMutability": "view",
      "type": "function"
    },
    {
      "inputs": [],
      "name": "getRawAlkes",
      "outputs": [
        {
          "internalType": "address",
          "name": "",
          "type": "address"
        },
        {
          "internalType": "bytes32",
          "name": "",
          "type": "bytes32"
        },
        {
          "internalType": "bytes32",
          "name": "",
          "type": "bytes32"
        },
        {
          "internalType": "bytes32",
          "name": "",
          "type": "bytes32"
        },
        {
          "internalType": "bytes32",
          "name": "",
          "type": "bytes32"
        },
        {
          "internalType": "bytes32",
          "name": "",
          "type": "bytes32"
        },
        {
          "internalType": "bytes32",
          "name": "",
          "type": "bytes32"
        },
        {
          "internalType": "address",
          "name": "",
          "type": "address"
        },
        {
          "internalType": "address",
          "name": "",
          "type": "address"
        },
        {
          "internalType": "address",
          "name": "",
          "type": "address"
        }
      ],
      "stateMutability": "view",
      "type": "function"
    },
    {
      "inputs": [],
      "name": "getRawAlkesStatus",
      "outputs": [
        {
          "internalType": "uint256",
          "name": "",
          "type": "uint256"
        }
      ],
      "stateMutability": "view",
      "type": "function"
    },
    {
      "inputs": [],
      "name": "getNamaAlkes",
      "outputs": [
        {
          "internalType": "bytes32",
          "name": "",
          "type": "bytes32"
        }
      ],
      "stateMutability": "view",
      "type": "function"
    },
    {
      "inputs": [],
      "name": "getKlasifikasiALkes",
      "outputs": [
        {
          "internalType": "bytes32",
          "name": "",
          "type": "bytes32"
        }
      ],
      "stateMutability": "view",
      "type": "function"
    },
    {
      "inputs": [
        {
          "internalType": "address",
          "name": "addr",
          "type": "address"
        }
      ],
      "name": "updateManufacturerAddress",
      "outputs": [],
      "stateMutability": "nonpayable",
      "type": "function"
    },
    {
      "inputs": [
        {
          "internalType": "address",
          "name": "_transporterAddr",
          "type": "address"
        }
      ],
      "name": "pickPackage",
      "outputs": [],
      "stateMutability": "nonpayable",
      "type": "function"
    },
    {
      "inputs": [
        {
          "internalType": "address",
          "name": "_manufacturerAddr",
          "type": "address"
        }
      ],
      "name": "receivedPackage",
      "outputs": [],
      "stateMutability": "nonpayable",
      "type": "function"
    }
  ],
  "bytecode": "0x60806040523480156200001157600080fd5b50604051620025e0380380620025e08339818101604052810190620000379190620002b9565b886000806101000a81548173ffffffffffffffffffffffffffffffffffffffff021916908373ffffffffffffffffffffffffffffffffffffffff16021790555087600160006101000a81548173ffffffffffffffffffffffffffffffffffffffff021916908373ffffffffffffffffffffffffffffffffffffffff16021790555086600281905550856003819055508460048190555083600581905550826006819055508160078190555080600960006101000a81548173ffffffffffffffffffffffffffffffffffffffff021916908373ffffffffffffffffffffffffffffffffffffffff16021790555088600a60006101000a81548173ffffffffffffffffffffffffffffffffffffffff021916908373ffffffffffffffffffffffffffffffffffffffff160217905550600060028111156200019f577f4e487b7100000000000000000000000000000000000000000000000000000000600052602160045260246000fd5b600a60146101000a81548160ff02191690836002811115620001ea577f4e487b7100000000000000000000000000000000000000000000000000000000600052602160045260246000fd5b021790555060008160405162000200906200027d565b6200020c9190620003a3565b604051809103906000f08015801562000229573d6000803e3d6000fd5b50905080600c60006101000a81548173ffffffffffffffffffffffffffffffffffffffff021916908373ffffffffffffffffffffffffffffffffffffffff1602179055505050505050505050505062000432565b61143480620011ac83390190565b6000815190506200029c81620003fe565b92915050565b600081519050620002b38162000418565b92915050565b60008060008060008060008060006101208a8c031215620002d957600080fd5b6000620002e98c828d016200028b565b9950506020620002fc8c828d016200028b565b98505060406200030f8c828d01620002a2565b9750506060620003228c828d01620002a2565b9650506080620003358c828d01620002a2565b95505060a0620003488c828d01620002a2565b94505060c06200035b8c828d01620002a2565b93505060e06200036e8c828d01620002a2565b925050610100620003828c828d016200028b565b9150509295985092959850929598565b6200039d81620003c0565b82525050565b6000602082019050620003ba600083018462000392565b92915050565b6000620003cd82620003de565b9050919050565b6000819050919050565b600073ffffffffffffffffffffffffffffffffffffffff82169050919050565b6200040981620003c0565b81146200041557600080fd5b50565b6200042381620003d4565b81146200042f57600080fd5b50565b610d6a80620004426000396000f3fe608060405234801561001057600080fd5b50600436106100885760003560e01c80637618bd6d1161005b5780637618bd6d146100ff578063b4a99a4e14610126578063e1009dfa14610144578063ee2005821461016257610088565b80634176ee751461008d57806350e073bc146100ab57806352b99968146100c7578063638e9a3d146100e3575b600080fd5b610095610180565b6040516100a29190610c87565b60405180910390f35b6100c560048036038101906100c09190610923565b6101cf565b005b6100e160048036038101906100dc9190610923565b610213565b005b6100fd60048036038101906100f89190610923565b61050e565b005b610107610809565b60405161011d9a99989796959493929190610afe565b60405180910390f35b61012e6108d6565b60405161013b9190610ae3565b60405180910390f35b61014c6108fa565b6040516101599190610b9a565b60405180910390f35b61016a610904565b6040516101779190610b9a565b60405180910390f35b6000600a60149054906101000a900460ff1660028111156101ca577f4e487b7100000000000000000000000000000000000000000000000000000000600052602160045260246000fd5b905090565b80600960006101000a81548173ffffffffffffffffffffffffffffffffffffffff021916908373ffffffffffffffffffffffffffffffffffffffff16021790555050565b600960009054906101000a900473ffffffffffffffffffffffffffffffffffffffff1673ffffffffffffffffffffffffffffffffffffffff168173ffffffffffffffffffffffffffffffffffffffff16146102a3576040517f08c379a000000000000000000000000000000000000000000000000000000000815260040161029a90610c27565b60405180910390fd5b600160028111156102dd577f4e487b7100000000000000000000000000000000000000000000000000000000600052602160045260246000fd5b6002811115610315577f4e487b7100000000000000000000000000000000000000000000000000000000600052602160045260246000fd5b600a60149054906101000a900460ff16600281111561035d577f4e487b7100000000000000000000000000000000000000000000000000000000600052602160045260246000fd5b1461039d576040517f08c379a000000000000000000000000000000000000000000000000000000000815260040161039490610c07565b60405180910390fd5b6002808111156103d6577f4e487b7100000000000000000000000000000000000000000000000000000000600052602160045260246000fd5b600a60146101000a81548160ff02191690836002811115610420577f4e487b7100000000000000000000000000000000000000000000000000000000600052602160045260246000fd5b0217905550600960009054906101000a900473ffffffffffffffffffffffffffffffffffffffff1673ffffffffffffffffffffffffffffffffffffffff16600860009054906101000a900473ffffffffffffffffffffffffffffffffffffffff1673ffffffffffffffffffffffffffffffffffffffff16600160009054906101000a900473ffffffffffffffffffffffffffffffffffffffff1673ffffffffffffffffffffffffffffffffffffffff167f7e89c4b1a4e2b51aae84eb1f90e8a34cb792ece5ac5cb63db4830c891220b28d60016002604051610503929190610bde565b60405180910390a450565b600860009054906101000a900473ffffffffffffffffffffffffffffffffffffffff1673ffffffffffffffffffffffffffffffffffffffff168173ffffffffffffffffffffffffffffffffffffffff161461059e576040517f08c379a000000000000000000000000000000000000000000000000000000000815260040161059590610c67565b60405180910390fd5b600060028111156105d8577f4e487b7100000000000000000000000000000000000000000000000000000000600052602160045260246000fd5b6002811115610610577f4e487b7100000000000000000000000000000000000000000000000000000000600052602160045260246000fd5b600a60149054906101000a900460ff166002811115610658577f4e487b7100000000000000000000000000000000000000000000000000000000600052602160045260246000fd5b14610698576040517f08c379a000000000000000000000000000000000000000000000000000000000815260040161068f90610c47565b60405180910390fd5b600160028111156106d2577f4e487b7100000000000000000000000000000000000000000000000000000000600052602160045260246000fd5b600a60146101000a81548160ff0219169083600281111561071c577f4e487b7100000000000000000000000000000000000000000000000000000000600052602160045260246000fd5b0217905550600960009054906101000a900473ffffffffffffffffffffffffffffffffffffffff1673ffffffffffffffffffffffffffffffffffffffff16600860009054906101000a900473ffffffffffffffffffffffffffffffffffffffff1673ffffffffffffffffffffffffffffffffffffffff16600160009054906101000a900473ffffffffffffffffffffffffffffffffffffffff1673ffffffffffffffffffffffffffffffffffffffff167f7e89c4b1a4e2b51aae84eb1f90e8a34cb792ece5ac5cb63db4830c891220b28d6001806040516107fe929190610bb5565b60405180910390a450565b600080600080600080600080600080600160009054906101000a900473ffffffffffffffffffffffffffffffffffffffff16600254600354600454600554600654600754600a60009054906101000a900473ffffffffffffffffffffffffffffffffffffffff16600960009054906101000a900473ffffffffffffffffffffffffffffffffffffffff16600c60009054906101000a900473ffffffffffffffffffffffffffffffffffffffff16995099509950995099509950995099509950995090919293949596979899565b60008054906101000a900473ffffffffffffffffffffffffffffffffffffffff1681565b6000600254905090565b6000600454905090565b60008135905061091d81610d1d565b92915050565b60006020828403121561093557600080fd5b60006109438482850161090e565b91505092915050565b61095581610cb3565b82525050565b61096481610cc5565b82525050565b61097381610cf9565b82525050565b61098281610d0b565b82525050565b6000610995601983610ca2565b91507f50726f64756374206e6f74207069636b656420757020796574000000000000006000830152602082019050919050565b60006109d5603983610ca2565b91507f4f6e6c79204d616e756661637475726572206f6620746865207061636b61676560008301527f2063616e20726563656965766520746865207061636b616765000000000000006020830152604082019050919050565b6000610a3b601c83610ca2565b91507f5061636b616765206d75737420626520617420537570706c6965722e000000006000830152602082019050919050565b6000610a7b603083610ca2565b91507f4f6e6c79207472616e73706f72746572206f6620746865207061636b6167652060008301527f63616e207069636b207061636b616765000000000000000000000000000000006020830152604082019050919050565b610add81610cef565b82525050565b6000602082019050610af8600083018461094c565b92915050565b600061014082019050610b14600083018d61094c565b610b21602083018c61095b565b610b2e604083018b61095b565b610b3b606083018a61095b565b610b48608083018961095b565b610b5560a083018861095b565b610b6260c083018761095b565b610b6f60e083018661094c565b610b7d61010083018561094c565b610b8b61012083018461094c565b9b9a5050505050505050505050565b6000602082019050610baf600083018461095b565b92915050565b6000604082019050610bca600083018561096a565b610bd7602083018461096a565b9392505050565b6000604082019050610bf3600083018561096a565b610c006020830184610979565b9392505050565b60006020820190508181036000830152610c2081610988565b9050919050565b60006020820190508181036000830152610c40816109c8565b9050919050565b60006020820190508181036000830152610c6081610a2e565b9050919050565b60006020820190508181036000830152610c8081610a6e565b9050919050565b6000602082019050610c9c6000830184610ad4565b92915050565b600082825260208201905092915050565b6000610cbe82610ccf565b9050919050565b6000819050919050565b600073ffffffffffffffffffffffffffffffffffffffff82169050919050565b6000819050919050565b6000610d0482610cef565b9050919050565b6000610d1682610cef565b9050919050565b610d2681610cb3565b8114610d3157600080fd5b5056fea26469706673582212208277eae0f3cf19a911844e4f7484b5660c99d33f01d642926dc421a17e82a14264736f6c63430008000033608060405260006002553480156200001657600080fd5b50604051620014343803806200143483398181016040528101906200003c91906200009a565b806000806101000a81548173ffffffffffffffffffffffffffffffffffffffff021916908373ffffffffffffffffffffffffffffffffffffffff1602179055505062000114565b6000815190506200009481620000fa565b92915050565b600060208284031215620000ad57600080fd5b6000620000bd8482850162000083565b91505092915050565b6000620000d382620000da565b9050919050565b600073ffffffffffffffffffffffffffffffffffffffff82169050919050565b6200010581620000c6565b81146200011157600080fd5b50565b61131080620001246000396000f3fe608060405234801561001057600080fd5b50600436106100575760003560e01c806318bee97e1461005c57806327506f531461007a5780633626a3681461009857806378ce1365146100b45780639ace38c2146100d2575b600080fd5b610064610108565b6040516100719190610e31565b60405180910390f35b61008261012c565b60405161008f9190610e4c565b60405180910390f35b6100b260048036038101906100ad9190610b17565b61042a565b005b6100bc6107c6565b6040516100c99190610f88565b60405180910390f35b6100ec60048036038101906100e79190610bd0565b6107cc565b6040516100ff9796959493929190610e6e565b60405180910390f35b60008054906101000a900473ffffffffffffffffffffffffffffffffffffffff1681565b60606000600254905060008167ffffffffffffffff811115610177577f4e487b7100000000000000000000000000000000000000000000000000000000600052604160045260246000fd5b6040519080825280602002602001820160405280156101b057816020015b61019d61095e565b8152602001906001900390816101955790505b50905060005b8281101561042157600160008281526020019081526020016000206040518060e0016040529081600082015481526020016001820160009054906101000a900473ffffffffffffffffffffffffffffffffffffffff1673ffffffffffffffffffffffffffffffffffffffff1673ffffffffffffffffffffffffffffffffffffffff1681526020016002820160009054906101000a900473ffffffffffffffffffffffffffffffffffffffff1673ffffffffffffffffffffffffffffffffffffffff1673ffffffffffffffffffffffffffffffffffffffff168152602001600382015481526020016004820180546102ac9061117c565b80601f01602080910402602001604051908101604052809291908181526020018280546102d89061117c565b80156103255780601f106102fa57610100808354040283529160200191610325565b820191906000526020600020905b81548152906001019060200180831161030857829003601f168201915b5050505050815260200160058201805461033e9061117c565b80601f016020809104026020016040519081016040528092919081815260200182805461036a9061117c565b80156103b75780601f1061038c576101008083540402835291602001916103b7565b820191906000526020600020905b81548152906001019060200180831161039a57829003601f168201915b50505050508152602001600682015481525050828281518110610403577f4e487b7100000000000000000000000000000000000000000000000000000000600052603260045260246000fd5b60200260200101819052508080610419906111ae565b9150506101b6565b50809250505090565b60004290506000600254141561059c576040518060e001604052808881526020018773ffffffffffffffffffffffffffffffffffffffff1681526020018673ffffffffffffffffffffffffffffffffffffffff168152602001858152602001848152602001838152602001828152506001600060025481526020019081526020016000206000820151816000015560208201518160010160006101000a81548173ffffffffffffffffffffffffffffffffffffffff021916908373ffffffffffffffffffffffffffffffffffffffff16021790555060408201518160020160006101000a81548173ffffffffffffffffffffffffffffffffffffffff021916908373ffffffffffffffffffffffffffffffffffffffff16021790555060608201518160030155608082015181600401908051906020019061056c9291906109cd565b5060a08201518160050190805190602001906105899291906109cd565b5060c08201518160060155905050610760565b836001600060016002546105b091906110c0565b81526020019081526020016000206000015414610602576040517f08c379a00000000000000000000000000000000000000000000000000000000081526004016105f990610f68565b60405180910390fd5b6040518060e001604052808881526020018773ffffffffffffffffffffffffffffffffffffffff1681526020018673ffffffffffffffffffffffffffffffffffffffff168152602001858152602001848152602001838152602001828152506001600060025481526020019081526020016000206000820151816000015560208201518160010160006101000a81548173ffffffffffffffffffffffffffffffffffffffff021916908373ffffffffffffffffffffffffffffffffffffffff16021790555060408201518160020160006101000a81548173ffffffffffffffffffffffffffffffffffffffff021916908373ffffffffffffffffffffffffffffffffffffffff1602179055506060820151816003015560808201518160040190805190602001906107349291906109cd565b5060a08201518160050190805190602001906107519291906109cd565b5060c082015181600601559050505b600160026000828254610773919061106a565b925050819055507fe8fdde79d5c50584882865d04c966eb4120c519359629c763d4a432470e7a94a878787878588886040516107b59796959493929190610eeb565b60405180910390a150505050505050565b60025481565b60016020528060005260406000206000915090508060000154908060010160009054906101000a900473ffffffffffffffffffffffffffffffffffffffff16908060020160009054906101000a900473ffffffffffffffffffffffffffffffffffffffff16908060030154908060040180546108479061117c565b80601f01602080910402602001604051908101604052809291908181526020018280546108739061117c565b80156108c05780601f10610895576101008083540402835291602001916108c0565b820191906000526020600020905b8154815290600101906020018083116108a357829003601f168201915b5050505050908060050180546108d59061117c565b80601f01602080910402602001604051908101604052809291908181526020018280546109019061117c565b801561094e5780601f106109235761010080835404028352916020019161094e565b820191906000526020600020905b81548152906001019060200180831161093157829003601f168201915b5050505050908060060154905087565b6040518060e0016040528060008019168152602001600073ffffffffffffffffffffffffffffffffffffffff168152602001600073ffffffffffffffffffffffffffffffffffffffff168152602001600080191681526020016060815260200160608152602001600081525090565b8280546109d99061117c565b90600052602060002090601f0160209004810192826109fb5760008555610a42565b82601f10610a1457805160ff1916838001178555610a42565b82800160010185558215610a42579182015b82811115610a41578251825591602001919060010190610a26565b5b509050610a4f9190610a53565b5090565b5b80821115610a6c576000816000905550600101610a54565b5090565b6000610a83610a7e84610fd4565b610fa3565b905082815260208101848484011115610a9b57600080fd5b610aa684828561113a565b509392505050565b600081359050610abd81611295565b92915050565b600081359050610ad2816112ac565b92915050565b600082601f830112610ae957600080fd5b8135610af9848260208601610a70565b91505092915050565b600081359050610b11816112c3565b92915050565b60008060008060008060c08789031215610b3057600080fd5b6000610b3e89828a01610ac3565b9650506020610b4f89828a01610aae565b9550506040610b6089828a01610aae565b9450506060610b7189828a01610ac3565b935050608087013567ffffffffffffffff811115610b8e57600080fd5b610b9a89828a01610ad8565b92505060a087013567ffffffffffffffff811115610bb757600080fd5b610bc389828a01610ad8565b9150509295509295509295565b600060208284031215610be257600080fd5b6000610bf084828501610b02565b91505092915050565b6000610c058383610d70565b905092915050565b610c16816110f4565b82525050565b610c25816110f4565b82525050565b6000610c3682611014565b610c408185611037565b935083602082028501610c5285611004565b8060005b85811015610c8e5784840389528151610c6f8582610bf9565b9450610c7a8361102a565b925060208a01995050600181019050610c56565b50829750879550505050505092915050565b610ca981611106565b82525050565b610cb881611106565b82525050565b6000610cc98261101f565b610cd38185611048565b9350610ce3818560208601611149565b610cec81611284565b840191505092915050565b6000610d028261101f565b610d0c8185611059565b9350610d1c818560208601611149565b610d2581611284565b840191505092915050565b6000610d3d601b83611059565b91507f5472616e73616374696f6e206572726f72206f636375727265642100000000006000830152602082019050919050565b600060e083016000830151610d886000860182610ca0565b506020830151610d9b6020860182610c0d565b506040830151610dae6040860182610c0d565b506060830151610dc16060860182610ca0565b5060808301518482036080860152610dd98282610cbe565b91505060a083015184820360a0860152610df38282610cbe565b91505060c0830151610e0860c0860182610e13565b508091505092915050565b610e1c81611130565b82525050565b610e2b81611130565b82525050565b6000602082019050610e466000830184610c1c565b92915050565b60006020820190508181036000830152610e668184610c2b565b905092915050565b600060e082019050610e83600083018a610caf565b610e906020830189610c1c565b610e9d6040830188610c1c565b610eaa6060830187610caf565b8181036080830152610ebc8186610cf7565b905081810360a0830152610ed08185610cf7565b9050610edf60c0830184610e22565b98975050505050505050565b600060e082019050610f00600083018a610caf565b610f0d6020830189610c1c565b610f1a6040830188610c1c565b610f276060830187610caf565b610f346080830186610e22565b81810360a0830152610f468185610cf7565b905081810360c0830152610f5a8184610cf7565b905098975050505050505050565b60006020820190508181036000830152610f8181610d30565b9050919050565b6000602082019050610f9d6000830184610e22565b92915050565b6000604051905081810181811067ffffffffffffffff82111715610fca57610fc9611255565b5b8060405250919050565b600067ffffffffffffffff821115610fef57610fee611255565b5b601f19601f8301169050602081019050919050565b6000819050602082019050919050565b600081519050919050565b600081519050919050565b6000602082019050919050565b600082825260208201905092915050565b600082825260208201905092915050565b600082825260208201905092915050565b600061107582611130565b915061108083611130565b9250827fffffffffffffffffffffffffffffffffffffffffffffffffffffffffffffffff038211156110b5576110b46111f7565b5b828201905092915050565b60006110cb82611130565b91506110d683611130565b9250828210156110e9576110e86111f7565b5b828203905092915050565b60006110ff82611110565b9050919050565b6000819050919050565b600073ffffffffffffffffffffffffffffffffffffffff82169050919050565b6000819050919050565b82818337600083830152505050565b60005b8381101561116757808201518184015260208101905061114c565b83811115611176576000848401525b50505050565b6000600282049050600182168061119457607f821691505b602082108114156111a8576111a7611226565b5b50919050565b60006111b982611130565b91507fffffffffffffffffffffffffffffffffffffffffffffffffffffffffffffffff8214156111ec576111eb6111f7565b5b600182019050919050565b7f4e487b7100000000000000000000000000000000000000000000000000000000600052601160045260246000fd5b7f4e487b7100000000000000000000000000000000000000000000000000000000600052602260045260246000fd5b7f4e487b7100000000000000000000000000000000000000000000000000000000600052604160045260246000fd5b6000601f19601f8301169050919050565b61129e816110f4565b81146112a957600080fd5b50565b6112b581611106565b81146112c057600080fd5b50565b6112cc81611130565b81146112d757600080fd5b5056fea2646970667358221220f99e552f867aebe41b13813854daa3c826a1af13846b898f3eab70393e2d1fe464736f6c63430008000033",
  "immutableReferences": {},
  "source": "// SPDX-License-Identifier: MIT\r\n// pragma solidity >=0.6.6 <=0.8.23;\r\npragma solidity ^0.8.0;\r\n\r\npragma experimental ABIEncoderV2;\r\n\r\nimport \"./Transactions.sol\";\r\n\r\ncontract RawAlkes {\r\n    address public Owner;\r\n\r\n    enum packageStatus {\r\n        atCreator,\r\n        picked,\r\n        delivered\r\n    }\r\n\r\n    event ShippmentUpdate(\r\n        address indexed ProductID,\r\n        address indexed Transporter,\r\n        address indexed Manufacturer,\r\n        uint TransporterType,\r\n        uint Status\r\n    );\r\n\r\n    address productid;\r\n    bytes32 namaAlkes;\r\n    bytes32 deskripsiAlkes;\r\n    bytes32 klasifikasiAlkes;\r\n    bytes32 tipeAlkes;\r\n    bytes32 kelasAlkes;\r\n    bytes32 kelasResiko;\r\n    address transporter;\r\n    address manufacturer;\r\n    address supplier;\r\n    packageStatus status;\r\n    bytes32 packageReceiverDescription;\r\n    address txnContractAddress;\r\n\r\n    constructor(\r\n        address _creatorAddr,\r\n        address _productid,\r\n        bytes32 _namaAlkes,\r\n        bytes32 _deskripsiAlkes,\r\n        bytes32 _klasifikasiAlkes,\r\n        bytes32 _tipeAlkes,\r\n        bytes32 _kelasAlkes,\r\n        bytes32 _kelasResiko,\r\n        address _manufacturerAddr\r\n    ) public {\r\n        Owner = _creatorAddr;\r\n        productid = _productid;\r\n        namaAlkes = _namaAlkes;\r\n        deskripsiAlkes = _deskripsiAlkes;\r\n        klasifikasiAlkes = _klasifikasiAlkes;\r\n        tipeAlkes = _tipeAlkes;\r\n        kelasAlkes = _kelasAlkes;\r\n        kelasResiko = _kelasResiko;\r\n        manufacturer = _manufacturerAddr;\r\n        supplier = _creatorAddr;\r\n        status = packageStatus(0);\r\n        Transactions txnContract = new Transactions(_manufacturerAddr);\r\n        txnContractAddress = address(txnContract);\r\n    }\r\n\r\n    function getRawAlkes()\r\n        public\r\n        view\r\n        returns (\r\n            address,\r\n            bytes32,\r\n            bytes32,\r\n            bytes32,\r\n            bytes32,\r\n            bytes32,\r\n            bytes32,\r\n            address,\r\n            address,\r\n            address\r\n        )\r\n    {\r\n        return (\r\n            productid,\r\n            namaAlkes,\r\n            deskripsiAlkes,\r\n            klasifikasiAlkes,\r\n            tipeAlkes,\r\n            kelasAlkes,\r\n            kelasResiko,\r\n            supplier,\r\n            manufacturer,\r\n            txnContractAddress\r\n        );\r\n    }\r\n\r\n    function getRawAlkesStatus() public view returns (uint) {\r\n        return uint(status);\r\n    }\r\n\r\n    function getNamaAlkes() public view returns (bytes32) {\r\n        return namaAlkes;\r\n    }\r\n\r\n    function getKlasifikasiALkes() public view returns (bytes32) {\r\n        return klasifikasiAlkes;\r\n    }\r\n\r\n    function updateManufacturerAddress(address addr) public {\r\n        manufacturer = addr;\r\n    }\r\n\r\n    function pickPackage(address _transporterAddr) public {\r\n        require(\r\n            _transporterAddr == transporter,\r\n            \"Only transporter of the package can pick package\"\r\n        );\r\n        require(status == packageStatus(0), \"Package must be at Supplier.\");\r\n        status = packageStatus(1);\r\n        emit ShippmentUpdate(productid, transporter, manufacturer, 1, 1);\r\n    }\r\n\r\n    function receivedPackage(address _manufacturerAddr) public {\r\n        require(\r\n            _manufacturerAddr == manufacturer,\r\n            \"Only Manufacturer of the package can receieve the package\"\r\n        );\r\n\r\n        require(status == packageStatus(1), \"Product not picked up yet\");\r\n        status = packageStatus(2);\r\n        emit ShippmentUpdate(productid, transporter, manufacturer, 1, 2);\r\n    }\r\n}\r\n",
  "sourcePath": "D:\\ACTIVITY\\SEM 8\\0. SKRIPSI\\REF\\WEB\\alkes-blockchain\\contracts\\RawAlkes.sol",
  "compiler": {
    "name": "solc",
    "version": "0.8.0+commit.c7dfd78e.Emscripten.clang"
  },
  "schemaVersion": "3.4.16",
  "updatedAt": "2023-11-29T16:33:11.954Z",
  "devdoc": {
    "kind": "dev",
    "methods": {},
    "version": 1
  },
  "userdoc": {
    "kind": "user",
    "methods": {},
    "version": 1
  }
}