{
  "contractName": "RawAlkes",
  "abi": [
    {
      "inputs": [
        {
          "internalType": "address",
          "name": "_creatorAddr",
          "type": "address"
        },
        {
          "internalType": "address",
          "name": "_productid",
          "type": "address"
        },
        {
          "internalType": "bytes32",
          "name": "_namaAlkes",
          "type": "bytes32"
        },
        {
          "internalType": "bytes32",
          "name": "_deskripsiAlkes",
          "type": "bytes32"
        },
        {
          "internalType": "bytes32",
          "name": "_klasifikasiAlkes",
          "type": "bytes32"
        },
        {
          "internalType": "bytes32",
          "name": "_tipeAlkes",
          "type": "bytes32"
        },
        {
          "internalType": "bytes32",
          "name": "_kelasAlkes",
          "type": "bytes32"
        },
        {
          "internalType": "bytes32",
          "name": "_kelasResiko",
          "type": "bytes32"
        },
        {
          "internalType": "bytes32",
          "name": "_noIzinEdar",
          "type": "bytes32"
        },
        {
          "internalType": "address",
          "name": "_distributorAddr",
          "type": "address"
        },
        {
          "internalType": "address",
          "name": "_kemenkesAddr",
          "type": "address"
        },
        {
          "internalType": "address",
          "name": "_rumahSakitAddr",
          "type": "address"
        }
      ],
      "stateMutability": "nonpayable",
      "type": "constructor"
    },
    {
      "inputs": [],
      "name": "Owner",
      "outputs": [
        {
          "internalType": "address",
          "name": "",
          "type": "address"
        }
      ],
      "stateMutability": "view",
      "type": "function"
    },
    {
      "inputs": [],
      "name": "getRawAlkes",
      "outputs": [
        {
          "internalType": "address",
          "name": "",
          "type": "address"
        },
        {
          "internalType": "bytes32",
          "name": "",
          "type": "bytes32"
        },
        {
          "internalType": "bytes32",
          "name": "",
          "type": "bytes32"
        },
        {
          "internalType": "bytes32",
          "name": "",
          "type": "bytes32"
        },
        {
          "internalType": "bytes32",
          "name": "",
          "type": "bytes32"
        },
        {
          "internalType": "bytes32",
          "name": "",
          "type": "bytes32"
        },
        {
          "internalType": "bytes32",
          "name": "",
          "type": "bytes32"
        },
        {
          "internalType": "bytes32",
          "name": "",
          "type": "bytes32"
        },
        {
          "internalType": "address",
          "name": "",
          "type": "address"
        },
        {
          "internalType": "address",
          "name": "",
          "type": "address"
        },
        {
          "internalType": "address",
          "name": "",
          "type": "address"
        },
        {
          "internalType": "address",
          "name": "",
          "type": "address"
        },
        {
          "internalType": "address",
          "name": "",
          "type": "address"
        }
      ],
      "stateMutability": "view",
      "type": "function"
    },
    {
      "inputs": [],
      "name": "getRawAlkesStatus",
      "outputs": [
        {
          "internalType": "uint256",
          "name": "",
          "type": "uint256"
        }
      ],
      "stateMutability": "view",
      "type": "function"
    },
    {
      "inputs": [],
      "name": "getNamaAlkes",
      "outputs": [
        {
          "internalType": "bytes32",
          "name": "",
          "type": "bytes32"
        }
      ],
      "stateMutability": "view",
      "type": "function"
    },
    {
      "inputs": [],
      "name": "getKlasifikasiALkes",
      "outputs": [
        {
          "internalType": "bytes32",
          "name": "",
          "type": "bytes32"
        }
      ],
      "stateMutability": "view",
      "type": "function"
    },
    {
      "inputs": [
        {
          "internalType": "address",
          "name": "addr",
          "type": "address"
        }
      ],
      "name": "updatedistributorAddress",
      "outputs": [],
      "stateMutability": "nonpayable",
      "type": "function"
    }
  ],
  "bytecode": "0x608060405234801561001057600080fd5b50604051610caa380380610caa83398101604081905261002f91610231565b8b6000806101000a8154816001600160a01b0302191690836001600160a01b031602179055508a600160006101000a8154816001600160a01b0302191690836001600160a01b03160217905550896002819055508860038190555087600481905550866005819055508560068190555084600781905550836008819055508b600a60006101000a8154816001600160a01b0302191690836001600160a01b0316021790555082600960006101000a8154816001600160a01b0302191690836001600160a01b0316021790555081600b60006101000a8154816001600160a01b0302191690836001600160a01b0316021790555080600c60006101000a8154816001600160a01b0302191690836001600160a01b031602179055506000600381111561016a57634e487b7160e01b600052602160045260246000fd5b600c805460ff60a01b1916600160a01b83600381111561019a57634e487b7160e01b600052602160045260246000fd5b02179055506000836040516101ae90610208565b6101b891906102db565b604051809103906000f0801580156101d4573d6000803e3d6000fd5b50600d80546001600160a01b0319166001600160a01b0392909216919091179055506102ef9b505050505050505050505050565b6106e2806105c883390190565b80516001600160a01b038116811461022c57600080fd5b919050565b6000806000806000806000806000806000806101808d8f031215610253578788fd5b61025c8d610215565b9b5061026a60208e01610215565b9a5060408d0151995060608d0151985060808d0151975060a08d0151965060c08d0151955060e08d015194506101008d015193506102ab6101208e01610215565b92506102ba6101408e01610215565b91506102c96101608e01610215565b90509295989b509295989b509295989b565b6001600160a01b0391909116815260200190565b6102ca806102fe6000396000f3fe608060405234801561001057600080fd5b50600436106100625760003560e01c80631ef3f1bd146100675780634176ee751461007c5780637618bd6d1461009a578063b4a99a4e146100bb578063e1009dfa146100d0578063ee200582146100d8575b600080fd5b61007a6100753660046101d7565b6100e0565b005b610084610135565b604051610091919061028b565b60405180910390f35b6100a2610169565b6040516100919d9c9b9a99989796959493929190610219565b6100c36101bc565b6040516100919190610205565b6100846101cb565b6100846101d1565b600980546001600160a01b0319166001600160a01b0383161790556001600c805460ff60a01b1916600160a01b83600381111561012d57634e487b7160e01b600052602160045260246000fd5b021790555050565b600c54600090600160a01b900460ff16600381111561016457634e487b7160e01b600052602160045260246000fd5b905090565b600154600254600354600454600554600654600754600854600a54600954600b54600c54600d546001600160a01b039c8d169c9485169493841693928316929182169116909192939495969798999a9b9c565b6000546001600160a01b031681565b60025490565b60045490565b6000602082840312156101e8578081fd5b81356001600160a01b03811681146101fe578182fd5b9392505050565b6001600160a01b0391909116815260200190565b6001600160a01b039d8e168152602081019c909c5260408c019a909a5260608b019890985260808a019690965260a089019490945260c088019290925260e087015286166101008601528516610120850152841661014084015283166101608301529091166101808201526101a00190565b9081526020019056fea26469706673582212208868ce55525d5c81c98c964199e52dfaadc02529232d9da271d52e0e77a15fc364736f6c634300080000336080604052600060025534801561001557600080fd5b506040516106e23803806106e283398101604081905261003491610059565b600080546001600160a01b0319166001600160a01b0392909216919091179055610087565b60006020828403121561006a578081fd5b81516001600160a01b0381168114610080578182fd5b9392505050565b61064c806100966000396000f3fe608060405234801561001057600080fd5b50600436106100575760003560e01c806318bee97e1461005c57806327506f531461007a57806378ce13651461008f5780639ace38c2146100a45780639e9ab89b146100c8575b600080fd5b6100646100dd565b60405161007191906104b9565b60405180910390f35b6100826100ec565b60405161007191906104cd565b610097610201565b60405161007191906105ad565b6100b76100b23660046104a1565b610207565b604051610071959493929190610547565b6100db6100d636600461045e565b610242565b005b6000546001600160a01b031681565b60025460609060008167ffffffffffffffff81111561011b57634e487b7160e01b600052604160045260246000fd5b60405190808252806020026020018201604052801561015457816020015b610141610414565b8152602001906001900390816101395790505b50905060005b828110156101fa57600081815260016020818152604092839020835160a08101855281548152928101546001600160a01b039081169284019290925260028101549091169282019290925260038201546060820152600490910154608082015282518390839081106101dc57634e487b7160e01b600052603260045260246000fd5b602002602001018190525080806101f2906105e5565b91505061015a565b5091505090565b60025481565b6001602081905260009182526040909120805491810154600282015460038301546004909301546001600160a01b0392831693919092169185565b60025442906102dc576040805160a0810182528681526001600160a01b03808716602080840191825287831684860190815260608501888152608086018881526002805460009081526001958690529890982096518755935192860180549386166001600160a01b0319948516179055905195850180549690941695909116949094179091559151600382015590516004909101556103b5565b816001600060016002546102f091906105ce565b815260200190815260200160002060000154146103285760405162461bcd60e51b815260040161031f90610576565b60405180910390fd5b6040805160a0810182528681526001600160a01b03808716602080840191825287831684860190815260608501888152608086018881526002805460009081526001958690529890982096518755935192860180549386166001600160a01b0319948516179055905195850180549690941695909116949094179091559151600382015590516004909101555b6001600260008282546103c891906105b6565b90915550506040517f08ce16702f64d2cdc93c2d36818cee685abd25dcf25f93b5008c07c328652bb6906104059087908790879087908790610547565b60405180910390a15050505050565b6040805160a08101825260008082526020820181905291810182905260608101829052608081019190915290565b80356001600160a01b038116811461045957600080fd5b919050565b60008060008060808587031215610473578384fd5b8435935061048360208601610442565b925061049160408601610442565b9396929550929360600135925050565b6000602082840312156104b2578081fd5b5035919050565b6001600160a01b0391909116815260200190565b602080825282518282018190526000919060409081850190868401855b8281101561053a57815180518552868101516001600160a01b0390811688870152868201511686860152606080820151908601526080908101519085015260a090930192908501906001016104ea565b5091979650505050505050565b9485526001600160a01b0393841660208601529190921660408401526060830191909152608082015260a00190565b6020808252601b908201527f5472616e73616374696f6e206572726f72206f63637572726564210000000000604082015260600190565b90815260200190565b600082198211156105c9576105c9610600565b500190565b6000828210156105e0576105e0610600565b500390565b60006000198214156105f9576105f9610600565b5060010190565b634e487b7160e01b600052601160045260246000fdfea26469706673582212203ddf8757c23edc99594853e152354f9cd47617ea06f767c1416b141ba4da329164736f6c63430008000033",
  "immutableReferences": {},
  "source": "// SPDX-License-Identifier: MIT\r\n// pragma solidity >=0.6.6 <=0.8.23;\r\npragma solidity ^0.8.0;\r\n\r\npragma experimental ABIEncoderV2;\r\n\r\nimport \"./Transactions.sol\";\r\n\r\ncontract RawAlkes {\r\n    address public Owner;\r\n\r\n    enum packageStatus {\r\n        atManufactur,\r\n        atDistributor,\r\n        atKemenkes,\r\n        atRumahSakit\r\n    }\r\n\r\n   \r\n\r\n    address productid;\r\n    bytes32 namaAlkes;\r\n    bytes32 deskripsiAlkes;\r\n    bytes32 klasifikasiAlkes;\r\n    bytes32 tipeAlkes;\r\n    bytes32 kelasAlkes;\r\n    bytes32 kelasResiko;\r\n    bytes32 noIzinEdar;\r\n    address distributor;\r\n    address manufakturer;\r\n    address kemenkes;\r\n    address rumahSakit;\r\n    packageStatus status;\r\n    address txnContractAddress;\r\n\r\n    constructor(\r\n        address _creatorAddr,\r\n        address _productid,\r\n        bytes32 _namaAlkes,\r\n        bytes32 _deskripsiAlkes,\r\n        bytes32 _klasifikasiAlkes,\r\n        bytes32 _tipeAlkes,\r\n        bytes32 _kelasAlkes,\r\n        bytes32 _kelasResiko,\r\n        bytes32 _noIzinEdar,\r\n        address _distributorAddr,\r\n        address _kemenkesAddr,\r\n        address _rumahSakitAddr\r\n    ) public {\r\n        Owner = _creatorAddr;\r\n        productid = _productid;\r\n        namaAlkes = _namaAlkes;\r\n        deskripsiAlkes = _deskripsiAlkes;\r\n        klasifikasiAlkes = _klasifikasiAlkes;\r\n        tipeAlkes = _tipeAlkes;\r\n        kelasAlkes = _kelasAlkes;\r\n        kelasResiko = _kelasResiko;\r\n        noIzinEdar = _noIzinEdar;\r\n        manufakturer = _creatorAddr;\r\n        distributor = _distributorAddr;\r\n        kemenkes = _kemenkesAddr;\r\n        rumahSakit = _rumahSakitAddr;\r\n        status = packageStatus(0);\r\n        Transactions txnContract = new Transactions(_distributorAddr);\r\n        txnContractAddress = address(txnContract);\r\n    }\r\n\r\n    function getRawAlkes()\r\n        public\r\n        view\r\n        returns (\r\n            address,\r\n            bytes32,\r\n            bytes32,\r\n            bytes32,\r\n            bytes32,\r\n            bytes32,\r\n            bytes32,\r\n            bytes32,\r\n            address,\r\n            address,\r\n            address,\r\n            address,\r\n            address\r\n        )\r\n    {\r\n        return (\r\n            productid,\r\n            namaAlkes,\r\n            deskripsiAlkes,\r\n            klasifikasiAlkes,\r\n            tipeAlkes,\r\n            kelasAlkes,\r\n            kelasResiko,\r\n            noIzinEdar,\r\n            manufakturer,\r\n            distributor,\r\n            kemenkes,\r\n            rumahSakit,\r\n            txnContractAddress\r\n        );\r\n    }\r\n\r\n    function getRawAlkesStatus() public view returns (uint) {\r\n        return uint(status);\r\n    }\r\n\r\n    function getNamaAlkes() public view returns (bytes32) {\r\n        return namaAlkes;\r\n    }\r\n\r\n    function getKlasifikasiALkes() public view returns (bytes32) {\r\n        return klasifikasiAlkes;\r\n    }\r\n\r\n    function updatedistributorAddress(address addr) public {\r\n        distributor = addr;\r\n        status = packageStatus(1);\r\n    }\r\n}\r\n",
  "sourcePath": "D:\\ACTIVITY\\SEM 8\\0. SKRIPSI\\REF\\WEB\\alkes-blockchain\\contracts\\RawAlkes.sol",
  "compiler": {
    "name": "solc",
    "version": "0.8.0+commit.c7dfd78e.Emscripten.clang"
  },
  "schemaVersion": "3.4.16",
  "updatedAt": "2023-12-03T18:06:46.477Z",
  "devdoc": {
    "kind": "dev",
    "methods": {},
    "version": 1
  },
  "userdoc": {
    "kind": "user",
    "methods": {},
    "version": 1
  }
}