{
  "contractName": "SupplyChain",
  "abi": [
    {
      "inputs": [],
      "stateMutability": "nonpayable",
      "type": "constructor"
    },
    {
      "anonymous": false,
      "inputs": [
        {
          "indexed": true,
          "internalType": "address",
          "name": "_address",
          "type": "address"
        },
        {
          "indexed": false,
          "internalType": "bytes32",
          "name": "name",
          "type": "bytes32"
        }
      ],
      "name": "UserRegister",
      "type": "event"
    },
    {
      "anonymous": false,
      "inputs": [
        {
          "indexed": false,
          "internalType": "address",
          "name": "buyer",
          "type": "address"
        },
        {
          "indexed": true,
          "internalType": "address",
          "name": "seller",
          "type": "address"
        },
        {
          "indexed": false,
          "internalType": "address",
          "name": "packageAddr",
          "type": "address"
        },
        {
          "indexed": false,
          "internalType": "bytes",
          "name": "signature",
          "type": "bytes"
        },
        {
          "indexed": true,
          "internalType": "uint256",
          "name": "timestamp",
          "type": "uint256"
        }
      ],
      "name": "buyEvent",
      "type": "event"
    },
    {
      "anonymous": false,
      "inputs": [
        {
          "indexed": true,
          "internalType": "address",
          "name": "buyer",
          "type": "address"
        },
        {
          "indexed": false,
          "internalType": "address",
          "name": "seller",
          "type": "address"
        },
        {
          "indexed": false,
          "internalType": "address",
          "name": "packageAddr",
          "type": "address"
        },
        {
          "indexed": false,
          "internalType": "bytes",
          "name": "signature",
          "type": "bytes"
        },
        {
          "indexed": true,
          "internalType": "uint256",
          "name": "timestamp",
          "type": "uint256"
        }
      ],
      "name": "receivedEvent",
      "type": "event"
    },
    {
      "anonymous": false,
      "inputs": [
        {
          "indexed": true,
          "internalType": "address",
          "name": "buyer",
          "type": "address"
        },
        {
          "indexed": false,
          "internalType": "address",
          "name": "seller",
          "type": "address"
        },
        {
          "indexed": false,
          "internalType": "address",
          "name": "packageAddr",
          "type": "address"
        },
        {
          "indexed": false,
          "internalType": "bytes",
          "name": "signature",
          "type": "bytes"
        },
        {
          "indexed": true,
          "internalType": "uint256",
          "name": "timestamp",
          "type": "uint256"
        }
      ],
      "name": "respondEvent",
      "type": "event"
    },
    {
      "anonymous": false,
      "inputs": [
        {
          "indexed": false,
          "internalType": "address",
          "name": "seller",
          "type": "address"
        },
        {
          "indexed": false,
          "internalType": "address",
          "name": "buyer",
          "type": "address"
        },
        {
          "indexed": true,
          "internalType": "address",
          "name": "packageAddr",
          "type": "address"
        },
        {
          "indexed": false,
          "internalType": "bytes",
          "name": "signature",
          "type": "bytes"
        },
        {
          "indexed": true,
          "internalType": "uint256",
          "name": "timestamp",
          "type": "uint256"
        }
      ],
      "name": "sendEvent",
      "type": "event"
    },
    {
      "inputs": [
        {
          "internalType": "address",
          "name": "",
          "type": "address"
        },
        {
          "internalType": "uint256",
          "name": "",
          "type": "uint256"
        }
      ],
      "name": "MedicineDtoC",
      "outputs": [
        {
          "internalType": "address",
          "name": "",
          "type": "address"
        }
      ],
      "stateMutability": "view",
      "type": "function",
      "constant": true
    },
    {
      "inputs": [
        {
          "internalType": "address",
          "name": "",
          "type": "address"
        }
      ],
      "name": "MedicineDtoCTxContract",
      "outputs": [
        {
          "internalType": "address",
          "name": "",
          "type": "address"
        }
      ],
      "stateMutability": "view",
      "type": "function",
      "constant": true
    },
    {
      "inputs": [
        {
          "internalType": "address",
          "name": "",
          "type": "address"
        },
        {
          "internalType": "uint256",
          "name": "",
          "type": "uint256"
        }
      ],
      "name": "MedicineWtoD",
      "outputs": [
        {
          "internalType": "address",
          "name": "",
          "type": "address"
        }
      ],
      "stateMutability": "view",
      "type": "function",
      "constant": true
    },
    {
      "inputs": [
        {
          "internalType": "address",
          "name": "",
          "type": "address"
        }
      ],
      "name": "MedicineWtoDTxContract",
      "outputs": [
        {
          "internalType": "address",
          "name": "",
          "type": "address"
        }
      ],
      "stateMutability": "view",
      "type": "function",
      "constant": true
    },
    {
      "inputs": [
        {
          "internalType": "address",
          "name": "",
          "type": "address"
        },
        {
          "internalType": "uint256",
          "name": "",
          "type": "uint256"
        }
      ],
      "name": "MedicinesAtDistributor",
      "outputs": [
        {
          "internalType": "address",
          "name": "",
          "type": "address"
        }
      ],
      "stateMutability": "view",
      "type": "function",
      "constant": true
    },
    {
      "inputs": [
        {
          "internalType": "address",
          "name": "",
          "type": "address"
        },
        {
          "internalType": "uint256",
          "name": "",
          "type": "uint256"
        }
      ],
      "name": "MedicinesAtWholesaler",
      "outputs": [
        {
          "internalType": "address",
          "name": "",
          "type": "address"
        }
      ],
      "stateMutability": "view",
      "type": "function",
      "constant": true
    },
    {
      "inputs": [
        {
          "internalType": "address",
          "name": "",
          "type": "address"
        },
        {
          "internalType": "uint256",
          "name": "",
          "type": "uint256"
        }
      ],
      "name": "manufacturerMedicines",
      "outputs": [
        {
          "internalType": "address",
          "name": "",
          "type": "address"
        }
      ],
      "stateMutability": "view",
      "type": "function",
      "constant": true
    },
    {
      "inputs": [
        {
          "internalType": "address",
          "name": "",
          "type": "address"
        },
        {
          "internalType": "uint256",
          "name": "",
          "type": "uint256"
        }
      ],
      "name": "manufacturerRawMaterials",
      "outputs": [
        {
          "internalType": "address",
          "name": "",
          "type": "address"
        }
      ],
      "stateMutability": "view",
      "type": "function",
      "constant": true
    },
    {
      "inputs": [
        {
          "internalType": "address",
          "name": "",
          "type": "address"
        },
        {
          "internalType": "uint256",
          "name": "",
          "type": "uint256"
        }
      ],
      "name": "supplierRawMaterials",
      "outputs": [
        {
          "internalType": "address",
          "name": "",
          "type": "address"
        }
      ],
      "stateMutability": "view",
      "type": "function",
      "constant": true
    },
    {
      "inputs": [
        {
          "internalType": "address",
          "name": "",
          "type": "address"
        }
      ],
      "name": "userInfo",
      "outputs": [
        {
          "internalType": "bytes32",
          "name": "name",
          "type": "bytes32"
        },
        {
          "internalType": "bytes32",
          "name": "email",
          "type": "bytes32"
        },
        {
          "internalType": "bytes32",
          "name": "noTelp",
          "type": "bytes32"
        },
        {
          "internalType": "enum SupplyChain.roles",
          "name": "role",
          "type": "uint8"
        },
        {
          "internalType": "address",
          "name": "userAddr",
          "type": "address"
        }
      ],
      "stateMutability": "view",
      "type": "function",
      "constant": true
    },
    {
      "inputs": [
        {
          "internalType": "address",
          "name": "buyer",
          "type": "address"
        },
        {
          "internalType": "address",
          "name": "seller",
          "type": "address"
        },
        {
          "internalType": "address",
          "name": "packageAddr",
          "type": "address"
        },
        {
          "internalType": "bytes",
          "name": "signature",
          "type": "bytes"
        }
      ],
      "name": "requestProduct",
      "outputs": [],
      "stateMutability": "nonpayable",
      "type": "function"
    },
    {
      "inputs": [
        {
          "internalType": "address",
          "name": "buyer",
          "type": "address"
        },
        {
          "internalType": "address",
          "name": "seller",
          "type": "address"
        },
        {
          "internalType": "address",
          "name": "packageAddr",
          "type": "address"
        },
        {
          "internalType": "bytes",
          "name": "signature",
          "type": "bytes"
        }
      ],
      "name": "respondToEntity",
      "outputs": [],
      "stateMutability": "nonpayable",
      "type": "function"
    },
    {
      "inputs": [
        {
          "internalType": "address",
          "name": "buyer",
          "type": "address"
        },
        {
          "internalType": "address",
          "name": "seller",
          "type": "address"
        },
        {
          "internalType": "address",
          "name": "packageAddr",
          "type": "address"
        },
        {
          "internalType": "bytes",
          "name": "signature",
          "type": "bytes"
        }
      ],
      "name": "sendPackageToEntity",
      "outputs": [],
      "stateMutability": "nonpayable",
      "type": "function"
    },
    {
      "inputs": [
        {
          "internalType": "bytes32",
          "name": "name",
          "type": "bytes32"
        },
        {
          "internalType": "bytes32",
          "name": "email",
          "type": "bytes32"
        },
        {
          "internalType": "bytes32",
          "name": "noTelp",
          "type": "bytes32"
        },
        {
          "internalType": "uint256",
          "name": "role",
          "type": "uint256"
        },
        {
          "internalType": "address",
          "name": "_userAddr",
          "type": "address"
        }
      ],
      "name": "registerUser",
      "outputs": [],
      "stateMutability": "nonpayable",
      "type": "function"
    },
    {
      "inputs": [
        {
          "internalType": "uint256",
          "name": "_role",
          "type": "uint256"
        },
        {
          "internalType": "address",
          "name": "_addr",
          "type": "address"
        }
      ],
      "name": "changeUserRole",
      "outputs": [
        {
          "internalType": "string",
          "name": "",
          "type": "string"
        }
      ],
      "stateMutability": "nonpayable",
      "type": "function"
    },
    {
      "inputs": [
        {
          "internalType": "address",
          "name": "_address",
          "type": "address"
        }
      ],
      "name": "getUserInfo",
      "outputs": [
        {
          "components": [
            {
              "internalType": "bytes32",
              "name": "name",
              "type": "bytes32"
            },
            {
              "internalType": "bytes32",
              "name": "email",
              "type": "bytes32"
            },
            {
              "internalType": "bytes32",
              "name": "noTelp",
              "type": "bytes32"
            },
            {
              "internalType": "enum SupplyChain.roles",
              "name": "role",
              "type": "uint8"
            },
            {
              "internalType": "address",
              "name": "userAddr",
              "type": "address"
            }
          ],
          "internalType": "struct SupplyChain.userData",
          "name": "",
          "type": "tuple"
        }
      ],
      "stateMutability": "view",
      "type": "function",
      "constant": true
    },
    {
      "inputs": [
        {
          "internalType": "bytes32",
          "name": "_namaAlkes",
          "type": "bytes32"
        },
        {
          "internalType": "bytes32",
          "name": "_deskripsiAlkes",
          "type": "bytes32"
        },
        {
          "internalType": "bytes32",
          "name": "_klasifikasiAlkes",
          "type": "bytes32"
        },
        {
          "internalType": "bytes32",
          "name": "_tipeAlkes",
          "type": "bytes32"
        },
        {
          "internalType": "bytes32",
          "name": "_kelasAlkes",
          "type": "bytes32"
        },
        {
          "internalType": "bytes32",
          "name": "_kelasResiko",
          "type": "bytes32"
        },
        {
          "internalType": "address",
          "name": "_manufacturerAddr",
          "type": "address"
        }
      ],
      "name": "createAlkesManufaktur",
      "outputs": [
        {
          "internalType": "address",
          "name": "",
          "type": "address"
        }
      ],
      "stateMutability": "nonpayable",
      "type": "function"
    },
    {
      "inputs": [],
      "name": "getNoOfPackagesOfSupplier",
      "outputs": [
        {
          "internalType": "uint256",
          "name": "",
          "type": "uint256"
        }
      ],
      "stateMutability": "view",
      "type": "function",
      "constant": true
    },
    {
      "inputs": [],
      "name": "getAllPackages",
      "outputs": [
        {
          "internalType": "address[]",
          "name": "",
          "type": "address[]"
        }
      ],
      "stateMutability": "view",
      "type": "function",
      "constant": true
    },
    {
      "inputs": [
        {
          "internalType": "address",
          "name": "_addr",
          "type": "address"
        },
        {
          "internalType": "uint256",
          "name": "transportertype",
          "type": "uint256"
        },
        {
          "internalType": "address",
          "name": "cid",
          "type": "address"
        }
      ],
      "name": "transporterHandlePackage",
      "outputs": [],
      "stateMutability": "nonpayable",
      "type": "function"
    },
    {
      "inputs": [
        {
          "internalType": "address",
          "name": "_addr",
          "type": "address"
        },
        {
          "internalType": "address",
          "name": "_manufacturerAddress",
          "type": "address"
        },
        {
          "internalType": "address",
          "name": "_sellerAddr",
          "type": "address"
        },
        {
          "internalType": "bytes",
          "name": "signature",
          "type": "bytes"
        }
      ],
      "name": "manufacturerReceivedPackage",
      "outputs": [],
      "stateMutability": "nonpayable",
      "type": "function"
    },
    {
      "inputs": [],
      "name": "getAllRawMaterials",
      "outputs": [
        {
          "internalType": "address[]",
          "name": "",
          "type": "address[]"
        }
      ],
      "stateMutability": "view",
      "type": "function",
      "constant": true
    },
    {
      "inputs": [
        {
          "internalType": "address",
          "name": "_manufacturerAddr",
          "type": "address"
        },
        {
          "internalType": "bytes32",
          "name": "_description",
          "type": "bytes32"
        },
        {
          "internalType": "address[]",
          "name": "_rawAddr",
          "type": "address[]"
        },
        {
          "internalType": "uint256",
          "name": "_quantity",
          "type": "uint256"
        },
        {
          "internalType": "address[]",
          "name": "_transporterAddr",
          "type": "address[]"
        }
      ],
      "name": "manufacturerCreatesMedicine",
      "outputs": [],
      "stateMutability": "nonpayable",
      "type": "function"
    },
    {
      "inputs": [],
      "name": "getAllCreatedMedicines",
      "outputs": [
        {
          "internalType": "address[]",
          "name": "",
          "type": "address[]"
        }
      ],
      "stateMutability": "view",
      "type": "function",
      "constant": true
    },
    {
      "inputs": [
        {
          "internalType": "address",
          "name": "_address",
          "type": "address"
        },
        {
          "internalType": "address",
          "name": "_sellerAddr",
          "type": "address"
        },
        {
          "internalType": "bytes",
          "name": "signature",
          "type": "bytes"
        }
      ],
      "name": "wholesalerReceivedMedicine",
      "outputs": [],
      "stateMutability": "nonpayable",
      "type": "function"
    },
    {
      "inputs": [
        {
          "internalType": "address",
          "name": "_address",
          "type": "address"
        },
        {
          "internalType": "address",
          "name": "transporter",
          "type": "address"
        },
        {
          "internalType": "address",
          "name": "receiver",
          "type": "address"
        }
      ],
      "name": "transferMedicineWtoD",
      "outputs": [],
      "stateMutability": "nonpayable",
      "type": "function"
    },
    {
      "inputs": [
        {
          "internalType": "uint256",
          "name": "index",
          "type": "uint256"
        }
      ],
      "name": "getBatchIdByIndexWD",
      "outputs": [
        {
          "internalType": "address",
          "name": "packageID",
          "type": "address"
        }
      ],
      "stateMutability": "view",
      "type": "function",
      "constant": true
    },
    {
      "inputs": [
        {
          "internalType": "address",
          "name": "_address",
          "type": "address"
        }
      ],
      "name": "getSubContractWD",
      "outputs": [
        {
          "internalType": "address",
          "name": "SubContractWD",
          "type": "address"
        }
      ],
      "stateMutability": "view",
      "type": "function",
      "constant": true
    },
    {
      "inputs": [],
      "name": "getAllMedicinesAtWholesaler",
      "outputs": [
        {
          "internalType": "address[]",
          "name": "",
          "type": "address[]"
        }
      ],
      "stateMutability": "view",
      "type": "function",
      "constant": true
    },
    {
      "inputs": [
        {
          "internalType": "address",
          "name": "_address",
          "type": "address"
        },
        {
          "internalType": "address",
          "name": "cid",
          "type": "address"
        },
        {
          "internalType": "address",
          "name": "_sellerAddr",
          "type": "address"
        },
        {
          "internalType": "bytes",
          "name": "signature",
          "type": "bytes"
        }
      ],
      "name": "distributorReceivedMedicine",
      "outputs": [],
      "stateMutability": "nonpayable",
      "type": "function"
    },
    {
      "inputs": [
        {
          "internalType": "address",
          "name": "_address",
          "type": "address"
        },
        {
          "internalType": "address",
          "name": "transporter",
          "type": "address"
        },
        {
          "internalType": "address",
          "name": "receiver",
          "type": "address"
        }
      ],
      "name": "distributorTransferMedicinetoCustomer",
      "outputs": [],
      "stateMutability": "nonpayable",
      "type": "function"
    },
    {
      "inputs": [],
      "name": "getBatchesCountDC",
      "outputs": [
        {
          "internalType": "uint256",
          "name": "count",
          "type": "uint256"
        }
      ],
      "stateMutability": "view",
      "type": "function",
      "constant": true
    },
    {
      "inputs": [
        {
          "internalType": "uint256",
          "name": "index",
          "type": "uint256"
        }
      ],
      "name": "getBatchIdByIndexDC",
      "outputs": [
        {
          "internalType": "address",
          "name": "packageID",
          "type": "address"
        }
      ],
      "stateMutability": "view",
      "type": "function",
      "constant": true
    },
    {
      "inputs": [
        {
          "internalType": "address",
          "name": "_address",
          "type": "address"
        }
      ],
      "name": "getSubContractDC",
      "outputs": [
        {
          "internalType": "address",
          "name": "SubContractDP",
          "type": "address"
        }
      ],
      "stateMutability": "view",
      "type": "function",
      "constant": true
    },
    {
      "inputs": [],
      "name": "getAllMedicinesAtDistributor",
      "outputs": [
        {
          "internalType": "address[]",
          "name": "",
          "type": "address[]"
        }
      ],
      "stateMutability": "view",
      "type": "function",
      "constant": true
    },
    {
      "inputs": [
        {
          "internalType": "address",
          "name": "p",
          "type": "address"
        },
        {
          "internalType": "bytes32",
          "name": "hash",
          "type": "bytes32"
        },
        {
          "internalType": "uint8",
          "name": "v",
          "type": "uint8"
        },
        {
          "internalType": "bytes32",
          "name": "r",
          "type": "bytes32"
        },
        {
          "internalType": "bytes32",
          "name": "s",
          "type": "bytes32"
        }
      ],
      "name": "verify",
      "outputs": [
        {
          "internalType": "bool",
          "name": "",
          "type": "bool"
        }
      ],
      "stateMutability": "pure",
      "type": "function",
      "constant": true
    }
  ],
  "bytecode": "0x608060405234801561001057600080fd5b50600080546001600160a01b0319163317905561595f806100326000396000f3fe60806040523480156200001157600080fd5b5060043610620002505760003560e01c8063910097861162000141578063cd55152e11620000bd578063e3938b701162000087578063e3938b701462000555578063f06822d8146200055f578063fac0992d1462000576578063fd302c351462000580578063ff2b065a14620005975762000250565b8063cd55152e1462000506578063d06f7b551462000510578063dcad355a1462000527578063e0cf92fe146200053e5762000250565b8063a999cca1116200010b578063a999cca11462000491578063b0fc028d14620004a8578063b8b16ca314620004bf578063be7ef9c014620004d6578063c22470ea14620004ed5762000250565b80639100978614620004335780639659803814620004595780639af035a31462000470578063a205a12314620004875762000250565b8063412afbaf11620001d15780636ba3cef7116200019b5780636ba3cef714620003c0578063798a826f14620003d75780637a0689f014620003ee5780638ccc8db714620004055780638dfa742d146200041c5762000250565b8063412afbaf1462000346578063506535f3146200035d57806362c1fe3914620003835780636386c1c7146200039a5762000250565b80631959a002116200021f5780631959a00214620002cb57806327ddcd2514620002f557806334759016146200030e5780633668669a1462000325578063381cb0dc146200032f5762000250565b8063050e70db146200025557806306db832414620002845780630a421f0f146200029b578063164bcd5b14620002b4575b600080fd5b6200026c6200026636600462001de3565b620005ae565b6040516200027b91906200208d565b60405180910390f35b6200026c6200029536600462001de3565b620005e4565b620002a5620005fe565b6040516200027b9190620021b8565b6200026c620002c536600462001f8f565b620006d3565b620002e2620002dc36600462001b9d565b62000759565b6040516200027b959493929190620021e1565b6200030c6200030636600462001cf9565b62000794565b005b6200026c6200031f36600462001b9d565b6200081b565b620002a562000839565b6200030c6200034036600462001c91565b62000907565b6200026c6200035736600462001de3565b62000a54565b620003746200036e36600462001d89565b62000a6e565b6040516200027b9190620021cd565b6200026c6200039436600462001b9d565b62000ae1565b620003b1620003ab36600462001b9d565b62000aff565b6040516200027b919062002411565b6200030c620003d136600462001f40565b62000b93565b6200026c620003e836600462001b9d565b62000c8e565b6200030c620003ff36600462001c14565b62000ca9565b6200026c6200041636600462001de3565b62000f81565b6200026c6200042d36600462001de3565b62000f9b565b6200044a6200044436600462001fa8565b62000fb5565b6040516200027b919062002240565b6200030c6200046a36600462001c14565b62001043565b6200026c6200048136600462001f8f565b6200111f565b620002a562001181565b6200026c620004a236600462001de3565b6200124f565b6200026c620004b936600462001b9d565b62001269565b6200030c620004d036600462001c14565b62001284565b6200030c620004e736600462001e11565b620012c4565b620004f762001483565b6040516200027b9190620021d8565b620004f762001496565b6200030c6200052136600462001c14565b620014f0565b6200026c6200053836600462001ede565b62001530565b6200030c6200054f36600462001c14565b62001639565b620002a562001679565b6200030c6200057036600462001bc3565b62001747565b620002a5620017e2565b6200026c6200059136600462001de3565b620018b0565b6200030c620005a836600462001bc3565b620018ca565b60066020528160005260406000208181548110620005c857fe5b6000918252602090912001546001600160a01b03169150829050565b60026020528160005260406000208181548110620005c857fe5b33600090815260026020526040902054606090818167ffffffffffffffff811180156200062a57600080fd5b5060405190808252806020026020018201604052801562000655578160200160208202803683370190505b50905060005b82811015620006cc573360009081526002602052604090208054829081106200068057fe5b9060005260206000200160009054906101000a90046001600160a01b0316828281518110620006ab57fe5b6001600160a01b03909216602092830291909101909101526001016200065b565b5091505090565b600060023360009081526001602052604090206003015460ff166009811115620006f957fe5b14620007225760405162461bcd60e51b81526004016200071990620022be565b60405180910390fd5b3360009081526009602052604090208054839081106200073e57fe5b6000918252602090912001546001600160a01b031692915050565b6001602081905260009182526040909120805491810154600282015460039092015490919060ff81169061010090046001600160a01b031685565b60008585858585604051620007a99062001a36565b620007b995949392919062002169565b604051809103906000f080158015620007d6573d6000803e3d6000fd5b506001600160a01b0396871660009081526004602090815260408220805460018101825590835291200180546001600160a01b03191691909716179095555050505050565b6001600160a01b039081166000908152600760205260409020541690565b33600090815260056020526040902054606090818167ffffffffffffffff811180156200086557600080fd5b5060405190808252806020026020018201604052801562000890578160200160208202803683370190505b50905060005b82811015620006cc57336000908152600560205260409020805482908110620008bb57fe5b9060005260206000200160009054906101000a90046001600160a01b0316828281518110620008e657fe5b6001600160a01b039092166020928302919091019091015260010162000896565b60093360009081526001602052604090206003015460ff1660098111156200092b57fe5b146200094b5760405162461bcd60e51b8152600401620007199062002306565b6040516307fb74db60e21b81526000906001600160a01b03851690631fedd36c906200097c9033906004016200208d565b602060405180830381600087803b1580156200099757600080fd5b505af1158015620009ac573d6000803e3d6000fd5b505050506040513d601f19601f82011682018060405250810190620009d2919062001ec5565b3360008181526005602090815260408083208054600181018255908452919092200180546001600160a01b0319166001600160a01b0389161790555191925042917fcfbd3a658e0a38877312e3f5767ddb0c6541620d7bd0368d43e0b94a55d9876e9062000a469087908990889062002132565b60405180910390a350505050565b60056020528160005260406000208181548110620005c857fe5b6000856001600160a01b03166001868686866040516000815260200160405260405162000a9f949392919062002222565b6020604051602081039080840390855afa15801562000ac2573d6000803e3d6000fd5b505050602060405103516001600160a01b031614905095945050505050565b6001600160a01b039081166000908152600a60205260409020541690565b62000b0962001a44565b6001600160a01b038216600090815260016020818152604092839020835160a0810185528154815292810154918301919091526002810154928201929092526003820154909190606083019060ff16600981111562000b6457fe5b600981111562000b7057fe5b81526003919091015461010090046001600160a01b031660209091015292915050565b6000546001600160a01b0316331462000bab57600080fd5b6001600160a01b038116600090815260016020819052604090912086815590810185905560020183905581600981111562000be257fe5b6001600160a01b03821660009081526001602081905260409091206003018054909160ff199091169083600981111562000c1857fe5b02179055506001600160a01b038116600081815260016020526040908190206003018054610100600160a81b0319166101008402179055517f33a7170f028b1e4f5ba321064a00ed820856a920c7f9c6636fbcf385427b1b0f9062000c7f908890620021d8565b60405180910390a25050505050565b600a602052600090815260409020546001600160a01b031681565b60023360009081526001602052604090206003015460ff16600981111562000ccd57fe5b14801562000d5b5750836001600160a01b031663abb428a66040518163ffffffff1660e01b815260040160606040518083038186803b15801562000d1057600080fd5b505afa15801562000d25573d6000803e3d6000fd5b505050506040513d601f19601f8201168201806040525081019062000d4b919062001e4c565b602001516001600160a01b031633145b62000d7a5760405162461bcd60e51b8152600401620007199062002255565b6040516307fb74db60e21b81526000906001600160a01b03861690631fedd36c9062000dab9033906004016200208d565b602060405180830381600087803b15801562000dc657600080fd5b505af115801562000ddb573d6000803e3d6000fd5b505050506040513d601f19601f8201168201806040525081019062000e01919062001ec5565b9050806002141562000f3257336000908152600860209081526040808320805460018101825590845291832090910180546001600160a01b0319166001600160a01b03891690811790915581516355da145360e11b81529151909163abb428a6916004808301926060929190829003018186803b15801562000e8257600080fd5b505afa15801562000e97573d6000803e3d6000fd5b505050506040513d601f19601f8201168201806040525081019062000ebd919062001e4c565b516001600160a01b03161462000f325760405163d7dcbe3b60e01b81526001600160a01b0385169063d7dcbe3b9062000efd9088903390600401620020ed565b600060405180830381600087803b15801562000f1857600080fd5b505af115801562000f2d573d6000803e3d6000fd5b505050505b42336001600160a01b03167fcfbd3a658e0a38877312e3f5767ddb0c6541620d7bd0368d43e0b94a55d9876e85888660405162000f729392919062002132565b60405180910390a35050505050565b60036020528160005260406000208181548110620005c857fe5b60086020528160005260406000208181548110620005c857fe5b6000546060906001600160a01b0316331462000fd057600080fd5b82600981111562000fdd57fe5b6001600160a01b03831660009081526001602081905260409091206003018054909160ff19909116908360098111156200101357fe5b02179055505060408051808201909152600d81526c526f6c6520557064617465642160981b602082015292915050565b604051630a57332d60e31b81526001600160a01b038516906352b9996890620010719086906004016200208d565b600060405180830381600087803b1580156200108c57600080fd5b505af1158015620010a1573d6000803e3d6000fd5b505050506001600160a01b0383811660009081526003602090815260408083208054600181018255908452919092200180546001600160a01b0319169287169290921790915551429033907fcfbd3a658e0a38877312e3f5767ddb0c6541620d7bd0368d43e0b94a55d9876e9062000a469086908990879062002132565b600060093360009081526001602052604090206003015460ff1660098111156200114557fe5b14620011655760405162461bcd60e51b815260040162000719906200234c565b3360009081526006602052604090208054839081106200073e57fe5b33600090815260046020526040902054606090818167ffffffffffffffff81118015620011ad57600080fd5b50604051908082528060200260200182016040528015620011d8578160200160208202803683370190505b50905060005b82811015620006cc573360009081526004602052604090208054829081106200120357fe5b9060005260206000200160009054906101000a90046001600160a01b03168282815181106200122e57fe5b6001600160a01b0390921660209283029190910190910152600101620011de565b60046020528160005260406000208181548110620005c857fe5b6007602052600090815260409020546001600160a01b031681565b42836001600160a01b03167f22561ca0666e99052dd8231a6c5c337204ed5658c357aa6afcd53c207acfac6786858560405162000a469392919062002132565b60073360009081526001602052604090206003015460ff166009811115620012e857fe5b14620013085760405162461bcd60e51b8152600401620007199062002393565b600082116200132b5760405162461bcd60e51b81526004016200071990620023da565b81600114156200139d5760405163638e9a3d60e01b81526001600160a01b0384169063638e9a3d90620013639033906004016200208d565b600060405180830381600087803b1580156200137e57600080fd5b505af115801562001393573d6000803e3d6000fd5b505050506200147e565b8160021415620013d55760405163ac42a41560e01b81526001600160a01b0384169063ac42a41590620013639033906004016200208d565b81600314156200140f57604051630887851b60e31b81526001600160a01b0382169063443c28d890620013639086903390600401620020ed565b81600414156200147e5760405163298abd8d60e11b81526001600160a01b038216906353157b1a90620014499086903390600401620020ed565b600060405180830381600087803b1580156200146457600080fd5b505af115801562001479573d6000803e3d6000fd5b505050505b505050565b3360009081526002602052604090205490565b600060023360009081526001602052604090206003015460ff166009811115620014bc57fe5b14620014dc5760405162461bcd60e51b81526004016200071990620022be565b503360009081526009602052604090205490565b42826001600160a01b03167f31f87de04fd141167b8131be7a8ccb2bac63361a15671c96d90c39ddc9ef909d85878560405162000a469392919062002132565b60008033600233426040516020016200154b9291906200204d565b60408051601f198184030181529082905262001567916200206f565b602060405180830381855afa15801562001585573d6000803e3d6000fd5b5050506040513d601f19601f82011682018060405250810190620015aa919062001ec5565b60601c8a8a8a8a8a8a8a604051620015c29062001a73565b620015d699989796959493929190620020a1565b604051809103906000f080158015620015f3573d6000803e3d6000fd5b503360009081526002602090815260408220805460018101825590835291200180546001600160a01b0319166001600160a01b0383161790559998505050505050505050565b42846001600160a01b03167f9151271dfe612a18bf915ee1609e6f94f62fd775c704a0ae2ef091519f0c9b3985858560405162000a469392919062002132565b33600090815260086020526040902054606090818167ffffffffffffffff81118015620016a557600080fd5b50604051908082528060200260200182016040528015620016d0578160200160208202803683370190505b50905060005b82811015620006cc57336000908152600860205260409020805482908110620016fb57fe5b9060005260206000200160009054906101000a90046001600160a01b03168282815181106200172657fe5b6001600160a01b0390921660209283029190910190910152600101620016d6565b6000833384846040516200175b9062001a81565b6200176a949392919062002107565b604051809103906000f08015801562001787573d6000803e3d6000fd5b5033600090815260066020908152604080832080546001810182559084528284200180546001600160a01b039586166001600160a01b0319918216811790925598909416835260079091529020805490951617909355505050565b33600090815260036020526040902054606090818167ffffffffffffffff811180156200180e57600080fd5b5060405190808252806020026020018201604052801562001839578160200160208202803683370190505b50905060005b82811015620006cc573360009081526003602052604090208054829081106200186457fe5b9060005260206000200160009054906101000a90046001600160a01b03168282815181106200188f57fe5b6001600160a01b03909216602092830291909101909101526001016200183f565b60096020528160005260406000208181548110620005c857fe5b60023360009081526001602052604090206003015460ff166009811115620018ee57fe5b1480156200197c5750826001600160a01b031663abb428a66040518163ffffffff1660e01b815260040160606040518083038186803b1580156200193157600080fd5b505afa15801562001946573d6000803e3d6000fd5b505050506040513d601f19601f820116820180604052508101906200196c919062001e4c565b602001516001600160a01b031633145b6200199b5760405162461bcd60e51b8152600401620007199062002255565b600083338484604051620019af9062001a8f565b620019be949392919062002107565b604051809103906000f080158015620019db573d6000803e3d6000fd5b5033600090815260096020908152604080832080546001810182559084528284200180546001600160a01b039586166001600160a01b03199182168117909255989094168352600a9091529020805490951617909355505050565b611ac480620024e083390190565b6040805160a0810182526000808252602082018190529181018290529060608201908152600060209091015290565b6112128062003fa483390190565b6103b880620051b683390190565b6103bc806200556e83390190565b600082601f83011262001aae578081fd5b813567ffffffffffffffff81111562001ac5578182fd5b602080820262001ad782820162002460565b8381529350818401858301828701840188101562001af457600080fd5b600092505b8483101562001b2457803562001b0f81620024c9565b82526001929092019190830190830162001af9565b505050505092915050565b600082601f83011262001b40578081fd5b813567ffffffffffffffff81111562001b57578182fd5b62001b6c601f8201601f191660200162002460565b915080825283602082850101111562001b8457600080fd5b8060208401602084013760009082016020015292915050565b60006020828403121562001baf578081fd5b813562001bbc81620024c9565b9392505050565b60008060006060848603121562001bd8578182fd5b833562001be581620024c9565b9250602084013562001bf781620024c9565b9150604084013562001c0981620024c9565b809150509250925092565b6000806000806080858703121562001c2a578081fd5b843562001c3781620024c9565b9350602085013562001c4981620024c9565b9250604085013562001c5b81620024c9565b9150606085013567ffffffffffffffff81111562001c77578182fd5b62001c858782880162001b2f565b91505092959194509250565b60008060006060848603121562001ca6578283fd5b833562001cb381620024c9565b9250602084013562001cc581620024c9565b9150604084013567ffffffffffffffff81111562001ce1578182fd5b62001cef8682870162001b2f565b9150509250925092565b600080600080600060a0868803121562001d11578081fd5b853562001d1e81620024c9565b945060208601359350604086013567ffffffffffffffff8082111562001d42578283fd5b62001d5089838a0162001a9d565b945060608801359350608088013591508082111562001d6d578283fd5b5062001d7c8882890162001a9d565b9150509295509295909350565b600080600080600060a0868803121562001da1578081fd5b853562001dae81620024c9565b945060208601359350604086013560ff8116811462001dcb578182fd5b94979396509394606081013594506080013592915050565b6000806040838503121562001df6578182fd5b823562001e0381620024c9565b946020939093013593505050565b60008060006060848603121562001e26578283fd5b833562001e3381620024c9565b925060208401359150604084013562001c0981620024c9565b60006060828403121562001e5e578081fd5b82601f83011262001e6d578081fd5b62001e79606062002460565b80838560608601111562001e8b578384fd5b835b600381101562001eba57815162001ea481620024c9565b8452602093840193919091019060010162001e8d565b509095945050505050565b60006020828403121562001ed7578081fd5b5051919050565b600080600080600080600060e0888a03121562001ef9578485fd5b873596506020880135955060408801359450606088013593506080880135925060a0880135915060c088013562001f3081620024c9565b8091505092959891949750929550565b600080600080600060a0868803121562001f58578283fd5b85359450602086013593506040860135925060608601359150608086013562001f8181620024c9565b809150509295509295909350565b60006020828403121562001fa1578081fd5b5035919050565b6000806040838503121562001fbb578182fd5b82359150602083013562001fcf81620024c9565b809150509250929050565b6000815180845260208085019450808401835b83811015620020145781516001600160a01b03168752958201959082019060010162001fed565b509495945050505050565b600081518084526200203981602086016020860162002488565b601f01601f19169290920160200192915050565b60609290921b6bffffffffffffffffffffffff19168252601482015260340190565b600082516200208381846020870162002488565b9190910192915050565b6001600160a01b0391909116815260200190565b6001600160a01b03998a168152978916602089015260408801969096526060870194909452608086019290925260a085015260c084015260e08301529091166101008201526101200190565b6001600160a01b0392831681529116602082015260400190565b6001600160a01b03948516815292841660208401529083166040830152909116606082015260800190565b6001600160a01b0384811682528316602082015260606040820181905260009062002160908301846200201f565b95945050505050565b600060018060a01b038716825285602083015260a060408301526200219260a083018662001fda565b8460608401528281036080840152620021ac818562001fda565b98975050505050505050565b60006020825262001bbc602083018462001fda565b901515815260200190565b90815260200190565b858152602081018590526040810184905260a081016200220184620024bb565b60608201939093526001600160a01b03919091166080909101529392505050565b93845260ff9290921660208401526040830152606082015260800190565b60006020825262001bbc60208301846200201f565b60208082526043908201527f4f6e6c79204469737472696275746f72206f722063757272656e74206f776e6560408201527f72206f66207061636b6167652063616e2063616c6c20746869732066756e637460608201526234b7b760e91b608082015260a00190565b60208082526028908201527f4f6e6c79204469737472696275746f722043616e2063616c6c207468697320666040820152673ab731ba34b7b71760c11b606082015260800190565b60208082526026908201527f4f6e6c792057686f6c6573616c65722063616e2063616c6c20746869732066756040820152653731ba34b7b760d11b606082015260800190565b60208082526027908201527f4f6e6c792057686f6c6573616c65722043616e2063616c6c20746869732066756040820152663731ba34b7b71760c91b606082015260800190565b60208082526027908201527f4f6e6c79205472616e73706f727465722063616e2063616c6c207468697320666040820152663ab731ba34b7b760c91b606082015260800190565b6020808252601d908201527f5472616e73706f72746572205479706520697320696e636f7272656374000000604082015260600190565b600060a08201905082518252602083015160208301526040830151604083015260608301516200244181620024bb565b60608301526080928301516001600160a01b0316929091019190915290565b60405181810167ffffffffffffffff811182821017156200248057600080fd5b604052919050565b60005b83811015620024a55781810151838201526020016200248b565b83811115620024b5576000848401525b50505050565b600a8110620024c657fe5b50565b6001600160a01b0381168114620024c657600080fdfe60806040523480156200001157600080fd5b5060405162001ac438038062001ac4833981810160405260a08110156200003757600080fd5b815160208301516040808501805191519395929483019291846401000000008211156200006357600080fd5b9083019060208201858111156200007957600080fd5b82518660208202830111640100000000821117156200009757600080fd5b82525081516020918201928201910280838360005b83811015620000c6578181015183820152602001620000ac565b505050509050016040526020018051906020019092919080516040519392919084640100000000821115620000fa57600080fd5b9083019060208201858111156200011057600080fd5b82518660208202830111640100000000821117156200012e57600080fd5b82525081516020918201928201910280838360005b838110156200015d57818101518382015260200162000143565b50505050919091016040525050600080546001600160a01b0389166001600160a01b03199182168117909255600480549091169091179055505060018490558251620001b190600290602086019062000268565b5060088290558051620001cc90600390602084019062000268565b50600580546001600160a01b03199081169091556006805490911690556009805460ff1916905560405160009086906200020690620002d2565b6001600160a01b03909116815260405190819003602001906000f08015801562000234573d6000803e3d6000fd5b50600980546001600160a01b0390921661010002610100600160a81b0319909216919091179055506200030a945050505050565b828054828255906000526020600020908101928215620002c0579160200282015b82811115620002c057825182546001600160a01b0319166001600160a01b0390911617825560209092019160019091019062000289565b50620002ce929150620002e0565b5090565b610b638062000f6183390190565b6200030791905b80821115620002ce5780546001600160a01b0319168155600101620002e7565b90565b610c47806200031a6000396000f3fe608060405234801561001057600080fd5b50600436106100b45760003560e01c8063ac42a41511610071578063ac42a415146101d3578063c8f5f189146101f9578063d2f3fcc71461021f578063e002c8a514610227578063e138d4ce14610341578063f5c0e38314610367576100b4565b80631fedd36c146100b95780632f1d7588146100f157806393a668b71461012157806396991e7914610147578063aab3a9d61461016d578063abb428a614610193575b600080fd5b6100df600480360360208110156100cf57600080fd5b50356001600160a01b0316610395565b60408051918252519081900360200190f35b61011f6004803603604081101561010757600080fd5b506001600160a01b03813581169160200135166105c4565b005b61011f6004803603602081101561013757600080fd5b50356001600160a01b031661064d565b61011f6004803603602081101561015d57600080fd5b50356001600160a01b03166106ba565b61011f6004803603602081101561018357600080fd5b50356001600160a01b03166106dc565b61019b61072e565b6040518082606080838360005b838110156101c05781810151838201526020016101a8565b5050505090500191505060405180910390f35b61011f600480360360208110156101e957600080fd5b50356001600160a01b0316610769565b61011f6004803603602081101561020f57600080fd5b50356001600160a01b03166108ea565b6100df610953565b61022f61096c565b604051808a6001600160a01b03166001600160a01b031681526020018981526020018060200188815260200180602001876001600160a01b03166001600160a01b03168152602001868152602001856001600160a01b03166001600160a01b03168152602001846001600160a01b03166001600160a01b0316815260200183810383528a818151815260200191508051906020019060200280838360005b838110156102e55781810151838201526020016102cd565b50505050905001838103825288818151815260200191508051906020019060200280838360005b8381101561032457818101518382015260200161030c565b505050509050019b50505050505050505050505060405180910390f35b61011f6004803603602081101561035757600080fd5b50356001600160a01b0316610aa2565b61011f6004803603604081101561037d57600080fd5b506001600160a01b0381358116916020013516610ac4565b6005546000906001600160a01b03838116911614806103c157506006546001600160a01b038381169116145b6103fc5760405162461bcd60e51b8152600401808060200182810382526035815260200180610b716035913960400191505060405180910390fd5b60095460019060ff16600681111561041057fe5b1015610463576040805162461bcd60e51b815260206004820152601960248201527f50726f64756374206e6f74207069636b65642075702079657400000000000000604482015290519081900360640190fd5b6005546001600160a01b0383811691161480156104905750600160095460ff16600681111561048e57fe5b145b15610514576009805460ff1916600390811790915560055481546001600160a01b03909116919060001981019081106104c557fe5b60009182526020918290200154604080516002815260039381019390935280516001600160a01b03909216923092600080516020610b51833981519152929181900390910190a45060016105bf565b6006546001600160a01b0383811691161480156105415750600260095460ff16600681111561053f57fe5b145b156105bf576009805460ff19166004179055600654600380546001600160a01b0390921691600019810190811061057457fe5b60009182526020918290200154604080516003815260049381019390935280516001600160a01b03909216923092600080516020610b51833981519152929181900390910190a45060025b919050565b6006546001600160a01b038281169116146106105760405162461bcd60e51b8152600401808060200182810382526023815260200180610bc86023913960400191505060405180910390fd5b600780546001600160a01b0319166001600160a01b03841617905560055b6009805460ff1916600183600681111561064457fe5b02179055505050565b6006546001600160a01b038281169116146106995760405162461bcd60e51b8152600401808060200182810382526023815260200180610bc86023913960400191505060405180910390fd5b60045b6009805460ff191660018360068111156106b257fe5b021790555050565b600680546001600160a01b0319166001600160a01b0392909216919091179055565b600380546001810182556000919091527fc2575a0e9e593c00f959f8c92f12db2869c3395a3b0502d05e2516446f71f85b0180546001600160a01b0319166001600160a01b0392909216919091179055565b610736610b32565b50604080516060810182526005546001600160a01b03908116825260065481166020830152600754169181019190915290565b60038054600019810190811061077b57fe5b6000918252602090912001546001600160a01b038281169116146107d05760405162461bcd60e51b8152600401808060200182810382526027815260200180610beb6027913960400191505060405180910390fd5b600060095460ff1660068111156107e357fe5b14610835576040805162461bcd60e51b815260206004820181905260248201527f5061636b616765206d757374206265206174204d616e7566616374757265722e604482015290519081900360640190fd5b6005546001600160a01b031615610898576009805460ff1916600190811790915560055460408051838152602081019390935280516001600160a01b0392831693928516923092600080516020610b5183398151915292918290030190a46108e7565b6009805460ff191660029081179091556006546040805160018152602081019390935280516001600160a01b0392831693928516923092600080516020610b5183398151915292918290030190a45b50565b6007546001600160a01b0382811691161461094c576040805162461bcd60e51b815260206004820181905260248201527f5468697320437573746f6d6572206973206e6f74204173736f6369617465642e604482015290519081900360640190fd5b600661069c565b60095460009060ff16600681111561096757fe5b905090565b6004546001546008546006805460095460009586956060958795879587958695869586956001600160a01b03928316959194600294919360039391169160ff16908111156109b657fe5b6009546005548654604080516020808402820181019092528281526101009094046001600160a01b0390811694931692918991830182828015610a2257602002820191906000526020600020905b81546001600160a01b03168152600190910190602001808311610a04575b5050505050965084805480602002602001604051908101604052809291908181526020018280548015610a7e57602002820191906000526020600020905b81546001600160a01b03168152600190910190602001808311610a60575b50505050509450985098509850985098509850985098509850909192939495969798565b600580546001600160a01b0319166001600160a01b0392909216919091179055565b6005546001600160a01b03828116911614610b105760405162461bcd60e51b8152600401808060200182810382526022815260200180610ba66022913960400191505060405180910390fd5b600680546001600160a01b0319166001600160a01b038416179055600261062e565b6040518060600160405280600390602082028036833750919291505056fe7e89c4b1a4e2b51aae84eb1f90e8a34cb792ece5ac5cb63db4830c891220b28d4f6e6c792057686f6c6573616c6572206f72204469737472696275746f722063616e2063616c6c20746869732066756e6374696f6e746869732057686f6c6573616c6572206973206e6f74204173736f6369617465642e54686973204469737472696275746f72206973206e6f74204173736f6369617465642e4f6e6c79205472616e73706f727465722063616e2063616c6c20746869732066756e6374696f6ea26469706673582212206b020654e7ff083ceb558cfcd3d4344c52478453cef37e6297fb122aef29579764736f6c634300060600336080604052600060025534801561001557600080fd5b50604051610b63380380610b6383398101604081905261003491610059565b600080546001600160a01b0319166001600160a01b0392909216919091179055610087565b60006020828403121561006a578081fd5b81516001600160a01b0381168114610080578182fd5b9392505050565b610acd806100966000396000f3fe608060405234801561001057600080fd5b506004361061004c5760003560e01c806327506f53146100515780633626a3681461006f57806378ce1365146100845780639ace38c214610099575b600080fd5b6100596100bf565b60405161006691906108b6565b60405180910390f35b61008261007d3660046107bb565b6102c7565b005b61008c61050b565b6040516100669190610a76565b6100ac6100a7366004610853565b610511565b604051610066979695949392919061097f565b600254606090818167ffffffffffffffff811180156100dd57600080fd5b5060405190808252806020026020018201604052801561011757816020015b61010461066a565b8152602001906001900390816100fc5790505b50905060005b828110156102bf57600081815260016020818152604092839020835160e08101855281548152818401546001600160a01b0390811682850152600280840154909116828701526003830154606083015260048301805487516101009782161597909702600019011691909104601f81018590048502860185019096528585529094919360808601939092908301828280156101f95780601f106101ce576101008083540402835291602001916101f9565b820191906000526020600020905b8154815290600101906020018083116101dc57829003601f168201915b505050918352505060058201805460408051602060026001851615610100026000190190941693909304601f810184900484028201840190925281815293820193929183018282801561028d5780601f106102625761010080835404028352916020019161028d565b820191906000526020600020905b81548152906001019060200180831161027057829003601f168201915b505050505081526020016006820154815250508282815181106102ac57fe5b602090810291909101015260010161011d565b509150505b90565b60025442906103a6576040805160e0810182528881526001600160a01b038089166020808401918252898316848601908152606085018a8152608086018a815260a087018a905260c08701899052600280546000908152600180875299902088518155955198860180549988166001600160a01b03199a8b1617905592519285018054939096169290971691909117909355915160038201559251805192939261037792600485019201906106a5565b5060a082015180516103939160058401916020909101906106a5565b5060c082015181600601559050506104b5565b6002546000190160009081526001602052604090205484146103e35760405162461bcd60e51b81526004016103da90610a3f565b60405180910390fd5b6040805160e0810182528881526001600160a01b038089166020808401918252898316848601908152606085018a8152608086018a815260a087018a905260c08701899052600280546000908152600180875299902088518155955198860180549988166001600160a01b03199a8b1617905592519285018054939096169290971691909117909355915160038201559251805192939261048a92600485019201906106a5565b5060a082015180516104a69160058401916020909101906106a5565b5060c082015181600601559050505b6002805460010190556040517f30d01d358fb0899fe4d50947b2e9301c952d9eed09b14c7ecdcbeed4434557c4906104fa90899089908990899087908a908a906109df565b60405180910390a150505050505050565b60025481565b60016020818152600092835260409283902080548184015460028084015460038501546004860180548a516101009a8216159a909a02600019011693909304601f810188900488028901880190995288885293976001600160a01b039384169793909116959394938301828280156105ca5780601f1061059f576101008083540402835291602001916105ca565b820191906000526020600020905b8154815290600101906020018083116105ad57829003601f168201915b5050505060058301805460408051602060026001851615610100026000190190941693909304601f810184900484028201840190925281815294959493509083018282801561065a5780601f1061062f5761010080835404028352916020019161065a565b820191906000526020600020905b81548152906001019060200180831161063d57829003601f168201915b5050505050908060060154905087565b6040805160e08101825260008082526020820181905291810182905260608082018390526080820181905260a082015260c081019190915290565b828054600181600116156101000203166002900490600052602060002090601f016020900481019282601f106106e657805160ff1916838001178555610713565b82800160010185558215610713579182015b828111156107135782518255916020019190600101906106f8565b5061071f929150610723565b5090565b6102c491905b8082111561071f5760008155600101610729565b600082601f83011261074d578081fd5b813567ffffffffffffffff80821115610764578283fd5b604051601f8301601f191681016020018281118282101715610784578485fd5b60405282815292508284830160200186101561079f57600080fd5b8260208601602083013760006020848301015250505092915050565b60008060008060008060c087890312156107d3578182fd5b8635955060208701356107e581610a7f565b945060408701356107f581610a7f565b935060608701359250608087013567ffffffffffffffff80821115610818578384fd5b6108248a838b0161073d565b935060a0890135915080821115610839578283fd5b5061084689828a0161073d565b9150509295509295509295565b600060208284031215610864578081fd5b5035919050565b60008151808452815b8181101561089057602081850181015186830182015201610874565b818111156108a15782602083870101525b50601f01601f19169290920160200192915050565b60208082528251828201819052600091906040908185019080840286018301878501865b8381101561097157888303603f19018552815180518452878101516001600160a01b03908116898601528782015116878501526060808201519085015260808082015160e082870181905291906109338388018261086b565b91505060a09150818301518682038388015261094f828261086b565b60c09485015197909401969096525050948701949250908601906001016108da565b509098975050505050505050565b8781526001600160a01b038781166020830152861660408201526060810185905260e0608082018190526000906109b89083018661086b565b82810360a08401526109ca818661086b565b9150508260c083015298975050505050505050565b8781526001600160a01b03878116602083015286166040820152606081018590526080810184905260e060a08201819052600090610a1f9083018561086b565b82810360c0840152610a31818561086b565b9a9950505050505050505050565b6020808252601b908201527f5472616e73616374696f6e206572726f72206f63637572726564210000000000604082015260600190565b90815260200190565b6001600160a01b0381168114610a9457600080fd5b5056fea26469706673582212207e713d4fbf578a0496227affe57bf23b339d87874a24d0304c063d1f4d4b999064736f6c63430006060033608060405234801561001057600080fd5b5060405161121238038061121283398101604081905261002f91610128565b600080546001600160a01b03199081166001600160a01b038c811691821784556001805484168d831617905560028b905560038a90556004899055600588905560068790556007869055600980548416918616919091179055600a80549092161760ff60a01b1916905560405182906100a7906100fe565b6100b191906101a8565b604051809103906000f0801580156100cd573d6000803e3d6000fd5b50600c80546001600160a01b0319166001600160a01b0392909216919091179055506101bc98505050505050505050565b610b63806106af83390190565b80516001600160a01b038116811461012257600080fd5b92915050565b60008060008060008060008060006101208a8c031215610146578485fd5b6101508b8b61010b565b985061015f8b60208c0161010b565b975060408a0151965060608a0151955060808a0151945060a08a0151935060c08a0151925060e08a015191506101998b6101008c0161010b565b90509295985092959850929598565b6001600160a01b0391909116815260200190565b6104e4806101cb6000396000f3fe608060405234801561001057600080fd5b50600436106100575760003560e01c806350e073bc1461005c57806352b9996814610071578063638e9a3d146100845780636b099dca146100975780637618bd6d146100b5575b600080fd5b61006f61006a3660046102f5565b6100d3565b005b61006f61007f3660046102f5565b6100f5565b61006f6100923660046102f5565b6101d0565b61009f610296565b6040516100ac91906104a5565b60405180910390f35b6100bd6102b6565b6040516100ac9a99989796959493929190610323565b600980546001600160a01b0319166001600160a01b0392909216919091179055565b6009546001600160a01b0382811691161461012b5760405162461bcd60e51b8152600401610122906103c1565b60405180910390fd5b6001600a54600160a01b900460ff16600281111561014557fe5b146101625760405162461bcd60e51b81526004016101229061038a565b600a805460ff60a01b1916600160a11b179055600954600854600180546040516001600160a01b039485169493841693909116917f7e89c4b1a4e2b51aae84eb1f90e8a34cb792ece5ac5cb63db4830c891220b28d916101c5919060029061037c565b60405180910390a450565b6008546001600160a01b038281169116146101fd5760405162461bcd60e51b815260040161012290610455565b6000600a54600160a01b900460ff16600281111561021757fe5b146102345760405162461bcd60e51b81526004016101229061041e565b600a805460ff60a01b1916600160a01b179055600954600854600180546040516001600160a01b039485169493841693909116917f7e89c4b1a4e2b51aae84eb1f90e8a34cb792ece5ac5cb63db4830c891220b28d916101c59190819061037c565b600a54600090600160a01b900460ff1660028111156102b157fe5b905090565b600154600254600354600454600554600654600754600a54600954600c546001600160a01b03998a169992831692918216911690919293949596979899565b600060208284031215610306578081fd5b81356001600160a01b038116811461031c578182fd5b9392505050565b6001600160a01b039a8b168152602081019990995260408901979097526060880195909552608087019390935260a086019190915260c0850152841660e084015283166101008301529091166101208201526101400190565b918252602082015260400190565b60208082526019908201527f50726f64756374206e6f74207069636b65642075702079657400000000000000604082015260600190565b60208082526039908201527f4f6e6c79204d616e756661637475726572206f6620746865207061636b61676560408201527f2063616e20726563656965766520746865207061636b61676500000000000000606082015260800190565b6020808252601c908201527f5061636b616765206d75737420626520617420537570706c6965722e00000000604082015260600190565b60208082526030908201527f4f6e6c79207472616e73706f72746572206f6620746865207061636b6167652060408201526f63616e207069636b207061636b61676560801b606082015260800190565b9081526020019056fea264697066735822122073ca1ca56492c39504bfc120555da037aa77d87414372a999c166ba668187d9664736f6c634300060600336080604052600060025534801561001557600080fd5b50604051610b63380380610b6383398101604081905261003491610059565b600080546001600160a01b0319166001600160a01b0392909216919091179055610087565b60006020828403121561006a578081fd5b81516001600160a01b0381168114610080578182fd5b9392505050565b610acd806100966000396000f3fe608060405234801561001057600080fd5b506004361061004c5760003560e01c806327506f53146100515780633626a3681461006f57806378ce1365146100845780639ace38c214610099575b600080fd5b6100596100bf565b60405161006691906108b6565b60405180910390f35b61008261007d3660046107bb565b6102c7565b005b61008c61050b565b6040516100669190610a76565b6100ac6100a7366004610853565b610511565b604051610066979695949392919061097f565b600254606090818167ffffffffffffffff811180156100dd57600080fd5b5060405190808252806020026020018201604052801561011757816020015b61010461066a565b8152602001906001900390816100fc5790505b50905060005b828110156102bf57600081815260016020818152604092839020835160e08101855281548152818401546001600160a01b0390811682850152600280840154909116828701526003830154606083015260048301805487516101009782161597909702600019011691909104601f81018590048502860185019096528585529094919360808601939092908301828280156101f95780601f106101ce576101008083540402835291602001916101f9565b820191906000526020600020905b8154815290600101906020018083116101dc57829003601f168201915b505050918352505060058201805460408051602060026001851615610100026000190190941693909304601f810184900484028201840190925281815293820193929183018282801561028d5780601f106102625761010080835404028352916020019161028d565b820191906000526020600020905b81548152906001019060200180831161027057829003601f168201915b505050505081526020016006820154815250508282815181106102ac57fe5b602090810291909101015260010161011d565b509150505b90565b60025442906103a6576040805160e0810182528881526001600160a01b038089166020808401918252898316848601908152606085018a8152608086018a815260a087018a905260c08701899052600280546000908152600180875299902088518155955198860180549988166001600160a01b03199a8b1617905592519285018054939096169290971691909117909355915160038201559251805192939261037792600485019201906106a5565b5060a082015180516103939160058401916020909101906106a5565b5060c082015181600601559050506104b5565b6002546000190160009081526001602052604090205484146103e35760405162461bcd60e51b81526004016103da90610a3f565b60405180910390fd5b6040805160e0810182528881526001600160a01b038089166020808401918252898316848601908152606085018a8152608086018a815260a087018a905260c08701899052600280546000908152600180875299902088518155955198860180549988166001600160a01b03199a8b1617905592519285018054939096169290971691909117909355915160038201559251805192939261048a92600485019201906106a5565b5060a082015180516104a69160058401916020909101906106a5565b5060c082015181600601559050505b6002805460010190556040517f30d01d358fb0899fe4d50947b2e9301c952d9eed09b14c7ecdcbeed4434557c4906104fa90899089908990899087908a908a906109df565b60405180910390a150505050505050565b60025481565b60016020818152600092835260409283902080548184015460028084015460038501546004860180548a516101009a8216159a909a02600019011693909304601f810188900488028901880190995288885293976001600160a01b039384169793909116959394938301828280156105ca5780601f1061059f576101008083540402835291602001916105ca565b820191906000526020600020905b8154815290600101906020018083116105ad57829003601f168201915b5050505060058301805460408051602060026001851615610100026000190190941693909304601f810184900484028201840190925281815294959493509083018282801561065a5780601f1061062f5761010080835404028352916020019161065a565b820191906000526020600020905b81548152906001019060200180831161063d57829003601f168201915b5050505050908060060154905087565b6040805160e08101825260008082526020820181905291810182905260608082018390526080820181905260a082015260c081019190915290565b828054600181600116156101000203166002900490600052602060002090601f016020900481019282601f106106e657805160ff1916838001178555610713565b82800160010185558215610713579182015b828111156107135782518255916020019190600101906106f8565b5061071f929150610723565b5090565b6102c491905b8082111561071f5760008155600101610729565b600082601f83011261074d578081fd5b813567ffffffffffffffff80821115610764578283fd5b604051601f8301601f191681016020018281118282101715610784578485fd5b60405282815292508284830160200186101561079f57600080fd5b8260208601602083013760006020848301015250505092915050565b60008060008060008060c087890312156107d3578182fd5b8635955060208701356107e581610a7f565b945060408701356107f581610a7f565b935060608701359250608087013567ffffffffffffffff80821115610818578384fd5b6108248a838b0161073d565b935060a0890135915080821115610839578283fd5b5061084689828a0161073d565b9150509295509295509295565b600060208284031215610864578081fd5b5035919050565b60008151808452815b8181101561089057602081850181015186830182015201610874565b818111156108a15782602083870101525b50601f01601f19169290920160200192915050565b60208082528251828201819052600091906040908185019080840286018301878501865b8381101561097157888303603f19018552815180518452878101516001600160a01b03908116898601528782015116878501526060808201519085015260808082015160e082870181905291906109338388018261086b565b91505060a09150818301518682038388015261094f828261086b565b60c09485015197909401969096525050948701949250908601906001016108da565b509098975050505050505050565b8781526001600160a01b038781166020830152861660408201526060810185905260e0608082018190526000906109b89083018661086b565b82810360a08401526109ca818661086b565b9150508260c083015298975050505050505050565b8781526001600160a01b03878116602083015286166040820152606081018590526080810184905260e060a08201819052600090610a1f9083018561086b565b82810360c0840152610a31818561086b565b9a9950505050505050505050565b6020808252601b908201527f5472616e73616374696f6e206572726f72206f63637572726564210000000000604082015260600190565b90815260200190565b6001600160a01b0381168114610a9457600080fd5b5056fea26469706673582212207e713d4fbf578a0496227affe57bf23b339d87874a24d0304c063d1f4d4b999064736f6c63430006060033608060405234801561001057600080fd5b506040516103b83803806103b88339818101604052608081101561003357600080fd5b50805160208201516040830151606090930151600080546001600160a01b03199081166001600160a01b03948516908117835560018054831696861696909617909555600280548216909517909455600380548516958416959095179094556004805490931691161760ff60a01b191690556103039081906100b590396000f3fe608060405234801561001057600080fd5b50600436106100415760003560e01c8063443c28d814610046578063d2f3fcc714610076578063d7dcbe3b14610090575b600080fd5b6100746004803603604081101561005c57600080fd5b506001600160a01b03813581169160200135166100be565b005b61007e610190565b60408051918252519081900360200190f35b610074600480360360408110156100a657600080fd5b506001600160a01b03813581169160200135166101b0565b6003546001600160a01b0382811691161461010a5760405162461bcd60e51b815260040180806020018281038252602f81526020018061029f602f913960400191505060405180910390fd5b6004805460ff60a01b1916600160a01b178082556002546040805163f5c0e38360e01b81526001600160a01b03938416948101949094529082166024840152519084169163f5c0e38391604480830192600092919082900301818387803b15801561017457600080fd5b505af1158015610188573d6000803e3d6000fd5b505050505050565b600454600090600160a01b900460ff1660028111156101ab57fe5b905090565b6004546001600160a01b038281169116146101fc5760405162461bcd60e51b815260040180806020018281038252603081526020018061026f6030913960400191505060405180910390fd5b600480546002919060ff60a01b1916600160a01b830217905550816001600160a01b03166393a668b7826040518263ffffffff1660e01b815260040180826001600160a01b03166001600160a01b03168152602001915050600060405180830381600087803b15801561017457600080fdfe4f6e6c79204173736f6369617465642072656365697665722063616e2063616c6c20746869732066756e6374696f6e2e4f6e6c79204173736f63696174656420736869707065722063616e2063616c6c20746869732066756e6374696f6e2ea264697066735822122063fd754ea96d05f187220e02f869bb0fb7b8a5a533e79960a9271d185d2d225864736f6c63430006060033608060405234801561001057600080fd5b506040516103bc3803806103bc8339818101604052608081101561003357600080fd5b50805160208201516040830151606090930151600080546001600160a01b03199081166001600160a01b03948516908117835560018054831696861696909617909555600280548216909517909455600380548516958416959095179094556004805490931691161760ff60a01b191690556103079081906100b590396000f3fe608060405234801561001057600080fd5b50600436106100415760003560e01c806353157b1a14610046578063c0114d0614610076578063f7addc3e14610090575b600080fd5b6100746004803603604081101561005c57600080fd5b506001600160a01b03813581169160200135166100be565b005b61007e610190565b60408051918252519081900360200190f35b610074600480360360408110156100a657600080fd5b506001600160a01b03813581169160200135166101b0565b6003546001600160a01b0382811691161461010a5760405162461bcd60e51b815260040180806020018281038252603381526020018061026f6033913960400191505060405180910390fd5b6004805460ff60a01b1916600160a01b17808255600254604080516305e3aeb160e31b81526001600160a01b039384169481019490945290821660248401525190841691632f1d758891604480830192600092919082900301818387803b15801561017457600080fd5b505af1158015610188573d6000803e3d6000fd5b505050505050565b600454600090600160a01b900460ff1660028111156101ab57fe5b905090565b6004546001600160a01b038281169116146101fc5760405162461bcd60e51b81526004018080602001828103825260308152602001806102a26030913960400191505060405180910390fd5b600480546002919060ff60a01b1916600160a01b830217905550816001600160a01b031663c8f5f189826040518263ffffffff1660e01b815260040180826001600160a01b03166001600160a01b03168152602001915050600060405180830381600087803b15801561017457600080fdfe4f6e6c79204173736f636961746564207472616e73706f727465722063616e2063616c6c20746869732066756e6374696f6e2e4f6e6c79204173736f6369617465642072656365697665722063616e2063616c6c20746869732066756e6374696f6e2ea264697066735822122098270de587f167ee95f462ce9916e34a7b9018023c9915e3c5e649ae126dae7364736f6c63430006060033a26469706673582212208d48bb849d8fd62cbe398f4176c34706091656df434ee55a5b08fcd8de5950eb64736f6c63430006060033",
  "immutableReferences": {},
  "source": "// SPDX-License-Identifier: MIT\r\n\r\npragma solidity >=0.6.6 <=0.8.23;\r\npragma experimental ABIEncoderV2;\r\n\r\nimport \"./RawAlkes.sol\";\r\n// import './Supplier.sol';\r\n// import './Transporter.sol';\r\nimport \"./Medicine.sol\";\r\n// import './Manufacturer.sol';\r\nimport \"./MedicineW_D.sol\";\r\n// import './Wholesaler.sol';\r\nimport \"./MedicineD_C.sol\";\r\n\r\n// import './Distributor.sol';\r\n// import './Customer.sol';\r\n\r\n//// New supply chain : supplier -> transporter -> manufacturer -> transporter -> whole-saler -> transporter -> distributor -> transporter -> customer/hospital/pharmacy\r\n\r\ncontract SupplyChain {\r\n    address Owner;\r\n\r\n    constructor() public {\r\n        Owner = msg.sender;\r\n    }\r\n\r\n    modifier onlyOwner() {\r\n        require(Owner == msg.sender);\r\n        _;\r\n    }\r\n\r\n    modifier checkUser(address addr) {\r\n        require(addr == msg.sender);\r\n        _;\r\n    }\r\n\r\n    enum roles {\r\n        noRole,\r\n        manufaktur,\r\n        distributor,\r\n        kemenkes,\r\n        rumah_sakit,\r\n        customer,\r\n        supplier,\r\n        transporter,\r\n        manufacturer,\r\n        wholesaler\r\n    }\r\n\r\n    //////////////// Events ////////////////////\r\n\r\n    event UserRegister(address indexed _address, bytes32 name);\r\n    event buyEvent(\r\n        address buyer,\r\n        address indexed seller,\r\n        address packageAddr,\r\n        bytes signature,\r\n        uint indexed timestamp\r\n    );\r\n    event respondEvent(\r\n        address indexed buyer,\r\n        address seller,\r\n        address packageAddr,\r\n        bytes signature,\r\n        uint indexed timestamp\r\n    );\r\n    event sendEvent(\r\n        address seller,\r\n        address buyer,\r\n        address indexed packageAddr,\r\n        bytes signature,\r\n        uint indexed timestamp\r\n    );\r\n    event receivedEvent(\r\n        address indexed buyer,\r\n        address seller,\r\n        address packageAddr,\r\n        bytes signature,\r\n        uint indexed timestamp\r\n    );\r\n\r\n    //////////////// Event functions (All entities) ////////////////////\r\n\r\n    function requestProduct(\r\n        address buyer,\r\n        address seller,\r\n        address packageAddr,\r\n        bytes memory signature\r\n    ) public {\r\n        emit buyEvent(buyer, seller, packageAddr, signature, now);\r\n    }\r\n\r\n    function respondToEntity(\r\n        address buyer,\r\n        address seller,\r\n        address packageAddr,\r\n        bytes memory signature\r\n    ) public {\r\n        emit respondEvent(buyer, seller, packageAddr, signature, now);\r\n    }\r\n\r\n    function sendPackageToEntity(\r\n        address buyer,\r\n        address seller,\r\n        address packageAddr,\r\n        bytes memory signature\r\n    ) public {\r\n        emit sendEvent(seller, buyer, packageAddr, signature, now);\r\n    }\r\n\r\n    /////////////// Users (Only Owner Executable) //////////////////////\r\n\r\n    struct userData {\r\n        bytes32 name;\r\n        bytes32 email;\r\n        bytes32 noTelp;\r\n        // string[] userLoc;\r\n        roles role;\r\n        address userAddr;\r\n    }\r\n\r\n    mapping(address => userData) public userInfo;\r\n\r\n    function registerUser(\r\n        bytes32 name,\r\n        bytes32 email,\r\n        bytes32 noTelp,\r\n        uint role,\r\n        address _userAddr\r\n    ) public onlyOwner {\r\n        userInfo[_userAddr].name = name;\r\n        userInfo[_userAddr].email = email;\r\n        userInfo[_userAddr].noTelp = noTelp;\r\n        // userInfo[_userAddr].userLoc = loc;\r\n        userInfo[_userAddr].role = roles(role);\r\n        userInfo[_userAddr].userAddr = _userAddr;\r\n\r\n        emit UserRegister(_userAddr, name);\r\n    }\r\n\r\n    function changeUserRole(\r\n        uint _role,\r\n        address _addr\r\n    ) public onlyOwner returns (string memory) {\r\n        userInfo[_addr].role = roles(_role);\r\n        return \"Role Updated!\";\r\n    }\r\n\r\n    function getUserInfo(\r\n        address _address\r\n    ) public view returns (userData memory) {\r\n        return userInfo[_address];\r\n    }\r\n\r\n    /////////////// Supplier //////////////////////\r\n\r\n    mapping(address => address[]) public supplierRawMaterials;\r\n\r\n    function createAlkesManufaktur(\r\n        // bytes32 _description,\r\n        // uint _quantity,\r\n        // address _transporterAddr,\r\n        // address _manufacturerAddr\r\n        bytes32 _namaAlkes,\r\n        bytes32 _deskripsiAlkes,\r\n        bytes32 _klasifikasiAlkes,\r\n        bytes32 _tipeAlkes,\r\n        bytes32 _kelasAlkes,\r\n        bytes32 _kelasResiko,\r\n        address _manufacturerAddr\r\n    ) public returns (address) {\r\n        RawAlkes rawMaterial = new RawAlkes(\r\n            msg.sender,\r\n            address(bytes20(sha256(abi.encodePacked(msg.sender, now)))),\r\n            // _description,\r\n            // _quantity,\r\n            // _transporterAddr,\r\n            // _manufacturerAddr\r\n            _namaAlkes,\r\n            _deskripsiAlkes,\r\n            _klasifikasiAlkes,\r\n            _tipeAlkes,\r\n            _kelasAlkes,\r\n            _kelasResiko,\r\n            _manufacturerAddr\r\n        );\r\n\r\n        supplierRawMaterials[msg.sender].push(address(rawMaterial));\r\n        return address(rawMaterial);\r\n    }\r\n\r\n    function getNoOfPackagesOfSupplier() public view returns (uint) {\r\n        return supplierRawMaterials[msg.sender].length;\r\n    }\r\n\r\n    function getAllPackages() public view returns (address[] memory) {\r\n        uint len = supplierRawMaterials[msg.sender].length;\r\n        address[] memory ret = new address[](len);\r\n        for (uint i = 0; i < len; i++) {\r\n            ret[i] = supplierRawMaterials[msg.sender][i];\r\n        }\r\n        return ret;\r\n    }\r\n\r\n    ///////////////  Transporter ///////////////\r\n\r\n    function transporterHandlePackage(\r\n        address _addr,\r\n        uint transportertype,\r\n        address cid\r\n    ) public {\r\n        require(\r\n            userInfo[msg.sender].role == roles.transporter,\r\n            \"Only Transporter can call this function\"\r\n        );\r\n        require(transportertype > 0, \"Transporter Type is incorrect\");\r\n\r\n        if (transportertype == 1) {\r\n            /// Supplier -> Manufacturer\r\n            RawAlkes(_addr).pickPackage(msg.sender);\r\n        } else if (transportertype == 2) {\r\n            /// Manufacturer -> Wholesaler\r\n            Medicine(_addr).pickMedicine(msg.sender);\r\n        } else if (transportertype == 3) {\r\n            // Wholesaler to Distributor\r\n            MedicineW_D(cid).pickWD(_addr, msg.sender);\r\n        } else if (transportertype == 4) {\r\n            // Distrubutor to Customer\r\n            MedicineD_C(cid).pickDC(_addr, msg.sender);\r\n        }\r\n    }\r\n\r\n    ///////////////  Manufacturer ///////////////\r\n\r\n    mapping(address => address[]) public manufacturerRawMaterials;\r\n    mapping(address => address[]) public manufacturerMedicines;\r\n\r\n    function manufacturerReceivedPackage(\r\n        address _addr,\r\n        address _manufacturerAddress,\r\n        address _sellerAddr,\r\n        bytes memory signature\r\n    ) public {\r\n        RawAlkes(_addr).receivedPackage(_manufacturerAddress);\r\n        manufacturerRawMaterials[_manufacturerAddress].push(_addr);\r\n        emit receivedEvent(msg.sender, _sellerAddr, _addr, signature, now);\r\n    }\r\n\r\n    function getAllRawMaterials() public view returns (address[] memory) {\r\n        uint len = manufacturerRawMaterials[msg.sender].length;\r\n        address[] memory ret = new address[](len);\r\n        for (uint i = 0; i < len; i++) {\r\n            ret[i] = manufacturerRawMaterials[msg.sender][i];\r\n        }\r\n        return ret;\r\n    }\r\n\r\n    function manufacturerCreatesMedicine(\r\n        address _manufacturerAddr,\r\n        bytes32 _description,\r\n        address[] memory _rawAddr,\r\n        uint _quantity,\r\n        address[] memory _transporterAddr\r\n    ) public {\r\n        Medicine _medicine = new Medicine(\r\n            _manufacturerAddr,\r\n            _description,\r\n            _rawAddr,\r\n            _quantity,\r\n            _transporterAddr\r\n        );\r\n\r\n        manufacturerMedicines[_manufacturerAddr].push(address(_medicine));\r\n    }\r\n\r\n    function getAllCreatedMedicines() public view returns (address[] memory) {\r\n        uint len = manufacturerMedicines[msg.sender].length;\r\n        address[] memory ret = new address[](len);\r\n        for (uint i = 0; i < len; i++) {\r\n            ret[i] = manufacturerMedicines[msg.sender][i];\r\n        }\r\n        return ret;\r\n    }\r\n\r\n    ///////////////  Wholesaler  ///////////////\r\n\r\n    mapping(address => address[]) public MedicinesAtWholesaler;\r\n    mapping(address => address[]) public MedicineWtoD;\r\n    mapping(address => address) public MedicineWtoDTxContract;\r\n\r\n    function wholesalerReceivedMedicine(\r\n        address _address,\r\n        address _sellerAddr,\r\n        bytes memory signature\r\n    ) public {\r\n        require(\r\n            userInfo[msg.sender].role == roles.wholesaler,\r\n            \"Only Wholesaler can call this function\"\r\n        );\r\n\r\n        uint rtype = Medicine(_address).receivedMedicine(msg.sender);\r\n        MedicinesAtWholesaler[msg.sender].push(_address);\r\n        emit receivedEvent(msg.sender, _sellerAddr, _address, signature, now);\r\n    }\r\n\r\n    function transferMedicineWtoD(\r\n        address _address,\r\n        address transporter,\r\n        address receiver\r\n    ) public {\r\n        MedicineW_D wd = new MedicineW_D(\r\n            _address,\r\n            msg.sender,\r\n            transporter,\r\n            receiver\r\n        );\r\n        MedicineWtoD[msg.sender].push(address(wd));\r\n        MedicineWtoDTxContract[_address] = address(wd);\r\n    }\r\n\r\n    function getBatchIdByIndexWD(\r\n        uint index\r\n    ) public view returns (address packageID) {\r\n        require(\r\n            userInfo[msg.sender].role == roles.wholesaler,\r\n            \"Only Wholesaler Can call this function.\"\r\n        );\r\n        return MedicineWtoD[msg.sender][index];\r\n    }\r\n\r\n    function getSubContractWD(\r\n        address _address\r\n    ) public view returns (address SubContractWD) {\r\n        return MedicineWtoDTxContract[_address];\r\n    }\r\n\r\n    function getAllMedicinesAtWholesaler()\r\n        public\r\n        view\r\n        returns (address[] memory)\r\n    {\r\n        uint len = MedicinesAtWholesaler[msg.sender].length;\r\n        address[] memory ret = new address[](len);\r\n        for (uint i = 0; i < len; i++) {\r\n            ret[i] = MedicinesAtWholesaler[msg.sender][i];\r\n        }\r\n        return ret;\r\n    }\r\n\r\n    //     ///////////////  Distributor  ///////////////\r\n\r\n    mapping(address => address[]) public MedicinesAtDistributor;\r\n    mapping(address => address[]) public MedicineDtoC;\r\n    mapping(address => address) public MedicineDtoCTxContract;\r\n\r\n    function distributorReceivedMedicine(\r\n        address _address,\r\n        address cid,\r\n        address _sellerAddr,\r\n        bytes memory signature\r\n    ) public {\r\n        require(\r\n            userInfo[msg.sender].role == roles.distributor &&\r\n                msg.sender == Medicine(_address).getWDC()[1],\r\n            \"Only Distributor or current owner of package can call this function\"\r\n        );\r\n\r\n        uint rtype = Medicine(_address).receivedMedicine(msg.sender);\r\n        if (rtype == 2) {\r\n            MedicinesAtDistributor[msg.sender].push(_address);\r\n            if (Medicine(_address).getWDC()[0] != address(0)) {\r\n                MedicineW_D(cid).receiveWD(_address, msg.sender);\r\n            }\r\n        }\r\n        emit receivedEvent(msg.sender, _sellerAddr, _address, signature, now);\r\n    }\r\n\r\n    function distributorTransferMedicinetoCustomer(\r\n        address _address,\r\n        address transporter,\r\n        address receiver\r\n    ) public {\r\n        require(\r\n            userInfo[msg.sender].role == roles.distributor &&\r\n                msg.sender == Medicine(_address).getWDC()[1],\r\n            \"Only Distributor or current owner of package can call this function\"\r\n        );\r\n        MedicineD_C dp = new MedicineD_C(\r\n            _address,\r\n            msg.sender,\r\n            transporter,\r\n            receiver\r\n        );\r\n        MedicineDtoC[msg.sender].push(address(dp));\r\n        MedicineDtoCTxContract[_address] = address(dp);\r\n    }\r\n\r\n    function getBatchesCountDC() public view returns (uint count) {\r\n        require(\r\n            userInfo[msg.sender].role == roles.distributor,\r\n            \"Only Distributor Can call this function.\"\r\n        );\r\n        return MedicineDtoC[msg.sender].length;\r\n    }\r\n\r\n    function getBatchIdByIndexDC(\r\n        uint index\r\n    ) public view returns (address packageID) {\r\n        require(\r\n            userInfo[msg.sender].role == roles.distributor,\r\n            \"Only Distributor Can call this function.\"\r\n        );\r\n        return MedicineDtoC[msg.sender][index];\r\n    }\r\n\r\n    function getSubContractDC(\r\n        address _address\r\n    ) public view returns (address SubContractDP) {\r\n        return MedicineDtoCTxContract[_address];\r\n    }\r\n\r\n    function getAllMedicinesAtDistributor()\r\n        public\r\n        view\r\n        returns (address[] memory)\r\n    {\r\n        uint len = MedicinesAtDistributor[msg.sender].length;\r\n        address[] memory ret = new address[](len);\r\n        for (uint i = 0; i < len; i++) {\r\n            ret[i] = MedicinesAtDistributor[msg.sender][i];\r\n        }\r\n        return ret;\r\n    }\r\n\r\n    function verify(\r\n        address p,\r\n        bytes32 hash,\r\n        uint8 v,\r\n        bytes32 r,\r\n        bytes32 s\r\n    ) public pure returns (bool) {\r\n        return ecrecover(hash, v, r, s) == p;\r\n    }\r\n}\r\n",
  "sourcePath": "D:\\ACTIVITY\\SEM 8\\0. SKRIPSI\\REF\\WEB\\alkes-blockchain\\contracts\\Testing.sol",
  "compiler": {
    "name": "solc",
    "version": "0.6.6+commit.6c089d02.Emscripten.clang"
  },
  "schemaVersion": "3.4.16",
  "updatedAt": "2023-11-28T07:57:14.763Z",
  "networkType": "ethereum",
  "devdoc": {
    "methods": {}
  },
  "userdoc": {
    "methods": {
      "requestProduct(address,address,address,bytes)": {
        "notice": "///////////// Event functions (All entities) ////////////////////"
      },
      "transporterHandlePackage(address,uint256,address)": {
        "notice": "////////////  Transporter ///////////////"
      }
    },
    "notice": "/ New supply chain : supplier -> transporter -> manufacturer -> transporter -> whole-saler -> transporter -> distributor -> transporter -> customer/hospital/pharmacy"
  }
}