{
  "contractName": "SupplyChain",
  "abi": [
    {
      "inputs": [],
      "stateMutability": "nonpayable",
      "type": "constructor"
    },
    {
      "anonymous": false,
      "inputs": [
        {
          "indexed": true,
          "internalType": "address",
          "name": "_address",
          "type": "address"
        },
        {
          "indexed": false,
          "internalType": "bytes32",
          "name": "name",
          "type": "bytes32"
        }
      ],
      "name": "UserRegister",
      "type": "event"
    },
    {
      "anonymous": false,
      "inputs": [
        {
          "indexed": false,
          "internalType": "address",
          "name": "distributor",
          "type": "address"
        },
        {
          "indexed": true,
          "internalType": "address",
          "name": "kemenkes",
          "type": "address"
        },
        {
          "indexed": false,
          "internalType": "address",
          "name": "alkesAddr",
          "type": "address"
        },
        {
          "indexed": true,
          "internalType": "uint256",
          "name": "timestamp",
          "type": "uint256"
        }
      ],
      "name": "izinEvent",
      "type": "event"
    },
    {
      "anonymous": false,
      "inputs": [
        {
          "indexed": false,
          "internalType": "address",
          "name": "distributor",
          "type": "address"
        },
        {
          "indexed": true,
          "internalType": "address",
          "name": "manufaktur",
          "type": "address"
        },
        {
          "indexed": false,
          "internalType": "address",
          "name": "alkesAddr",
          "type": "address"
        },
        {
          "indexed": true,
          "internalType": "uint256",
          "name": "timestamp",
          "type": "uint256"
        }
      ],
      "name": "requestEvent",
      "type": "event"
    },
    {
      "anonymous": false,
      "inputs": [
        {
          "indexed": false,
          "internalType": "address",
          "name": "rs",
          "type": "address"
        },
        {
          "indexed": true,
          "internalType": "address",
          "name": "distributor",
          "type": "address"
        },
        {
          "indexed": false,
          "internalType": "address",
          "name": "alkesAddr",
          "type": "address"
        },
        {
          "indexed": true,
          "internalType": "uint256",
          "name": "timestamp",
          "type": "uint256"
        }
      ],
      "name": "rsEvent",
      "type": "event"
    },
    {
      "inputs": [
        {
          "internalType": "address",
          "name": "",
          "type": "address"
        },
        {
          "internalType": "uint256",
          "name": "",
          "type": "uint256"
        }
      ],
      "name": "supplierRawMaterials",
      "outputs": [
        {
          "internalType": "address",
          "name": "",
          "type": "address"
        }
      ],
      "stateMutability": "view",
      "type": "function",
      "constant": true
    },
    {
      "inputs": [
        {
          "internalType": "address",
          "name": "",
          "type": "address"
        }
      ],
      "name": "userInfo",
      "outputs": [
        {
          "internalType": "bytes32",
          "name": "name",
          "type": "bytes32"
        },
        {
          "internalType": "bytes32",
          "name": "email",
          "type": "bytes32"
        },
        {
          "internalType": "bytes32",
          "name": "noTelp",
          "type": "bytes32"
        },
        {
          "internalType": "enum SupplyChain.roles",
          "name": "role",
          "type": "uint8"
        },
        {
          "internalType": "address",
          "name": "userAddr",
          "type": "address"
        }
      ],
      "stateMutability": "view",
      "type": "function",
      "constant": true
    },
    {
      "inputs": [
        {
          "internalType": "address",
          "name": "distributor",
          "type": "address"
        },
        {
          "internalType": "address",
          "name": "manufaktur",
          "type": "address"
        },
        {
          "internalType": "address",
          "name": "packageAddr",
          "type": "address"
        }
      ],
      "name": "requestProduct",
      "outputs": [],
      "stateMutability": "nonpayable",
      "type": "function"
    },
    {
      "inputs": [
        {
          "internalType": "address",
          "name": "distributor",
          "type": "address"
        },
        {
          "internalType": "address",
          "name": "kemenkes",
          "type": "address"
        },
        {
          "internalType": "address",
          "name": "alkesAddr",
          "type": "address"
        }
      ],
      "name": "izinRequest",
      "outputs": [],
      "stateMutability": "nonpayable",
      "type": "function"
    },
    {
      "inputs": [
        {
          "internalType": "address",
          "name": "rs",
          "type": "address"
        },
        {
          "internalType": "address",
          "name": "distributor",
          "type": "address"
        },
        {
          "internalType": "address",
          "name": "alkesAddr",
          "type": "address"
        }
      ],
      "name": "reqAlkesRs",
      "outputs": [],
      "stateMutability": "nonpayable",
      "type": "function"
    },
    {
      "inputs": [
        {
          "internalType": "bytes32",
          "name": "name",
          "type": "bytes32"
        },
        {
          "internalType": "bytes32",
          "name": "email",
          "type": "bytes32"
        },
        {
          "internalType": "bytes32",
          "name": "noTelp",
          "type": "bytes32"
        },
        {
          "internalType": "uint256",
          "name": "role",
          "type": "uint256"
        },
        {
          "internalType": "address",
          "name": "_userAddr",
          "type": "address"
        }
      ],
      "name": "registerUser",
      "outputs": [],
      "stateMutability": "nonpayable",
      "type": "function"
    },
    {
      "inputs": [
        {
          "internalType": "uint256",
          "name": "_role",
          "type": "uint256"
        },
        {
          "internalType": "address",
          "name": "_addr",
          "type": "address"
        }
      ],
      "name": "changeUserRole",
      "outputs": [
        {
          "internalType": "string",
          "name": "",
          "type": "string"
        }
      ],
      "stateMutability": "nonpayable",
      "type": "function"
    },
    {
      "inputs": [
        {
          "internalType": "address",
          "name": "_address",
          "type": "address"
        }
      ],
      "name": "getUserInfo",
      "outputs": [
        {
          "components": [
            {
              "internalType": "bytes32",
              "name": "name",
              "type": "bytes32"
            },
            {
              "internalType": "bytes32",
              "name": "email",
              "type": "bytes32"
            },
            {
              "internalType": "bytes32",
              "name": "noTelp",
              "type": "bytes32"
            },
            {
              "internalType": "enum SupplyChain.roles",
              "name": "role",
              "type": "uint8"
            },
            {
              "internalType": "address",
              "name": "userAddr",
              "type": "address"
            }
          ],
          "internalType": "struct SupplyChain.userData",
          "name": "",
          "type": "tuple"
        }
      ],
      "stateMutability": "view",
      "type": "function",
      "constant": true
    },
    {
      "inputs": [
        {
          "internalType": "bytes32",
          "name": "_namaAlkes",
          "type": "bytes32"
        },
        {
          "internalType": "bytes32",
          "name": "_deskripsiAlkes",
          "type": "bytes32"
        },
        {
          "internalType": "bytes32",
          "name": "_klasifikasiAlkes",
          "type": "bytes32"
        },
        {
          "internalType": "bytes32",
          "name": "_tipeAlkes",
          "type": "bytes32"
        },
        {
          "internalType": "bytes32",
          "name": "_kelasAlkes",
          "type": "bytes32"
        },
        {
          "internalType": "bytes32",
          "name": "_kelasResiko",
          "type": "bytes32"
        },
        {
          "internalType": "bytes32",
          "name": "_noIzinEdar",
          "type": "bytes32"
        },
        {
          "internalType": "address",
          "name": "_distributorAddr",
          "type": "address"
        },
        {
          "internalType": "address",
          "name": "_kemenkesAddr",
          "type": "address"
        },
        {
          "internalType": "address",
          "name": "_rumahSakitAddr",
          "type": "address"
        }
      ],
      "name": "createAlkesManufaktur",
      "outputs": [
        {
          "internalType": "address",
          "name": "",
          "type": "address"
        }
      ],
      "stateMutability": "nonpayable",
      "type": "function"
    },
    {
      "inputs": [],
      "name": "getNoOfPackagesOfSupplier",
      "outputs": [
        {
          "internalType": "uint256",
          "name": "",
          "type": "uint256"
        }
      ],
      "stateMutability": "view",
      "type": "function",
      "constant": true
    },
    {
      "inputs": [],
      "name": "getAllPackages",
      "outputs": [
        {
          "internalType": "address[]",
          "name": "",
          "type": "address[]"
        }
      ],
      "stateMutability": "view",
      "type": "function",
      "constant": true
    },
    {
      "inputs": [],
      "name": "getAllPackagesData",
      "outputs": [
        {
          "internalType": "address[]",
          "name": "",
          "type": "address[]"
        },
        {
          "internalType": "bytes32[]",
          "name": "",
          "type": "bytes32[]"
        },
        {
          "internalType": "bytes32[]",
          "name": "",
          "type": "bytes32[]"
        }
      ],
      "stateMutability": "view",
      "type": "function",
      "constant": true
    }
  ],
  "bytecode": "0x608060405234801561001057600080fd5b50600080546001600160a01b03191633179055611e82806100326000396000f3fe60806040523480156200001157600080fd5b5060043610620000c45760003560e01c806391009786116200007b5780639100978614620001955780639b8f584d14620001bb578063c0e3717b14620001d2578063c22470ea14620001e9578063c4ea80941462000202578063f6bc9109146200021957620000c4565b806306db832414620000c95780630a421f0f14620000f85780631959a00214620001115780633dfc4c05146200013b5780636386c1c714620001565780636ba3cef7146200017c575b600080fd5b620000e0620000da36600462000c20565b62000230565b604051620000ef919062000e46565b60405180910390f35b6200010262000269565b604051620000ef919062000edc565b620001286200012236600462000bb3565b62000380565b604051620000ef95949392919062000f43565b62000145620003bb565b604051620000ef9392919062000ef1565b6200016d6200016736600462000bb3565b620006db565b604051620000ef919062000fb7565b620001936200018d36600462000cf4565b62000799565b005b620001ac620001a636600462000d3f565b620008bc565b604051620000ef919062000f82565b62000193620001cc36600462000bd7565b62000972565b62000193620001e336600462000bd7565b620009bd565b620001f3620009fb565b604051620000ef919062000f3a565b620001936200021336600462000bd7565b62000a0e565b620000e06200022a36600462000c65565b62000a4c565b600260205281600052604060002081815481106200024d57600080fd5b6000918252602090912001546001600160a01b03169150829050565b336000908152600260205260408120546060918167ffffffffffffffff811115620002a457634e487b7160e01b600052604160045260246000fd5b604051908082528060200260200182016040528015620002ce578160200160208202803683370190505b50905060005b8281101562000379573360009081526002602052604090208054829081106200030d57634e487b7160e01b600052603260045260246000fd5b9060005260206000200160009054906101000a90046001600160a01b03168282815181106200034c57634e487b7160e01b600052603260045260246000fd5b6001600160a01b039092166020928302919091019091015280620003708162001036565b915050620002d4565b5091505090565b6001602081905260009182526040909120805491810154600282015460039092015490919060ff81169061010090046001600160a01b031685565b33600090815260026020526040812054606091829182918167ffffffffffffffff811115620003fa57634e487b7160e01b600052604160045260246000fd5b60405190808252806020026020018201604052801562000424578160200160208202803683370190505b50905060008267ffffffffffffffff8111156200045157634e487b7160e01b600052604160045260246000fd5b6040519080825280602002602001820160405280156200047b578160200160208202803683370190505b50905060008367ffffffffffffffff811115620004a857634e487b7160e01b600052604160045260246000fd5b604051908082528060200260200182016040528015620004d2578160200160208202803683370190505b50905060005b84811015620006cd573360009081526002602052604081208054839081106200051157634e487b7160e01b600052603260045260246000fd5b60009182526020909120015485516001600160a01b039091169150819081908790859081106200055157634e487b7160e01b600052603260045260246000fd5b60200260200101906001600160a01b031690816001600160a01b031681525050806001600160a01b031663e1009dfa6040518163ffffffff1660e01b815260040160206040518083038186803b158015620005ab57600080fd5b505afa158015620005c0573d6000803e3d6000fd5b505050506040513d601f19601f82011682018060405250810190620005e6919062000c4c565b8584815181106200060757634e487b7160e01b600052603260045260246000fd5b602002602001018181525050806001600160a01b031663ee2005826040518163ffffffff1660e01b815260040160206040518083038186803b1580156200064d57600080fd5b505afa15801562000662573d6000803e3d6000fd5b505050506040513d601f19601f8201168201806040525081019062000688919062000c4c565b848481518110620006a957634e487b7160e01b600052603260045260246000fd5b60200260200101818152505050508080620006c49062001036565b915050620004d8565b509195509350915050909192565b620006e562000b5e565b6001600160a01b038216600090815260016020818152604092839020835160a0810185528154815292810154918301919091526002810154928201929092526003820154909190606083019060ff1660058111156200075457634e487b7160e01b600052602160045260246000fd5b60058111156200077457634e487b7160e01b600052602160045260246000fd5b81526003919091015461010090046001600160a01b031660209091015290505b919050565b6000546001600160a01b03163314620007b157600080fd5b6001600160a01b0381166000908152600160208190526040909120868155908101859055600201839055816005811115620007fc57634e487b7160e01b600052602160045260246000fd5b6001600160a01b03821660009081526001602081905260409091206003018054909160ff19909116908360058111156200084657634e487b7160e01b600052602160045260246000fd5b02179055506001600160a01b038116600081815260016020526040908190206003018054610100600160a81b0319166101008402179055517f33a7170f028b1e4f5ba321064a00ed820856a920c7f9c6636fbcf385427b1b0f90620008ad90889062000f3a565b60405180910390a25050505050565b6000546060906001600160a01b03163314620008d757600080fd5b826005811115620008f857634e487b7160e01b600052602160045260246000fd5b6001600160a01b03831660009081526001602081905260409091206003018054909160ff19909116908360058111156200094257634e487b7160e01b600052602160045260246000fd5b02179055505060408051808201909152600d81526c526f6c6520557064617465642160981b602082015292915050565b42826001600160a01b03167f77406cbc6a9614761d6c1b74cc127457d34eca80f1d1037f09cd18d8ade80f9e8584604051620009b092919062000e5a565b60405180910390a3505050565b42826001600160a01b03167f90a5e9ce01490d570b308f8f343d63c611ec162480cf00c918aa273a372775568584604051620009b092919062000e5a565b3360009081526002602052604090205490565b42826001600160a01b03167f3cc903401a806c6b5a5fe9dcb7a0f24453bc98e0c457690ef1d1611d599473cd8584604051620009b092919062000e5a565b600080336002334260405160200162000a6792919062000e06565b60408051601f198184030181529082905262000a839162000e28565b602060405180830381855afa15801562000aa1573d6000803e3d6000fd5b5050506040513d601f19601f8201168201806040525081019062000ac6919062000c4c565b60601c8d8d8d8d8d8d8d8d8d8d60405162000ae19062000b8d565b62000af89c9b9a9998979695949392919062000e74565b604051809103906000f08015801562000b15573d6000803e3d6000fd5b503360009081526002602090815260408220805460018101825590835291200180546001600160a01b0319166001600160a01b0383161790559c9b505050505050505050505050565b6040805160a0810182526000808252602082018190529181018290529060608201908152600060209091015290565b610dee806200105f83390190565b80356001600160a01b03811681146200079457600080fd5b60006020828403121562000bc5578081fd5b62000bd08262000b9b565b9392505050565b60008060006060848603121562000bec578182fd5b62000bf78462000b9b565b925062000c076020850162000b9b565b915062000c176040850162000b9b565b90509250925092565b6000806040838503121562000c33578182fd5b62000c3e8362000b9b565b946020939093013593505050565b60006020828403121562000c5e578081fd5b5051919050565b6000806000806000806000806000806101408b8d03121562000c85578586fd5b8a35995060208b0135985060408b0135975060608b0135965060808b0135955060a08b0135945060c08b0135935062000cc160e08c0162000b9b565b925062000cd26101008c0162000b9b565b915062000ce36101208c0162000b9b565b90509295989b9194979a5092959850565b600080600080600060a0868803121562000d0c578081fd5b8535945060208601359350604086013592506060860135915062000d336080870162000b9b565b90509295509295909350565b6000806040838503121562000d52578182fd5b8235915062000d646020840162000b9b565b90509250929050565b6000815180845260208085019450808401835b8381101562000da75781516001600160a01b03168752958201959082019060010162000d80565b509495945050505050565b6000815180845260208085019450808401835b8381101562000da75781518752958201959082019060010162000dc5565b6006811062000e0257634e487b7160e01b600052602160045260246000fd5b9052565b60609290921b6bffffffffffffffffffffffff19168252601482015260340190565b6000825162000e3c81846020870162001003565b9190910192915050565b6001600160a01b0391909116815260200190565b6001600160a01b0392831681529116602082015260400190565b6001600160a01b039c8d1681529a8c1660208c015260408b019990995260608a0197909752608089019590955260a088019390935260c087019190915260e0860152610100850152841661012084015283166101408301529091166101608201526101800190565b60006020825262000bd0602083018462000d6d565b60006060825262000f06606083018662000d6d565b828103602084015262000f1a818662000db2565b9050828103604084015262000f30818562000db2565b9695505050505050565b90815260200190565b858152602081018590526040810184905260a0810162000f67606083018562000de3565b6001600160a01b039290921660809190910152949350505050565b600060208252825180602084015262000fa381604085016020870162001003565b601f01601f19169190910160400192915050565b600060a082019050825182526020830151602083015260408301516040830152606083015162000feb606084018262000de3565b506080928301516001600160a01b0316919092015290565b60005b838110156200102057818101518382015260200162001006565b8381111562001030576000848401525b50505050565b60006000198214156200105757634e487b7160e01b81526011600452602481fd5b506001019056fe608060405234801561001057600080fd5b50604051610dee380380610dee83398101604081905261002f91610231565b8b6000806101000a8154816001600160a01b0302191690836001600160a01b031602179055508a600160006101000a8154816001600160a01b0302191690836001600160a01b03160217905550896002819055508860038190555087600481905550866005819055508560068190555084600781905550836008819055508b600a60006101000a8154816001600160a01b0302191690836001600160a01b0316021790555082600960006101000a8154816001600160a01b0302191690836001600160a01b0316021790555081600b60006101000a8154816001600160a01b0302191690836001600160a01b0316021790555080600c60006101000a8154816001600160a01b0302191690836001600160a01b031602179055506000600381111561016a57634e487b7160e01b600052602160045260246000fd5b600c805460ff60a01b1916600160a01b83600381111561019a57634e487b7160e01b600052602160045260246000fd5b02179055506000836040516101ae90610208565b6101b891906102db565b604051809103906000f0801580156101d4573d6000803e3d6000fd5b50600d80546001600160a01b0319166001600160a01b0392909216919091179055506102ef9b505050505050505050505050565b6106e28061070c83390190565b80516001600160a01b038116811461022c57600080fd5b919050565b6000806000806000806000806000806000806101808d8f031215610253578788fd5b61025c8d610215565b9b5061026a60208e01610215565b9a5060408d0151995060608d0151985060808d0151975060a08d0151965060c08d0151955060e08d015194506101008d015193506102ab6101208e01610215565b92506102ba6101408e01610215565b91506102c96101608e01610215565b90509295989b509295989b509295989b565b6001600160a01b0391909116815260200190565b61040e806102fe6000396000f3fe608060405234801561001057600080fd5b50600436106100935760003560e01c80637618bd6d116100665780637618bd6d146100f1578063b4a99a4e14610112578063e1009dfa14610127578063e7b9307a1461012f578063ee2005821461014257610093565b80630a4381f8146100985780631ef3f1bd146100ad5780633143d603146100c05780634176ee75146100d3575b600080fd5b6100ab6100a636600461031e565b61014a565b005b6100ab6100bb3660046102fd565b6101a5565b6100ab6100ce3660046102fd565b6101fb565b6100db61021d565b6040516100e891906103cf565b60405180910390f35b6100f9610251565b6040516100e89d9c9b9a9998979695949392919061035d565b61011a6102a4565b6040516100e89190610349565b6100db6102b3565b6100ab61013d3660046102fd565b6102b9565b6100db6102db565b6008829055600b80546001600160a01b0319166001600160a01b0383161790556002600c805460ff60a01b1916600160a01b83600381111561019c57634e487b7160e01b600052602160045260246000fd5b02179055505050565b600980546001600160a01b0319166001600160a01b03831617905560015b600c805460ff60a01b1916600160a01b8360038111156101f357634e487b7160e01b600052602160045260246000fd5b021790555050565b600c80546001600160a01b0319166001600160a01b03831617905560036101c3565b600c54600090600160a01b900460ff16600381111561024c57634e487b7160e01b600052602160045260246000fd5b905090565b600154600254600354600454600554600654600754600854600a54600954600b54600c54600d546001600160a01b039c8d169c9485169493841693928316929182169116909192939495969798999a9b9c565b6000546001600160a01b031681565b60025490565b600b80546001600160a01b0319166001600160a01b0392909216919091179055565b60045490565b80356001600160a01b03811681146102f857600080fd5b919050565b60006020828403121561030e578081fd5b610317826102e1565b9392505050565b60008060408385031215610330578081fd5b82359150610340602084016102e1565b90509250929050565b6001600160a01b0391909116815260200190565b6001600160a01b039d8e168152602081019c909c5260408c019a909a5260608b019890985260808a019690965260a089019490945260c088019290925260e087015286166101008601528516610120850152841661014084015283166101608301529091166101808201526101a00190565b9081526020019056fea26469706673582212203bb40cf59e121144c0587aca6a85ef00e8544d83e2845035410a1fbe3cef684064736f6c634300080000336080604052600060025534801561001557600080fd5b506040516106e23803806106e283398101604081905261003491610059565b600080546001600160a01b0319166001600160a01b0392909216919091179055610087565b60006020828403121561006a578081fd5b81516001600160a01b0381168114610080578182fd5b9392505050565b61064c806100966000396000f3fe608060405234801561001057600080fd5b50600436106100575760003560e01c806318bee97e1461005c57806327506f531461007a57806378ce13651461008f5780639ace38c2146100a45780639e9ab89b146100c8575b600080fd5b6100646100dd565b60405161007191906104b9565b60405180910390f35b6100826100ec565b60405161007191906104cd565b610097610201565b60405161007191906105ad565b6100b76100b23660046104a1565b610207565b604051610071959493929190610547565b6100db6100d636600461045e565b610242565b005b6000546001600160a01b031681565b60025460609060008167ffffffffffffffff81111561011b57634e487b7160e01b600052604160045260246000fd5b60405190808252806020026020018201604052801561015457816020015b610141610414565b8152602001906001900390816101395790505b50905060005b828110156101fa57600081815260016020818152604092839020835160a08101855281548152928101546001600160a01b039081169284019290925260028101549091169282019290925260038201546060820152600490910154608082015282518390839081106101dc57634e487b7160e01b600052603260045260246000fd5b602002602001018190525080806101f2906105e5565b91505061015a565b5091505090565b60025481565b6001602081905260009182526040909120805491810154600282015460038301546004909301546001600160a01b0392831693919092169185565b60025442906102dc576040805160a0810182528681526001600160a01b03808716602080840191825287831684860190815260608501888152608086018881526002805460009081526001958690529890982096518755935192860180549386166001600160a01b0319948516179055905195850180549690941695909116949094179091559151600382015590516004909101556103b5565b816001600060016002546102f091906105ce565b815260200190815260200160002060000154146103285760405162461bcd60e51b815260040161031f90610576565b60405180910390fd5b6040805160a0810182528681526001600160a01b03808716602080840191825287831684860190815260608501888152608086018881526002805460009081526001958690529890982096518755935192860180549386166001600160a01b0319948516179055905195850180549690941695909116949094179091559151600382015590516004909101555b6001600260008282546103c891906105b6565b90915550506040517f08ce16702f64d2cdc93c2d36818cee685abd25dcf25f93b5008c07c328652bb6906104059087908790879087908790610547565b60405180910390a15050505050565b6040805160a08101825260008082526020820181905291810182905260608101829052608081019190915290565b80356001600160a01b038116811461045957600080fd5b919050565b60008060008060808587031215610473578384fd5b8435935061048360208601610442565b925061049160408601610442565b9396929550929360600135925050565b6000602082840312156104b2578081fd5b5035919050565b6001600160a01b0391909116815260200190565b602080825282518282018190526000919060409081850190868401855b8281101561053a57815180518552868101516001600160a01b0390811688870152868201511686860152606080820151908601526080908101519085015260a090930192908501906001016104ea565b5091979650505050505050565b9485526001600160a01b0393841660208601529190921660408401526060830191909152608082015260a00190565b6020808252601b908201527f5472616e73616374696f6e206572726f72206f63637572726564210000000000604082015260600190565b90815260200190565b600082198211156105c9576105c9610600565b500190565b6000828210156105e0576105e0610600565b500390565b60006000198214156105f9576105f9610600565b5060010190565b634e487b7160e01b600052601160045260246000fdfea26469706673582212203ddf8757c23edc99594853e152354f9cd47617ea06f767c1416b141ba4da329164736f6c63430008000033a2646970667358221220be6d32fc6f715aa6101efc1b6b0c495c5a0ccb97c1912062069909165a44b59a64736f6c63430008000033",
  "immutableReferences": {},
  "source": "// SPDX-License-Identifier: MIT\r\n\r\n// pragma solidity >=0.6.6 <=0.8.23;\r\npragma solidity ^0.8.0;\r\n\r\npragma experimental ABIEncoderV2;\r\n\r\nimport \"./RawAlkes.sol\";\r\n\r\n\r\ncontract SupplyChain {\r\n    address Owner;\r\n\r\n    constructor() public {\r\n        Owner = msg.sender;\r\n    }\r\n\r\n    modifier onlyOwner() {\r\n        require(Owner == msg.sender);\r\n        _;\r\n    }\r\n\r\n    modifier checkUser(address addr) {\r\n        require(addr == msg.sender);\r\n        _;\r\n    }\r\n\r\n    enum roles {\r\n        noRole,\r\n        manufaktur,\r\n        distributor,\r\n        kemenkes,\r\n        rumah_sakit,\r\n        customer\r\n        \r\n    }\r\n\r\n    //////////////// Events ////////////////////\r\n\r\n    event UserRegister(address indexed _address, bytes32 name);\r\n    event requestEvent(\r\n        address distributor,\r\n        address indexed manufaktur,\r\n        address alkesAddr,\r\n        uint indexed timestamp\r\n    );\r\n\r\n    event izinEvent(\r\n        address distributor,\r\n        address indexed kemenkes,\r\n        address alkesAddr,\r\n        uint indexed timestamp\r\n    );\r\n   \r\n    event rsEvent(\r\n        address rs,\r\n        address indexed distributor,\r\n        address alkesAddr,\r\n        uint indexed timestamp\r\n    );\r\n   \r\n\r\n    //////////////// Event functions (All entities) ////////////////////\r\n\r\n    function requestProduct(\r\n        address distributor,\r\n        address manufaktur,\r\n        address packageAddr\r\n    ) public {\r\n        emit requestEvent(distributor, manufaktur, packageAddr, block.timestamp);\r\n    }\r\n\r\n    function izinRequest(\r\n        address distributor,\r\n        address kemenkes,\r\n        address alkesAddr\r\n    ) public {\r\n        emit izinEvent(distributor, kemenkes, alkesAddr, block.timestamp);\r\n    }\r\n\r\n    function reqAlkesRs(\r\n        address rs,\r\n        address distributor,\r\n        address alkesAddr\r\n    ) public {\r\n        emit rsEvent(rs, distributor, alkesAddr, block.timestamp);\r\n    }\r\n\r\n    \r\n\r\n    /////////////// Users (Only Owner Executable) //////////////////////\r\n\r\n    struct userData {\r\n        bytes32 name;\r\n        bytes32 email;\r\n        bytes32 noTelp;\r\n        roles role;\r\n        address userAddr;\r\n    }\r\n\r\n    mapping(address => userData) public userInfo;\r\n\r\n    function registerUser(\r\n        bytes32 name,\r\n        bytes32 email,\r\n        bytes32 noTelp,\r\n        uint role,\r\n        address _userAddr\r\n    ) public onlyOwner {\r\n        userInfo[_userAddr].name = name;\r\n        userInfo[_userAddr].email = email;\r\n        userInfo[_userAddr].noTelp = noTelp;\r\n        // userInfo[_userAddr].userLoc = loc;\r\n        userInfo[_userAddr].role = roles(role);\r\n        userInfo[_userAddr].userAddr = _userAddr;\r\n\r\n        emit UserRegister(_userAddr, name);\r\n    }\r\n\r\n    function changeUserRole(\r\n        uint _role,\r\n        address _addr\r\n    ) public onlyOwner returns (string memory) {\r\n        userInfo[_addr].role = roles(_role);\r\n        return \"Role Updated!\";\r\n    }\r\n\r\n    function getUserInfo(\r\n        address _address\r\n    ) public view returns (userData memory) {\r\n        return userInfo[_address];\r\n    }\r\n    \r\n\r\n    /////////////// Manufaktur //////////////////////\r\n\r\n    mapping(address => address[]) public supplierRawMaterials;\r\n\r\n    function createAlkesManufaktur(\r\n       \r\n        bytes32 _namaAlkes,\r\n        bytes32 _deskripsiAlkes,\r\n        bytes32 _klasifikasiAlkes,\r\n        bytes32 _tipeAlkes,\r\n        bytes32 _kelasAlkes,\r\n        bytes32 _kelasResiko,\r\n        bytes32 _noIzinEdar,\r\n        address _distributorAddr,\r\n        address _kemenkesAddr,\r\n        address _rumahSakitAddr\r\n     \r\n    ) public returns (address) {\r\n        RawAlkes rawMaterial = new RawAlkes(\r\n            msg.sender,\r\n            address(bytes20(sha256(abi.encodePacked(msg.sender, block.timestamp)))),\r\n            _namaAlkes,\r\n            _deskripsiAlkes,\r\n            _klasifikasiAlkes,\r\n            _tipeAlkes,\r\n            _kelasAlkes,\r\n            _kelasResiko,\r\n            _noIzinEdar,\r\n            _distributorAddr,\r\n            _kemenkesAddr,\r\n            _rumahSakitAddr\r\n        );\r\n\r\n        supplierRawMaterials[msg.sender].push(address(rawMaterial));\r\n        return address(rawMaterial);\r\n    }\r\n\r\n    function getNoOfPackagesOfSupplier() public view returns (uint) {\r\n        return supplierRawMaterials[msg.sender].length;\r\n    }\r\n\r\n    function getAllPackages() public view returns (address[] memory) {\r\n        uint len = supplierRawMaterials[msg.sender].length;\r\n        address[] memory ret = new address[](len);\r\n        for (uint i = 0; i < len; i++) {\r\n            ret[i] = supplierRawMaterials[msg.sender][i];\r\n        }\r\n        return ret;\r\n    }\r\n\r\n      function getAllPackagesData()\r\n        public\r\n        view\r\n        returns (address[] memory, bytes32[] memory, bytes32[] memory)\r\n    {\r\n        uint len = supplierRawMaterials[msg.sender].length;\r\n        address[] memory retAddresses = new address[](len);\r\n        bytes32[] memory retDescriptions = new bytes32[](len);\r\n        bytes32[] memory retQuantities = new bytes32[](len);\r\n\r\n        for (uint i = 0; i < len; i++) {\r\n            address rawMaterialAddr = supplierRawMaterials[msg.sender][i];\r\n            RawAlkes rawMaterialNew = RawAlkes(rawMaterialAddr);\r\n\r\n            // console.log(rawMaterialNew);\r\n            retAddresses[i] = rawMaterialAddr;\r\n            retDescriptions[i] = rawMaterialNew.getNamaAlkes();\r\n            retQuantities[i] = rawMaterialNew.getKlasifikasiALkes();\r\n        }\r\n\r\n        return (retAddresses, retDescriptions, retQuantities);\r\n    }\r\n}\r\n",
  "sourcePath": "D:\\ACTIVITY\\SEM 8\\0. SKRIPSI\\REF\\WEB\\alkes-blockchain\\contracts\\SupplyChain.sol",
  "compiler": {
    "name": "solc",
    "version": "0.8.0+commit.c7dfd78e.Emscripten.clang"
  },
  "schemaVersion": "3.4.16",
  "updatedAt": "2023-12-05T17:38:03.642Z",
  "networkType": "ethereum",
  "devdoc": {
    "kind": "dev",
    "methods": {},
    "version": 1
  },
  "userdoc": {
    "kind": "user",
    "methods": {},
    "version": 1
  }
}