{
  "contractName": "SupplyChain",
  "abi": [
    {
      "inputs": [],
      "stateMutability": "nonpayable",
      "type": "constructor"
    },
    {
      "anonymous": false,
      "inputs": [
        {
          "indexed": true,
          "internalType": "address",
          "name": "_address",
          "type": "address"
        },
        {
          "indexed": false,
          "internalType": "bytes32",
          "name": "name",
          "type": "bytes32"
        }
      ],
      "name": "UserRegister",
      "type": "event"
    },
    {
      "anonymous": false,
      "inputs": [
        {
          "indexed": false,
          "internalType": "address",
          "name": "buyer",
          "type": "address"
        },
        {
          "indexed": true,
          "internalType": "address",
          "name": "seller",
          "type": "address"
        },
        {
          "indexed": false,
          "internalType": "address",
          "name": "packageAddr",
          "type": "address"
        },
        {
          "indexed": false,
          "internalType": "bytes",
          "name": "signature",
          "type": "bytes"
        },
        {
          "indexed": true,
          "internalType": "uint256",
          "name": "timestamp",
          "type": "uint256"
        }
      ],
      "name": "buyEvent",
      "type": "event"
    },
    {
      "anonymous": false,
      "inputs": [
        {
          "indexed": true,
          "internalType": "address",
          "name": "buyer",
          "type": "address"
        },
        {
          "indexed": false,
          "internalType": "address",
          "name": "seller",
          "type": "address"
        },
        {
          "indexed": false,
          "internalType": "address",
          "name": "packageAddr",
          "type": "address"
        },
        {
          "indexed": false,
          "internalType": "bytes",
          "name": "signature",
          "type": "bytes"
        },
        {
          "indexed": true,
          "internalType": "uint256",
          "name": "timestamp",
          "type": "uint256"
        }
      ],
      "name": "receivedEvent",
      "type": "event"
    },
    {
      "anonymous": false,
      "inputs": [
        {
          "indexed": true,
          "internalType": "address",
          "name": "buyer",
          "type": "address"
        },
        {
          "indexed": false,
          "internalType": "address",
          "name": "seller",
          "type": "address"
        },
        {
          "indexed": false,
          "internalType": "address",
          "name": "packageAddr",
          "type": "address"
        },
        {
          "indexed": false,
          "internalType": "bytes",
          "name": "signature",
          "type": "bytes"
        },
        {
          "indexed": true,
          "internalType": "uint256",
          "name": "timestamp",
          "type": "uint256"
        }
      ],
      "name": "respondEvent",
      "type": "event"
    },
    {
      "anonymous": false,
      "inputs": [
        {
          "indexed": false,
          "internalType": "address",
          "name": "seller",
          "type": "address"
        },
        {
          "indexed": false,
          "internalType": "address",
          "name": "buyer",
          "type": "address"
        },
        {
          "indexed": true,
          "internalType": "address",
          "name": "packageAddr",
          "type": "address"
        },
        {
          "indexed": false,
          "internalType": "bytes",
          "name": "signature",
          "type": "bytes"
        },
        {
          "indexed": true,
          "internalType": "uint256",
          "name": "timestamp",
          "type": "uint256"
        }
      ],
      "name": "sendEvent",
      "type": "event"
    },
    {
      "inputs": [
        {
          "internalType": "address",
          "name": "",
          "type": "address"
        },
        {
          "internalType": "uint256",
          "name": "",
          "type": "uint256"
        }
      ],
      "name": "supplierRawMaterials",
      "outputs": [
        {
          "internalType": "address",
          "name": "",
          "type": "address"
        }
      ],
      "stateMutability": "view",
      "type": "function",
      "constant": true
    },
    {
      "inputs": [
        {
          "internalType": "address",
          "name": "",
          "type": "address"
        }
      ],
      "name": "userInfo",
      "outputs": [
        {
          "internalType": "bytes32",
          "name": "name",
          "type": "bytes32"
        },
        {
          "internalType": "bytes32",
          "name": "email",
          "type": "bytes32"
        },
        {
          "internalType": "bytes32",
          "name": "noTelp",
          "type": "bytes32"
        },
        {
          "internalType": "enum SupplyChain.roles",
          "name": "role",
          "type": "uint8"
        },
        {
          "internalType": "address",
          "name": "userAddr",
          "type": "address"
        }
      ],
      "stateMutability": "view",
      "type": "function",
      "constant": true
    },
    {
      "inputs": [
        {
          "internalType": "address",
          "name": "buyer",
          "type": "address"
        },
        {
          "internalType": "address",
          "name": "seller",
          "type": "address"
        },
        {
          "internalType": "address",
          "name": "packageAddr",
          "type": "address"
        },
        {
          "internalType": "bytes",
          "name": "signature",
          "type": "bytes"
        }
      ],
      "name": "requestProduct",
      "outputs": [],
      "stateMutability": "nonpayable",
      "type": "function"
    },
    {
      "inputs": [
        {
          "internalType": "address",
          "name": "buyer",
          "type": "address"
        },
        {
          "internalType": "address",
          "name": "seller",
          "type": "address"
        },
        {
          "internalType": "address",
          "name": "packageAddr",
          "type": "address"
        },
        {
          "internalType": "bytes",
          "name": "signature",
          "type": "bytes"
        }
      ],
      "name": "respondToEntity",
      "outputs": [],
      "stateMutability": "nonpayable",
      "type": "function"
    },
    {
      "inputs": [
        {
          "internalType": "address",
          "name": "buyer",
          "type": "address"
        },
        {
          "internalType": "address",
          "name": "seller",
          "type": "address"
        },
        {
          "internalType": "address",
          "name": "packageAddr",
          "type": "address"
        },
        {
          "internalType": "bytes",
          "name": "signature",
          "type": "bytes"
        }
      ],
      "name": "sendPackageToEntity",
      "outputs": [],
      "stateMutability": "nonpayable",
      "type": "function"
    },
    {
      "inputs": [
        {
          "internalType": "bytes32",
          "name": "name",
          "type": "bytes32"
        },
        {
          "internalType": "bytes32",
          "name": "email",
          "type": "bytes32"
        },
        {
          "internalType": "bytes32",
          "name": "noTelp",
          "type": "bytes32"
        },
        {
          "internalType": "uint256",
          "name": "role",
          "type": "uint256"
        },
        {
          "internalType": "address",
          "name": "_userAddr",
          "type": "address"
        }
      ],
      "name": "registerUser",
      "outputs": [],
      "stateMutability": "nonpayable",
      "type": "function"
    },
    {
      "inputs": [
        {
          "internalType": "uint256",
          "name": "_role",
          "type": "uint256"
        },
        {
          "internalType": "address",
          "name": "_addr",
          "type": "address"
        }
      ],
      "name": "changeUserRole",
      "outputs": [
        {
          "internalType": "string",
          "name": "",
          "type": "string"
        }
      ],
      "stateMutability": "nonpayable",
      "type": "function"
    },
    {
      "inputs": [
        {
          "internalType": "address",
          "name": "_address",
          "type": "address"
        }
      ],
      "name": "getUserInfo",
      "outputs": [
        {
          "components": [
            {
              "internalType": "bytes32",
              "name": "name",
              "type": "bytes32"
            },
            {
              "internalType": "bytes32",
              "name": "email",
              "type": "bytes32"
            },
            {
              "internalType": "bytes32",
              "name": "noTelp",
              "type": "bytes32"
            },
            {
              "internalType": "enum SupplyChain.roles",
              "name": "role",
              "type": "uint8"
            },
            {
              "internalType": "address",
              "name": "userAddr",
              "type": "address"
            }
          ],
          "internalType": "struct SupplyChain.userData",
          "name": "",
          "type": "tuple"
        }
      ],
      "stateMutability": "view",
      "type": "function",
      "constant": true
    },
    {
      "inputs": [
        {
          "internalType": "bytes32",
          "name": "_namaAlkes",
          "type": "bytes32"
        },
        {
          "internalType": "bytes32",
          "name": "_deskripsiAlkes",
          "type": "bytes32"
        },
        {
          "internalType": "bytes32",
          "name": "_klasifikasiAlkes",
          "type": "bytes32"
        },
        {
          "internalType": "bytes32",
          "name": "_tipeAlkes",
          "type": "bytes32"
        },
        {
          "internalType": "bytes32",
          "name": "_kelasAlkes",
          "type": "bytes32"
        },
        {
          "internalType": "bytes32",
          "name": "_kelasResiko",
          "type": "bytes32"
        },
        {
          "internalType": "address",
          "name": "_manufacturerAddr",
          "type": "address"
        }
      ],
      "name": "createAlkesManufaktur",
      "outputs": [
        {
          "internalType": "address",
          "name": "",
          "type": "address"
        }
      ],
      "stateMutability": "nonpayable",
      "type": "function"
    },
    {
      "inputs": [],
      "name": "getNoOfPackagesOfSupplier",
      "outputs": [
        {
          "internalType": "uint256",
          "name": "",
          "type": "uint256"
        }
      ],
      "stateMutability": "view",
      "type": "function",
      "constant": true
    },
    {
      "inputs": [],
      "name": "getAllPackages",
      "outputs": [
        {
          "internalType": "address[]",
          "name": "",
          "type": "address[]"
        }
      ],
      "stateMutability": "view",
      "type": "function",
      "constant": true
    },
    {
      "inputs": [],
      "name": "getAllPackagesData",
      "outputs": [
        {
          "internalType": "address[]",
          "name": "",
          "type": "address[]"
        },
        {
          "internalType": "bytes32[]",
          "name": "",
          "type": "bytes32[]"
        },
        {
          "internalType": "bytes32[]",
          "name": "",
          "type": "bytes32[]"
        }
      ],
      "stateMutability": "view",
      "type": "function",
      "constant": true
    }
  ],
  "bytecode": "0x608060405234801561001057600080fd5b50336000806101000a81548173ffffffffffffffffffffffffffffffffffffffff021916908373ffffffffffffffffffffffffffffffffffffffff1602179055506144dd806100606000396000f3fe60806040523480156200001157600080fd5b5060043610620000c45760003560e01c806391009786116200007b5780639100978614620001d5578063b8b16ca3146200020b578063c22470ea146200022b578063d06f7b55146200024d578063dcad355a146200026d578063e0cf92fe14620002a357620000c4565b806306db832414620000c95780630a421f0f14620000ff5780631959a00214620001215780633dfc4c05146200015b5780636386c1c7146200017f5780636ba3cef714620001b5575b600080fd5b620000e76004803603810190620000e1919062001479565b620002c3565b604051620000f691906200197f565b60405180910390f35b6200010962000312565b60405162000118919062001a7f565b60405180910390f35b6200013f6004803603810190620001399190620013c8565b62000512565b6040516200015295949392919062001b12565b60405180910390f35b6200016562000575565b604051620001769392919062001aa3565b60405180910390f35b6200019d6004803603810190620001979190620013c8565b62000a08565b604051620001ac919062001b93565b60405180910390f35b620001d36004803603810190620001cd919062001593565b62000b60565b005b620001f36004803603810190620001ed919062001615565b62000e30565b60405162000202919062001b6f565b60405180910390f35b620002296004803603810190620002239190620013f4565b62000f93565b005b6200023562000fee565b60405162000244919062001bb0565b60405180910390f35b6200026b6004803603810190620002659190620013f4565b62001038565b005b6200028b6004803603810190620002859190620014e6565b62001093565b6040516200029a91906200197f565b60405180910390f35b620002c16004803603810190620002bb9190620013f4565b6200120a565b005b60026020528160005260406000208181548110620002e057600080fd5b906000526020600020016000915091509054906101000a900473ffffffffffffffffffffffffffffffffffffffff1681565b60606000600260003373ffffffffffffffffffffffffffffffffffffffff1673ffffffffffffffffffffffffffffffffffffffff16815260200190815260200160002080549050905060008167ffffffffffffffff8111156200039e577f4e487b7100000000000000000000000000000000000000000000000000000000600052604160045260246000fd5b604051908082528060200260200182016040528015620003cd5781602001602082028036833780820191505090505b50905060005b828110156200050957600260003373ffffffffffffffffffffffffffffffffffffffff1673ffffffffffffffffffffffffffffffffffffffff168152602001908152602001600020818154811062000454577f4e487b7100000000000000000000000000000000000000000000000000000000600052603260045260246000fd5b9060005260206000200160009054906101000a900473ffffffffffffffffffffffffffffffffffffffff16828281518110620004b9577f4e487b7100000000000000000000000000000000000000000000000000000000600052603260045260246000fd5b602002602001019073ffffffffffffffffffffffffffffffffffffffff16908173ffffffffffffffffffffffffffffffffffffffff16815250508080620005009062001d9f565b915050620003d3565b50809250505090565b60016020528060005260406000206000915090508060000154908060010154908060020154908060030160009054906101000a900460ff16908060030160019054906101000a900473ffffffffffffffffffffffffffffffffffffffff16905085565b60608060606000600260003373ffffffffffffffffffffffffffffffffffffffff1673ffffffffffffffffffffffffffffffffffffffff16815260200190815260200160002080549050905060008167ffffffffffffffff81111562000604577f4e487b7100000000000000000000000000000000000000000000000000000000600052604160045260246000fd5b604051908082528060200260200182016040528015620006335781602001602082028036833780820191505090505b50905060008267ffffffffffffffff81111562000679577f4e487b7100000000000000000000000000000000000000000000000000000000600052604160045260246000fd5b604051908082528060200260200182016040528015620006a85781602001602082028036833780820191505090505b50905060008367ffffffffffffffff811115620006ee577f4e487b7100000000000000000000000000000000000000000000000000000000600052604160045260246000fd5b6040519080825280602002602001820160405280156200071d5781602001602082028036833780820191505090505b50905060005b84811015620009f5576000600260003373ffffffffffffffffffffffffffffffffffffffff1673ffffffffffffffffffffffffffffffffffffffff1681526020019081526020016000208281548110620007a6577f4e487b7100000000000000000000000000000000000000000000000000000000600052603260045260246000fd5b9060005260206000200160009054906101000a900473ffffffffffffffffffffffffffffffffffffffff16905060008190508186848151811062000813577f4e487b7100000000000000000000000000000000000000000000000000000000600052603260045260246000fd5b602002602001019073ffffffffffffffffffffffffffffffffffffffff16908173ffffffffffffffffffffffffffffffffffffffff16815250508073ffffffffffffffffffffffffffffffffffffffff1663e1009dfa6040518163ffffffff1660e01b815260040160206040518083038186803b1580156200089457600080fd5b505afa158015620008a9573d6000803e3d6000fd5b505050506040513d601f19601f82011682018060405250810190620008cf9190620014ba565b85848151811062000909577f4e487b7100000000000000000000000000000000000000000000000000000000600052603260045260246000fd5b6020026020010181815250508073ffffffffffffffffffffffffffffffffffffffff1663ee2005826040518163ffffffff1660e01b815260040160206040518083038186803b1580156200095c57600080fd5b505afa15801562000971573d6000803e3d6000fd5b505050506040513d601f19601f82011682018060405250810190620009979190620014ba565b848481518110620009d1577f4e487b7100000000000000000000000000000000000000000000000000000000600052603260045260246000fd5b60200260200101818152505050508080620009ec9062001d9f565b91505062000723565b5082828296509650965050505050909192565b62000a1262001265565b600160008373ffffffffffffffffffffffffffffffffffffffff1673ffffffffffffffffffffffffffffffffffffffff1681526020019081526020016000206040518060a00160405290816000820154815260200160018201548152602001600282015481526020016003820160009054906101000a900460ff16600981111562000ac6577f4e487b7100000000000000000000000000000000000000000000000000000000600052602160045260246000fd5b600981111562000aff577f4e487b7100000000000000000000000000000000000000000000000000000000600052602160045260246000fd5b81526020016003820160019054906101000a900473ffffffffffffffffffffffffffffffffffffffff1673ffffffffffffffffffffffffffffffffffffffff1673ffffffffffffffffffffffffffffffffffffffff16815250509050919050565b3373ffffffffffffffffffffffffffffffffffffffff1660008054906101000a900473ffffffffffffffffffffffffffffffffffffffff1673ffffffffffffffffffffffffffffffffffffffff161462000bb957600080fd5b84600160008373ffffffffffffffffffffffffffffffffffffffff1673ffffffffffffffffffffffffffffffffffffffff1681526020019081526020016000206000018190555083600160008373ffffffffffffffffffffffffffffffffffffffff1673ffffffffffffffffffffffffffffffffffffffff1681526020019081526020016000206001018190555082600160008373ffffffffffffffffffffffffffffffffffffffff1673ffffffffffffffffffffffffffffffffffffffff1681526020019081526020016000206002018190555081600981111562000cc8577f4e487b7100000000000000000000000000000000000000000000000000000000600052602160045260246000fd5b600160008373ffffffffffffffffffffffffffffffffffffffff1673ffffffffffffffffffffffffffffffffffffffff16815260200190815260200160002060030160006101000a81548160ff0219169083600981111562000d53577f4e487b7100000000000000000000000000000000000000000000000000000000600052602160045260246000fd5b021790555080600160008373ffffffffffffffffffffffffffffffffffffffff1673ffffffffffffffffffffffffffffffffffffffff16815260200190815260200160002060030160016101000a81548173ffffffffffffffffffffffffffffffffffffffff021916908373ffffffffffffffffffffffffffffffffffffffff1602179055508073ffffffffffffffffffffffffffffffffffffffff167f33a7170f028b1e4f5ba321064a00ed820856a920c7f9c6636fbcf385427b1b0f8660405162000e21919062001af5565b60405180910390a25050505050565b60603373ffffffffffffffffffffffffffffffffffffffff1660008054906101000a900473ffffffffffffffffffffffffffffffffffffffff1673ffffffffffffffffffffffffffffffffffffffff161462000e8b57600080fd5b82600981111562000ec5577f4e487b7100000000000000000000000000000000000000000000000000000000600052602160045260246000fd5b600160008473ffffffffffffffffffffffffffffffffffffffff1673ffffffffffffffffffffffffffffffffffffffff16815260200190815260200160002060030160006101000a81548160ff0219169083600981111562000f50577f4e487b7100000000000000000000000000000000000000000000000000000000600052602160045260246000fd5b02179055506040518060400160405280600d81526020017f526f6c6520557064617465642100000000000000000000000000000000000000815250905092915050565b428373ffffffffffffffffffffffffffffffffffffffff167f22561ca0666e99052dd8231a6c5c337204ed5658c357aa6afcd53c207acfac6786858560405162000fe09392919062001a3b565b60405180910390a350505050565b6000600260003373ffffffffffffffffffffffffffffffffffffffff1673ffffffffffffffffffffffffffffffffffffffff16815260200190815260200160002080549050905090565b428273ffffffffffffffffffffffffffffffffffffffff167f31f87de04fd141167b8131be7a8ccb2bac63361a15671c96d90c39ddc9ef909d858785604051620010859392919062001a3b565b60405180910390a350505050565b6000803360023342604051602001620010ae92919062001936565b604051602081830303815290604052604051620010cc919062001966565b602060405180830381855afa158015620010ea573d6000803e3d6000fd5b5050506040513d601f19601f820116820180604052508101906200110f9190620014ba565b60601c8a8a8a8a8a8a8a6040516200112790620012ec565b6200113b999897969594939291906200199c565b604051809103906000f08015801562001158573d6000803e3d6000fd5b509050600260003373ffffffffffffffffffffffffffffffffffffffff1673ffffffffffffffffffffffffffffffffffffffff168152602001908152602001600020819080600181540180825580915050600190039060005260206000200160009091909190916101000a81548173ffffffffffffffffffffffffffffffffffffffff021916908373ffffffffffffffffffffffffffffffffffffffff16021790555080915050979650505050505050565b428473ffffffffffffffffffffffffffffffffffffffff167f9151271dfe612a18bf915ee1609e6f94f62fd775c704a0ae2ef091519f0c9b39858585604051620012579392919062001a3b565b60405180910390a350505050565b6040518060a0016040528060008019168152602001600080191681526020016000801916815260200160006009811115620012c9577f4e487b7100000000000000000000000000000000000000000000000000000000600052602160045260246000fd5b8152602001600073ffffffffffffffffffffffffffffffffffffffff1681525090565b6125788062001f3083390190565b6000620013116200130b8462001c01565b62001bcd565b9050828152602081018484840111156200132a57600080fd5b6200133784828562001d5a565b509392505050565b600081359050620013508162001ee1565b92915050565b600081359050620013678162001efb565b92915050565b6000815190506200137e8162001efb565b92915050565b600082601f8301126200139657600080fd5b8135620013a8848260208601620012fa565b91505092915050565b600081359050620013c28162001f15565b92915050565b600060208284031215620013db57600080fd5b6000620013eb848285016200133f565b91505092915050565b600080600080608085870312156200140b57600080fd5b60006200141b878288016200133f565b94505060206200142e878288016200133f565b935050604062001441878288016200133f565b925050606085013567ffffffffffffffff8111156200145f57600080fd5b6200146d8782880162001384565b91505092959194509250565b600080604083850312156200148d57600080fd5b60006200149d858286016200133f565b9250506020620014b085828601620013b1565b9150509250929050565b600060208284031215620014cd57600080fd5b6000620014dd848285016200136d565b91505092915050565b600080600080600080600060e0888a0312156200150257600080fd5b6000620015128a828b0162001356565b9750506020620015258a828b0162001356565b9650506040620015388a828b0162001356565b95505060606200154b8a828b0162001356565b94505060806200155e8a828b0162001356565b93505060a0620015718a828b0162001356565b92505060c0620015848a828b016200133f565b91505092959891949750929550565b600080600080600060a08688031215620015ac57600080fd5b6000620015bc8882890162001356565b9550506020620015cf8882890162001356565b9450506040620015e28882890162001356565b9350506060620015f588828901620013b1565b925050608062001608888289016200133f565b9150509295509295909350565b600080604083850312156200162957600080fd5b60006200163985828601620013b1565b92505060206200164c858286016200133f565b9150509250929050565b60006200166483836200168a565b60208301905092915050565b60006200167e83836200179b565b60208301905092915050565b620016958162001ce9565b82525050565b620016a68162001ce9565b82525050565b620016c1620016bb8262001ce9565b62001ded565b82525050565b6000620016d48262001c54565b620016e0818562001c9a565b9350620016ed8362001c34565b8060005b838110156200172457815162001708888262001656565b9750620017158362001c80565b925050600181019050620016f1565b5085935050505092915050565b60006200173e8262001c5f565b6200174a818562001cab565b9350620017578362001c44565b8060005b838110156200178e57815162001772888262001670565b97506200177f8362001c8d565b9250506001810190506200175b565b5085935050505092915050565b620017a68162001cfd565b82525050565b620017b78162001cfd565b82525050565b6000620017ca8262001c6a565b620017d6818562001cbc565b9350620017e881856020860162001d69565b620017f38162001eac565b840191505092915050565b60006200180b8262001c6a565b62001817818562001ccd565b93506200182981856020860162001d69565b80840191505092915050565b620018408162001d46565b82525050565b620018518162001d46565b82525050565b6000620018648262001c75565b62001870818562001cd8565b93506200188281856020860162001d69565b6200188d8162001eac565b840191505092915050565b60a082016000820151620018b060008501826200179b565b506020820151620018c560208501826200179b565b506040820151620018da60408501826200179b565b506060820151620018ef606085018262001835565b5060808201516200190460808501826200168a565b50505050565b620019158162001d3c565b82525050565b620019306200192a8262001d3c565b62001e15565b82525050565b6000620019448285620016ac565b6014820191506200195682846200191b565b6020820191508190509392505050565b6000620019748284620017fe565b915081905092915050565b60006020820190506200199660008301846200169b565b92915050565b600061012082019050620019b4600083018c6200169b565b620019c3602083018b6200169b565b620019d2604083018a620017ac565b620019e16060830189620017ac565b620019f06080830188620017ac565b620019ff60a0830187620017ac565b62001a0e60c0830186620017ac565b62001a1d60e0830185620017ac565b62001a2d6101008301846200169b565b9a9950505050505050505050565b600060608201905062001a5260008301866200169b565b62001a6160208301856200169b565b818103604083015262001a758184620017bd565b9050949350505050565b6000602082019050818103600083015262001a9b8184620016c7565b905092915050565b6000606082019050818103600083015262001abf8186620016c7565b9050818103602083015262001ad5818562001731565b9050818103604083015262001aeb818462001731565b9050949350505050565b600060208201905062001b0c6000830184620017ac565b92915050565b600060a08201905062001b296000830188620017ac565b62001b386020830187620017ac565b62001b476040830186620017ac565b62001b56606083018562001846565b62001b6560808301846200169b565b9695505050505050565b6000602082019050818103600083015262001b8b818462001857565b905092915050565b600060a08201905062001baa600083018462001898565b92915050565b600060208201905062001bc760008301846200190a565b92915050565b6000604051905081810181811067ffffffffffffffff8211171562001bf75762001bf662001e7d565b5b8060405250919050565b600067ffffffffffffffff82111562001c1f5762001c1e62001e7d565b5b601f19601f8301169050602081019050919050565b6000819050602082019050919050565b6000819050602082019050919050565b600081519050919050565b600081519050919050565b600081519050919050565b600081519050919050565b6000602082019050919050565b6000602082019050919050565b600082825260208201905092915050565b600082825260208201905092915050565b600082825260208201905092915050565b600081905092915050565b600082825260208201905092915050565b600062001cf68262001d1c565b9050919050565b6000819050919050565b600081905062001d178262001eca565b919050565b600073ffffffffffffffffffffffffffffffffffffffff82169050919050565b6000819050919050565b600062001d538262001d07565b9050919050565b82818337600083830152505050565b60005b8381101562001d8957808201518184015260208101905062001d6c565b8381111562001d99576000848401525b50505050565b600062001dac8262001d3c565b91507fffffffffffffffffffffffffffffffffffffffffffffffffffffffffffffffff82141562001de25762001de162001e1f565b5b600182019050919050565b600062001dfa8262001e01565b9050919050565b600062001e0e8262001ebd565b9050919050565b6000819050919050565b7f4e487b7100000000000000000000000000000000000000000000000000000000600052601160045260246000fd5b7f4e487b7100000000000000000000000000000000000000000000000000000000600052602160045260246000fd5b7f4e487b7100000000000000000000000000000000000000000000000000000000600052604160045260246000fd5b6000601f19601f8301169050919050565b60008160601b9050919050565b600a811062001ede5762001edd62001e4e565b5b50565b62001eec8162001ce9565b811462001ef857600080fd5b50565b62001f068162001cfd565b811462001f1257600080fd5b50565b62001f208162001d3c565b811462001f2c57600080fd5b5056fe60806040523480156200001157600080fd5b5060405162002578380380620025788339818101604052810190620000379190620002b9565b886000806101000a81548173ffffffffffffffffffffffffffffffffffffffff021916908373ffffffffffffffffffffffffffffffffffffffff16021790555087600160006101000a81548173ffffffffffffffffffffffffffffffffffffffff021916908373ffffffffffffffffffffffffffffffffffffffff16021790555086600281905550856003819055508460048190555083600581905550826006819055508160078190555080600960006101000a81548173ffffffffffffffffffffffffffffffffffffffff021916908373ffffffffffffffffffffffffffffffffffffffff16021790555088600a60006101000a81548173ffffffffffffffffffffffffffffffffffffffff021916908373ffffffffffffffffffffffffffffffffffffffff160217905550600060028111156200019f577f4e487b7100000000000000000000000000000000000000000000000000000000600052602160045260246000fd5b600a60146101000a81548160ff02191690836002811115620001ea577f4e487b7100000000000000000000000000000000000000000000000000000000600052602160045260246000fd5b021790555060008160405162000200906200027d565b6200020c9190620003a3565b604051809103906000f08015801562000229573d6000803e3d6000fd5b50905080600c60006101000a81548173ffffffffffffffffffffffffffffffffffffffff021916908373ffffffffffffffffffffffffffffffffffffffff1602179055505050505050505050505062000432565b611434806200114483390190565b6000815190506200029c81620003fe565b92915050565b600081519050620002b38162000418565b92915050565b60008060008060008060008060006101208a8c031215620002d957600080fd5b6000620002e98c828d016200028b565b9950506020620002fc8c828d016200028b565b98505060406200030f8c828d01620002a2565b9750506060620003228c828d01620002a2565b9650506080620003358c828d01620002a2565b95505060a0620003488c828d01620002a2565b94505060c06200035b8c828d01620002a2565b93505060e06200036e8c828d01620002a2565b925050610100620003828c828d016200028b565b9150509295985092959850929598565b6200039d81620003c0565b82525050565b6000602082019050620003ba600083018462000392565b92915050565b6000620003cd82620003de565b9050919050565b6000819050919050565b600073ffffffffffffffffffffffffffffffffffffffff82169050919050565b6200040981620003c0565b81146200041557600080fd5b50565b6200042381620003d4565b81146200042f57600080fd5b50565b610d0280620004426000396000f3fe608060405234801561001057600080fd5b506004361061007d5760003560e01c80636b099dca1161005b5780636b099dca146100d65780637618bd6d146100f4578063e1009dfa1461011b578063ee200582146101395761007d565b806350e073bc1461008257806352b999681461009e578063638e9a3d146100ba575b600080fd5b61009c600480360381019061009791906108d6565b610157565b005b6100b860048036038101906100b391906108d6565b61019b565b005b6100d460048036038101906100cf91906108d6565b610496565b005b6100de610791565b6040516100eb9190610c1f565b60405180910390f35b6100fc6107e0565b6040516101129a99989796959493929190610a96565b60405180910390f35b6101236108ad565b6040516101309190610b32565b60405180910390f35b6101416108b7565b60405161014e9190610b32565b60405180910390f35b80600960006101000a81548173ffffffffffffffffffffffffffffffffffffffff021916908373ffffffffffffffffffffffffffffffffffffffff16021790555050565b600960009054906101000a900473ffffffffffffffffffffffffffffffffffffffff1673ffffffffffffffffffffffffffffffffffffffff168173ffffffffffffffffffffffffffffffffffffffff161461022b576040517f08c379a000000000000000000000000000000000000000000000000000000000815260040161022290610bbf565b60405180910390fd5b60016002811115610265577f4e487b7100000000000000000000000000000000000000000000000000000000600052602160045260246000fd5b600281111561029d577f4e487b7100000000000000000000000000000000000000000000000000000000600052602160045260246000fd5b600a60149054906101000a900460ff1660028111156102e5577f4e487b7100000000000000000000000000000000000000000000000000000000600052602160045260246000fd5b14610325576040517f08c379a000000000000000000000000000000000000000000000000000000000815260040161031c90610b9f565b60405180910390fd5b60028081111561035e577f4e487b7100000000000000000000000000000000000000000000000000000000600052602160045260246000fd5b600a60146101000a81548160ff021916908360028111156103a8577f4e487b7100000000000000000000000000000000000000000000000000000000600052602160045260246000fd5b0217905550600960009054906101000a900473ffffffffffffffffffffffffffffffffffffffff1673ffffffffffffffffffffffffffffffffffffffff16600860009054906101000a900473ffffffffffffffffffffffffffffffffffffffff1673ffffffffffffffffffffffffffffffffffffffff16600160009054906101000a900473ffffffffffffffffffffffffffffffffffffffff1673ffffffffffffffffffffffffffffffffffffffff167f7e89c4b1a4e2b51aae84eb1f90e8a34cb792ece5ac5cb63db4830c891220b28d6001600260405161048b929190610b76565b60405180910390a450565b600860009054906101000a900473ffffffffffffffffffffffffffffffffffffffff1673ffffffffffffffffffffffffffffffffffffffff168173ffffffffffffffffffffffffffffffffffffffff1614610526576040517f08c379a000000000000000000000000000000000000000000000000000000000815260040161051d90610bff565b60405180910390fd5b60006002811115610560577f4e487b7100000000000000000000000000000000000000000000000000000000600052602160045260246000fd5b6002811115610598577f4e487b7100000000000000000000000000000000000000000000000000000000600052602160045260246000fd5b600a60149054906101000a900460ff1660028111156105e0577f4e487b7100000000000000000000000000000000000000000000000000000000600052602160045260246000fd5b14610620576040517f08c379a000000000000000000000000000000000000000000000000000000000815260040161061790610bdf565b60405180910390fd5b6001600281111561065a577f4e487b7100000000000000000000000000000000000000000000000000000000600052602160045260246000fd5b600a60146101000a81548160ff021916908360028111156106a4577f4e487b7100000000000000000000000000000000000000000000000000000000600052602160045260246000fd5b0217905550600960009054906101000a900473ffffffffffffffffffffffffffffffffffffffff1673ffffffffffffffffffffffffffffffffffffffff16600860009054906101000a900473ffffffffffffffffffffffffffffffffffffffff1673ffffffffffffffffffffffffffffffffffffffff16600160009054906101000a900473ffffffffffffffffffffffffffffffffffffffff1673ffffffffffffffffffffffffffffffffffffffff167f7e89c4b1a4e2b51aae84eb1f90e8a34cb792ece5ac5cb63db4830c891220b28d600180604051610786929190610b4d565b60405180910390a450565b6000600a60149054906101000a900460ff1660028111156107db577f4e487b7100000000000000000000000000000000000000000000000000000000600052602160045260246000fd5b905090565b600080600080600080600080600080600160009054906101000a900473ffffffffffffffffffffffffffffffffffffffff16600254600354600454600554600654600754600a60009054906101000a900473ffffffffffffffffffffffffffffffffffffffff16600960009054906101000a900473ffffffffffffffffffffffffffffffffffffffff16600c60009054906101000a900473ffffffffffffffffffffffffffffffffffffffff16995099509950995099509950995099509950995090919293949596979899565b6000600254905090565b6000600454905090565b6000813590506108d081610cb5565b92915050565b6000602082840312156108e857600080fd5b60006108f6848285016108c1565b91505092915050565b61090881610c4b565b82525050565b61091781610c5d565b82525050565b61092681610c91565b82525050565b61093581610ca3565b82525050565b6000610948601983610c3a565b91507f50726f64756374206e6f74207069636b656420757020796574000000000000006000830152602082019050919050565b6000610988603983610c3a565b91507f4f6e6c79204d616e756661637475726572206f6620746865207061636b61676560008301527f2063616e20726563656965766520746865207061636b616765000000000000006020830152604082019050919050565b60006109ee601c83610c3a565b91507f5061636b616765206d75737420626520617420537570706c6965722e000000006000830152602082019050919050565b6000610a2e603083610c3a565b91507f4f6e6c79207472616e73706f72746572206f6620746865207061636b6167652060008301527f63616e207069636b207061636b616765000000000000000000000000000000006020830152604082019050919050565b610a9081610c87565b82525050565b600061014082019050610aac600083018d6108ff565b610ab9602083018c61090e565b610ac6604083018b61090e565b610ad3606083018a61090e565b610ae0608083018961090e565b610aed60a083018861090e565b610afa60c083018761090e565b610b0760e08301866108ff565b610b156101008301856108ff565b610b236101208301846108ff565b9b9a5050505050505050505050565b6000602082019050610b47600083018461090e565b92915050565b6000604082019050610b62600083018561091d565b610b6f602083018461091d565b9392505050565b6000604082019050610b8b600083018561091d565b610b98602083018461092c565b9392505050565b60006020820190508181036000830152610bb88161093b565b9050919050565b60006020820190508181036000830152610bd88161097b565b9050919050565b60006020820190508181036000830152610bf8816109e1565b9050919050565b60006020820190508181036000830152610c1881610a21565b9050919050565b6000602082019050610c346000830184610a87565b92915050565b600082825260208201905092915050565b6000610c5682610c67565b9050919050565b6000819050919050565b600073ffffffffffffffffffffffffffffffffffffffff82169050919050565b6000819050919050565b6000610c9c82610c87565b9050919050565b6000610cae82610c87565b9050919050565b610cbe81610c4b565b8114610cc957600080fd5b5056fea2646970667358221220f0613450cd0ec5db0c0f094b1e7a204b8ab68976ca458fc8dae10afe35ade0cd64736f6c63430008000033608060405260006002553480156200001657600080fd5b50604051620014343803806200143483398181016040528101906200003c91906200009a565b806000806101000a81548173ffffffffffffffffffffffffffffffffffffffff021916908373ffffffffffffffffffffffffffffffffffffffff1602179055505062000114565b6000815190506200009481620000fa565b92915050565b600060208284031215620000ad57600080fd5b6000620000bd8482850162000083565b91505092915050565b6000620000d382620000da565b9050919050565b600073ffffffffffffffffffffffffffffffffffffffff82169050919050565b6200010581620000c6565b81146200011157600080fd5b50565b61131080620001246000396000f3fe608060405234801561001057600080fd5b50600436106100575760003560e01c806318bee97e1461005c57806327506f531461007a5780633626a3681461009857806378ce1365146100b45780639ace38c2146100d2575b600080fd5b610064610108565b6040516100719190610e31565b60405180910390f35b61008261012c565b60405161008f9190610e4c565b60405180910390f35b6100b260048036038101906100ad9190610b17565b61042a565b005b6100bc6107c6565b6040516100c99190610f88565b60405180910390f35b6100ec60048036038101906100e79190610bd0565b6107cc565b6040516100ff9796959493929190610e6e565b60405180910390f35b60008054906101000a900473ffffffffffffffffffffffffffffffffffffffff1681565b60606000600254905060008167ffffffffffffffff811115610177577f4e487b7100000000000000000000000000000000000000000000000000000000600052604160045260246000fd5b6040519080825280602002602001820160405280156101b057816020015b61019d61095e565b8152602001906001900390816101955790505b50905060005b8281101561042157600160008281526020019081526020016000206040518060e0016040529081600082015481526020016001820160009054906101000a900473ffffffffffffffffffffffffffffffffffffffff1673ffffffffffffffffffffffffffffffffffffffff1673ffffffffffffffffffffffffffffffffffffffff1681526020016002820160009054906101000a900473ffffffffffffffffffffffffffffffffffffffff1673ffffffffffffffffffffffffffffffffffffffff1673ffffffffffffffffffffffffffffffffffffffff168152602001600382015481526020016004820180546102ac9061117c565b80601f01602080910402602001604051908101604052809291908181526020018280546102d89061117c565b80156103255780601f106102fa57610100808354040283529160200191610325565b820191906000526020600020905b81548152906001019060200180831161030857829003601f168201915b5050505050815260200160058201805461033e9061117c565b80601f016020809104026020016040519081016040528092919081815260200182805461036a9061117c565b80156103b75780601f1061038c576101008083540402835291602001916103b7565b820191906000526020600020905b81548152906001019060200180831161039a57829003601f168201915b50505050508152602001600682015481525050828281518110610403577f4e487b7100000000000000000000000000000000000000000000000000000000600052603260045260246000fd5b60200260200101819052508080610419906111ae565b9150506101b6565b50809250505090565b60004290506000600254141561059c576040518060e001604052808881526020018773ffffffffffffffffffffffffffffffffffffffff1681526020018673ffffffffffffffffffffffffffffffffffffffff168152602001858152602001848152602001838152602001828152506001600060025481526020019081526020016000206000820151816000015560208201518160010160006101000a81548173ffffffffffffffffffffffffffffffffffffffff021916908373ffffffffffffffffffffffffffffffffffffffff16021790555060408201518160020160006101000a81548173ffffffffffffffffffffffffffffffffffffffff021916908373ffffffffffffffffffffffffffffffffffffffff16021790555060608201518160030155608082015181600401908051906020019061056c9291906109cd565b5060a08201518160050190805190602001906105899291906109cd565b5060c08201518160060155905050610760565b836001600060016002546105b091906110c0565b81526020019081526020016000206000015414610602576040517f08c379a00000000000000000000000000000000000000000000000000000000081526004016105f990610f68565b60405180910390fd5b6040518060e001604052808881526020018773ffffffffffffffffffffffffffffffffffffffff1681526020018673ffffffffffffffffffffffffffffffffffffffff168152602001858152602001848152602001838152602001828152506001600060025481526020019081526020016000206000820151816000015560208201518160010160006101000a81548173ffffffffffffffffffffffffffffffffffffffff021916908373ffffffffffffffffffffffffffffffffffffffff16021790555060408201518160020160006101000a81548173ffffffffffffffffffffffffffffffffffffffff021916908373ffffffffffffffffffffffffffffffffffffffff1602179055506060820151816003015560808201518160040190805190602001906107349291906109cd565b5060a08201518160050190805190602001906107519291906109cd565b5060c082015181600601559050505b600160026000828254610773919061106a565b925050819055507fe8fdde79d5c50584882865d04c966eb4120c519359629c763d4a432470e7a94a878787878588886040516107b59796959493929190610eeb565b60405180910390a150505050505050565b60025481565b60016020528060005260406000206000915090508060000154908060010160009054906101000a900473ffffffffffffffffffffffffffffffffffffffff16908060020160009054906101000a900473ffffffffffffffffffffffffffffffffffffffff16908060030154908060040180546108479061117c565b80601f01602080910402602001604051908101604052809291908181526020018280546108739061117c565b80156108c05780601f10610895576101008083540402835291602001916108c0565b820191906000526020600020905b8154815290600101906020018083116108a357829003601f168201915b5050505050908060050180546108d59061117c565b80601f01602080910402602001604051908101604052809291908181526020018280546109019061117c565b801561094e5780601f106109235761010080835404028352916020019161094e565b820191906000526020600020905b81548152906001019060200180831161093157829003601f168201915b5050505050908060060154905087565b6040518060e0016040528060008019168152602001600073ffffffffffffffffffffffffffffffffffffffff168152602001600073ffffffffffffffffffffffffffffffffffffffff168152602001600080191681526020016060815260200160608152602001600081525090565b8280546109d99061117c565b90600052602060002090601f0160209004810192826109fb5760008555610a42565b82601f10610a1457805160ff1916838001178555610a42565b82800160010185558215610a42579182015b82811115610a41578251825591602001919060010190610a26565b5b509050610a4f9190610a53565b5090565b5b80821115610a6c576000816000905550600101610a54565b5090565b6000610a83610a7e84610fd4565b610fa3565b905082815260208101848484011115610a9b57600080fd5b610aa684828561113a565b509392505050565b600081359050610abd81611295565b92915050565b600081359050610ad2816112ac565b92915050565b600082601f830112610ae957600080fd5b8135610af9848260208601610a70565b91505092915050565b600081359050610b11816112c3565b92915050565b60008060008060008060c08789031215610b3057600080fd5b6000610b3e89828a01610ac3565b9650506020610b4f89828a01610aae565b9550506040610b6089828a01610aae565b9450506060610b7189828a01610ac3565b935050608087013567ffffffffffffffff811115610b8e57600080fd5b610b9a89828a01610ad8565b92505060a087013567ffffffffffffffff811115610bb757600080fd5b610bc389828a01610ad8565b9150509295509295509295565b600060208284031215610be257600080fd5b6000610bf084828501610b02565b91505092915050565b6000610c058383610d70565b905092915050565b610c16816110f4565b82525050565b610c25816110f4565b82525050565b6000610c3682611014565b610c408185611037565b935083602082028501610c5285611004565b8060005b85811015610c8e5784840389528151610c6f8582610bf9565b9450610c7a8361102a565b925060208a01995050600181019050610c56565b50829750879550505050505092915050565b610ca981611106565b82525050565b610cb881611106565b82525050565b6000610cc98261101f565b610cd38185611048565b9350610ce3818560208601611149565b610cec81611284565b840191505092915050565b6000610d028261101f565b610d0c8185611059565b9350610d1c818560208601611149565b610d2581611284565b840191505092915050565b6000610d3d601b83611059565b91507f5472616e73616374696f6e206572726f72206f636375727265642100000000006000830152602082019050919050565b600060e083016000830151610d886000860182610ca0565b506020830151610d9b6020860182610c0d565b506040830151610dae6040860182610c0d565b506060830151610dc16060860182610ca0565b5060808301518482036080860152610dd98282610cbe565b91505060a083015184820360a0860152610df38282610cbe565b91505060c0830151610e0860c0860182610e13565b508091505092915050565b610e1c81611130565b82525050565b610e2b81611130565b82525050565b6000602082019050610e466000830184610c1c565b92915050565b60006020820190508181036000830152610e668184610c2b565b905092915050565b600060e082019050610e83600083018a610caf565b610e906020830189610c1c565b610e9d6040830188610c1c565b610eaa6060830187610caf565b8181036080830152610ebc8186610cf7565b905081810360a0830152610ed08185610cf7565b9050610edf60c0830184610e22565b98975050505050505050565b600060e082019050610f00600083018a610caf565b610f0d6020830189610c1c565b610f1a6040830188610c1c565b610f276060830187610caf565b610f346080830186610e22565b81810360a0830152610f468185610cf7565b905081810360c0830152610f5a8184610cf7565b905098975050505050505050565b60006020820190508181036000830152610f8181610d30565b9050919050565b6000602082019050610f9d6000830184610e22565b92915050565b6000604051905081810181811067ffffffffffffffff82111715610fca57610fc9611255565b5b8060405250919050565b600067ffffffffffffffff821115610fef57610fee611255565b5b601f19601f8301169050602081019050919050565b6000819050602082019050919050565b600081519050919050565b600081519050919050565b6000602082019050919050565b600082825260208201905092915050565b600082825260208201905092915050565b600082825260208201905092915050565b600061107582611130565b915061108083611130565b9250827fffffffffffffffffffffffffffffffffffffffffffffffffffffffffffffffff038211156110b5576110b46111f7565b5b828201905092915050565b60006110cb82611130565b91506110d683611130565b9250828210156110e9576110e86111f7565b5b828203905092915050565b60006110ff82611110565b9050919050565b6000819050919050565b600073ffffffffffffffffffffffffffffffffffffffff82169050919050565b6000819050919050565b82818337600083830152505050565b60005b8381101561116757808201518184015260208101905061114c565b83811115611176576000848401525b50505050565b6000600282049050600182168061119457607f821691505b602082108114156111a8576111a7611226565b5b50919050565b60006111b982611130565b91507fffffffffffffffffffffffffffffffffffffffffffffffffffffffffffffffff8214156111ec576111eb6111f7565b5b600182019050919050565b7f4e487b7100000000000000000000000000000000000000000000000000000000600052601160045260246000fd5b7f4e487b7100000000000000000000000000000000000000000000000000000000600052602260045260246000fd5b7f4e487b7100000000000000000000000000000000000000000000000000000000600052604160045260246000fd5b6000601f19601f8301169050919050565b61129e816110f4565b81146112a957600080fd5b50565b6112b581611106565b81146112c057600080fd5b50565b6112cc81611130565b81146112d757600080fd5b5056fea2646970667358221220f99e552f867aebe41b13813854daa3c826a1af13846b898f3eab70393e2d1fe464736f6c63430008000033a2646970667358221220fc7b3619f2420de5a7612a2cd7b64cbdf4bb3dca8fd813e9444565ff3f8d196364736f6c63430008000033",
  "immutableReferences": {},
  "source": "// SPDX-License-Identifier: MIT\r\n\r\n// pragma solidity >=0.6.6 <=0.8.23;\r\npragma solidity ^0.8.0;\r\n\r\npragma experimental ABIEncoderV2;\r\n\r\nimport \"./RawAlkes.sol\";\r\n// import './Supplier.sol';\r\n// import './Transporter.sol';\r\nimport \"./Medicine.sol\";\r\n// import './Manufacturer.sol';\r\nimport \"./MedicineW_D.sol\";\r\n// import './Wholesaler.sol';\r\nimport \"./MedicineD_C.sol\";\r\n\r\n// import './Distributor.sol';\r\n// import './Customer.sol';\r\n\r\n//// New supply chain : supplier -> transporter -> manufacturer -> transporter -> whole-saler -> transporter -> distributor -> transporter -> customer/hospital/pharmacy\r\n\r\ncontract SupplyChain {\r\n    address Owner;\r\n\r\n    constructor() public {\r\n        Owner = msg.sender;\r\n    }\r\n\r\n    modifier onlyOwner() {\r\n        require(Owner == msg.sender);\r\n        _;\r\n    }\r\n\r\n    modifier checkUser(address addr) {\r\n        require(addr == msg.sender);\r\n        _;\r\n    }\r\n\r\n    enum roles {\r\n        noRole,\r\n        manufaktur,\r\n        distributor,\r\n        kemenkes,\r\n        rumah_sakit,\r\n        customer,\r\n        supplier,\r\n        transporter,\r\n        manufacturer,\r\n        wholesaler\r\n    }\r\n\r\n    //////////////// Events ////////////////////\r\n\r\n    event UserRegister(address indexed _address, bytes32 name);\r\n    event buyEvent(\r\n        address buyer,\r\n        address indexed seller,\r\n        address packageAddr,\r\n        bytes signature,\r\n        uint indexed timestamp\r\n    );\r\n    event respondEvent(\r\n        address indexed buyer,\r\n        address seller,\r\n        address packageAddr,\r\n        bytes signature,\r\n        uint indexed timestamp\r\n    );\r\n    event sendEvent(\r\n        address seller,\r\n        address buyer,\r\n        address indexed packageAddr,\r\n        bytes signature,\r\n        uint indexed timestamp\r\n    );\r\n    event receivedEvent(\r\n        address indexed buyer,\r\n        address seller,\r\n        address packageAddr,\r\n        bytes signature,\r\n        uint indexed timestamp\r\n    );\r\n\r\n    //////////////// Event functions (All entities) ////////////////////\r\n\r\n    function requestProduct(\r\n        address buyer,\r\n        address seller,\r\n        address packageAddr,\r\n        bytes memory signature\r\n    ) public {\r\n        emit buyEvent(buyer, seller, packageAddr, signature, block.timestamp);\r\n    }\r\n\r\n    function respondToEntity(\r\n        address buyer,\r\n        address seller,\r\n        address packageAddr,\r\n        bytes memory signature\r\n    ) public {\r\n        emit respondEvent(buyer, seller, packageAddr, signature, block.timestamp);\r\n    }\r\n\r\n    function sendPackageToEntity(\r\n        address buyer,\r\n        address seller,\r\n        address packageAddr,\r\n        bytes memory signature\r\n    ) public {\r\n        emit sendEvent(seller, buyer, packageAddr, signature, block.timestamp);\r\n    }\r\n\r\n    /////////////// Users (Only Owner Executable) //////////////////////\r\n\r\n    struct userData {\r\n        bytes32 name;\r\n        bytes32 email;\r\n        bytes32 noTelp;\r\n        // string[] userLoc;\r\n        roles role;\r\n        address userAddr;\r\n    }\r\n\r\n    mapping(address => userData) public userInfo;\r\n\r\n    function registerUser(\r\n        bytes32 name,\r\n        bytes32 email,\r\n        bytes32 noTelp,\r\n        uint role,\r\n        address _userAddr\r\n    ) public onlyOwner {\r\n        userInfo[_userAddr].name = name;\r\n        userInfo[_userAddr].email = email;\r\n        userInfo[_userAddr].noTelp = noTelp;\r\n        // userInfo[_userAddr].userLoc = loc;\r\n        userInfo[_userAddr].role = roles(role);\r\n        userInfo[_userAddr].userAddr = _userAddr;\r\n\r\n        emit UserRegister(_userAddr, name);\r\n    }\r\n\r\n    function changeUserRole(\r\n        uint _role,\r\n        address _addr\r\n    ) public onlyOwner returns (string memory) {\r\n        userInfo[_addr].role = roles(_role);\r\n        return \"Role Updated!\";\r\n    }\r\n\r\n    function getUserInfo(\r\n        address _address\r\n    ) public view returns (userData memory) {\r\n        return userInfo[_address];\r\n    }\r\n\r\n    /////////////// Supplier //////////////////////\r\n\r\n    mapping(address => address[]) public supplierRawMaterials;\r\n\r\n    function createAlkesManufaktur(\r\n        // bytes32 _description,\r\n        // uint _quantity,\r\n        // address _transporterAddr,\r\n        // address _manufacturerAddr\r\n        bytes32 _namaAlkes,\r\n        bytes32 _deskripsiAlkes,\r\n        bytes32 _klasifikasiAlkes,\r\n        bytes32 _tipeAlkes,\r\n        bytes32 _kelasAlkes,\r\n        bytes32 _kelasResiko,\r\n        address _manufacturerAddr\r\n    ) public returns (address) {\r\n        RawAlkes rawMaterial = new RawAlkes(\r\n            msg.sender,\r\n            address(bytes20(sha256(abi.encodePacked(msg.sender, block.timestamp)))),\r\n            // _description,\r\n            // _quantity,\r\n            // _transporterAddr,\r\n            // _manufacturerAddr\r\n            _namaAlkes,\r\n            _deskripsiAlkes,\r\n            _klasifikasiAlkes,\r\n            _tipeAlkes,\r\n            _kelasAlkes,\r\n            _kelasResiko,\r\n            _manufacturerAddr\r\n        );\r\n\r\n        supplierRawMaterials[msg.sender].push(address(rawMaterial));\r\n        return address(rawMaterial);\r\n    }\r\n\r\n    function getNoOfPackagesOfSupplier() public view returns (uint) {\r\n        return supplierRawMaterials[msg.sender].length;\r\n    }\r\n\r\n    function getAllPackages() public view returns (address[] memory) {\r\n        uint len = supplierRawMaterials[msg.sender].length;\r\n        address[] memory ret = new address[](len);\r\n        for (uint i = 0; i < len; i++) {\r\n            ret[i] = supplierRawMaterials[msg.sender][i];\r\n        }\r\n        return ret;\r\n    }\r\n\r\n      function getAllPackagesData()\r\n        public\r\n        view\r\n        returns (address[] memory, bytes32[] memory, bytes32[] memory)\r\n    {\r\n        uint len = supplierRawMaterials[msg.sender].length;\r\n        address[] memory retAddresses = new address[](len);\r\n        bytes32[] memory retDescriptions = new bytes32[](len);\r\n        bytes32[] memory retQuantities = new bytes32[](len);\r\n\r\n        for (uint i = 0; i < len; i++) {\r\n            address rawMaterialAddr = supplierRawMaterials[msg.sender][i];\r\n            RawAlkes rawMaterialNew = RawAlkes(rawMaterialAddr);\r\n\r\n            // console.log(rawMaterialNew);\r\n            retAddresses[i] = rawMaterialAddr;\r\n            retDescriptions[i] = rawMaterialNew.getNamaAlkes();\r\n            retQuantities[i] = rawMaterialNew.getKlasifikasiALkes();\r\n        }\r\n\r\n        return (retAddresses, retDescriptions, retQuantities);\r\n    }\r\n\r\n    ///////////////  Transporter ///////////////\r\n\r\n    // function transporterHandlePackage(\r\n    //     address _addr,\r\n    //     uint transportertype,\r\n    //     address cid\r\n    // ) public {\r\n    //     require(\r\n    //         userInfo[msg.sender].role == roles.transporter,\r\n    //         \"Only Transporter can call this function\"\r\n    //     );\r\n    //     require(transportertype > 0, \"Transporter Type is incorrect\");\r\n\r\n    //     if (transportertype == 1) {\r\n    //         /// Supplier -> Manufacturer\r\n    //         RawAlkes(_addr).pickPackage(msg.sender);\r\n    //     } else if (transportertype == 2) {\r\n    //         /// Manufacturer -> Wholesaler\r\n    //         Medicine(_addr).pickMedicine(msg.sender);\r\n    //     } else if (transportertype == 3) {\r\n    //         // Wholesaler to Distributor\r\n    //         MedicineW_D(cid).pickWD(_addr, msg.sender);\r\n    //     } else if (transportertype == 4) {\r\n    //         // Distrubutor to Customer\r\n    //         MedicineD_C(cid).pickDC(_addr, msg.sender);\r\n    //     }\r\n    // }\r\n\r\n    // ///////////////  Manufacturer ///////////////\r\n\r\n    // mapping(address => address[]) public manufacturerRawMaterials;\r\n    // mapping(address => address[]) public manufacturerMedicines;\r\n\r\n    // function manufacturerReceivedPackage(\r\n    //     address _addr,\r\n    //     address _manufacturerAddress,\r\n    //     address _sellerAddr,\r\n    //     bytes memory signature\r\n    // ) public {\r\n    //     RawAlkes(_addr).receivedPackage(_manufacturerAddress);\r\n    //     manufacturerRawMaterials[_manufacturerAddress].push(_addr);\r\n    //     emit receivedEvent(msg.sender, _sellerAddr, _addr, signature, block.timestamp);\r\n    // }\r\n\r\n    // function getAllRawMaterials() public view returns (address[] memory) {\r\n    //     uint len = manufacturerRawMaterials[msg.sender].length;\r\n    //     address[] memory ret = new address[](len);\r\n    //     for (uint i = 0; i < len; i++) {\r\n    //         ret[i] = manufacturerRawMaterials[msg.sender][i];\r\n    //     }\r\n    //     return ret;\r\n    // }\r\n\r\n    // function manufacturerCreatesMedicine(\r\n    //     address _manufacturerAddr,\r\n    //     bytes32 _description,\r\n    //     address[] memory _rawAddr,\r\n    //     uint _quantity,\r\n    //     address[] memory _transporterAddr\r\n    // ) public {\r\n    //     Medicine _medicine = new Medicine(\r\n    //         _manufacturerAddr,\r\n    //         _description,\r\n    //         _rawAddr,\r\n    //         _quantity,\r\n    //         _transporterAddr\r\n    //     );\r\n\r\n    //     manufacturerMedicines[_manufacturerAddr].push(address(_medicine));\r\n    // }\r\n\r\n    // function getAllCreatedMedicines() public view returns (address[] memory) {\r\n    //     uint len = manufacturerMedicines[msg.sender].length;\r\n    //     address[] memory ret = new address[](len);\r\n    //     for (uint i = 0; i < len; i++) {\r\n    //         ret[i] = manufacturerMedicines[msg.sender][i];\r\n    //     }\r\n    //     return ret;\r\n    // }\r\n\r\n    // ///////////////  Wholesaler  ///////////////\r\n\r\n    // mapping(address => address[]) public MedicinesAtWholesaler;\r\n    // mapping(address => address[]) public MedicineWtoD;\r\n    // mapping(address => address) public MedicineWtoDTxContract;\r\n\r\n    // function wholesalerReceivedMedicine(\r\n    //     address _address,\r\n    //     address _sellerAddr,\r\n    //     bytes memory signature\r\n    // ) public {\r\n    //     require(\r\n    //         userInfo[msg.sender].role == roles.wholesaler,\r\n    //         \"Only Wholesaler can call this function\"\r\n    //     );\r\n\r\n    //     uint rtype = Medicine(_address).receivedMedicine(msg.sender);\r\n    //     MedicinesAtWholesaler[msg.sender].push(_address);\r\n    //     emit receivedEvent(msg.sender, _sellerAddr, _address, signature, block.timestamp);\r\n    // }\r\n\r\n    // function transferMedicineWtoD(\r\n    //     address _address,\r\n    //     address transporter,\r\n    //     address receiver\r\n    // ) public {\r\n    //     MedicineW_D wd = new MedicineW_D(\r\n    //         _address,\r\n    //         msg.sender,\r\n    //         transporter,\r\n    //         receiver\r\n    //     );\r\n    //     MedicineWtoD[msg.sender].push(address(wd));\r\n    //     MedicineWtoDTxContract[_address] = address(wd);\r\n    // }\r\n\r\n    // function getBatchIdByIndexWD(\r\n    //     uint index\r\n    // ) public view returns (address packageID) {\r\n    //     require(\r\n    //         userInfo[msg.sender].role == roles.wholesaler,\r\n    //         \"Only Wholesaler Can call this function.\"\r\n    //     );\r\n    //     return MedicineWtoD[msg.sender][index];\r\n    // }\r\n\r\n    // function getSubContractWD(\r\n    //     address _address\r\n    // ) public view returns (address SubContractWD) {\r\n    //     return MedicineWtoDTxContract[_address];\r\n    // }\r\n\r\n    // function getAllMedicinesAtWholesaler()\r\n    //     public\r\n    //     view\r\n    //     returns (address[] memory)\r\n    // {\r\n    //     uint len = MedicinesAtWholesaler[msg.sender].length;\r\n    //     address[] memory ret = new address[](len);\r\n    //     for (uint i = 0; i < len; i++) {\r\n    //         ret[i] = MedicinesAtWholesaler[msg.sender][i];\r\n    //     }\r\n    //     return ret;\r\n    // }\r\n\r\n    // //     ///////////////  Distributor  ///////////////\r\n\r\n    // mapping(address => address[]) public MedicinesAtDistributor;\r\n    // mapping(address => address[]) public MedicineDtoC;\r\n    // mapping(address => address) public MedicineDtoCTxContract;\r\n\r\n    // function distributorReceivedMedicine(\r\n    //     address _address,\r\n    //     address cid,\r\n    //     address _sellerAddr,\r\n    //     bytes memory signature\r\n    // ) public {\r\n    //     require(\r\n    //         userInfo[msg.sender].role == roles.distributor &&\r\n    //             msg.sender == Medicine(_address).getWDC()[1],\r\n    //         \"Only Distributor or current owner of package can call this function\"\r\n    //     );\r\n\r\n    //     uint rtype = Medicine(_address).receivedMedicine(msg.sender);\r\n    //     if (rtype == 2) {\r\n    //         MedicinesAtDistributor[msg.sender].push(_address);\r\n    //         if (Medicine(_address).getWDC()[0] != address(0)) {\r\n    //             MedicineW_D(cid).receiveWD(_address, msg.sender);\r\n    //         }\r\n    //     }\r\n    //     emit receivedEvent(msg.sender, _sellerAddr, _address, signature, block.timestamp);\r\n    // }\r\n\r\n    // function distributorTransferMedicinetoCustomer(\r\n    //     address _address,\r\n    //     address transporter,\r\n    //     address receiver\r\n    // ) public {\r\n    //     require(\r\n    //         userInfo[msg.sender].role == roles.distributor &&\r\n    //             msg.sender == Medicine(_address).getWDC()[1],\r\n    //         \"Only Distributor or current owner of package can call this function\"\r\n    //     );\r\n    //     MedicineD_C dp = new MedicineD_C(\r\n    //         _address,\r\n    //         msg.sender,\r\n    //         transporter,\r\n    //         receiver\r\n    //     );\r\n    //     MedicineDtoC[msg.sender].push(address(dp));\r\n    //     MedicineDtoCTxContract[_address] = address(dp);\r\n    // }\r\n\r\n    // function getBatchesCountDC() public view returns (uint count) {\r\n    //     require(\r\n    //         userInfo[msg.sender].role == roles.distributor,\r\n    //         \"Only Distributor Can call this function.\"\r\n    //     );\r\n    //     return MedicineDtoC[msg.sender].length;\r\n    // }\r\n\r\n    // function getBatchIdByIndexDC(\r\n    //     uint index\r\n    // ) public view returns (address packageID) {\r\n    //     require(\r\n    //         userInfo[msg.sender].role == roles.distributor,\r\n    //         \"Only Distributor Can call this function.\"\r\n    //     );\r\n    //     return MedicineDtoC[msg.sender][index];\r\n    // }\r\n\r\n    // function getSubContractDC(\r\n    //     address _address\r\n    // ) public view returns (address SubContractDP) {\r\n    //     return MedicineDtoCTxContract[_address];\r\n    // }\r\n\r\n    // function getAllMedicinesAtDistributor()\r\n    //     public\r\n    //     view\r\n    //     returns (address[] memory)\r\n    // {\r\n    //     uint len = MedicinesAtDistributor[msg.sender].length;\r\n    //     address[] memory ret = new address[](len);\r\n    //     for (uint i = 0; i < len; i++) {\r\n    //         ret[i] = MedicinesAtDistributor[msg.sender][i];\r\n    //     }\r\n    //     return ret;\r\n    // }\r\n\r\n    // function verify(\r\n    //     address p,\r\n    //     bytes32 hash,\r\n    //     uint8 v,\r\n    //     bytes32 r,\r\n    //     bytes32 s\r\n    // ) public pure returns (bool) {\r\n    //     return ecrecover(hash, v, r, s) == p;\r\n    // }\r\n}\r\n",
  "sourcePath": "D:\\ACTIVITY\\SEM 8\\0. SKRIPSI\\REF\\WEB\\alkes-blockchain\\contracts\\Testing.sol",
  "compiler": {
    "name": "solc",
    "version": "0.8.0+commit.c7dfd78e.Emscripten.clang"
  },
  "schemaVersion": "3.4.16",
  "updatedAt": "2023-11-28T16:27:05.545Z",
  "networkType": "ethereum",
  "devdoc": {
    "kind": "dev",
    "methods": {},
    "version": 1
  },
  "userdoc": {
    "kind": "user",
    "methods": {},
    "version": 1
  }
}