{
  "contractName": "SupplyChain",
  "abi": [
    {
      "inputs": [],
      "stateMutability": "nonpayable",
      "type": "constructor"
    },
    {
      "anonymous": false,
      "inputs": [
        {
          "indexed": true,
          "internalType": "address",
          "name": "distributor",
          "type": "address"
        },
        {
          "indexed": true,
          "internalType": "address",
          "name": "kemenkes",
          "type": "address"
        },
        {
          "indexed": false,
          "internalType": "address",
          "name": "alkesAddr",
          "type": "address"
        },
        {
          "indexed": true,
          "internalType": "uint256",
          "name": "timestamp",
          "type": "uint256"
        }
      ],
      "name": "IzinEvent",
      "type": "event"
    },
    {
      "anonymous": false,
      "inputs": [
        {
          "indexed": true,
          "internalType": "address",
          "name": "distributor",
          "type": "address"
        },
        {
          "indexed": true,
          "internalType": "address",
          "name": "manufaktur",
          "type": "address"
        },
        {
          "indexed": false,
          "internalType": "address",
          "name": "alkesAddr",
          "type": "address"
        },
        {
          "indexed": true,
          "internalType": "uint256",
          "name": "timestamp",
          "type": "uint256"
        }
      ],
      "name": "RequestEvent",
      "type": "event"
    },
    {
      "anonymous": false,
      "inputs": [
        {
          "indexed": false,
          "internalType": "address",
          "name": "rs",
          "type": "address"
        },
        {
          "indexed": true,
          "internalType": "address",
          "name": "distributor",
          "type": "address"
        },
        {
          "indexed": false,
          "internalType": "address",
          "name": "alkesAddr",
          "type": "address"
        },
        {
          "indexed": true,
          "internalType": "uint256",
          "name": "timestamp",
          "type": "uint256"
        }
      ],
      "name": "RsEvent",
      "type": "event"
    },
    {
      "anonymous": false,
      "inputs": [
        {
          "indexed": true,
          "internalType": "address",
          "name": "_address",
          "type": "address"
        },
        {
          "indexed": false,
          "internalType": "bytes32",
          "name": "name",
          "type": "bytes32"
        }
      ],
      "name": "UserRegister",
      "type": "event"
    },
    {
      "inputs": [
        {
          "internalType": "address",
          "name": "",
          "type": "address"
        },
        {
          "internalType": "uint256",
          "name": "",
          "type": "uint256"
        }
      ],
      "name": "dataAlkesManufaktur",
      "outputs": [
        {
          "internalType": "address",
          "name": "",
          "type": "address"
        }
      ],
      "stateMutability": "view",
      "type": "function",
      "constant": true
    },
    {
      "inputs": [],
      "name": "owner",
      "outputs": [
        {
          "internalType": "address",
          "name": "",
          "type": "address"
        }
      ],
      "stateMutability": "view",
      "type": "function",
      "constant": true
    },
    {
      "inputs": [
        {
          "internalType": "address",
          "name": "",
          "type": "address"
        }
      ],
      "name": "userInfo",
      "outputs": [
        {
          "internalType": "bytes32",
          "name": "name",
          "type": "bytes32"
        },
        {
          "internalType": "bytes32",
          "name": "email",
          "type": "bytes32"
        },
        {
          "internalType": "bytes32",
          "name": "noTelp",
          "type": "bytes32"
        },
        {
          "internalType": "enum SupplyChain.Roles",
          "name": "role",
          "type": "uint8"
        },
        {
          "internalType": "address",
          "name": "userAddr",
          "type": "address"
        }
      ],
      "stateMutability": "view",
      "type": "function",
      "constant": true
    },
    {
      "inputs": [
        {
          "internalType": "address",
          "name": "distributor",
          "type": "address"
        },
        {
          "internalType": "address",
          "name": "manufaktur",
          "type": "address"
        },
        {
          "internalType": "address",
          "name": "packageAddr",
          "type": "address"
        }
      ],
      "name": "requestProduct",
      "outputs": [],
      "stateMutability": "nonpayable",
      "type": "function"
    },
    {
      "inputs": [
        {
          "internalType": "address",
          "name": "distributor",
          "type": "address"
        },
        {
          "internalType": "address",
          "name": "kemenkes",
          "type": "address"
        },
        {
          "internalType": "address",
          "name": "alkesAddr",
          "type": "address"
        }
      ],
      "name": "izinRequest",
      "outputs": [],
      "stateMutability": "nonpayable",
      "type": "function"
    },
    {
      "inputs": [
        {
          "internalType": "address",
          "name": "rs",
          "type": "address"
        },
        {
          "internalType": "address",
          "name": "distributor",
          "type": "address"
        },
        {
          "internalType": "address",
          "name": "alkesAddr",
          "type": "address"
        }
      ],
      "name": "reqAlkesRs",
      "outputs": [],
      "stateMutability": "nonpayable",
      "type": "function"
    },
    {
      "inputs": [
        {
          "internalType": "bytes32",
          "name": "name",
          "type": "bytes32"
        },
        {
          "internalType": "bytes32",
          "name": "email",
          "type": "bytes32"
        },
        {
          "internalType": "bytes32",
          "name": "noTelp",
          "type": "bytes32"
        },
        {
          "internalType": "uint8",
          "name": "role",
          "type": "uint8"
        },
        {
          "internalType": "address",
          "name": "userAddr",
          "type": "address"
        }
      ],
      "name": "registerUser",
      "outputs": [],
      "stateMutability": "nonpayable",
      "type": "function"
    },
    {
      "inputs": [
        {
          "internalType": "uint8",
          "name": "role",
          "type": "uint8"
        },
        {
          "internalType": "address",
          "name": "addr",
          "type": "address"
        }
      ],
      "name": "changeUserRole",
      "outputs": [],
      "stateMutability": "nonpayable",
      "type": "function"
    },
    {
      "inputs": [
        {
          "internalType": "address",
          "name": "addr",
          "type": "address"
        }
      ],
      "name": "getUserInfo",
      "outputs": [
        {
          "components": [
            {
              "internalType": "bytes32",
              "name": "name",
              "type": "bytes32"
            },
            {
              "internalType": "bytes32",
              "name": "email",
              "type": "bytes32"
            },
            {
              "internalType": "bytes32",
              "name": "noTelp",
              "type": "bytes32"
            },
            {
              "internalType": "enum SupplyChain.Roles",
              "name": "role",
              "type": "uint8"
            },
            {
              "internalType": "address",
              "name": "userAddr",
              "type": "address"
            }
          ],
          "internalType": "struct SupplyChain.UserData",
          "name": "",
          "type": "tuple"
        }
      ],
      "stateMutability": "view",
      "type": "function",
      "constant": true
    },
    {
      "inputs": [
        {
          "components": [
            {
              "internalType": "bytes32",
              "name": "namaAlkes",
              "type": "bytes32"
            },
            {
              "internalType": "bytes32",
              "name": "deskripsiAlkes",
              "type": "bytes32"
            },
            {
              "internalType": "bytes32",
              "name": "klasifikasiAlkes",
              "type": "bytes32"
            },
            {
              "internalType": "bytes32",
              "name": "tipeAlkes",
              "type": "bytes32"
            },
            {
              "internalType": "bytes32",
              "name": "kelasAlkes",
              "type": "bytes32"
            },
            {
              "internalType": "bytes32",
              "name": "kelasResiko",
              "type": "bytes32"
            },
            {
              "internalType": "bytes32",
              "name": "noIzinEdar",
              "type": "bytes32"
            }
          ],
          "internalType": "struct SupplyChain.SupplyChainAlkesDetails",
          "name": "alkesDetails",
          "type": "tuple"
        },
        {
          "internalType": "address",
          "name": "distributorAddr",
          "type": "address"
        },
        {
          "internalType": "address",
          "name": "kemenkesAddr",
          "type": "address"
        },
        {
          "internalType": "address",
          "name": "rumahSakitAddr",
          "type": "address"
        }
      ],
      "name": "createAlkesManufaktur",
      "outputs": [
        {
          "internalType": "address",
          "name": "",
          "type": "address"
        }
      ],
      "stateMutability": "nonpayable",
      "type": "function"
    },
    {
      "inputs": [],
      "name": "getNoOfPackagesOfSupplier",
      "outputs": [
        {
          "internalType": "uint256",
          "name": "",
          "type": "uint256"
        }
      ],
      "stateMutability": "view",
      "type": "function",
      "constant": true
    },
    {
      "inputs": [],
      "name": "getAllPackages",
      "outputs": [
        {
          "internalType": "address[]",
          "name": "",
          "type": "address[]"
        }
      ],
      "stateMutability": "view",
      "type": "function",
      "constant": true
    },
    {
      "inputs": [],
      "name": "getAllPackagesData",
      "outputs": [
        {
          "internalType": "address[]",
          "name": "retAddress",
          "type": "address[]"
        },
        {
          "internalType": "bytes32[]",
          "name": "retNamaAlkes",
          "type": "bytes32[]"
        },
        {
          "internalType": "bytes32[]",
          "name": "retKlasifikasi",
          "type": "bytes32[]"
        }
      ],
      "stateMutability": "view",
      "type": "function",
      "constant": true
    }
  ],
  "bytecode": "0x60a060405234801561001057600080fd5b5033606081901b60805261230161004060003960008181610607015281816109b20152610a6e01526123016000f3fe60806040523480156200001157600080fd5b5060043610620000e25760003560e01c80636b82526f11620000995780639b8f584d116200006f5780639b8f584d14620001eb578063c0e3717b1462000202578063c22470ea1462000219578063c4ea8094146200023257620000e2565b80636b82526f14620001b35780638da5cb5b14620001ca57806399221f1c14620001d457620000e2565b80630a421f0f14620000e75780631959a00214620001095780633dfc4c05146200013357806350aa4df7146200014e5780636386c1c714620001675780636a674301146200018d575b600080fd5b620000f162000249565b6040516200010091906200100e565b60405180910390f35b620001206200011a36600462000c27565b620002b6565b6040516200010095949392919062001075565b6200013d620002f0565b604051620001009392919062001023565b620001656200015f36600462000cd9565b62000605565b005b6200017e6200017836600462000c27565b620007a0565b604051620001009190620010db565b620001a46200019e36600462000d2d565b6200085d565b60405162000100919062000f43565b62000165620001c436600462000e08565b620009b0565b620001a462000a6c565b620001a4620001e536600462000c94565b62000a90565b62000165620001fc36600462000c4b565b62000ac9565b620001656200021336600462000c4b565b62000b14565b6200022362000b67565b6040516200010091906200106c565b620001656200024336600462000c4b565b62000b7a565b33600090815260016020908152604091829020805483518184028101840190945280845260609392830182828015620002ac57602002820191906000526020600020905b81546001600160a01b031681526001909101906020018083116200028d575b5050505050905090565b60006020819052908152604090208054600182015460028301546003909301549192909160ff81169061010090046001600160a01b031685565b33600090815260016020526040902054606090819081908067ffffffffffffffff8111156200032f57634e487b7160e01b600052604160045260246000fd5b60405190808252806020026020018201604052801562000359578160200160208202803683370190505b5093508067ffffffffffffffff8111156200038457634e487b7160e01b600052604160045260246000fd5b604051908082528060200260200182016040528015620003ae578160200160208202803683370190505b5092508067ffffffffffffffff811115620003d957634e487b7160e01b600052604160045260246000fd5b60405190808252806020026020018201604052801562000403578160200160208202803683370190505b50915060005b81811015620005fe573360009081526001602052604081208054839081106200044257634e487b7160e01b600052603260045260246000fd5b60009182526020909120015486516001600160a01b039091169150819081908890859081106200048257634e487b7160e01b600052603260045260246000fd5b60200260200101906001600160a01b031690816001600160a01b031681525050806001600160a01b031663e1009dfa6040518163ffffffff1660e01b815260040160206040518083038186803b158015620004dc57600080fd5b505afa158015620004f1573d6000803e3d6000fd5b505050506040513d601f19601f8201168201806040525081019062000517919062000cc0565b8684815181106200053857634e487b7160e01b600052603260045260246000fd5b602002602001018181525050806001600160a01b031663ee2005826040518163ffffffff1660e01b815260040160206040518083038186803b1580156200057e57600080fd5b505afa15801562000593573d6000803e3d6000fd5b505050506040513d601f19601f82011682018060405250810190620005b9919062000cc0565b858481518110620005da57634e487b7160e01b600052603260045260246000fd5b60200260200101818152505050508080620005f59062001127565b91505062000409565b5050909192565b7f00000000000000000000000000000000000000000000000000000000000000006001600160a01b03163314620006595760405162461bcd60e51b81526004016200065090620010b4565b60405180910390fd5b6040518060a001604052808681526020018581526020018481526020018360ff1660058111156200069a57634e487b7160e01b600052602160045260246000fd5b6005811115620006ba57634e487b7160e01b600052602160045260246000fd5b81526001600160a01b03831660209182018190526000908152808252604090819020835181559183015160018084019190915590830151600283015560608301516003830180549192909160ff1916908360058111156200072b57634e487b7160e01b600052602160045260246000fd5b02179055506080919091015160039091018054610100600160a81b0319166101006001600160a01b0393841602179055604051908216907f33a7170f028b1e4f5ba321064a00ed820856a920c7f9c6636fbcf385427b1b0f90620007919088906200106c565b60405180910390a25050505050565b620007aa62000bc0565b6001600160a01b03821660009081526020818152604091829020825160a081018452815481526001820154928101929092526002810154928201929092526003820154909190606083019060ff1660058111156200081857634e487b7160e01b600052602160045260246000fd5b60058111156200083857634e487b7160e01b600052602160045260246000fd5b81526003919091015461010090046001600160a01b031660209091015290505b919050565b600080600233426040516020016200087792919062000ee5565b60408051601f1981840301815290829052620008939162000f07565b602060405180830381855afa158015620008b1573d6000803e3d6000fd5b5050506040513d601f19601f82011682018060405250810190620008d6919062000cc0565b90506000338260601c6040518060e001604052808a6000015181526020018a6020015181526020018a6040015181526020018a6060015181526020018a6080015181526020018a60a0015181526020018a60c001518152508888886040516200093f9062000bef565b620009509695949392919062000f71565b604051809103906000f0801580156200096d573d6000803e3d6000fd5b5033600090815260016020818152604083208054928301815583529091200180546001600160a01b0319166001600160a01b038316179055979650505050505050565b7f00000000000000000000000000000000000000000000000000000000000000006001600160a01b03163314620009fb5760405162461bcd60e51b81526004016200065090620010b4565b8160ff16600581111562000a1f57634e487b7160e01b600052602160045260246000fd5b6001600160a01b0382166000908152602081905260409020600301805460ff1916600183600581111562000a6357634e487b7160e01b600052602160045260246000fd5b02179055505050565b7f000000000000000000000000000000000000000000000000000000000000000081565b6001602052816000526040600020818154811062000aad57600080fd5b6000918252602090912001546001600160a01b03169150829050565b42826001600160a01b03167f31a0c6fd53fb1887c09895a0e96f8805d669a7ead7a48026de5f0c352e6675cd858460405162000b0792919062000f57565b60405180910390a3505050565b42826001600160a01b0316846001600160a01b03167f7f70c7308df221637788b2c7ea547a37aa9912af61f3c8eecf2a11c4c47670b08460405162000b5a919062000f43565b60405180910390a4505050565b3360009081526001602052604090205490565b42826001600160a01b0316846001600160a01b03167fb66142720b6f2436c84a11df7fe12c177b416850144f52a52e4e523b6ab047d28460405162000b5a919062000f43565b6040805160a0810182526000808252602082018190529181018290529060608201908152600060209091015290565b61117c806200115083390190565b80356001600160a01b03811681146200085857600080fd5b803560ff811681146200085857600080fd5b60006020828403121562000c39578081fd5b62000c448262000bfd565b9392505050565b60008060006060848603121562000c60578182fd5b62000c6b8462000bfd565b925062000c7b6020850162000bfd565b915062000c8b6040850162000bfd565b90509250925092565b6000806040838503121562000ca7578182fd5b62000cb28362000bfd565b946020939093013593505050565b60006020828403121562000cd2578081fd5b5051919050565b600080600080600060a0868803121562000cf1578081fd5b85359450602086013593506040860135925062000d116060870162000c15565b915062000d216080870162000bfd565b90509295509295909350565b60008060008084860361014081121562000d45578485fd5b60e081121562000d53578485fd5b5060405160e0810181811067ffffffffffffffff8211171562000d8457634e487b7160e01b86526041600452602486fd5b8060405250853581526020860135602082015260408601356040820152606086013560608201526080860135608082015260a086013560a082015260c086013560c08201528094505062000ddb60e0860162000bfd565b925062000dec610100860162000bfd565b915062000dfd610120860162000bfd565b905092959194509250565b6000806040838503121562000e1b578182fd5b62000e268362000c15565b915062000e366020840162000bfd565b90509250929050565b6001600160a01b03169052565b6000815180845260208085019450808401835b8381101562000e865781516001600160a01b03168752958201959082019060010162000e5f565b509495945050505050565b6000815180845260208085019450808401835b8381101562000e865781518752958201959082019060010162000ea4565b6006811062000ee157634e487b7160e01b600052602160045260246000fd5b9052565b60609290921b6bffffffffffffffffffffffff19168252601482015260340190565b60008251815b8181101562000f29576020818601810151858301520162000f0d565b8181111562000f385782828501525b509190910192915050565b6001600160a01b0391909116815260200190565b6001600160a01b0392831681529116602082015260400190565b60006101808201905060018060a01b038089168352808816602084015250855160408301526020860151606083015260408601516080830152606086015160a0830152608086015160c083015260a086015160e083015260c086015161010083015262000fe361012083018662000e3f565b62000ff361014083018562000e3f565b6200100361016083018462000e3f565b979650505050505050565b60006020825262000c44602083018462000e4c565b60006060825262001038606083018662000e4c565b82810360208401526200104c818662000e91565b9050828103604084015262001062818562000e91565b9695505050505050565b90815260200190565b858152602081018590526040810184905260a0810162001099606083018562000ec2565b6001600160a01b039290921660809190910152949350505050565b6020808252600d908201526c2737ba103a34329037bbb732b960991b604082015260600190565b600060a08201905082518252602083015160208301526040830151604083015260608301516200110f606084018262000ec2565b506080928301516001600160a01b0316919092015290565b60006000198214156200114857634e487b7160e01b81526011600452602481fd5b506001019056fe60e060405234801561001057600080fd5b5060405161117c38038061117c83398101604081905261002f916101cb565b6001600160a01b0386161580159061004f57506001600160a01b03851615155b801561006357506001600160a01b03831615155b801561007757506001600160a01b03821615155b801561008b57506001600160a01b03811615155b61009457600080fd5b6001600160601b0319606087811b8216608081815288831b90931660a0908152875160035560208801516004556040880151600555918701516006559186015160075585015160085560c08086015160095552600080546001600160a01b038581166001600160a01b031992831617909255600180548584169083161790556002805492841692909116919091179055600a805460ff1916905561013783610142565b5050505050506102d6565b600081604051610151906101a2565b61015b91906102c2565b604051809103906000f080158015610177573d6000803e3d6000fd5b50600a80546001600160a01b0390921661010002610100600160a81b03199092169190911790555050565b6106f580610a8783390190565b80516001600160a01b03811681146101c657600080fd5b919050565b6000806000806000808688036101808112156101e5578283fd5b6101ee886101af565b96506101fc602089016101af565b955060e0603f198201121561020f578283fd5b5060405160e081016001600160401b038111828210171561023e57634e487b7160e01b84526041600452602484fd5b806040525060408801518152606088015160208201526080880151604082015260a0880151606082015260c0880151608082015260e088015160a082015261010088015160c08201528094505061029861012088016101af565b92506102a761014088016101af565b91506102b661016088016101af565b90509295509295509295565b6001600160a01b0391909116815260200190565b60805160601c60a05160601c60c05160601c61076b61031c6000396000818161038a015261044301526000818161041f01526104c701526000610485015261076b6000f3fe608060405234801561001057600080fd5b506004361061010b5760003560e01c806367bc4718116100a2578063c9cd4f2d11610071578063c9cd4f2d146101e9578063d9f20edf146101f1578063e1009dfa146101f9578063e7b9307a14610201578063ee200582146102145761010b565b806367bc4718146101a35780637618bd6d146101be5780638da5cb5b146101d9578063bfe10928146101e15761010b565b80633143d603116100de5780633143d6031461016b5780634176ee751461017e57806341f10ea71461019357806342848c2a1461019b5761010b565b80630a4381f81461011057806312a42e23146101255780631ef3f1bd14610143578063200d2ed214610156575b600080fd5b61012361011e3660046105b6565b61021c565b005b61012d610282565b60405161013a91906105ee565b60405180910390f35b610123610151366004610595565b610291565b61015e6102e9565b60405161013a91906106e4565b610123610179366004610595565b6102f2565b610186610347565b60405161013a91906106ab565b61012d610374565b61012d610388565b6101ab6103ac565b60405161013a97969594939291906106b4565b6101c66103c4565b60405161013a9796959493929190610602565b61012d610483565b61012d6104a7565b61012d6104b6565b61012d6104c5565b6101866104e9565b61012361020f366004610595565b6104ef565b610186610537565b60098290556001600160a01b0381166102505760405162461bcd60e51b81526004016102479061070c565b60405180910390fd5b600180546001600160a01b03929092166001600160a01b031990921691909117905550600a805460ff19166002179055565b6002546001600160a01b031681565b6001600160a01b0381166102b75760405162461bcd60e51b81526004016102479061070c565b600080546001600160a01b0319166001600160a01b038316179055600a80546001919060ff191682805b021790555050565b600a5460ff1681565b6001600160a01b0381166103185760405162461bcd60e51b81526004016102479061070c565b600280546001600160a01b0319166001600160a01b038316179055600a80546003919060ff19166001836102e1565b600a5460009060ff16600381111561036f57634e487b7160e01b600052602160045260246000fd5b905090565b600a5461010090046001600160a01b031681565b7f000000000000000000000000000000000000000000000000000000000000000081565b60035460045460055460065460075460085460095487565b60006103ce61053d565b5050600054600154600254600a546040805160e08101825260035481526004546020820152600554918101919091526006546060820152600754608082015260085460a082015260095460c08201527f00000000000000000000000000000000000000000000000000000000000000009590947f0000000000000000000000000000000000000000000000000000000000000000946001600160a01b0391821694908216939082169261010090910490911690565b7f000000000000000000000000000000000000000000000000000000000000000081565b6000546001600160a01b031681565b6001546001600160a01b031681565b7f000000000000000000000000000000000000000000000000000000000000000081565b60035490565b6001600160a01b0381166105155760405162461bcd60e51b81526004016102479061070c565b600180546001600160a01b0319166001600160a01b0392909216919091179055565b60055490565b6040805160e081018252600080825260208201819052918101829052606081018290526080810182905260a0810182905260c081019190915290565b80356001600160a01b038116811461059057600080fd5b919050565b6000602082840312156105a6578081fd5b6105af82610579565b9392505050565b600080604083850312156105c8578081fd5b823591506105d860208401610579565b90509250929050565b6001600160a01b03169052565b6001600160a01b0391909116815260200190565b60006101a08201905060018060a01b038916825287516020830152602088015160408301526040880151606083015260608801516080830152608088015160a083015260a088015160c083015260c088015160e08301526106676101008301886105e1565b6106756101208301876105e1565b6106836101408301866105e1565b6106916101608301856105e1565b61069f6101808301846105e1565b98975050505050505050565b90815260200190565b968752602087019590955260408601939093526060850191909152608084015260a083015260c082015260e00190565b602081016004831061070657634e487b7160e01b600052602160045260246000fd5b91905290565b6020808252600f908201526e496e76616c6964206164647265737360881b60408201526060019056fea2646970667358221220637b8d48930db3ef6d5927a4f7c6b2d1a1a23d484873e61191b265d044307d0d64736f6c634300080000336080604052600060025534801561001557600080fd5b506040516106f53803806106f58339810160408190526100349161006c565b6001600160a01b03811661004757600080fd5b600080546001600160a01b0319166001600160a01b039290921691909117905561009a565b60006020828403121561007d578081fd5b81516001600160a01b0381168114610093578182fd5b9392505050565b61064c806100a96000396000f3fe608060405234801561001057600080fd5b50600436106100575760003560e01c806302d05d3f1461005c57806327506f531461007a57806378ce13651461008f5780639ace38c2146100a45780639e9ab89b146100c8575b600080fd5b6100646100dd565b60405161007191906104b9565b60405180910390f35b6100826100ec565b60405161007191906104cd565b610097610201565b60405161007191906105ad565b6100b76100b23660046104a1565b610207565b604051610071959493929190610547565b6100db6100d636600461045e565b610242565b005b6000546001600160a01b031681565b60025460609060008167ffffffffffffffff81111561011b57634e487b7160e01b600052604160045260246000fd5b60405190808252806020026020018201604052801561015457816020015b610141610414565b8152602001906001900390816101395790505b50905060005b828110156101fa57600081815260016020818152604092839020835160a08101855281548152928101546001600160a01b039081169284019290925260028101549091169282019290925260038201546060820152600490910154608082015282518390839081106101dc57634e487b7160e01b600052603260045260246000fd5b602002602001018190525080806101f2906105e5565b91505061015a565b5091505090565b60025481565b6001602081905260009182526040909120805491810154600282015460038301546004909301546001600160a01b0392831693919092169185565b60025443906102dc576040805160a0810182528681526001600160a01b03808716602080840191825287831684860190815260608501888152608086018881526002805460009081526001958690529890982096518755935192860180549386166001600160a01b0319948516179055905195850180549690941695909116949094179091559151600382015590516004909101556103b5565b816001600060016002546102f091906105ce565b815260200190815260200160002060000154146103285760405162461bcd60e51b815260040161031f90610576565b60405180910390fd5b6040805160a0810182528681526001600160a01b03808716602080840191825287831684860190815260608501888152608086018881526002805460009081526001958690529890982096518755935192860180549386166001600160a01b0319948516179055905195850180549690941695909116949094179091559151600382015590516004909101555b6001600260008282546103c891906105b6565b90915550506040517f08ce16702f64d2cdc93c2d36818cee685abd25dcf25f93b5008c07c328652bb6906104059087908790879087908790610547565b60405180910390a15050505050565b6040805160a08101825260008082526020820181905291810182905260608101829052608081019190915290565b80356001600160a01b038116811461045957600080fd5b919050565b60008060008060808587031215610473578384fd5b8435935061048360208601610442565b925061049160408601610442565b9396929550929360600135925050565b6000602082840312156104b2578081fd5b5035919050565b6001600160a01b0391909116815260200190565b602080825282518282018190526000919060409081850190868401855b8281101561053a57815180518552868101516001600160a01b0390811688870152868201511686860152606080820151908601526080908101519085015260a090930192908501906001016104ea565b5091979650505050505050565b9485526001600160a01b0393841660208601529190921660408401526060830191909152608082015260a00190565b6020808252601b908201527f5472616e73616374696f6e206572726f72206f63637572726564210000000000604082015260600190565b90815260200190565b600082198211156105c9576105c9610600565b500190565b6000828210156105e0576105e0610600565b500390565b60006000198214156105f9576105f9610600565b5060010190565b634e487b7160e01b600052601160045260246000fdfea26469706673582212208bacfc914aca64dec8619fa88b9c52ef408f555866612eb8c60e3e48dbbe832864736f6c63430008000033a26469706673582212207c817a54cb42834223ae29b8d2981553a8b85ef815101e16859fd0bd9fe293dd64736f6c63430008000033",
  "immutableReferences": {
    "381": [
      {
        "length": 32,
        "start": 1543
      },
      {
        "length": 32,
        "start": 2482
      },
      {
        "length": 32,
        "start": 2670
      }
    ]
  },
  "source": "// SPDX-License-Identifier: GPL-3.0\r\npragma solidity ^0.8.0;\r\npragma experimental ABIEncoderV2;\r\n\r\nimport './RawAlkes.sol';\r\n\r\ncontract SupplyChain {\r\n    address public immutable owner;\r\n\r\n    constructor()  {\r\n        owner = msg.sender;\r\n    }\r\n\r\n    modifier onlyOwner() {\r\n        require(owner == msg.sender, \"Not the owner\");\r\n        _;\r\n    }\r\n\r\n    enum Roles { NoRole, Manufaktur, Distributor, Kemenkes, RumahSakit, Customer }\r\n\r\n    struct UserData {\r\n        bytes32 name;\r\n        bytes32 email;\r\n        bytes32 noTelp;\r\n        Roles role;\r\n        address userAddr;\r\n    }\r\n\r\n    struct SupplyChainAlkesDetails {\r\n        bytes32 namaAlkes;\r\n        bytes32 deskripsiAlkes;\r\n        bytes32 klasifikasiAlkes;\r\n        bytes32 tipeAlkes;\r\n        bytes32 kelasAlkes;\r\n        bytes32 kelasResiko;\r\n        bytes32 noIzinEdar;\r\n    }\r\n\r\n    \r\n\r\n    mapping(address => UserData) public userInfo;\r\n\r\n    event UserRegister(address indexed _address, bytes32 name);\r\n    event RequestEvent(address indexed distributor, address indexed manufaktur, address alkesAddr, uint indexed timestamp);\r\n    event IzinEvent(address indexed distributor, address indexed kemenkes, address alkesAddr, uint indexed timestamp);\r\n    event RsEvent(address rs, address indexed distributor, address alkesAddr, uint indexed timestamp);\r\n\r\n    function requestProduct(address distributor, address manufaktur, address packageAddr) public {\r\n        emit RequestEvent(distributor, manufaktur, packageAddr, block.timestamp);\r\n    }\r\n\r\n    function izinRequest(address distributor, address kemenkes, address alkesAddr) public {\r\n        emit IzinEvent(distributor, kemenkes, alkesAddr, block.timestamp);\r\n    }\r\n\r\n    function reqAlkesRs(address rs, address distributor, address alkesAddr) public {\r\n        emit RsEvent(rs, distributor, alkesAddr, block.timestamp);\r\n    }\r\n\r\n    function registerUser(\r\n        bytes32 name,\r\n        bytes32 email,\r\n        bytes32 noTelp,\r\n        uint8 role,\r\n        address userAddr\r\n    ) public onlyOwner {\r\n        userInfo[userAddr] = UserData({\r\n            name: name,\r\n            email: email,\r\n            noTelp: noTelp,\r\n            role: Roles(role),\r\n            userAddr: userAddr\r\n        });\r\n\r\n        emit UserRegister(userAddr, name);\r\n    }\r\n\r\n    function changeUserRole(uint8 role, address addr) public onlyOwner {\r\n        userInfo[addr].role = Roles(role);\r\n    }\r\n\r\n    function getUserInfo(address addr) public view returns (UserData memory) {\r\n        return userInfo[addr];\r\n    }\r\n\r\n    mapping(address => address[]) public dataAlkesManufaktur;\r\n\r\n    function createAlkesManufaktur(\r\n        SupplyChainAlkesDetails memory alkesDetails,\r\n        address distributorAddr,\r\n        address kemenkesAddr,\r\n        address rumahSakitAddr\r\n    ) public returns (address) {\r\n        bytes20 alkesId = bytes20(sha256(abi.encodePacked(msg.sender, block.timestamp)));\r\n        RawAlkes alkes = new RawAlkes(\r\n            msg.sender,\r\n            address(alkesId),\r\n            RawAlkes.AlkesDetails({\r\n                namaAlkes: alkesDetails.namaAlkes,\r\n                deskripsiAlkes: alkesDetails.deskripsiAlkes,\r\n                klasifikasiAlkes: alkesDetails.klasifikasiAlkes,\r\n                tipeAlkes: alkesDetails.tipeAlkes,\r\n                kelasAlkes: alkesDetails.kelasAlkes,\r\n                kelasResiko: alkesDetails.kelasResiko,\r\n                noIzinEdar: alkesDetails.noIzinEdar\r\n            }),\r\n            distributorAddr,\r\n            kemenkesAddr,\r\n            rumahSakitAddr\r\n        );\r\n\r\n        dataAlkesManufaktur[msg.sender].push(address(alkes));\r\n        return address(alkes);\r\n    }\r\n\r\n    function getNoOfPackagesOfSupplier() public view returns (uint) {\r\n        return dataAlkesManufaktur[msg.sender].length;\r\n    }\r\n\r\n    function getAllPackages() public view returns (address[] memory) {\r\n        return dataAlkesManufaktur[msg.sender];\r\n    }\r\n\r\n\r\n       function getAllPackagesData()\r\n        public\r\n        view\r\n        returns (address[] memory retAddress, bytes32[] memory retNamaAlkes, bytes32[] memory retKlasifikasi)\r\n    {\r\n        uint len = dataAlkesManufaktur[msg.sender].length;\r\n        retAddress = new address[](len);\r\n        retNamaAlkes = new bytes32[](len);\r\n        retKlasifikasi = new bytes32[](len);\r\n\r\n        for (uint i = 0; i < len; i++) {\r\n            address alkesAddr = dataAlkesManufaktur[msg.sender][i];\r\n            RawAlkes alkesNew = RawAlkes(alkesAddr);\r\n\r\n            // console.log(alkesNew);\r\n            retAddress[i] = alkesAddr;\r\n            retNamaAlkes[i] = alkesNew.getNamaAlkes();\r\n            retKlasifikasi[i] = alkesNew.getKlasifikasiALkes();\r\n        }\r\n\r\n        return (retAddress, retNamaAlkes, retKlasifikasi);\r\n    }\r\n}\r\n",
  "sourcePath": "D:\\ACTIVITY\\SEM 8\\0. SKRIPSI\\REF\\WEB\\alkes-blockchain\\contracts\\SupplyChain.sol",
  "compiler": {
    "name": "solc",
    "version": "0.8.0+commit.c7dfd78e.Emscripten.clang"
  },
  "schemaVersion": "3.4.16",
  "updatedAt": "2023-12-20T15:14:24.841Z",
  "networkType": "ethereum",
  "devdoc": {
    "kind": "dev",
    "methods": {},
    "version": 1
  },
  "userdoc": {
    "kind": "user",
    "methods": {},
    "version": 1
  }
}