{
  "contractName": "SupplyChain",
  "abi": [
    {
      "inputs": [],
      "stateMutability": "nonpayable",
      "type": "constructor"
    },
    {
      "anonymous": false,
      "inputs": [
        {
          "indexed": true,
          "internalType": "address",
          "name": "distributor",
          "type": "address"
        },
        {
          "indexed": true,
          "internalType": "address",
          "name": "kemenkes",
          "type": "address"
        },
        {
          "indexed": false,
          "internalType": "address",
          "name": "alkesAddr",
          "type": "address"
        },
        {
          "indexed": true,
          "internalType": "uint256",
          "name": "timestamp",
          "type": "uint256"
        }
      ],
      "name": "IzinEvent",
      "type": "event"
    },
    {
      "anonymous": false,
      "inputs": [
        {
          "indexed": false,
          "internalType": "address",
          "name": "pasien",
          "type": "address"
        },
        {
          "indexed": true,
          "internalType": "address",
          "name": "faskes",
          "type": "address"
        },
        {
          "indexed": false,
          "internalType": "address",
          "name": "alkesAddr",
          "type": "address"
        },
        {
          "indexed": true,
          "internalType": "uint256",
          "name": "timestamp",
          "type": "uint256"
        }
      ],
      "name": "PasienEvent",
      "type": "event"
    },
    {
      "anonymous": false,
      "inputs": [
        {
          "indexed": true,
          "internalType": "address",
          "name": "distributor",
          "type": "address"
        },
        {
          "indexed": true,
          "internalType": "address",
          "name": "manufaktur",
          "type": "address"
        },
        {
          "indexed": false,
          "internalType": "address",
          "name": "alkesAddr",
          "type": "address"
        },
        {
          "indexed": true,
          "internalType": "uint256",
          "name": "timestamp",
          "type": "uint256"
        }
      ],
      "name": "RequestEvent",
      "type": "event"
    },
    {
      "anonymous": false,
      "inputs": [
        {
          "indexed": false,
          "internalType": "address",
          "name": "rs",
          "type": "address"
        },
        {
          "indexed": true,
          "internalType": "address",
          "name": "distributor",
          "type": "address"
        },
        {
          "indexed": false,
          "internalType": "address",
          "name": "alkesAddr",
          "type": "address"
        },
        {
          "indexed": true,
          "internalType": "uint256",
          "name": "timestamp",
          "type": "uint256"
        }
      ],
      "name": "RsEvent",
      "type": "event"
    },
    {
      "anonymous": false,
      "inputs": [
        {
          "indexed": true,
          "internalType": "address",
          "name": "_address",
          "type": "address"
        },
        {
          "indexed": false,
          "internalType": "bytes",
          "name": "name",
          "type": "bytes"
        }
      ],
      "name": "UserRegister",
      "type": "event"
    },
    {
      "inputs": [
        {
          "internalType": "address",
          "name": "",
          "type": "address"
        },
        {
          "internalType": "uint256",
          "name": "",
          "type": "uint256"
        }
      ],
      "name": "dataAlkesManufaktur",
      "outputs": [
        {
          "internalType": "address",
          "name": "",
          "type": "address"
        }
      ],
      "stateMutability": "view",
      "type": "function",
      "constant": true
    },
    {
      "inputs": [],
      "name": "owner",
      "outputs": [
        {
          "internalType": "address",
          "name": "",
          "type": "address"
        }
      ],
      "stateMutability": "view",
      "type": "function",
      "constant": true
    },
    {
      "inputs": [
        {
          "internalType": "address",
          "name": "",
          "type": "address"
        }
      ],
      "name": "userInfo",
      "outputs": [
        {
          "internalType": "bytes",
          "name": "name",
          "type": "bytes"
        },
        {
          "internalType": "bytes",
          "name": "email",
          "type": "bytes"
        },
        {
          "internalType": "bytes",
          "name": "noTelp",
          "type": "bytes"
        },
        {
          "internalType": "enum SupplyChain.Roles",
          "name": "role",
          "type": "uint8"
        },
        {
          "internalType": "address",
          "name": "userAddr",
          "type": "address"
        }
      ],
      "stateMutability": "view",
      "type": "function",
      "constant": true
    },
    {
      "inputs": [
        {
          "internalType": "address",
          "name": "distributor",
          "type": "address"
        },
        {
          "internalType": "address",
          "name": "manufaktur",
          "type": "address"
        },
        {
          "internalType": "address",
          "name": "packageAddr",
          "type": "address"
        }
      ],
      "name": "requestProduct",
      "outputs": [],
      "stateMutability": "nonpayable",
      "type": "function"
    },
    {
      "inputs": [
        {
          "internalType": "address",
          "name": "distributor",
          "type": "address"
        },
        {
          "internalType": "address",
          "name": "kemenkes",
          "type": "address"
        },
        {
          "internalType": "address",
          "name": "alkesAddr",
          "type": "address"
        }
      ],
      "name": "izinRequest",
      "outputs": [],
      "stateMutability": "nonpayable",
      "type": "function"
    },
    {
      "inputs": [
        {
          "internalType": "address",
          "name": "rs",
          "type": "address"
        },
        {
          "internalType": "address",
          "name": "distributor",
          "type": "address"
        },
        {
          "internalType": "address",
          "name": "alkesAddr",
          "type": "address"
        }
      ],
      "name": "reqAlkesRs",
      "outputs": [],
      "stateMutability": "nonpayable",
      "type": "function"
    },
    {
      "inputs": [
        {
          "internalType": "address",
          "name": "pasien",
          "type": "address"
        },
        {
          "internalType": "address",
          "name": "faskes",
          "type": "address"
        },
        {
          "internalType": "address",
          "name": "alkesAddr",
          "type": "address"
        }
      ],
      "name": "reqAlkesPasien",
      "outputs": [],
      "stateMutability": "nonpayable",
      "type": "function"
    },
    {
      "inputs": [
        {
          "internalType": "bytes",
          "name": "name",
          "type": "bytes"
        },
        {
          "internalType": "bytes",
          "name": "email",
          "type": "bytes"
        },
        {
          "internalType": "bytes",
          "name": "noTelp",
          "type": "bytes"
        },
        {
          "internalType": "uint8",
          "name": "role",
          "type": "uint8"
        },
        {
          "internalType": "address",
          "name": "userAddr",
          "type": "address"
        }
      ],
      "name": "registerUser",
      "outputs": [],
      "stateMutability": "nonpayable",
      "type": "function"
    },
    {
      "inputs": [
        {
          "internalType": "uint8",
          "name": "role",
          "type": "uint8"
        },
        {
          "internalType": "address",
          "name": "addr",
          "type": "address"
        }
      ],
      "name": "changeUserRole",
      "outputs": [],
      "stateMutability": "nonpayable",
      "type": "function"
    },
    {
      "inputs": [
        {
          "internalType": "address",
          "name": "addr",
          "type": "address"
        }
      ],
      "name": "getUserInfo",
      "outputs": [
        {
          "components": [
            {
              "internalType": "bytes",
              "name": "name",
              "type": "bytes"
            },
            {
              "internalType": "bytes",
              "name": "email",
              "type": "bytes"
            },
            {
              "internalType": "bytes",
              "name": "noTelp",
              "type": "bytes"
            },
            {
              "internalType": "enum SupplyChain.Roles",
              "name": "role",
              "type": "uint8"
            },
            {
              "internalType": "address",
              "name": "userAddr",
              "type": "address"
            }
          ],
          "internalType": "struct SupplyChain.UserData",
          "name": "",
          "type": "tuple"
        }
      ],
      "stateMutability": "view",
      "type": "function",
      "constant": true
    },
    {
      "inputs": [
        {
          "components": [
            {
              "internalType": "bytes",
              "name": "namaAlkes",
              "type": "bytes"
            },
            {
              "internalType": "bytes",
              "name": "deskripsiAlkes",
              "type": "bytes"
            },
            {
              "internalType": "bytes",
              "name": "kategori_alkes",
              "type": "bytes"
            },
            {
              "internalType": "bytes",
              "name": "subkategori_alkes",
              "type": "bytes"
            },
            {
              "internalType": "bytes",
              "name": "klasifikasiAlkes",
              "type": "bytes"
            },
            {
              "internalType": "bytes",
              "name": "tipeAlkes",
              "type": "bytes"
            },
            {
              "internalType": "bytes",
              "name": "kelasResiko",
              "type": "bytes"
            },
            {
              "internalType": "bytes",
              "name": "kuantitas",
              "type": "bytes"
            },
            {
              "internalType": "bytes",
              "name": "noIzinEdar",
              "type": "bytes"
            }
          ],
          "internalType": "struct SupplyChain.SupplyChainAlkesDetails",
          "name": "alkesDetails",
          "type": "tuple"
        },
        {
          "internalType": "address",
          "name": "distributorAddr",
          "type": "address"
        },
        {
          "internalType": "address",
          "name": "kemenkesAddr",
          "type": "address"
        },
        {
          "internalType": "address",
          "name": "rumahSakitAddr",
          "type": "address"
        },
        {
          "internalType": "address",
          "name": "pasieAddr",
          "type": "address"
        }
      ],
      "name": "createAlkesManufaktur",
      "outputs": [
        {
          "internalType": "address",
          "name": "",
          "type": "address"
        }
      ],
      "stateMutability": "nonpayable",
      "type": "function"
    },
    {
      "inputs": [],
      "name": "getNoOfPackagesOfSupplier",
      "outputs": [
        {
          "internalType": "uint256",
          "name": "",
          "type": "uint256"
        }
      ],
      "stateMutability": "view",
      "type": "function",
      "constant": true
    },
    {
      "inputs": [],
      "name": "getAllPackages",
      "outputs": [
        {
          "internalType": "address[]",
          "name": "",
          "type": "address[]"
        }
      ],
      "stateMutability": "view",
      "type": "function",
      "constant": true
    },
    {
      "inputs": [],
      "name": "getAllPackagesData",
      "outputs": [
        {
          "internalType": "address[]",
          "name": "retAddress",
          "type": "address[]"
        },
        {
          "internalType": "bytes[]",
          "name": "retNamaAlkes",
          "type": "bytes[]"
        },
        {
          "internalType": "bytes[]",
          "name": "retKlasifikasi",
          "type": "bytes[]"
        }
      ],
      "stateMutability": "view",
      "type": "function",
      "constant": true
    }
  ],
  "bytecode": "0x60a060405234801561001057600080fd5b5033606081901b608052613f126100406000396000818161064501528181610daf0152610e6b0152613f126000f3fe60806040523480156200001157600080fd5b5060043610620001005760003560e01c80638da5cb5b1162000099578063ac70b936116200006f578063ac70b9361462000220578063c0e3717b1462000237578063c22470ea146200024e578063c4ea809414620002675762000100565b80638da5cb5b14620001e857806399221f1c14620001f25780639b8f584d14620002095762000100565b8063296e99d911620000db578063296e99d914620001775780633dfc4c0514620001905780636386c1c714620001ab5780636b82526f14620001d15762000100565b80630a421f0f14620001055780631959a00214620001275780631bdee3551462000151575b600080fd5b6200010f6200027e565b6040516200011e919062001863565b60405180910390f35b6200013e620001383660046200117f565b620002eb565b6040516200011e959493929190620018d6565b620001686200016236600462001361565b620004d7565b6040516200011e9190620016ac565b6200018e62000188366004620012ad565b62000643565b005b6200019a62000810565b6040516200011e9392919062001878565b620001c2620001bc3660046200117f565b62000b41565b6040516200011e919062001969565b6200018e620001e23660046200153b565b62000dad565b6200016862000e69565b6200016862000203366004620011ec565b62000e8d565b6200018e6200021a366004620011a3565b62000ec6565b6200018e62000231366004620011a3565b62000f11565b6200018e62000248366004620011a3565b62000f4f565b6200025862000fa2565b6040516200011e9190620019fd565b6200018e62000278366004620011a3565b62000fb5565b33600090815260016020908152604091829020805483518184028101840190945280845260609392830182828015620002e157602002820191906000526020600020905b81546001600160a01b03168152600190910190602001808311620002c2575b5050505050905090565b600060208190529081526040902080548190620003089062001a91565b80601f0160208091040260200160405190810160405280929190818152602001828054620003369062001a91565b8015620003875780601f106200035b5761010080835404028352916020019162000387565b820191906000526020600020905b8154815290600101906020018083116200036957829003601f168201915b5050505050908060010180546200039e9062001a91565b80601f0160208091040260200160405190810160405280929190818152602001828054620003cc9062001a91565b80156200041d5780601f10620003f1576101008083540402835291602001916200041d565b820191906000526020600020905b815481529060010190602001808311620003ff57829003601f168201915b505050505090806002018054620004349062001a91565b80601f0160208091040260200160405190810160405280929190818152602001828054620004629062001a91565b8015620004b35780601f106200048757610100808354040283529160200191620004b3565b820191906000526020600020905b8154815290600101906020018083116200049557829003601f168201915b5050506003909301549192505060ff8116906001600160a01b036101009091041685565b60008060023342604051602001620004f19291906200166c565b60408051601f19818403018152908290526200050d916200168e565b602060405180830381855afa1580156200052b573d6000803e3d6000fd5b5050506040513d601f19601f8201168201806040525081019062000550919062001218565b90506000338260601c6040518061012001604052808b6000015181526020018b6020015181526020018b6040015181526020018b6060015181526020018b6080015181526020018b60a0015181526020018b60c0015181526020018b60e0015181526020018b610100015181525089898989604051620005d09062000ffb565b620005e29796959493929190620016da565b604051809103906000f080158015620005ff573d6000803e3d6000fd5b5033600090815260016020818152604083208054928301815583529091200180546001600160a01b0319166001600160a01b03831617905598975050505050505050565b7f00000000000000000000000000000000000000000000000000000000000000006001600160a01b03163314620006975760405162461bcd60e51b81526004016200068e9062001942565b60405180910390fd5b6040518060a001604052808681526020018581526020018481526020018360ff166005811115620006d857634e487b7160e01b600052602160045260246000fd5b6005811115620006f857634e487b7160e01b600052602160045260246000fd5b81526001600160a01b03831660209182018190526000908152808252604090208251805191926200072f9284929091019062001009565b5060208281015180516200074a926001850192019062001009565b50604082015180516200076891600284019160209091019062001009565b50606082015160038201805460ff191660018360058111156200079b57634e487b7160e01b600052602160045260246000fd5b02179055506080919091015160039091018054610100600160a81b0319166101006001600160a01b0393841602179055604051908216907f20eab67585959c675c26f70716ee7caa0f6d5b31cd9a471a6c0953d84df2d4749062000801908890620018c1565b60405180910390a25050505050565b33600090815260016020526040902054606090819081908067ffffffffffffffff8111156200084f57634e487b7160e01b600052604160045260246000fd5b60405190808252806020026020018201604052801562000879578160200160208202803683370190505b5093508067ffffffffffffffff811115620008a457634e487b7160e01b600052604160045260246000fd5b604051908082528060200260200182016040528015620008d957816020015b6060815260200190600190039081620008c35790505b5092508067ffffffffffffffff8111156200090457634e487b7160e01b600052604160045260246000fd5b6040519080825280602002602001820160405280156200093957816020015b6060815260200190600190039081620009235790505b50915060005b8181101562000b3a573360009081526001602052604081208054839081106200097857634e487b7160e01b600052603260045260246000fd5b60009182526020909120015486516001600160a01b03909116915081908190889085908110620009b857634e487b7160e01b600052603260045260246000fd5b60200260200101906001600160a01b031690816001600160a01b031681525050806001600160a01b031663e1009dfa6040518163ffffffff1660e01b815260040160006040518083038186803b15801562000a1257600080fd5b505afa15801562000a27573d6000803e3d6000fd5b505050506040513d6000823e601f3d908101601f1916820160405262000a51919081019062001231565b86848151811062000a7257634e487b7160e01b600052603260045260246000fd5b6020026020010181905250806001600160a01b031663ee2005826040518163ffffffff1660e01b815260040160006040518083038186803b15801562000ab757600080fd5b505afa15801562000acc573d6000803e3d6000fd5b505050506040513d6000823e601f3d908101601f1916820160405262000af6919081019062001231565b85848151811062000b1757634e487b7160e01b600052603260045260246000fd5b60200260200101819052505050808062000b319062001ace565b9150506200093f565b5050909192565b62000b4b62001098565b6001600160a01b03821660009081526020819052604090819020815160a0810190925280548290829062000b7f9062001a91565b80601f016020809104026020016040519081016040528092919081815260200182805462000bad9062001a91565b801562000bfe5780601f1062000bd25761010080835404028352916020019162000bfe565b820191906000526020600020905b81548152906001019060200180831162000be057829003601f168201915b5050505050815260200160018201805462000c199062001a91565b80601f016020809104026020016040519081016040528092919081815260200182805462000c479062001a91565b801562000c985780601f1062000c6c5761010080835404028352916020019162000c98565b820191906000526020600020905b81548152906001019060200180831162000c7a57829003601f168201915b5050505050815260200160028201805462000cb39062001a91565b80601f016020809104026020016040519081016040528092919081815260200182805462000ce19062001a91565b801562000d325780601f1062000d065761010080835404028352916020019162000d32565b820191906000526020600020905b81548152906001019060200180831162000d1457829003601f168201915b5050509183525050600382015460209091019060ff16600581111562000d6857634e487b7160e01b600052602160045260246000fd5b600581111562000d8857634e487b7160e01b600052602160045260246000fd5b81526003919091015461010090046001600160a01b031660209091015290505b919050565b7f00000000000000000000000000000000000000000000000000000000000000006001600160a01b0316331462000df85760405162461bcd60e51b81526004016200068e9062001942565b8160ff16600581111562000e1c57634e487b7160e01b600052602160045260246000fd5b6001600160a01b0382166000908152602081905260409020600301805460ff1916600183600581111562000e6057634e487b7160e01b600052602160045260246000fd5b02179055505050565b7f000000000000000000000000000000000000000000000000000000000000000081565b6001602052816000526040600020818154811062000eaa57600080fd5b6000918252602090912001546001600160a01b03169150829050565b42826001600160a01b03167f31a0c6fd53fb1887c09895a0e96f8805d669a7ead7a48026de5f0c352e6675cd858460405162000f04929190620016c0565b60405180910390a3505050565b42826001600160a01b03167f7b28915da9f68d10a0d0b18efe6eec317f0d25069acba16e871afed9e74c3a63858460405162000f04929190620016c0565b42826001600160a01b0316846001600160a01b03167f7f70c7308df221637788b2c7ea547a37aa9912af61f3c8eecf2a11c4c47670b08460405162000f959190620016ac565b60405180910390a4505050565b3360009081526001602052604090205490565b42826001600160a01b0316846001600160a01b03167fb66142720b6f2436c84a11df7fe12c177b416850144f52a52e4e523b6ab047d28460405162000f959190620016ac565b6123d08062001b0d83390190565b828054620010179062001a91565b90600052602060002090601f0160209004810192826200103b576000855562001086565b82601f106200105657805160ff191683800117855562001086565b8280016001018555821562001086579182015b828111156200108657825182559160200191906001019062001069565b5062001094929150620010e7565b5090565b6040518060a0016040528060608152602001606081526020016060815260200160006005811115620010da57634e487b7160e01b600052602160045260246000fd5b8152600060209091015290565b5b80821115620010945760008155600101620010e8565b80356001600160a01b038116811462000da857600080fd5b600082601f83011262001127578081fd5b81356200113e620011388262001a33565b62001a06565b81815284602083860101111562001153578283fd5b816020850160208301379081016020019190915292915050565b803560ff8116811462000da857600080fd5b60006020828403121562001191578081fd5b6200119c82620010fe565b9392505050565b600080600060608486031215620011b8578182fd5b620011c384620010fe565b9250620011d360208501620010fe565b9150620011e360408501620010fe565b90509250925092565b60008060408385031215620011ff578182fd5b6200120a83620010fe565b946020939093013593505050565b6000602082840312156200122a578081fd5b5051919050565b60006020828403121562001243578081fd5b815167ffffffffffffffff8111156200125a578182fd5b8201601f810184136200126b578182fd5b80516200127c620011388262001a33565b81815285602083850101111562001291578384fd5b620012a482602083016020860162001a5e565b95945050505050565b600080600080600060a08688031215620012c5578081fd5b853567ffffffffffffffff80821115620012dd578283fd5b620012eb89838a0162001116565b9650602088013591508082111562001301578283fd5b6200130f89838a0162001116565b9550604088013591508082111562001325578283fd5b50620013348882890162001116565b93505062001345606087016200116d565b91506200135560808701620010fe565b90509295509295909350565b600080600080600060a0868803121562001379578081fd5b853567ffffffffffffffff8082111562001391578283fd5b818801915061012080838b031215620013a8578384fd5b620013b38162001a06565b9050823582811115620013c4578485fd5b620013d28b82860162001116565b825250602083013582811115620013e7578485fd5b620013f58b82860162001116565b6020830152506040830135828111156200140d578485fd5b6200141b8b82860162001116565b60408301525060608301358281111562001433578485fd5b620014418b82860162001116565b60608301525060808301358281111562001459578485fd5b620014678b82860162001116565b60808301525060a0830135828111156200147f578485fd5b6200148d8b82860162001116565b60a08301525060c083013582811115620014a5578485fd5b620014b38b82860162001116565b60c08301525060e083013582811115620014cb578485fd5b620014d98b82860162001116565b60e0830152506101008084013583811115620014f3578586fd5b620015018c82870162001116565b8284015250508097505050506200151b60208701620010fe565b93506200152b60408701620010fe565b92506200134560608701620010fe565b600080604083850312156200154e578182fd5b62001559836200116d565b91506200156960208401620010fe565b90509250929050565b6001600160a01b03169052565b6000815180845260208085019450808401835b83811015620015b95781516001600160a01b03168752958201959082019060010162001592565b509495945050505050565b6000815180845260208085018081965082840281019150828601855b858110156200160e578284038952620015fb8483516200161b565b98850198935090840190600101620015e0565b5091979650505050505050565b600081518084526200163581602086016020860162001a5e565b601f01601f19169290920160200192915050565b600681106200166857634e487b7160e01b600052602160045260246000fd5b9052565b60609290921b6bffffffffffffffffffffffff19168252601482015260340190565b60008251620016a281846020870162001a5e565b9190910192915050565b6001600160a01b0391909116815260200190565b6001600160a01b0392831681529116602082015260400190565b6001600160a01b0388811682528716602082015260e0604082018190528651610120918301829052600091620017156102008501836200161b565b9150602089015160df196101008187860301818801526200173785846200161b565b945060408c015192508187860301848801526200175585846200161b565b945060608c0151935081878603016101408801526200177585856200161b565b945060808c0151935081878603016101608801526200179585856200161b565b945060a08c015193508187860301610180880152620017b585856200161b565b945060c08c0151935081878603016101a0880152620017d585856200161b565b945060e08c0151935081878603016101c0880152620017f585856200161b565b9450808c015193505080868503016101e087015250506200181782826200161b565b925050506200182a606083018762001572565b62001839608083018662001572565b6200184860a083018562001572565b6200185760c083018462001572565b98975050505050505050565b6000602082526200119c60208301846200157f565b6000606082526200188d60608301866200157f565b8281036020840152620018a18186620015c4565b90508281036040840152620018b78185620015c4565b9695505050505050565b6000602082526200119c60208301846200161b565b600060a08252620018eb60a08301886200161b565b8281036020840152620018ff81886200161b565b905082810360408401526200191581876200161b565b91505062001927606083018562001649565b6001600160a01b039290921660809190910152949350505050565b6020808252600d908201526c2737ba103a34329037bbb732b960991b604082015260600190565b600060208252825160a060208401526200198760c08401826200161b565b90506020840151601f1980858403016040860152620019a783836200161b565b9250604086015191508085840301606086015250620019c782826200161b565b9150506060840151620019de608085018262001649565b50608093909301516001600160a01b031660a092909201919091525090565b90815260200190565b60405181810167ffffffffffffffff8111828210171562001a2b5762001a2b62001af6565b604052919050565b600067ffffffffffffffff82111562001a505762001a5062001af6565b50601f01601f191660200190565b60005b8381101562001a7b57818101518382015260200162001a61565b8381111562001a8b576000848401525b50505050565b60028104600182168062001aa657607f821691505b6020821081141562001ac857634e487b7160e01b600052602260045260246000fd5b50919050565b600060001982141562001aef57634e487b7160e01b81526011600452602481fd5b5060010190565b634e487b7160e01b600052604160045260246000fdfe60e06040523480156200001157600080fd5b50604051620023d0380380620023d0833981016040819052620000349162000423565b6001600160a01b038716158015906200005557506001600160a01b03861615155b80156200006a57506001600160a01b03841615155b80156200007f57506001600160a01b03831615155b80156200009457506001600160a01b03821615155b8015620000a957506001600160a01b03811615155b620000b357600080fd5b6001600160601b0319606088811b821660805287901b1660a052845180518691600591620000e9918391602090910190620002c1565b506020828101518051620001049260018501920190620002c1565b506040820151805162000122916002840191602090910190620002c1565b506060820151805162000140916003840191602090910190620002c1565b50608082015180516200015e916004840191602090910190620002c1565b5060a082015180516200017c916005840191602090910190620002c1565b5060c082015180516200019a916006840191602090910190620002c1565b5060e08201518051620001b8916007840191602090910190620002c1565b506101008201518051620001d7916008840191602090910190620002c1565b505050606087901b6001600160601b03191660c052600080546001600160a01b03199081166001600160a01b038781169190911790925560018054821686841617905560028054821685841617905560038054909116918316919091179055600e805460ff19169055426004556200024f846200025c565b50505050505050620006d1565b6000816040516200026d9062000350565b6200027991906200063e565b604051809103906000f08015801562000296573d6000803e3d6000fd5b50600e80546001600160a01b0390921661010002610100600160a81b03199092169190911790555050565b828054620002cf906200067e565b90600052602060002090601f016020900481019282620002f357600085556200033e565b82601f106200030e57805160ff19168380011785556200033e565b828001600101855582156200033e579182015b828111156200033e57825182559160200191906001019062000321565b506200034c9291506200035e565b5090565b6106fa8062001cd683390190565b5b808211156200034c57600081556001016200035f565b80516001600160a01b03811681146200038d57600080fd5b919050565b600082601f830112620003a3578081fd5b81516001600160401b03811115620003bf57620003bf620006bb565b6020620003d5601f8301601f1916820162000652565b8281528582848701011115620003e9578384fd5b835b8381101562000408578581018301518282018401528201620003eb565b838111156200041957848385840101525b5095945050505050565b600080600080600080600060e0888a0312156200043e578283fd5b620004498862000375565b9650620004596020890162000375565b60408901519096506001600160401b038082111562000476578485fd5b818a01915061012080838d0312156200048d578586fd5b620004988162000652565b9050825182811115620004a9578687fd5b620004b78d82860162000392565b825250602083015182811115620004cc578687fd5b620004da8d82860162000392565b602083015250604083015182811115620004f2578687fd5b620005008d82860162000392565b60408301525060608301518281111562000518578687fd5b620005268d82860162000392565b6060830152506080830151828111156200053e578687fd5b6200054c8d82860162000392565b60808301525060a08301518281111562000564578687fd5b620005728d82860162000392565b60a08301525060c0830151828111156200058a578687fd5b620005988d82860162000392565b60c08301525060e083015182811115620005b0578687fd5b620005be8d82860162000392565b60e0830152506101008084015183811115620005d8578788fd5b620005e68e82870162000392565b828401525050809750505050620006006060890162000375565b9350620006106080890162000375565b92506200062060a0890162000375565b91506200063060c0890162000375565b905092959891949750929550565b6001600160a01b0391909116815260200190565b6040518181016001600160401b0381118282101715620006765762000676620006bb565b604052919050565b6002810460018216806200069357607f821691505b60208210811415620006b557634e487b7160e01b600052602260045260246000fd5b50919050565b634e487b7160e01b600052604160045260246000fd5b60805160601c60a05160601c60c05160601c6115be620007186000396000818161036401526108f40152600081816108d20152610f2c01526000610e7801526115be6000f3fe608060405234801561001057600080fd5b50600436106101215760003560e01c80637618bd6d116100ad578063d6fa196711610071578063d6fa196714610208578063d9f20edf1461021b578063e1009dfa14610223578063e7b9307a14610238578063ee2005821461024b57610121565b80637618bd6d146101cb5780638da5cb5b146101e8578063b3311086146101f0578063bfe10928146101f8578063c9cd4f2d1461020057610121565b80634176ee75116100f45780634176ee751461018157806341f10ea71461019657806342848c2a1461019e57806347041166146101a657806367bc4718146101ae57610121565b806312a42e23146101265780631ef3f1bd14610144578063200d2ed2146101595780633143d6031461016e575b600080fd5b61012e610253565b60405161013b919061126a565b60405180910390f35b61015761015236600461113e565b610262565b005b6101616102c3565b60405161013b91906114dd565b61015761017c36600461113e565b6102cc565b610189610321565b60405161013b919061152e565b61012e61034e565b61012e610362565b61012e610386565b6101b6610395565b60405161013b99989796959493929190611418565b6101d3610897565b60405161013b9998979695949392919061127e565b61012e610e76565b610189610e9a565b61012e610ea0565b61012e610eaf565b61015761021636600461115f565b610ebe565b61012e610f2a565b61022b610f4e565b60405161013b9190611405565b61015761024636600461113e565b610fe3565b61022b61102b565b6002546001600160a01b031681565b6001600160a01b0381166102915760405162461bcd60e51b815260040161028890611505565b60405180910390fd5b600080546001600160a01b0319166001600160a01b038316179055600e80546001919060ff191682805b021790555050565b600e5460ff1681565b6001600160a01b0381166102f25760405162461bcd60e51b815260040161028890611505565b600280546001600160a01b0319166001600160a01b038316179055600e80546003919060ff19166001836102bb565b600e5460009060ff16600381111561034957634e487b7160e01b600052602160045260246000fd5b905090565b600e5461010090046001600160a01b031681565b7f000000000000000000000000000000000000000000000000000000000000000081565b6003546001600160a01b031681565b6005805481906103a490611537565b80601f01602080910402602001604051908101604052809291908181526020018280546103d090611537565b801561041d5780601f106103f25761010080835404028352916020019161041d565b820191906000526020600020905b81548152906001019060200180831161040057829003601f168201915b50505050509080600101805461043290611537565b80601f016020809104026020016040519081016040528092919081815260200182805461045e90611537565b80156104ab5780601f10610480576101008083540402835291602001916104ab565b820191906000526020600020905b81548152906001019060200180831161048e57829003601f168201915b5050505050908060020180546104c090611537565b80601f01602080910402602001604051908101604052809291908181526020018280546104ec90611537565b80156105395780601f1061050e57610100808354040283529160200191610539565b820191906000526020600020905b81548152906001019060200180831161051c57829003601f168201915b50505050509080600301805461054e90611537565b80601f016020809104026020016040519081016040528092919081815260200182805461057a90611537565b80156105c75780601f1061059c576101008083540402835291602001916105c7565b820191906000526020600020905b8154815290600101906020018083116105aa57829003601f168201915b5050505050908060040180546105dc90611537565b80601f016020809104026020016040519081016040528092919081815260200182805461060890611537565b80156106555780601f1061062a57610100808354040283529160200191610655565b820191906000526020600020905b81548152906001019060200180831161063857829003601f168201915b50505050509080600501805461066a90611537565b80601f016020809104026020016040519081016040528092919081815260200182805461069690611537565b80156106e35780601f106106b8576101008083540402835291602001916106e3565b820191906000526020600020905b8154815290600101906020018083116106c657829003601f168201915b5050505050908060060180546106f890611537565b80601f016020809104026020016040519081016040528092919081815260200182805461072490611537565b80156107715780601f1061074657610100808354040283529160200191610771565b820191906000526020600020905b81548152906001019060200180831161075457829003601f168201915b50505050509080600701805461078690611537565b80601f01602080910402602001604051908101604052809291908181526020018280546107b290611537565b80156107ff5780601f106107d4576101008083540402835291602001916107ff565b820191906000526020600020905b8154815290600101906020018083116107e257829003601f168201915b50505050509080600801805461081490611537565b80601f016020809104026020016040519081016040528092919081815260200182805461084090611537565b801561088d5780601f106108625761010080835404028352916020019161088d565b820191906000526020600020905b81548152906001019060200180831161087057829003601f168201915b5050505050905089565b60006108a161103d565b60008054600154600254600354600e54600454604080516101208101909152600580548998899889988998899889987f0000000000000000000000000000000000000000000000000000000000000000987f0000000000000000000000000000000000000000000000000000000000000000976001600160a01b03978816979687169695861695948516946101009094049093169289908290829061094590611537565b80601f016020809104026020016040519081016040528092919081815260200182805461097190611537565b80156109be5780601f10610993576101008083540402835291602001916109be565b820191906000526020600020905b8154815290600101906020018083116109a157829003601f168201915b505050505081526020016001820180546109d790611537565b80601f0160208091040260200160405190810160405280929190818152602001828054610a0390611537565b8015610a505780601f10610a2557610100808354040283529160200191610a50565b820191906000526020600020905b815481529060010190602001808311610a3357829003601f168201915b50505050508152602001600282018054610a6990611537565b80601f0160208091040260200160405190810160405280929190818152602001828054610a9590611537565b8015610ae25780601f10610ab757610100808354040283529160200191610ae2565b820191906000526020600020905b815481529060010190602001808311610ac557829003601f168201915b50505050508152602001600382018054610afb90611537565b80601f0160208091040260200160405190810160405280929190818152602001828054610b2790611537565b8015610b745780601f10610b4957610100808354040283529160200191610b74565b820191906000526020600020905b815481529060010190602001808311610b5757829003601f168201915b50505050508152602001600482018054610b8d90611537565b80601f0160208091040260200160405190810160405280929190818152602001828054610bb990611537565b8015610c065780601f10610bdb57610100808354040283529160200191610c06565b820191906000526020600020905b815481529060010190602001808311610be957829003601f168201915b50505050508152602001600582018054610c1f90611537565b80601f0160208091040260200160405190810160405280929190818152602001828054610c4b90611537565b8015610c985780601f10610c6d57610100808354040283529160200191610c98565b820191906000526020600020905b815481529060010190602001808311610c7b57829003601f168201915b50505050508152602001600682018054610cb190611537565b80601f0160208091040260200160405190810160405280929190818152602001828054610cdd90611537565b8015610d2a5780601f10610cff57610100808354040283529160200191610d2a565b820191906000526020600020905b815481529060010190602001808311610d0d57829003601f168201915b50505050508152602001600782018054610d4390611537565b80601f0160208091040260200160405190810160405280929190818152602001828054610d6f90611537565b8015610dbc5780601f10610d9157610100808354040283529160200191610dbc565b820191906000526020600020905b815481529060010190602001808311610d9f57829003601f168201915b50505050508152602001600882018054610dd590611537565b80601f0160208091040260200160405190810160405280929190818152602001828054610e0190611537565b8015610e4e5780601f10610e2357610100808354040283529160200191610e4e565b820191906000526020600020905b815481529060010190602001808311610e3157829003601f168201915b5050505050815250509750985098509850985098509850985098509850909192939495969798565b7f000000000000000000000000000000000000000000000000000000000000000081565b60045481565b6000546001600160a01b031681565b6001546001600160a01b031681565b8151610ed190600d906020850190611089565b506001600160a01b038116610ef85760405162461bcd60e51b815260040161028890611505565b600180546001600160a01b03929092166001600160a01b031990921691909117905550600e805460ff19166002179055565b7f000000000000000000000000000000000000000000000000000000000000000081565b606060056000018054610f6090611537565b80601f0160208091040260200160405190810160405280929190818152602001828054610f8c90611537565b8015610fd95780601f10610fae57610100808354040283529160200191610fd9565b820191906000526020600020905b815481529060010190602001808311610fbc57829003601f168201915b5050505050905090565b6001600160a01b0381166110095760405162461bcd60e51b815260040161028890611505565b600180546001600160a01b0319166001600160a01b0392909216919091179055565b606060056004018054610f6090611537565b6040518061012001604052806060815260200160608152602001606081526020016060815260200160608152602001606081526020016060815260200160608152602001606081525090565b82805461109590611537565b90600052602060002090601f0160209004810192826110b757600085556110fd565b82601f106110d057805160ff19168380011785556110fd565b828001600101855582156110fd579182015b828111156110fd5782518255916020019190600101906110e2565b5061110992915061110d565b5090565b5b80821115611109576000815560010161110e565b80356001600160a01b038116811461113957600080fd5b919050565b60006020828403121561114f578081fd5b61115882611122565b9392505050565b60008060408385031215611171578081fd5b823567ffffffffffffffff80821115611188578283fd5b818501915085601f83011261119b578283fd5b81356020828211156111af576111af611572565b604051601f8301601f19168101820184811182821017156111d2576111d2611572565b60405282815284830182018910156111e8578586fd5b828286018383013780830182018690529550611205878201611122565b9450505050509250929050565b6001600160a01b03169052565b60008151808452815b8181101561124457602081850181015186830182015201611228565b818111156112555782602083870101525b50601f01601f19169290920160200192915050565b6001600160a01b0391909116815260200190565b600061012060018060a01b038c1683528060208401528a5181828501526112a961024085018261121f565b91505060208b015161011f1980858403016101408601526112ca838361121f565b925060408d0151915080858403016101608601526112e8838361121f565b925060608d015191508085840301610180860152611306838361121f565b925060808d0151915080858403016101a0860152611324838361121f565b925060a08d0151915080858403016101c0860152611342838361121f565b925060c08d0151915080858403016101e0860152611360838361121f565b925060e08d01519150808584030161020086015261137e838361121f565b92506101009150818d0151818685030161022087015261139e848261121f565b945050506113af604085018c611212565b6113bc606085018b611212565b6113c9608085018a611212565b6113d660a0850189611212565b6113e360c0850188611212565b6113f060e0850187611212565b848185015250509a9950505050505050505050565b600060208252611158602083018461121f565b600061012080835261142c8184018d61121f565b90508281036020840152611440818c61121f565b90508281036040840152611454818b61121f565b90508281036060840152611468818a61121f565b9050828103608084015261147c818961121f565b905082810360a0840152611490818861121f565b905082810360c08401526114a4818761121f565b905082810360e08401526114b8818661121f565b90508281036101008401526114cd818561121f565b9c9b505050505050505050505050565b60208101600483106114ff57634e487b7160e01b600052602160045260246000fd5b91905290565b6020808252600f908201526e496e76616c6964206164647265737360881b604082015260600190565b90815260200190565b60028104600182168061154b57607f821691505b6020821081141561156c57634e487b7160e01b600052602260045260246000fd5b50919050565b634e487b7160e01b600052604160045260246000fdfea26469706673582212204dbca70da57b8c778e11bd99636dee3a33f56d2e6b527119abeac3c3cdc445c164736f6c6343000800003360a0604052600060015534801561001557600080fd5b506040516106fa3803806106fa8339810160408190526100349161005c565b6001600160a01b03811661004757600080fd5b60601b6001600160601b03191660805261008a565b60006020828403121561006d578081fd5b81516001600160a01b0381168114610083578182fd5b9392505050565b60805160601c6106536100a7600039600060df01526106536000f3fe608060405234801561001057600080fd5b50600436106100575760003560e01c806302d05d3f1461005c57806327506f531461007a57806378ce13651461008f5780639ace38c2146100a45780639e9ab89b146100c8575b600080fd5b6100646100dd565b60405161007191906104c0565b60405180910390f35b610082610101565b60405161007191906104d4565b610097610215565b60405161007191906105b4565b6100b76100b23660046104a8565b61021b565b60405161007195949392919061054e565b6100db6100d6366004610465565b610256565b005b7f000000000000000000000000000000000000000000000000000000000000000081565b60015460609060008167ffffffffffffffff81111561013057634e487b7160e01b600052604160045260246000fd5b60405190808252806020026020018201604052801561016957816020015b61015661041b565b81526020019060019003908161014e5790505b50905060005b8281101561020e5760008181526020818152604091829020825160a0810184528154815260018201546001600160a01b039081169382019390935260028201549092169282019290925260038201546060820152600490910154608082015282518390839081106101f057634e487b7160e01b600052603260045260246000fd5b60200260200101819052508080610206906105ec565b91505061016f565b5091505090565b60015481565b6000602081905290815260409020805460018201546002830154600384015460049094015492936001600160a01b0392831693929091169185565b60015443906102eb576040805160a0810182528681526001600160a01b0380871660208084019182528783168486019081526060850188815260808601888152600180546000908152948590529790932095518655925195850180549685166001600160a01b0319978816179055516002850180549190941695169490941790915551600382015590516004909101556103bd565b81600080600180546102fd91906105d5565b815260200190815260200160002060000154146103355760405162461bcd60e51b815260040161032c9061057d565b60405180910390fd5b6040805160a0810182528681526001600160a01b0380871660208084019182528783168486019081526060850188815260808601888152600180546000908152948590529790932095518655925195850180549685166001600160a01b0319978816179055516002850180549190941695169490941790915551600382015590516004909101555b60018060008282546103cf91906105bd565b90915550506040517f08ce16702f64d2cdc93c2d36818cee685abd25dcf25f93b5008c07c328652bb69061040c908790879087908790879061054e565b60405180910390a15050505050565b6040805160a08101825260008082526020820181905291810182905260608101829052608081019190915290565b80356001600160a01b038116811461046057600080fd5b919050565b6000806000806080858703121561047a578384fd5b8435935061048a60208601610449565b925061049860408601610449565b9396929550929360600135925050565b6000602082840312156104b9578081fd5b5035919050565b6001600160a01b0391909116815260200190565b602080825282518282018190526000919060409081850190868401855b8281101561054157815180518552868101516001600160a01b0390811688870152868201511686860152606080820151908601526080908101519085015260a090930192908501906001016104f1565b5091979650505050505050565b9485526001600160a01b0393841660208601529190921660408401526060830191909152608082015260a00190565b6020808252601b908201527f5472616e73616374696f6e206572726f72206f63637572726564210000000000604082015260600190565b90815260200190565b600082198211156105d0576105d0610607565b500190565b6000828210156105e7576105e7610607565b500390565b600060001982141561060057610600610607565b5060010190565b634e487b7160e01b600052601160045260246000fdfea264697066735822122066815cd6d3b2b092d9963d8f562dd7f1d623f22c22d6ab0f90474b19915f3ffc64736f6c63430008000033a264697066735822122070675e7ac5f162d961a46259d2a52b05979e1475abd8199a5c47e27fd1fd44ef64736f6c63430008000033",
  "immutableReferences": {
    "497": [
      {
        "length": 32,
        "start": 1605
      },
      {
        "length": 32,
        "start": 3503
      },
      {
        "length": 32,
        "start": 3691
      }
    ]
  },
  "source": "// SPDX-License-Identifier: GPL-3.0\r\npragma solidity ^0.8.0;\r\npragma experimental ABIEncoderV2;\r\n\r\nimport \"./RawAlkes.sol\";\r\nimport \"./DataGeneratedId.sol\";\r\n\r\ncontract SupplyChain {\r\n    address public immutable owner;\r\n\r\n    constructor() {\r\n        owner = msg.sender;\r\n    }\r\n\r\n    modifier onlyOwner() {\r\n        require(owner == msg.sender, \"Not the owner\");\r\n        _;\r\n    }\r\n\r\n    enum Roles {\r\n        NoRole,\r\n        Manufaktur,\r\n        Distributor,\r\n        Kemenkes,\r\n        RumahSakit,\r\n        Customer\r\n    }\r\n\r\n    struct UserData {\r\n        bytes name;\r\n        bytes email;\r\n        bytes noTelp;\r\n        Roles role;\r\n        address userAddr;\r\n    }\r\n\r\n    struct SupplyChainAlkesDetails {\r\n        bytes namaAlkes;\r\n        bytes deskripsiAlkes;\r\n        bytes kategori_alkes;\r\n        bytes subkategori_alkes;\r\n        bytes klasifikasiAlkes;\r\n        bytes tipeAlkes;\r\n        bytes kelasResiko;\r\n        bytes kuantitas;\r\n        bytes noIzinEdar;\r\n    }\r\n    struct DataGeneratedIdSupply {\r\n        // address id_informasi;\r\n        bytes id_produk;\r\n    }\r\n\r\n    mapping(address => UserData) public userInfo;\r\n\r\n    event UserRegister(address indexed _address, bytes name);\r\n    event RequestEvent(\r\n        address indexed distributor,\r\n        address indexed manufaktur,\r\n        address alkesAddr,\r\n        uint indexed timestamp\r\n    );\r\n    event IzinEvent(\r\n        address indexed distributor,\r\n        address indexed kemenkes,\r\n        address alkesAddr,\r\n        uint indexed timestamp\r\n    );\r\n    event RsEvent(\r\n        address rs,\r\n        address indexed distributor,\r\n        address alkesAddr,\r\n        uint indexed timestamp\r\n    );\r\n    event PasienEvent(\r\n        address pasien,\r\n        address indexed faskes,\r\n        address alkesAddr,\r\n        uint indexed timestamp\r\n    );\r\n\r\n    function requestProduct(\r\n        address distributor,\r\n        address manufaktur,\r\n        address packageAddr\r\n    ) public {\r\n        emit RequestEvent(\r\n            distributor,\r\n            manufaktur,\r\n            packageAddr,\r\n            block.timestamp\r\n        );\r\n    }\r\n\r\n    function izinRequest(\r\n        address distributor,\r\n        address kemenkes,\r\n        address alkesAddr\r\n    ) public {\r\n        emit IzinEvent(distributor, kemenkes, alkesAddr, block.timestamp);\r\n    }\r\n\r\n    function reqAlkesRs(\r\n        address rs,\r\n        address distributor,\r\n        address alkesAddr\r\n    ) public {\r\n        emit RsEvent(rs, distributor, alkesAddr, block.timestamp);\r\n    }\r\n\r\n    function reqAlkesPasien(\r\n        address pasien,\r\n        address faskes,\r\n        address alkesAddr\r\n    ) public {\r\n        emit PasienEvent(pasien, faskes, alkesAddr, block.timestamp);\r\n    }\r\n\r\n    function registerUser(\r\n        bytes memory name,\r\n        bytes memory email,\r\n        bytes memory noTelp,\r\n        uint8 role,\r\n        address userAddr\r\n    ) public onlyOwner {\r\n        userInfo[userAddr] = UserData({\r\n            name: name,\r\n            email: email,\r\n            noTelp: noTelp,\r\n            role: Roles(role),\r\n            userAddr: userAddr\r\n        });\r\n\r\n        emit UserRegister(userAddr, name);\r\n    }\r\n\r\n    function changeUserRole(uint8 role, address addr) public onlyOwner {\r\n        userInfo[addr].role = Roles(role);\r\n    }\r\n\r\n    function getUserInfo(address addr) public view returns (UserData memory) {\r\n        return userInfo[addr];\r\n    }\r\n\r\n    mapping(address => address[]) public dataAlkesManufaktur;\r\n    // mapping(address => address[]) public dataGeneratedIds;\r\n\r\n    function createAlkesManufaktur(\r\n        SupplyChainAlkesDetails memory alkesDetails,\r\n        address distributorAddr,\r\n        address kemenkesAddr,\r\n        address rumahSakitAddr,\r\n        address pasieAddr\r\n        // DataGeneratedIdSupply[] memory generatedIds\r\n    )\r\n        public\r\n        returns (\r\n            // GeneratedIdsData memory generatedIds\r\n            address\r\n        )\r\n    {\r\n        bytes20 alkesId = bytes20(\r\n            sha256(abi.encodePacked(msg.sender, block.timestamp))\r\n        );\r\n        RawAlkes alkes = new RawAlkes(\r\n            msg.sender,\r\n            address(alkesId),\r\n            RawAlkes.AlkesDetails({\r\n                namaAlkes: alkesDetails.namaAlkes,\r\n                deskripsiAlkes: alkesDetails.deskripsiAlkes,\r\n                kategori_alkes: alkesDetails.kategori_alkes,\r\n                subkategori_alkes: alkesDetails.subkategori_alkes,\r\n                klasifikasiAlkes: alkesDetails.klasifikasiAlkes,\r\n                tipeAlkes: alkesDetails.tipeAlkes,\r\n                kelasResiko: alkesDetails.kelasResiko,\r\n                kuantitas: alkesDetails.kuantitas,\r\n                noIzinEdar: alkesDetails.noIzinEdar\r\n            }),\r\n            distributorAddr,\r\n            kemenkesAddr,\r\n            rumahSakitAddr,\r\n            pasieAddr\r\n        );\r\n        address alkesAddress = address(alkes);\r\n        dataAlkesManufaktur[msg.sender].push(address(alkes));\r\n\r\n        // for (uint i = 0; i < generatedIds.length; i++) {\r\n        //     DataGeneratedId data = new DataGeneratedId(\r\n        //         alkesAddress,\r\n        //         generatedIds[i].id_produk,\r\n        //         alkesAddress\r\n        //     );\r\n        //     dataGeneratedIds[msg.sender].push(address(data));\r\n        // }\r\n\r\n        return address(alkesAddress);\r\n    }\r\n\r\n    function getNoOfPackagesOfSupplier() public view returns (uint) {\r\n        return dataAlkesManufaktur[msg.sender].length;\r\n    }\r\n\r\n    function getAllPackages() public view returns (address[] memory) {\r\n        return dataAlkesManufaktur[msg.sender];\r\n    }\r\n\r\n    // function getAllId()\r\n    //     public\r\n    //     view\r\n    //     returns (address[] memory addr,address[] memory id_informasi, bytes[] memory id_produk)\r\n    // {\r\n    //     uint len = dataGeneratedIds[msg.sender].length;\r\n    //     addr = new address[](len);\r\n    //     id_informasi = new address[](len);\r\n    //     id_produk = new bytes[](len);\r\n\r\n    //     for (uint i = 0; i < len; i++) {\r\n    //         address addrId = dataGeneratedIds[msg.sender][i];\r\n    //         DataGeneratedId data = DataGeneratedId(addrId);\r\n    //         // console.log(alkesNew);\r\n    //         addr[i]= addrId;\r\n    //         id_informasi[i] = data.getInformasi();\r\n    //         id_produk[i] = data.getProduk();\r\n    //     }\r\n\r\n    //     return (addr, id_informasi, id_produk);\r\n    // }\r\n\r\n    function getAllPackagesData()\r\n        public\r\n        view\r\n        returns (\r\n            address[] memory retAddress,\r\n            bytes[] memory retNamaAlkes,\r\n            bytes[] memory retKlasifikasi\r\n        )\r\n    {\r\n        uint len = dataAlkesManufaktur[msg.sender].length;\r\n        retAddress = new address[](len);\r\n        retNamaAlkes = new bytes[](len);\r\n        retKlasifikasi = new bytes[](len);\r\n\r\n        for (uint i = 0; i < len; i++) {\r\n            address alkesAddr = dataAlkesManufaktur[msg.sender][i];\r\n            RawAlkes alkesNew = RawAlkes(alkesAddr);\r\n\r\n            // console.log(alkesNew);\r\n            retAddress[i] = alkesAddr;\r\n            retNamaAlkes[i] = alkesNew.getNamaAlkes();\r\n            retKlasifikasi[i] = alkesNew.getKlasifikasiALkes();\r\n        }\r\n\r\n        return (retAddress, retNamaAlkes, retKlasifikasi);\r\n    }\r\n}\r\n",
  "sourcePath": "D:\\ACTIVITY\\SEM 8\\0. SKRIPSI\\REF\\WEB\\alkes-blockchain\\contracts\\SupplyChain.sol",
  "compiler": {
    "name": "solc",
    "version": "0.8.0+commit.c7dfd78e.Emscripten.clang"
  },
  "schemaVersion": "3.4.16",
  "updatedAt": "2024-01-26T19:14:45.148Z",
  "networkType": "ethereum",
  "devdoc": {
    "kind": "dev",
    "methods": {},
    "version": 1
  },
  "userdoc": {
    "kind": "user",
    "methods": {},
    "version": 1
  }
}