{
  "contractName": "Transactions",
  "abi": [
    {
      "inputs": [
        {
          "internalType": "address",
          "name": "_creator",
          "type": "address"
        }
      ],
      "stateMutability": "nonpayable",
      "type": "constructor"
    },
    {
      "anonymous": false,
      "inputs": [
        {
          "indexed": false,
          "internalType": "bytes32",
          "name": "_txnHash",
          "type": "bytes32"
        },
        {
          "indexed": false,
          "internalType": "address",
          "name": "_from",
          "type": "address"
        },
        {
          "indexed": false,
          "internalType": "address",
          "name": "_to",
          "type": "address"
        },
        {
          "indexed": false,
          "internalType": "bytes32",
          "name": "_prev",
          "type": "bytes32"
        },
        {
          "indexed": false,
          "internalType": "uint256",
          "name": "_timestamp",
          "type": "uint256"
        }
      ],
      "name": "TxnCreated",
      "type": "event"
    },
    {
      "inputs": [],
      "name": "creator",
      "outputs": [
        {
          "internalType": "address",
          "name": "",
          "type": "address"
        }
      ],
      "stateMutability": "view",
      "type": "function"
    },
    {
      "inputs": [
        {
          "internalType": "uint256",
          "name": "",
          "type": "uint256"
        }
      ],
      "name": "transactions",
      "outputs": [
        {
          "internalType": "bytes32",
          "name": "txnHash",
          "type": "bytes32"
        },
        {
          "internalType": "address",
          "name": "fromAddr",
          "type": "address"
        },
        {
          "internalType": "address",
          "name": "toAddr",
          "type": "address"
        },
        {
          "internalType": "bytes32",
          "name": "prevTxn",
          "type": "bytes32"
        },
        {
          "internalType": "uint256",
          "name": "timestamp",
          "type": "uint256"
        }
      ],
      "stateMutability": "view",
      "type": "function"
    },
    {
      "inputs": [],
      "name": "txnCount",
      "outputs": [
        {
          "internalType": "uint256",
          "name": "",
          "type": "uint256"
        }
      ],
      "stateMutability": "view",
      "type": "function"
    },
    {
      "inputs": [
        {
          "internalType": "bytes32",
          "name": "txnHash",
          "type": "bytes32"
        },
        {
          "internalType": "address",
          "name": "from",
          "type": "address"
        },
        {
          "internalType": "address",
          "name": "to",
          "type": "address"
        },
        {
          "internalType": "bytes32",
          "name": "prev",
          "type": "bytes32"
        }
      ],
      "name": "createTxnEntry",
      "outputs": [],
      "stateMutability": "nonpayable",
      "type": "function"
    },
    {
      "inputs": [],
      "name": "getAllTransactions",
      "outputs": [
        {
          "components": [
            {
              "internalType": "bytes32",
              "name": "txnHash",
              "type": "bytes32"
            },
            {
              "internalType": "address",
              "name": "fromAddr",
              "type": "address"
            },
            {
              "internalType": "address",
              "name": "toAddr",
              "type": "address"
            },
            {
              "internalType": "bytes32",
              "name": "prevTxn",
              "type": "bytes32"
            },
            {
              "internalType": "uint256",
              "name": "timestamp",
              "type": "uint256"
            }
          ],
          "internalType": "struct Transactions.Txns[]",
          "name": "",
          "type": "tuple[]"
        }
      ],
      "stateMutability": "view",
      "type": "function"
    }
  ],
  "bytecode": "0x60a0604052600060015534801561001557600080fd5b506040516106fa3803806106fa8339810160408190526100349161005c565b6001600160a01b03811661004757600080fd5b60601b6001600160601b03191660805261008a565b60006020828403121561006d578081fd5b81516001600160a01b0381168114610083578182fd5b9392505050565b60805160601c6106536100a7600039600060df01526106536000f3fe608060405234801561001057600080fd5b50600436106100575760003560e01c806302d05d3f1461005c57806327506f531461007a57806378ce13651461008f5780639ace38c2146100a45780639e9ab89b146100c8575b600080fd5b6100646100dd565b60405161007191906104c0565b60405180910390f35b610082610101565b60405161007191906104d4565b610097610215565b60405161007191906105b4565b6100b76100b23660046104a8565b61021b565b60405161007195949392919061054e565b6100db6100d6366004610465565b610256565b005b7f000000000000000000000000000000000000000000000000000000000000000081565b60015460609060008167ffffffffffffffff81111561013057634e487b7160e01b600052604160045260246000fd5b60405190808252806020026020018201604052801561016957816020015b61015661041b565b81526020019060019003908161014e5790505b50905060005b8281101561020e5760008181526020818152604091829020825160a0810184528154815260018201546001600160a01b039081169382019390935260028201549092169282019290925260038201546060820152600490910154608082015282518390839081106101f057634e487b7160e01b600052603260045260246000fd5b60200260200101819052508080610206906105ec565b91505061016f565b5091505090565b60015481565b6000602081905290815260409020805460018201546002830154600384015460049094015492936001600160a01b0392831693929091169185565b60015443906102eb576040805160a0810182528681526001600160a01b0380871660208084019182528783168486019081526060850188815260808601888152600180546000908152948590529790932095518655925195850180549685166001600160a01b0319978816179055516002850180549190941695169490941790915551600382015590516004909101556103bd565b81600080600180546102fd91906105d5565b815260200190815260200160002060000154146103355760405162461bcd60e51b815260040161032c9061057d565b60405180910390fd5b6040805160a0810182528681526001600160a01b0380871660208084019182528783168486019081526060850188815260808601888152600180546000908152948590529790932095518655925195850180549685166001600160a01b0319978816179055516002850180549190941695169490941790915551600382015590516004909101555b60018060008282546103cf91906105bd565b90915550506040517f08ce16702f64d2cdc93c2d36818cee685abd25dcf25f93b5008c07c328652bb69061040c908790879087908790879061054e565b60405180910390a15050505050565b6040805160a08101825260008082526020820181905291810182905260608101829052608081019190915290565b80356001600160a01b038116811461046057600080fd5b919050565b6000806000806080858703121561047a578384fd5b8435935061048a60208601610449565b925061049860408601610449565b9396929550929360600135925050565b6000602082840312156104b9578081fd5b5035919050565b6001600160a01b0391909116815260200190565b602080825282518282018190526000919060409081850190868401855b8281101561054157815180518552868101516001600160a01b0390811688870152868201511686860152606080820151908601526080908101519085015260a090930192908501906001016104f1565b5091979650505050505050565b9485526001600160a01b0393841660208601529190921660408401526060830191909152608082015260a00190565b6020808252601b908201527f5472616e73616374696f6e206572726f72206f63637572726564210000000000604082015260600190565b90815260200190565b600082198211156105d0576105d0610607565b500190565b6000828210156105e7576105e7610607565b500390565b600060001982141561060057610600610607565b5060010190565b634e487b7160e01b600052601160045260246000fdfea264697066735822122066815cd6d3b2b092d9963d8f562dd7f1d623f22c22d6ab0f90474b19915f3ffc64736f6c63430008000033",
  "immutableReferences": {
    "978": [
      {
        "length": 32,
        "start": 223
      }
    ]
  },
  "source": "// SPDX-License-Identifier: MIT\r\npragma solidity ^0.8.0;\r\npragma experimental ABIEncoderV2;\r\n\r\ncontract Transactions {\r\n\r\n\r\n\r\n    address public immutable creator;\r\n\r\n\r\n\r\n\r\n    struct Txns {\r\n        bytes32 txnHash;\r\n        address fromAddr;\r\n        address toAddr;\r\n        bytes32 prevTxn;\r\n        uint timestamp;\r\n    }\r\n\r\n    mapping(uint => Txns) public transactions;\r\n    uint public txnCount = 0;\r\n\r\n    event TxnCreated(\r\n        bytes32 _txnHash,\r\n        address _from,\r\n        address _to,\r\n        bytes32 _prev,\r\n        uint _timestamp\r\n    );\r\n\r\n    constructor(address _creator) {\r\n        require(_creator != address(0));\r\n        creator = _creator;\r\n    }\r\n\r\n    // function createTxnEntry(\r\n    //     bytes32 _txnHash,\r\n    //     address _from,\r\n    //     address _to,\r\n    //     bytes32 _prev\r\n    // ) public {\r\n    //     uint _timestamp = block.timestamp;\r\n    //     if (txnCount == 0) {\r\n    //         transactions[txnCount] = Txns(\r\n    //             _txnHash,\r\n    //             _from,\r\n    //             _to,\r\n    //             _prev,\r\n    //             _timestamp\r\n    //         );\r\n    //     } else {\r\n    //         require(\r\n    //             transactions[txnCount - 1].txnHash == _prev,\r\n    //             \"Transaction error occurred!\"\r\n    //         );\r\n    //         transactions[txnCount] = Txns(\r\n    //             _txnHash,\r\n    //             _from,\r\n    //             _to,\r\n    //             _prev,\r\n    //             _timestamp\r\n    //         );\r\n    //     }\r\n    //     txnCount += 1;\r\n    //     emit TxnCreated(_txnHash, _from, _to, _prev, _timestamp);\r\n    // }\r\n\r\n   \r\n    function createTxnEntry(\r\n        bytes32 txnHash,\r\n        address from,\r\n        address to,\r\n        bytes32 prev\r\n    ) \r\n    \r\n    \r\n    public {\r\n        uint blockNumber = block.number;\r\n        if (txnCount == 0) {\r\n            transactions[txnCount] = Txns(\r\n                txnHash,\r\n                from,\r\n                to,\r\n                prev,\r\n                blockNumber\r\n            );\r\n        } else {\r\n            require(\r\n                transactions[txnCount - 1].txnHash == prev,\r\n                \"Transaction error occurred!\"\r\n            );\r\n            transactions[txnCount] = Txns(\r\n                txnHash,\r\n                from,\r\n                to,\r\n                prev,\r\n                blockNumber\r\n            );\r\n        }\r\n        txnCount += 1;\r\n        emit TxnCreated(txnHash, from, to, prev, blockNumber);\r\n    }\r\n\r\n    function getAllTransactions() public view returns (Txns[] memory) {\r\n        uint len = txnCount;\r\n        Txns[] memory ret = new Txns[](len);\r\n        for (uint i = 0; i < len; i++) {\r\n            ret[i] = transactions[i];\r\n        }\r\n        return ret;\r\n    }\r\n}\r\n",
  "sourcePath": "D:\\ACTIVITY\\SEM 8\\0. SKRIPSI\\REF\\WEB\\alkes-blockchain\\contracts\\Transactions.sol",
  "compiler": {
    "name": "solc",
    "version": "0.8.0+commit.c7dfd78e.Emscripten.clang"
  },
  "schemaVersion": "3.4.16",
  "updatedAt": "2024-01-26T19:14:38.686Z",
  "devdoc": {
    "kind": "dev",
    "methods": {},
    "version": 1
  },
  "userdoc": {
    "kind": "user",
    "methods": {},
    "version": 1
  }
}