{
  "contractName": "Transactions",
  "abi": [
    {
      "inputs": [
        {
          "internalType": "address",
          "name": "_creator",
          "type": "address"
        }
      ],
      "stateMutability": "nonpayable",
      "type": "constructor"
    },
    {
      "anonymous": false,
      "inputs": [
        {
          "indexed": false,
          "internalType": "bytes32",
          "name": "_txnHash",
          "type": "bytes32"
        },
        {
          "indexed": false,
          "internalType": "address",
          "name": "_from",
          "type": "address"
        },
        {
          "indexed": false,
          "internalType": "address",
          "name": "_to",
          "type": "address"
        },
        {
          "indexed": false,
          "internalType": "bytes32",
          "name": "_prev",
          "type": "bytes32"
        },
        {
          "indexed": false,
          "internalType": "uint256",
          "name": "_timestamp",
          "type": "uint256"
        }
      ],
      "name": "TxnCreated",
      "type": "event"
    },
    {
      "inputs": [],
      "name": "creator",
      "outputs": [
        {
          "internalType": "address",
          "name": "",
          "type": "address"
        }
      ],
      "stateMutability": "view",
      "type": "function"
    },
    {
      "inputs": [
        {
          "internalType": "uint256",
          "name": "",
          "type": "uint256"
        }
      ],
      "name": "transactions",
      "outputs": [
        {
          "internalType": "bytes32",
          "name": "txnHash",
          "type": "bytes32"
        },
        {
          "internalType": "address",
          "name": "fromAddr",
          "type": "address"
        },
        {
          "internalType": "address",
          "name": "toAddr",
          "type": "address"
        },
        {
          "internalType": "bytes32",
          "name": "prevTxn",
          "type": "bytes32"
        },
        {
          "internalType": "uint256",
          "name": "timestamp",
          "type": "uint256"
        }
      ],
      "stateMutability": "view",
      "type": "function"
    },
    {
      "inputs": [],
      "name": "txnCount",
      "outputs": [
        {
          "internalType": "uint256",
          "name": "",
          "type": "uint256"
        }
      ],
      "stateMutability": "view",
      "type": "function"
    },
    {
      "inputs": [
        {
          "internalType": "bytes32",
          "name": "txnHash",
          "type": "bytes32"
        },
        {
          "internalType": "address",
          "name": "from",
          "type": "address"
        },
        {
          "internalType": "address",
          "name": "to",
          "type": "address"
        },
        {
          "internalType": "bytes32",
          "name": "prev",
          "type": "bytes32"
        }
      ],
      "name": "createTxnEntry",
      "outputs": [],
      "stateMutability": "nonpayable",
      "type": "function"
    },
    {
      "inputs": [],
      "name": "getAllTransactions",
      "outputs": [
        {
          "components": [
            {
              "internalType": "bytes32",
              "name": "txnHash",
              "type": "bytes32"
            },
            {
              "internalType": "address",
              "name": "fromAddr",
              "type": "address"
            },
            {
              "internalType": "address",
              "name": "toAddr",
              "type": "address"
            },
            {
              "internalType": "bytes32",
              "name": "prevTxn",
              "type": "bytes32"
            },
            {
              "internalType": "uint256",
              "name": "timestamp",
              "type": "uint256"
            }
          ],
          "internalType": "struct Transactions.Txns[]",
          "name": "",
          "type": "tuple[]"
        }
      ],
      "stateMutability": "view",
      "type": "function"
    }
  ],
  "bytecode": "0x6080604052600060025534801561001557600080fd5b506040516106f53803806106f58339810160408190526100349161006c565b6001600160a01b03811661004757600080fd5b600080546001600160a01b0319166001600160a01b039290921691909117905561009a565b60006020828403121561007d578081fd5b81516001600160a01b0381168114610093578182fd5b9392505050565b61064c806100a96000396000f3fe608060405234801561001057600080fd5b50600436106100575760003560e01c806302d05d3f1461005c57806327506f531461007a57806378ce13651461008f5780639ace38c2146100a45780639e9ab89b146100c8575b600080fd5b6100646100dd565b60405161007191906104b9565b60405180910390f35b6100826100ec565b60405161007191906104cd565b610097610201565b60405161007191906105ad565b6100b76100b23660046104a1565b610207565b604051610071959493929190610547565b6100db6100d636600461045e565b610242565b005b6000546001600160a01b031681565b60025460609060008167ffffffffffffffff81111561011b57634e487b7160e01b600052604160045260246000fd5b60405190808252806020026020018201604052801561015457816020015b610141610414565b8152602001906001900390816101395790505b50905060005b828110156101fa57600081815260016020818152604092839020835160a08101855281548152928101546001600160a01b039081169284019290925260028101549091169282019290925260038201546060820152600490910154608082015282518390839081106101dc57634e487b7160e01b600052603260045260246000fd5b602002602001018190525080806101f2906105e5565b91505061015a565b5091505090565b60025481565b6001602081905260009182526040909120805491810154600282015460038301546004909301546001600160a01b0392831693919092169185565b60025443906102dc576040805160a0810182528681526001600160a01b03808716602080840191825287831684860190815260608501888152608086018881526002805460009081526001958690529890982096518755935192860180549386166001600160a01b0319948516179055905195850180549690941695909116949094179091559151600382015590516004909101556103b5565b816001600060016002546102f091906105ce565b815260200190815260200160002060000154146103285760405162461bcd60e51b815260040161031f90610576565b60405180910390fd5b6040805160a0810182528681526001600160a01b03808716602080840191825287831684860190815260608501888152608086018881526002805460009081526001958690529890982096518755935192860180549386166001600160a01b0319948516179055905195850180549690941695909116949094179091559151600382015590516004909101555b6001600260008282546103c891906105b6565b90915550506040517f08ce16702f64d2cdc93c2d36818cee685abd25dcf25f93b5008c07c328652bb6906104059087908790879087908790610547565b60405180910390a15050505050565b6040805160a08101825260008082526020820181905291810182905260608101829052608081019190915290565b80356001600160a01b038116811461045957600080fd5b919050565b60008060008060808587031215610473578384fd5b8435935061048360208601610442565b925061049160408601610442565b9396929550929360600135925050565b6000602082840312156104b2578081fd5b5035919050565b6001600160a01b0391909116815260200190565b602080825282518282018190526000919060409081850190868401855b8281101561053a57815180518552868101516001600160a01b0390811688870152868201511686860152606080820151908601526080908101519085015260a090930192908501906001016104ea565b5091979650505050505050565b9485526001600160a01b0393841660208601529190921660408401526060830191909152608082015260a00190565b6020808252601b908201527f5472616e73616374696f6e206572726f72206f63637572726564210000000000604082015260600190565b90815260200190565b600082198211156105c9576105c9610600565b500190565b6000828210156105e0576105e0610600565b500390565b60006000198214156105f9576105f9610600565b5060010190565b634e487b7160e01b600052601160045260246000fdfea26469706673582212208bacfc914aca64dec8619fa88b9c52ef408f555866612eb8c60e3e48dbbe832864736f6c63430008000033",
  "immutableReferences": {},
  "source": "// SPDX-License-Identifier: MIT\r\npragma solidity ^0.8.0;\r\npragma experimental ABIEncoderV2;\r\n\r\ncontract Transactions {\r\n\r\n\r\n\r\n    address public creator;\r\n\r\n\r\n\r\n\r\n    struct Txns {\r\n        bytes32 txnHash;\r\n        address fromAddr;\r\n        address toAddr;\r\n        bytes32 prevTxn;\r\n        uint timestamp;\r\n    }\r\n\r\n    mapping(uint => Txns) public transactions;\r\n    uint public txnCount = 0;\r\n\r\n    event TxnCreated(\r\n        bytes32 _txnHash,\r\n        address _from,\r\n        address _to,\r\n        bytes32 _prev,\r\n        uint _timestamp\r\n    );\r\n\r\n    constructor(address _creator) {\r\n        require(_creator != address(0));\r\n        creator = _creator;\r\n    }\r\n\r\n    // function createTxnEntry(\r\n    //     bytes32 _txnHash,\r\n    //     address _from,\r\n    //     address _to,\r\n    //     bytes32 _prev\r\n    // ) public {\r\n    //     uint _timestamp = block.timestamp;\r\n    //     if (txnCount == 0) {\r\n    //         transactions[txnCount] = Txns(\r\n    //             _txnHash,\r\n    //             _from,\r\n    //             _to,\r\n    //             _prev,\r\n    //             _timestamp\r\n    //         );\r\n    //     } else {\r\n    //         require(\r\n    //             transactions[txnCount - 1].txnHash == _prev,\r\n    //             \"Transaction error occurred!\"\r\n    //         );\r\n    //         transactions[txnCount] = Txns(\r\n    //             _txnHash,\r\n    //             _from,\r\n    //             _to,\r\n    //             _prev,\r\n    //             _timestamp\r\n    //         );\r\n    //     }\r\n    //     txnCount += 1;\r\n    //     emit TxnCreated(_txnHash, _from, _to, _prev, _timestamp);\r\n    // }\r\n\r\n   \r\n    function createTxnEntry(\r\n        bytes32 txnHash,\r\n        address from,\r\n        address to,\r\n        bytes32 prev\r\n    ) \r\n    \r\n    \r\n    public {\r\n        uint blockNumber = block.number;\r\n        if (txnCount == 0) {\r\n            transactions[txnCount] = Txns(\r\n                txnHash,\r\n                from,\r\n                to,\r\n                prev,\r\n                blockNumber\r\n            );\r\n        } else {\r\n            require(\r\n                transactions[txnCount - 1].txnHash == prev,\r\n                \"Transaction error occurred!\"\r\n            );\r\n            transactions[txnCount] = Txns(\r\n                txnHash,\r\n                from,\r\n                to,\r\n                prev,\r\n                blockNumber\r\n            );\r\n        }\r\n        txnCount += 1;\r\n        emit TxnCreated(txnHash, from, to, prev, blockNumber);\r\n    }\r\n\r\n    function getAllTransactions() public view returns (Txns[] memory) {\r\n        uint len = txnCount;\r\n        Txns[] memory ret = new Txns[](len);\r\n        for (uint i = 0; i < len; i++) {\r\n            ret[i] = transactions[i];\r\n        }\r\n        return ret;\r\n    }\r\n}\r\n",
  "sourcePath": "D:\\ACTIVITY\\SEM 8\\0. SKRIPSI\\REF\\WEB\\alkes-blockchain\\contracts\\Transactions.sol",
  "compiler": {
    "name": "solc",
    "version": "0.8.0+commit.c7dfd78e.Emscripten.clang"
  },
  "schemaVersion": "3.4.16",
  "updatedAt": "2023-12-20T15:14:19.921Z",
  "devdoc": {
    "kind": "dev",
    "methods": {},
    "version": 1
  },
  "userdoc": {
    "kind": "user",
    "methods": {},
    "version": 1
  }
}