{
  "contractName": "Transactions",
  "abi": [
    {
      "inputs": [
        {
          "internalType": "address",
          "name": "_creator",
          "type": "address"
        }
      ],
      "stateMutability": "nonpayable",
      "type": "constructor"
    },
    {
      "anonymous": false,
      "inputs": [
        {
          "indexed": false,
          "internalType": "bytes32",
          "name": "_txnHash",
          "type": "bytes32"
        },
        {
          "indexed": false,
          "internalType": "address",
          "name": "_from",
          "type": "address"
        },
        {
          "indexed": false,
          "internalType": "address",
          "name": "_to",
          "type": "address"
        },
        {
          "indexed": false,
          "internalType": "bytes32",
          "name": "_prev",
          "type": "bytes32"
        },
        {
          "indexed": false,
          "internalType": "uint256",
          "name": "_timestamp",
          "type": "uint256"
        },
        {
          "indexed": false,
          "internalType": "string",
          "name": "_latitude",
          "type": "string"
        },
        {
          "indexed": false,
          "internalType": "string",
          "name": "_longitude",
          "type": "string"
        }
      ],
      "name": "TxnCreated",
      "type": "event"
    },
    {
      "inputs": [],
      "name": "Creator",
      "outputs": [
        {
          "internalType": "address",
          "name": "",
          "type": "address"
        }
      ],
      "stateMutability": "view",
      "type": "function"
    },
    {
      "inputs": [
        {
          "internalType": "uint256",
          "name": "",
          "type": "uint256"
        }
      ],
      "name": "transactions",
      "outputs": [
        {
          "internalType": "bytes32",
          "name": "txnHash",
          "type": "bytes32"
        },
        {
          "internalType": "address",
          "name": "fromAddr",
          "type": "address"
        },
        {
          "internalType": "address",
          "name": "toAddr",
          "type": "address"
        },
        {
          "internalType": "bytes32",
          "name": "prevTxn",
          "type": "bytes32"
        },
        {
          "internalType": "string",
          "name": "latitude",
          "type": "string"
        },
        {
          "internalType": "string",
          "name": "longitude",
          "type": "string"
        },
        {
          "internalType": "uint256",
          "name": "timestamp",
          "type": "uint256"
        }
      ],
      "stateMutability": "view",
      "type": "function"
    },
    {
      "inputs": [],
      "name": "txnCount",
      "outputs": [
        {
          "internalType": "uint256",
          "name": "",
          "type": "uint256"
        }
      ],
      "stateMutability": "view",
      "type": "function"
    },
    {
      "inputs": [
        {
          "internalType": "bytes32",
          "name": "_txnHash",
          "type": "bytes32"
        },
        {
          "internalType": "address",
          "name": "_from",
          "type": "address"
        },
        {
          "internalType": "address",
          "name": "_to",
          "type": "address"
        },
        {
          "internalType": "bytes32",
          "name": "_prev",
          "type": "bytes32"
        },
        {
          "internalType": "string",
          "name": "_latitude",
          "type": "string"
        },
        {
          "internalType": "string",
          "name": "_longitude",
          "type": "string"
        }
      ],
      "name": "createTxnEntry",
      "outputs": [],
      "stateMutability": "nonpayable",
      "type": "function"
    },
    {
      "inputs": [],
      "name": "getAllTransactions",
      "outputs": [
        {
          "components": [
            {
              "internalType": "bytes32",
              "name": "txnHash",
              "type": "bytes32"
            },
            {
              "internalType": "address",
              "name": "fromAddr",
              "type": "address"
            },
            {
              "internalType": "address",
              "name": "toAddr",
              "type": "address"
            },
            {
              "internalType": "bytes32",
              "name": "prevTxn",
              "type": "bytes32"
            },
            {
              "internalType": "string",
              "name": "latitude",
              "type": "string"
            },
            {
              "internalType": "string",
              "name": "longitude",
              "type": "string"
            },
            {
              "internalType": "uint256",
              "name": "timestamp",
              "type": "uint256"
            }
          ],
          "internalType": "struct Transactions.Txns[]",
          "name": "",
          "type": "tuple[]"
        }
      ],
      "stateMutability": "view",
      "type": "function"
    }
  ],
  "bytecode": "0x608060405260006002553480156200001657600080fd5b50604051620014343803806200143483398181016040528101906200003c91906200009a565b806000806101000a81548173ffffffffffffffffffffffffffffffffffffffff021916908373ffffffffffffffffffffffffffffffffffffffff1602179055505062000114565b6000815190506200009481620000fa565b92915050565b600060208284031215620000ad57600080fd5b6000620000bd8482850162000083565b91505092915050565b6000620000d382620000da565b9050919050565b600073ffffffffffffffffffffffffffffffffffffffff82169050919050565b6200010581620000c6565b81146200011157600080fd5b50565b61131080620001246000396000f3fe608060405234801561001057600080fd5b50600436106100575760003560e01c806318bee97e1461005c57806327506f531461007a5780633626a3681461009857806378ce1365146100b45780639ace38c2146100d2575b600080fd5b610064610108565b6040516100719190610e31565b60405180910390f35b61008261012c565b60405161008f9190610e4c565b60405180910390f35b6100b260048036038101906100ad9190610b17565b61042a565b005b6100bc6107c6565b6040516100c99190610f88565b60405180910390f35b6100ec60048036038101906100e79190610bd0565b6107cc565b6040516100ff9796959493929190610e6e565b60405180910390f35b60008054906101000a900473ffffffffffffffffffffffffffffffffffffffff1681565b60606000600254905060008167ffffffffffffffff811115610177577f4e487b7100000000000000000000000000000000000000000000000000000000600052604160045260246000fd5b6040519080825280602002602001820160405280156101b057816020015b61019d61095e565b8152602001906001900390816101955790505b50905060005b8281101561042157600160008281526020019081526020016000206040518060e0016040529081600082015481526020016001820160009054906101000a900473ffffffffffffffffffffffffffffffffffffffff1673ffffffffffffffffffffffffffffffffffffffff1673ffffffffffffffffffffffffffffffffffffffff1681526020016002820160009054906101000a900473ffffffffffffffffffffffffffffffffffffffff1673ffffffffffffffffffffffffffffffffffffffff1673ffffffffffffffffffffffffffffffffffffffff168152602001600382015481526020016004820180546102ac9061117c565b80601f01602080910402602001604051908101604052809291908181526020018280546102d89061117c565b80156103255780601f106102fa57610100808354040283529160200191610325565b820191906000526020600020905b81548152906001019060200180831161030857829003601f168201915b5050505050815260200160058201805461033e9061117c565b80601f016020809104026020016040519081016040528092919081815260200182805461036a9061117c565b80156103b75780601f1061038c576101008083540402835291602001916103b7565b820191906000526020600020905b81548152906001019060200180831161039a57829003601f168201915b50505050508152602001600682015481525050828281518110610403577f4e487b7100000000000000000000000000000000000000000000000000000000600052603260045260246000fd5b60200260200101819052508080610419906111ae565b9150506101b6565b50809250505090565b60004290506000600254141561059c576040518060e001604052808881526020018773ffffffffffffffffffffffffffffffffffffffff1681526020018673ffffffffffffffffffffffffffffffffffffffff168152602001858152602001848152602001838152602001828152506001600060025481526020019081526020016000206000820151816000015560208201518160010160006101000a81548173ffffffffffffffffffffffffffffffffffffffff021916908373ffffffffffffffffffffffffffffffffffffffff16021790555060408201518160020160006101000a81548173ffffffffffffffffffffffffffffffffffffffff021916908373ffffffffffffffffffffffffffffffffffffffff16021790555060608201518160030155608082015181600401908051906020019061056c9291906109cd565b5060a08201518160050190805190602001906105899291906109cd565b5060c08201518160060155905050610760565b836001600060016002546105b091906110c0565b81526020019081526020016000206000015414610602576040517f08c379a00000000000000000000000000000000000000000000000000000000081526004016105f990610f68565b60405180910390fd5b6040518060e001604052808881526020018773ffffffffffffffffffffffffffffffffffffffff1681526020018673ffffffffffffffffffffffffffffffffffffffff168152602001858152602001848152602001838152602001828152506001600060025481526020019081526020016000206000820151816000015560208201518160010160006101000a81548173ffffffffffffffffffffffffffffffffffffffff021916908373ffffffffffffffffffffffffffffffffffffffff16021790555060408201518160020160006101000a81548173ffffffffffffffffffffffffffffffffffffffff021916908373ffffffffffffffffffffffffffffffffffffffff1602179055506060820151816003015560808201518160040190805190602001906107349291906109cd565b5060a08201518160050190805190602001906107519291906109cd565b5060c082015181600601559050505b600160026000828254610773919061106a565b925050819055507fe8fdde79d5c50584882865d04c966eb4120c519359629c763d4a432470e7a94a878787878588886040516107b59796959493929190610eeb565b60405180910390a150505050505050565b60025481565b60016020528060005260406000206000915090508060000154908060010160009054906101000a900473ffffffffffffffffffffffffffffffffffffffff16908060020160009054906101000a900473ffffffffffffffffffffffffffffffffffffffff16908060030154908060040180546108479061117c565b80601f01602080910402602001604051908101604052809291908181526020018280546108739061117c565b80156108c05780601f10610895576101008083540402835291602001916108c0565b820191906000526020600020905b8154815290600101906020018083116108a357829003601f168201915b5050505050908060050180546108d59061117c565b80601f01602080910402602001604051908101604052809291908181526020018280546109019061117c565b801561094e5780601f106109235761010080835404028352916020019161094e565b820191906000526020600020905b81548152906001019060200180831161093157829003601f168201915b5050505050908060060154905087565b6040518060e0016040528060008019168152602001600073ffffffffffffffffffffffffffffffffffffffff168152602001600073ffffffffffffffffffffffffffffffffffffffff168152602001600080191681526020016060815260200160608152602001600081525090565b8280546109d99061117c565b90600052602060002090601f0160209004810192826109fb5760008555610a42565b82601f10610a1457805160ff1916838001178555610a42565b82800160010185558215610a42579182015b82811115610a41578251825591602001919060010190610a26565b5b509050610a4f9190610a53565b5090565b5b80821115610a6c576000816000905550600101610a54565b5090565b6000610a83610a7e84610fd4565b610fa3565b905082815260208101848484011115610a9b57600080fd5b610aa684828561113a565b509392505050565b600081359050610abd81611295565b92915050565b600081359050610ad2816112ac565b92915050565b600082601f830112610ae957600080fd5b8135610af9848260208601610a70565b91505092915050565b600081359050610b11816112c3565b92915050565b60008060008060008060c08789031215610b3057600080fd5b6000610b3e89828a01610ac3565b9650506020610b4f89828a01610aae565b9550506040610b6089828a01610aae565b9450506060610b7189828a01610ac3565b935050608087013567ffffffffffffffff811115610b8e57600080fd5b610b9a89828a01610ad8565b92505060a087013567ffffffffffffffff811115610bb757600080fd5b610bc389828a01610ad8565b9150509295509295509295565b600060208284031215610be257600080fd5b6000610bf084828501610b02565b91505092915050565b6000610c058383610d70565b905092915050565b610c16816110f4565b82525050565b610c25816110f4565b82525050565b6000610c3682611014565b610c408185611037565b935083602082028501610c5285611004565b8060005b85811015610c8e5784840389528151610c6f8582610bf9565b9450610c7a8361102a565b925060208a01995050600181019050610c56565b50829750879550505050505092915050565b610ca981611106565b82525050565b610cb881611106565b82525050565b6000610cc98261101f565b610cd38185611048565b9350610ce3818560208601611149565b610cec81611284565b840191505092915050565b6000610d028261101f565b610d0c8185611059565b9350610d1c818560208601611149565b610d2581611284565b840191505092915050565b6000610d3d601b83611059565b91507f5472616e73616374696f6e206572726f72206f636375727265642100000000006000830152602082019050919050565b600060e083016000830151610d886000860182610ca0565b506020830151610d9b6020860182610c0d565b506040830151610dae6040860182610c0d565b506060830151610dc16060860182610ca0565b5060808301518482036080860152610dd98282610cbe565b91505060a083015184820360a0860152610df38282610cbe565b91505060c0830151610e0860c0860182610e13565b508091505092915050565b610e1c81611130565b82525050565b610e2b81611130565b82525050565b6000602082019050610e466000830184610c1c565b92915050565b60006020820190508181036000830152610e668184610c2b565b905092915050565b600060e082019050610e83600083018a610caf565b610e906020830189610c1c565b610e9d6040830188610c1c565b610eaa6060830187610caf565b8181036080830152610ebc8186610cf7565b905081810360a0830152610ed08185610cf7565b9050610edf60c0830184610e22565b98975050505050505050565b600060e082019050610f00600083018a610caf565b610f0d6020830189610c1c565b610f1a6040830188610c1c565b610f276060830187610caf565b610f346080830186610e22565b81810360a0830152610f468185610cf7565b905081810360c0830152610f5a8184610cf7565b905098975050505050505050565b60006020820190508181036000830152610f8181610d30565b9050919050565b6000602082019050610f9d6000830184610e22565b92915050565b6000604051905081810181811067ffffffffffffffff82111715610fca57610fc9611255565b5b8060405250919050565b600067ffffffffffffffff821115610fef57610fee611255565b5b601f19601f8301169050602081019050919050565b6000819050602082019050919050565b600081519050919050565b600081519050919050565b6000602082019050919050565b600082825260208201905092915050565b600082825260208201905092915050565b600082825260208201905092915050565b600061107582611130565b915061108083611130565b9250827fffffffffffffffffffffffffffffffffffffffffffffffffffffffffffffffff038211156110b5576110b46111f7565b5b828201905092915050565b60006110cb82611130565b91506110d683611130565b9250828210156110e9576110e86111f7565b5b828203905092915050565b60006110ff82611110565b9050919050565b6000819050919050565b600073ffffffffffffffffffffffffffffffffffffffff82169050919050565b6000819050919050565b82818337600083830152505050565b60005b8381101561116757808201518184015260208101905061114c565b83811115611176576000848401525b50505050565b6000600282049050600182168061119457607f821691505b602082108114156111a8576111a7611226565b5b50919050565b60006111b982611130565b91507fffffffffffffffffffffffffffffffffffffffffffffffffffffffffffffffff8214156111ec576111eb6111f7565b5b600182019050919050565b7f4e487b7100000000000000000000000000000000000000000000000000000000600052601160045260246000fd5b7f4e487b7100000000000000000000000000000000000000000000000000000000600052602260045260246000fd5b7f4e487b7100000000000000000000000000000000000000000000000000000000600052604160045260246000fd5b6000601f19601f8301169050919050565b61129e816110f4565b81146112a957600080fd5b50565b6112b581611106565b81146112c057600080fd5b50565b6112cc81611130565b81146112d757600080fd5b5056fea2646970667358221220f99e552f867aebe41b13813854daa3c826a1af13846b898f3eab70393e2d1fe464736f6c63430008000033",
  "immutableReferences": {},
  "source": "// SPDX-License-Identifier: MIT\r\npragma solidity ^0.8.0;\r\npragma experimental ABIEncoderV2;\r\n\r\ncontract Transactions {\r\n\r\n    address public Creator;\r\n\r\n    struct Txns {\r\n        bytes32 txnHash;\r\n        address fromAddr;\r\n        address toAddr;\r\n        bytes32 prevTxn;\r\n        string latitude;\r\n        string longitude;\r\n        uint timestamp;\r\n    }\r\n\r\n    mapping(uint => Txns) public transactions;\r\n    uint public txnCount = 0;\r\n\r\n    event TxnCreated(bytes32 _txnHash, address _from, address _to, bytes32 _prev, uint _timestamp, string _latitude, string _longitude);\r\n\r\n    constructor(address _creator) {\r\n        Creator = _creator;\r\n    }\r\n\r\n    function createTxnEntry(\r\n        bytes32 _txnHash,\r\n        address _from,\r\n        address _to,\r\n        bytes32 _prev,\r\n        string memory _latitude,\r\n        string memory _longitude\r\n    ) public {\r\n        uint _timestamp = block.timestamp;\r\n        if (txnCount == 0) {\r\n            transactions[txnCount] = Txns(_txnHash, _from, _to, _prev, _latitude, _longitude, _timestamp);\r\n        } else {\r\n            require(transactions[txnCount - 1].txnHash == _prev, \"Transaction error occurred!\");\r\n            transactions[txnCount] = Txns(_txnHash, _from, _to, _prev, _latitude, _longitude, _timestamp);\r\n        }\r\n        txnCount += 1;\r\n        emit TxnCreated(_txnHash, _from, _to, _prev, _timestamp, _latitude, _longitude);\r\n    }\r\n\r\n    function getAllTransactions() public view returns (Txns[] memory) {\r\n        uint len = txnCount;\r\n        Txns[] memory ret = new Txns[](len);\r\n        for (uint i = 0; i < len; i++) {\r\n            ret[i] = transactions[i];\r\n        }\r\n        return ret;\r\n    }\r\n}\r\n",
  "sourcePath": "D:\\ACTIVITY\\SEM 8\\0. SKRIPSI\\REF\\WEB\\alkes-blockchain\\contracts\\Transactions.sol",
  "compiler": {
    "name": "solc",
    "version": "0.8.0+commit.c7dfd78e.Emscripten.clang"
  },
  "schemaVersion": "3.4.16",
  "updatedAt": "2023-11-29T16:33:11.967Z",
  "devdoc": {
    "kind": "dev",
    "methods": {},
    "version": 1
  },
  "userdoc": {
    "kind": "user",
    "methods": {},
    "version": 1
  }
}