{
	"contracts/Transactions.sol": {
		"Transactions": {
			"abi": [
				{
					"inputs": [
						{
							"internalType": "address",
							"name": "_creator",
							"type": "address"
						}
					],
					"stateMutability": "nonpayable",
					"type": "constructor"
				},
				{
					"anonymous": false,
					"inputs": [
						{
							"indexed": false,
							"internalType": "bytes32",
							"name": "_txnHash",
							"type": "bytes32"
						},
						{
							"indexed": false,
							"internalType": "address",
							"name": "_from",
							"type": "address"
						},
						{
							"indexed": false,
							"internalType": "address",
							"name": "_to",
							"type": "address"
						},
						{
							"indexed": false,
							"internalType": "bytes32",
							"name": "_prev",
							"type": "bytes32"
						},
						{
							"indexed": false,
							"internalType": "uint256",
							"name": "_timestamp",
							"type": "uint256"
						}
					],
					"name": "TxnCreated",
					"type": "event"
				},
				{
					"inputs": [],
					"name": "Creator",
					"outputs": [
						{
							"internalType": "address",
							"name": "",
							"type": "address"
						}
					],
					"stateMutability": "view",
					"type": "function"
				},
				{
					"inputs": [
						{
							"internalType": "bytes32",
							"name": "_txnHash",
							"type": "bytes32"
						},
						{
							"internalType": "address",
							"name": "_from",
							"type": "address"
						},
						{
							"internalType": "address",
							"name": "_to",
							"type": "address"
						},
						{
							"internalType": "bytes32",
							"name": "_prev",
							"type": "bytes32"
						}
					],
					"name": "createTxnEntry",
					"outputs": [],
					"stateMutability": "nonpayable",
					"type": "function"
				},
				{
					"inputs": [],
					"name": "getAllTransactions",
					"outputs": [
						{
							"components": [
								{
									"internalType": "bytes32",
									"name": "txnHash",
									"type": "bytes32"
								},
								{
									"internalType": "address",
									"name": "fromAddr",
									"type": "address"
								},
								{
									"internalType": "address",
									"name": "toAddr",
									"type": "address"
								},
								{
									"internalType": "bytes32",
									"name": "prevTxn",
									"type": "bytes32"
								},
								{
									"internalType": "uint256",
									"name": "timestamp",
									"type": "uint256"
								}
							],
							"internalType": "struct Transactions.Txns[]",
							"name": "",
							"type": "tuple[]"
						}
					],
					"stateMutability": "view",
					"type": "function"
				},
				{
					"inputs": [
						{
							"internalType": "uint256",
							"name": "",
							"type": "uint256"
						}
					],
					"name": "transactions",
					"outputs": [
						{
							"internalType": "bytes32",
							"name": "txnHash",
							"type": "bytes32"
						},
						{
							"internalType": "address",
							"name": "fromAddr",
							"type": "address"
						},
						{
							"internalType": "address",
							"name": "toAddr",
							"type": "address"
						},
						{
							"internalType": "bytes32",
							"name": "prevTxn",
							"type": "bytes32"
						},
						{
							"internalType": "uint256",
							"name": "timestamp",
							"type": "uint256"
						}
					],
					"stateMutability": "view",
					"type": "function"
				},
				{
					"inputs": [],
					"name": "txnCount",
					"outputs": [
						{
							"internalType": "uint256",
							"name": "",
							"type": "uint256"
						}
					],
					"stateMutability": "view",
					"type": "function"
				}
			],
			"devdoc": {
				"kind": "dev",
				"methods": {},
				"version": 1
			},
			"evm": {
				"assembly": "    /* \"contracts/Transactions.sol\":95:1460  contract Transactions {\r... */\n  mstore(0x40, 0x80)\n    /* \"contracts/Transactions.sol\":393:394  0 */\n  0x00\n    /* \"contracts/Transactions.sol\":370:394  uint public txnCount = 0 */\n  0x02\n  sstore\n    /* \"contracts/Transactions.sol\":506:573  constructor(address _creator) {\r... */\n  callvalue\n  dup1\n  iszero\n  tag_1\n  jumpi\n  0x00\n  dup1\n  revert\ntag_1:\n  pop\n  mload(0x40)\n  sub(codesize, bytecodeSize)\n  dup1\n  bytecodeSize\n  dup4\n  codecopy\n  dup2\n  dup2\n  add\n  0x40\n  mstore\n  dup2\n  add\n  swap1\n  tag_2\n  swap2\n  swap1\n  tag_3\n  jump\t// in\ntag_2:\n    /* \"contracts/Transactions.sol\":557:565  _creator */\n  dup1\n    /* \"contracts/Transactions.sol\":547:554  Creator */\n  0x00\n  dup1\n    /* \"contracts/Transactions.sol\":547:565  Creator = _creator */\n  0x0100\n  exp\n  dup2\n  sload\n  dup2\n  0xffffffffffffffffffffffffffffffffffffffff\n  mul\n  not\n  and\n  swap1\n  dup4\n  0xffffffffffffffffffffffffffffffffffffffff\n  and\n  mul\n  or\n  swap1\n  sstore\n  pop\n    /* \"contracts/Transactions.sol\":506:573  constructor(address _creator) {\r... */\n  pop\n    /* \"contracts/Transactions.sol\":95:1460  contract Transactions {\r... */\n  jump(tag_6)\n    /* \"#utility.yul\":7:150   */\ntag_8:\n  0x00\n    /* \"#utility.yul\":95:101   */\n  dup2\n    /* \"#utility.yul\":89:102   */\n  mload\n    /* \"#utility.yul\":80:102   */\n  swap1\n  pop\n    /* \"#utility.yul\":111:144   */\n  tag_10\n    /* \"#utility.yul\":138:143   */\n  dup2\n    /* \"#utility.yul\":111:144   */\n  tag_11\n  jump\t// in\ntag_10:\n    /* \"#utility.yul\":70:150   */\n  swap3\n  swap2\n  pop\n  pop\n  jump\t// out\n    /* \"#utility.yul\":156:440   */\ntag_3:\n  0x00\n    /* \"#utility.yul\":275:277   */\n  0x20\n    /* \"#utility.yul\":263:272   */\n  dup3\n    /* \"#utility.yul\":254:261   */\n  dup5\n    /* \"#utility.yul\":250:273   */\n  sub\n    /* \"#utility.yul\":246:278   */\n  slt\n    /* \"#utility.yul\":243:245   */\n  iszero\n  tag_13\n  jumpi\n    /* \"#utility.yul\":291:292   */\n  0x00\n    /* \"#utility.yul\":288:289   */\n  dup1\n    /* \"#utility.yul\":281:293   */\n  revert\n    /* \"#utility.yul\":243:245   */\ntag_13:\n    /* \"#utility.yul\":334:335   */\n  0x00\n    /* \"#utility.yul\":359:423   */\n  tag_14\n    /* \"#utility.yul\":415:422   */\n  dup5\n    /* \"#utility.yul\":406:412   */\n  dup3\n    /* \"#utility.yul\":395:404   */\n  dup6\n    /* \"#utility.yul\":391:413   */\n  add\n    /* \"#utility.yul\":359:423   */\n  tag_8\n  jump\t// in\ntag_14:\n    /* \"#utility.yul\":349:423   */\n  swap2\n  pop\n    /* \"#utility.yul\":305:433   */\n  pop\n    /* \"#utility.yul\":233:440   */\n  swap3\n  swap2\n  pop\n  pop\n  jump\t// out\n    /* \"#utility.yul\":446:542   */\ntag_15:\n  0x00\n    /* \"#utility.yul\":512:536   */\n  tag_17\n    /* \"#utility.yul\":530:535   */\n  dup3\n    /* \"#utility.yul\":512:536   */\n  tag_18\n  jump\t// in\ntag_17:\n    /* \"#utility.yul\":501:536   */\n  swap1\n  pop\n    /* \"#utility.yul\":491:542   */\n  swap2\n  swap1\n  pop\n  jump\t// out\n    /* \"#utility.yul\":548:674   */\ntag_18:\n  0x00\n    /* \"#utility.yul\":625:667   */\n  0xffffffffffffffffffffffffffffffffffffffff\n    /* \"#utility.yul\":618:623   */\n  dup3\n    /* \"#utility.yul\":614:668   */\n  and\n    /* \"#utility.yul\":603:668   */\n  swap1\n  pop\n    /* \"#utility.yul\":593:674   */\n  swap2\n  swap1\n  pop\n  jump\t// out\n    /* \"#utility.yul\":680:802   */\ntag_11:\n    /* \"#utility.yul\":753:777   */\n  tag_21\n    /* \"#utility.yul\":771:776   */\n  dup2\n    /* \"#utility.yul\":753:777   */\n  tag_15\n  jump\t// in\ntag_21:\n    /* \"#utility.yul\":746:751   */\n  dup2\n    /* \"#utility.yul\":743:778   */\n  eq\n    /* \"#utility.yul\":733:735   */\n  tag_22\n  jumpi\n    /* \"#utility.yul\":792:793   */\n  0x00\n    /* \"#utility.yul\":789:790   */\n  dup1\n    /* \"#utility.yul\":782:794   */\n  revert\n    /* \"#utility.yul\":733:735   */\ntag_22:\n    /* \"#utility.yul\":723:802   */\n  pop\n  jump\t// out\n    /* \"contracts/Transactions.sol\":95:1460  contract Transactions {\r... */\ntag_6:\n  dataSize(sub_0)\n  dup1\n  dataOffset(sub_0)\n  0x00\n  codecopy\n  0x00\n  return\nstop\n\nsub_0: assembly {\n        /* \"contracts/Transactions.sol\":95:1460  contract Transactions {\r... */\n      mstore(0x40, 0x80)\n      callvalue\n      dup1\n      iszero\n      tag_1\n      jumpi\n      0x00\n      dup1\n      revert\n    tag_1:\n      pop\n      jumpi(tag_2, lt(calldatasize, 0x04))\n      shr(0xe0, calldataload(0x00))\n      dup1\n      0x18bee97e\n      eq\n      tag_3\n      jumpi\n      dup1\n      0x27506f53\n      eq\n      tag_4\n      jumpi\n      dup1\n      0x78ce1365\n      eq\n      tag_5\n      jumpi\n      dup1\n      0x9ace38c2\n      eq\n      tag_6\n      jumpi\n      dup1\n      0x9e9ab89b\n      eq\n      tag_7\n      jumpi\n    tag_2:\n      0x00\n      dup1\n      revert\n        /* \"contracts/Transactions.sol\":126:148  address public Creator */\n    tag_3:\n      tag_8\n      tag_9\n      jump\t// in\n    tag_8:\n      mload(0x40)\n      tag_10\n      swap2\n      swap1\n      tag_11\n      jump\t// in\n    tag_10:\n      mload(0x40)\n      dup1\n      swap2\n      sub\n      swap1\n      return\n        /* \"contracts/Transactions.sol\":1194:1457  function getAllTransactions() public view returns (Txns[] memory) {\r... */\n    tag_4:\n      tag_12\n      tag_13\n      jump\t// in\n    tag_12:\n      mload(0x40)\n      tag_14\n      swap2\n      swap1\n      tag_15\n      jump\t// in\n    tag_14:\n      mload(0x40)\n      dup1\n      swap2\n      sub\n      swap1\n      return\n        /* \"contracts/Transactions.sol\":370:394  uint public txnCount = 0 */\n    tag_5:\n      tag_16\n      tag_17\n      jump\t// in\n    tag_16:\n      mload(0x40)\n      tag_18\n      swap2\n      swap1\n      tag_19\n      jump\t// in\n    tag_18:\n      mload(0x40)\n      dup1\n      swap2\n      sub\n      swap1\n      return\n        /* \"contracts/Transactions.sol\":322:363  mapping(uint => Txns) public transactions */\n    tag_6:\n      tag_20\n      0x04\n      dup1\n      calldatasize\n      sub\n      dup2\n      add\n      swap1\n      tag_21\n      swap2\n      swap1\n      tag_22\n      jump\t// in\n    tag_21:\n      tag_23\n      jump\t// in\n    tag_20:\n      mload(0x40)\n      tag_24\n      swap6\n      swap5\n      swap4\n      swap3\n      swap2\n      swap1\n      tag_25\n      jump\t// in\n    tag_24:\n      mload(0x40)\n      dup1\n      swap2\n      sub\n      swap1\n      return\n        /* \"contracts/Transactions.sol\":581:1186  function createTxnEntry(\r... */\n    tag_7:\n      tag_26\n      0x04\n      dup1\n      calldatasize\n      sub\n      dup2\n      add\n      swap1\n      tag_27\n      swap2\n      swap1\n      tag_28\n      jump\t// in\n    tag_27:\n      tag_29\n      jump\t// in\n    tag_26:\n      stop\n        /* \"contracts/Transactions.sol\":126:148  address public Creator */\n    tag_9:\n      0x00\n      dup1\n      sload\n      swap1\n      0x0100\n      exp\n      swap1\n      div\n      0xffffffffffffffffffffffffffffffffffffffff\n      and\n      dup2\n      jump\t// out\n        /* \"contracts/Transactions.sol\":1194:1457  function getAllTransactions() public view returns (Txns[] memory) {\r... */\n    tag_13:\n        /* \"contracts/Transactions.sol\":1245:1258  Txns[] memory */\n      0x60\n        /* \"contracts/Transactions.sol\":1271:1279  uint len */\n      0x00\n        /* \"contracts/Transactions.sol\":1282:1290  txnCount */\n      sload(0x02)\n        /* \"contracts/Transactions.sol\":1271:1290  uint len = txnCount */\n      swap1\n      pop\n        /* \"contracts/Transactions.sol\":1301:1318  Txns[] memory ret */\n      0x00\n        /* \"contracts/Transactions.sol\":1332:1335  len */\n      dup2\n        /* \"contracts/Transactions.sol\":1321:1336  new Txns[](len) */\n      0xffffffffffffffff\n      dup2\n      gt\n      iszero\n      tag_31\n      jumpi\n      mstore(0x00, 0x4e487b7100000000000000000000000000000000000000000000000000000000)\n      mstore(0x04, 0x41)\n      revert(0x00, 0x24)\n    tag_31:\n      mload(0x40)\n      swap1\n      dup1\n      dup3\n      mstore\n      dup1\n      0x20\n      mul\n      0x20\n      add\n      dup3\n      add\n      0x40\n      mstore\n      dup1\n      iszero\n      tag_32\n      jumpi\n      dup2\n      0x20\n      add\n    tag_33:\n      tag_34\n      tag_35\n      jump\t// in\n    tag_34:\n      dup2\n      mstore\n      0x20\n      add\n      swap1\n      0x01\n      swap1\n      sub\n      swap1\n      dup2\n      tag_33\n      jumpi\n      swap1\n      pop\n    tag_32:\n      pop\n        /* \"contracts/Transactions.sol\":1301:1336  Txns[] memory ret = new Txns[](len) */\n      swap1\n      pop\n        /* \"contracts/Transactions.sol\":1352:1358  uint i */\n      0x00\n        /* \"contracts/Transactions.sol\":1347:1429  for (uint i = 0; i < len; i++) {\r... */\n    tag_36:\n        /* \"contracts/Transactions.sol\":1368:1371  len */\n      dup3\n        /* \"contracts/Transactions.sol\":1364:1365  i */\n      dup2\n        /* \"contracts/Transactions.sol\":1364:1371  i < len */\n      lt\n        /* \"contracts/Transactions.sol\":1347:1429  for (uint i = 0; i < len; i++) {\r... */\n      iszero\n      tag_37\n      jumpi\n        /* \"contracts/Transactions.sol\":1402:1414  transactions */\n      0x01\n        /* \"contracts/Transactions.sol\":1402:1417  transactions[i] */\n      0x00\n        /* \"contracts/Transactions.sol\":1415:1416  i */\n      dup3\n        /* \"contracts/Transactions.sol\":1402:1417  transactions[i] */\n      dup2\n      mstore\n      0x20\n      add\n      swap1\n      dup2\n      mstore\n      0x20\n      add\n      0x00\n      keccak256\n        /* \"contracts/Transactions.sol\":1393:1417  ret[i] = transactions[i] */\n      mload(0x40)\n      dup1\n      0xa0\n      add\n      0x40\n      mstore\n      swap1\n      dup2\n      0x00\n      dup3\n      add\n      sload\n      dup2\n      mstore\n      0x20\n      add\n      0x01\n      dup3\n      add\n      0x00\n      swap1\n      sload\n      swap1\n      0x0100\n      exp\n      swap1\n      div\n      0xffffffffffffffffffffffffffffffffffffffff\n      and\n      0xffffffffffffffffffffffffffffffffffffffff\n      and\n      0xffffffffffffffffffffffffffffffffffffffff\n      and\n      dup2\n      mstore\n      0x20\n      add\n      0x02\n      dup3\n      add\n      0x00\n      swap1\n      sload\n      swap1\n      0x0100\n      exp\n      swap1\n      div\n      0xffffffffffffffffffffffffffffffffffffffff\n      and\n      0xffffffffffffffffffffffffffffffffffffffff\n      and\n      0xffffffffffffffffffffffffffffffffffffffff\n      and\n      dup2\n      mstore\n      0x20\n      add\n      0x03\n      dup3\n      add\n      sload\n      dup2\n      mstore\n      0x20\n      add\n      0x04\n      dup3\n      add\n      sload\n      dup2\n      mstore\n      pop\n      pop\n        /* \"contracts/Transactions.sol\":1393:1396  ret */\n      dup3\n        /* \"contracts/Transactions.sol\":1397:1398  i */\n      dup3\n        /* \"contracts/Transactions.sol\":1393:1399  ret[i] */\n      dup2\n      mload\n      dup2\n      lt\n      tag_39\n      jumpi\n      mstore(0x00, 0x4e487b7100000000000000000000000000000000000000000000000000000000)\n      mstore(0x04, 0x32)\n      revert(0x00, 0x24)\n    tag_39:\n      0x20\n      mul\n      0x20\n      add\n      add\n        /* \"contracts/Transactions.sol\":1393:1417  ret[i] = transactions[i] */\n      dup2\n      swap1\n      mstore\n      pop\n        /* \"contracts/Transactions.sol\":1373:1376  i++ */\n      dup1\n      dup1\n      tag_40\n      swap1\n      tag_41\n      jump\t// in\n    tag_40:\n      swap2\n      pop\n      pop\n        /* \"contracts/Transactions.sol\":1347:1429  for (uint i = 0; i < len; i++) {\r... */\n      jump(tag_36)\n    tag_37:\n      pop\n        /* \"contracts/Transactions.sol\":1446:1449  ret */\n      dup1\n        /* \"contracts/Transactions.sol\":1439:1449  return ret */\n      swap3\n      pop\n      pop\n      pop\n        /* \"contracts/Transactions.sol\":1194:1457  function getAllTransactions() public view returns (Txns[] memory) {\r... */\n      swap1\n      jump\t// out\n        /* \"contracts/Transactions.sol\":370:394  uint public txnCount = 0 */\n    tag_17:\n      sload(0x02)\n      dup2\n      jump\t// out\n        /* \"contracts/Transactions.sol\":322:363  mapping(uint => Txns) public transactions */\n    tag_23:\n      mstore(0x20, 0x01)\n      dup1\n      0x00\n      mstore\n      keccak256(0x00, 0x40)\n      0x00\n      swap2\n      pop\n      swap1\n      pop\n      dup1\n      0x00\n      add\n      sload\n      swap1\n      dup1\n      0x01\n      add\n      0x00\n      swap1\n      sload\n      swap1\n      0x0100\n      exp\n      swap1\n      div\n      0xffffffffffffffffffffffffffffffffffffffff\n      and\n      swap1\n      dup1\n      0x02\n      add\n      0x00\n      swap1\n      sload\n      swap1\n      0x0100\n      exp\n      swap1\n      div\n      0xffffffffffffffffffffffffffffffffffffffff\n      and\n      swap1\n      dup1\n      0x03\n      add\n      sload\n      swap1\n      dup1\n      0x04\n      add\n      sload\n      swap1\n      pop\n      dup6\n      jump\t// out\n        /* \"contracts/Transactions.sol\":581:1186  function createTxnEntry(\r... */\n    tag_29:\n        /* \"contracts/Transactions.sol\":727:742  uint _timestamp */\n      0x00\n        /* \"contracts/Transactions.sol\":745:760  block.timestamp */\n      timestamp\n        /* \"contracts/Transactions.sol\":727:760  uint _timestamp = block.timestamp */\n      swap1\n      pop\n        /* \"contracts/Transactions.sol\":787:788  0 */\n      0x00\n        /* \"contracts/Transactions.sol\":775:783  txnCount */\n      sload(0x02)\n        /* \"contracts/Transactions.sol\":775:788  txnCount == 0 */\n      eq\n        /* \"contracts/Transactions.sol\":771:1088  if (txnCount == 0) {\r... */\n      iszero\n      tag_43\n      jumpi\n        /* \"contracts/Transactions.sol\":830:875  Txns(_txnHash, _from, _to, _prev, _timestamp) */\n      mload(0x40)\n      dup1\n      0xa0\n      add\n      0x40\n      mstore\n      dup1\n        /* \"contracts/Transactions.sol\":835:843  _txnHash */\n      dup7\n        /* \"contracts/Transactions.sol\":830:875  Txns(_txnHash, _from, _to, _prev, _timestamp) */\n      dup2\n      mstore\n      0x20\n      add\n        /* \"contracts/Transactions.sol\":845:850  _from */\n      dup6\n        /* \"contracts/Transactions.sol\":830:875  Txns(_txnHash, _from, _to, _prev, _timestamp) */\n      0xffffffffffffffffffffffffffffffffffffffff\n      and\n      dup2\n      mstore\n      0x20\n      add\n        /* \"contracts/Transactions.sol\":852:855  _to */\n      dup5\n        /* \"contracts/Transactions.sol\":830:875  Txns(_txnHash, _from, _to, _prev, _timestamp) */\n      0xffffffffffffffffffffffffffffffffffffffff\n      and\n      dup2\n      mstore\n      0x20\n      add\n        /* \"contracts/Transactions.sol\":857:862  _prev */\n      dup4\n        /* \"contracts/Transactions.sol\":830:875  Txns(_txnHash, _from, _to, _prev, _timestamp) */\n      dup2\n      mstore\n      0x20\n      add\n        /* \"contracts/Transactions.sol\":864:874  _timestamp */\n      dup3\n        /* \"contracts/Transactions.sol\":830:875  Txns(_txnHash, _from, _to, _prev, _timestamp) */\n      dup2\n      mstore\n      pop\n        /* \"contracts/Transactions.sol\":805:817  transactions */\n      0x01\n        /* \"contracts/Transactions.sol\":805:827  transactions[txnCount] */\n      0x00\n        /* \"contracts/Transactions.sol\":818:826  txnCount */\n      sload(0x02)\n        /* \"contracts/Transactions.sol\":805:827  transactions[txnCount] */\n      dup2\n      mstore\n      0x20\n      add\n      swap1\n      dup2\n      mstore\n      0x20\n      add\n      0x00\n      keccak256\n        /* \"contracts/Transactions.sol\":805:875  transactions[txnCount] = Txns(_txnHash, _from, _to, _prev, _timestamp) */\n      0x00\n      dup3\n      add\n      mload\n      dup2\n      0x00\n      add\n      sstore\n      0x20\n      dup3\n      add\n      mload\n      dup2\n      0x01\n      add\n      exp(0x0100, 0x00)\n      dup2\n      sload\n      dup2\n      0xffffffffffffffffffffffffffffffffffffffff\n      mul\n      not\n      and\n      swap1\n      dup4\n      0xffffffffffffffffffffffffffffffffffffffff\n      and\n      mul\n      or\n      swap1\n      sstore\n      pop\n      0x40\n      dup3\n      add\n      mload\n      dup2\n      0x02\n      add\n      exp(0x0100, 0x00)\n      dup2\n      sload\n      dup2\n      0xffffffffffffffffffffffffffffffffffffffff\n      mul\n      not\n      and\n      swap1\n      dup4\n      0xffffffffffffffffffffffffffffffffffffffff\n      and\n      mul\n      or\n      swap1\n      sstore\n      pop\n      0x60\n      dup3\n      add\n      mload\n      dup2\n      0x03\n      add\n      sstore\n      0x80\n      dup3\n      add\n      mload\n      dup2\n      0x04\n      add\n      sstore\n      swap1\n      pop\n      pop\n        /* \"contracts/Transactions.sol\":771:1088  if (txnCount == 0) {\r... */\n      jump(tag_44)\n    tag_43:\n        /* \"contracts/Transactions.sol\":954:959  _prev */\n      dup2\n        /* \"contracts/Transactions.sol\":916:928  transactions */\n      0x01\n        /* \"contracts/Transactions.sol\":916:942  transactions[txnCount - 1] */\n      0x00\n        /* \"contracts/Transactions.sol\":940:941  1 */\n      0x01\n        /* \"contracts/Transactions.sol\":929:937  txnCount */\n      sload(0x02)\n        /* \"contracts/Transactions.sol\":929:941  txnCount - 1 */\n      tag_45\n      swap2\n      swap1\n      tag_46\n      jump\t// in\n    tag_45:\n        /* \"contracts/Transactions.sol\":916:942  transactions[txnCount - 1] */\n      dup2\n      mstore\n      0x20\n      add\n      swap1\n      dup2\n      mstore\n      0x20\n      add\n      0x00\n      keccak256\n        /* \"contracts/Transactions.sol\":916:950  transactions[txnCount - 1].txnHash */\n      0x00\n      add\n      sload\n        /* \"contracts/Transactions.sol\":916:959  transactions[txnCount - 1].txnHash == _prev */\n      eq\n        /* \"contracts/Transactions.sol\":908:991  require(transactions[txnCount - 1].txnHash == _prev, \"Transaction error occurred!\") */\n      tag_47\n      jumpi\n      mload(0x40)\n      0x08c379a000000000000000000000000000000000000000000000000000000000\n      dup2\n      mstore\n      0x04\n      add\n      tag_48\n      swap1\n      tag_49\n      jump\t// in\n    tag_48:\n      mload(0x40)\n      dup1\n      swap2\n      sub\n      swap1\n      revert\n    tag_47:\n        /* \"contracts/Transactions.sol\":1031:1076  Txns(_txnHash, _from, _to, _prev, _timestamp) */\n      mload(0x40)\n      dup1\n      0xa0\n      add\n      0x40\n      mstore\n      dup1\n        /* \"contracts/Transactions.sol\":1036:1044  _txnHash */\n      dup7\n        /* \"contracts/Transactions.sol\":1031:1076  Txns(_txnHash, _from, _to, _prev, _timestamp) */\n      dup2\n      mstore\n      0x20\n      add\n        /* \"contracts/Transactions.sol\":1046:1051  _from */\n      dup6\n        /* \"contracts/Transactions.sol\":1031:1076  Txns(_txnHash, _from, _to, _prev, _timestamp) */\n      0xffffffffffffffffffffffffffffffffffffffff\n      and\n      dup2\n      mstore\n      0x20\n      add\n        /* \"contracts/Transactions.sol\":1053:1056  _to */\n      dup5\n        /* \"contracts/Transactions.sol\":1031:1076  Txns(_txnHash, _from, _to, _prev, _timestamp) */\n      0xffffffffffffffffffffffffffffffffffffffff\n      and\n      dup2\n      mstore\n      0x20\n      add\n        /* \"contracts/Transactions.sol\":1058:1063  _prev */\n      dup4\n        /* \"contracts/Transactions.sol\":1031:1076  Txns(_txnHash, _from, _to, _prev, _timestamp) */\n      dup2\n      mstore\n      0x20\n      add\n        /* \"contracts/Transactions.sol\":1065:1075  _timestamp */\n      dup3\n        /* \"contracts/Transactions.sol\":1031:1076  Txns(_txnHash, _from, _to, _prev, _timestamp) */\n      dup2\n      mstore\n      pop\n        /* \"contracts/Transactions.sol\":1006:1018  transactions */\n      0x01\n        /* \"contracts/Transactions.sol\":1006:1028  transactions[txnCount] */\n      0x00\n        /* \"contracts/Transactions.sol\":1019:1027  txnCount */\n      sload(0x02)\n        /* \"contracts/Transactions.sol\":1006:1028  transactions[txnCount] */\n      dup2\n      mstore\n      0x20\n      add\n      swap1\n      dup2\n      mstore\n      0x20\n      add\n      0x00\n      keccak256\n        /* \"contracts/Transactions.sol\":1006:1076  transactions[txnCount] = Txns(_txnHash, _from, _to, _prev, _timestamp) */\n      0x00\n      dup3\n      add\n      mload\n      dup2\n      0x00\n      add\n      sstore\n      0x20\n      dup3\n      add\n      mload\n      dup2\n      0x01\n      add\n      exp(0x0100, 0x00)\n      dup2\n      sload\n      dup2\n      0xffffffffffffffffffffffffffffffffffffffff\n      mul\n      not\n      and\n      swap1\n      dup4\n      0xffffffffffffffffffffffffffffffffffffffff\n      and\n      mul\n      or\n      swap1\n      sstore\n      pop\n      0x40\n      dup3\n      add\n      mload\n      dup2\n      0x02\n      add\n      exp(0x0100, 0x00)\n      dup2\n      sload\n      dup2\n      0xffffffffffffffffffffffffffffffffffffffff\n      mul\n      not\n      and\n      swap1\n      dup4\n      0xffffffffffffffffffffffffffffffffffffffff\n      and\n      mul\n      or\n      swap1\n      sstore\n      pop\n      0x60\n      dup3\n      add\n      mload\n      dup2\n      0x03\n      add\n      sstore\n      0x80\n      dup3\n      add\n      mload\n      dup2\n      0x04\n      add\n      sstore\n      swap1\n      pop\n      pop\n        /* \"contracts/Transactions.sol\":771:1088  if (txnCount == 0) {\r... */\n    tag_44:\n        /* \"contracts/Transactions.sol\":1110:1111  1 */\n      0x01\n        /* \"contracts/Transactions.sol\":1098:1106  txnCount */\n      0x02\n      0x00\n        /* \"contracts/Transactions.sol\":1098:1111  txnCount += 1 */\n      dup3\n      dup3\n      sload\n      tag_50\n      swap2\n      swap1\n      tag_51\n      jump\t// in\n    tag_50:\n      swap3\n      pop\n      pop\n      dup2\n      swap1\n      sstore\n      pop\n        /* \"contracts/Transactions.sol\":1127:1178  TxnCreated(_txnHash, _from, _to, _prev, _timestamp) */\n      0x08ce16702f64d2cdc93c2d36818cee685abd25dcf25f93b5008c07c328652bb6\n        /* \"contracts/Transactions.sol\":1138:1146  _txnHash */\n      dup6\n        /* \"contracts/Transactions.sol\":1148:1153  _from */\n      dup6\n        /* \"contracts/Transactions.sol\":1155:1158  _to */\n      dup6\n        /* \"contracts/Transactions.sol\":1160:1165  _prev */\n      dup6\n        /* \"contracts/Transactions.sol\":1167:1177  _timestamp */\n      dup6\n        /* \"contracts/Transactions.sol\":1127:1178  TxnCreated(_txnHash, _from, _to, _prev, _timestamp) */\n      mload(0x40)\n      tag_52\n      swap6\n      swap5\n      swap4\n      swap3\n      swap2\n      swap1\n      tag_25\n      jump\t// in\n    tag_52:\n      mload(0x40)\n      dup1\n      swap2\n      sub\n      swap1\n      log1\n        /* \"contracts/Transactions.sol\":581:1186  function createTxnEntry(\r... */\n      pop\n      pop\n      pop\n      pop\n      pop\n      jump\t// out\n    tag_35:\n      mload(0x40)\n      dup1\n      0xa0\n      add\n      0x40\n      mstore\n      dup1\n      0x00\n      dup1\n      not\n      and\n      dup2\n      mstore\n      0x20\n      add\n      and(0xffffffffffffffffffffffffffffffffffffffff, 0x00)\n      dup2\n      mstore\n      0x20\n      add\n      and(0xffffffffffffffffffffffffffffffffffffffff, 0x00)\n      dup2\n      mstore\n      0x20\n      add\n      0x00\n      dup1\n      not\n      and\n      dup2\n      mstore\n      0x20\n      add\n      0x00\n      dup2\n      mstore\n      pop\n      swap1\n      jump\t// out\n        /* \"#utility.yul\":7:146   */\n    tag_54:\n      0x00\n        /* \"#utility.yul\":91:97   */\n      dup2\n        /* \"#utility.yul\":78:98   */\n      calldataload\n        /* \"#utility.yul\":69:98   */\n      swap1\n      pop\n        /* \"#utility.yul\":107:140   */\n      tag_56\n        /* \"#utility.yul\":134:139   */\n      dup2\n        /* \"#utility.yul\":107:140   */\n      tag_57\n      jump\t// in\n    tag_56:\n        /* \"#utility.yul\":59:146   */\n      swap3\n      swap2\n      pop\n      pop\n      jump\t// out\n        /* \"#utility.yul\":152:291   */\n    tag_58:\n      0x00\n        /* \"#utility.yul\":236:242   */\n      dup2\n        /* \"#utility.yul\":223:243   */\n      calldataload\n        /* \"#utility.yul\":214:243   */\n      swap1\n      pop\n        /* \"#utility.yul\":252:285   */\n      tag_60\n        /* \"#utility.yul\":279:284   */\n      dup2\n        /* \"#utility.yul\":252:285   */\n      tag_61\n      jump\t// in\n    tag_60:\n        /* \"#utility.yul\":204:291   */\n      swap3\n      swap2\n      pop\n      pop\n      jump\t// out\n        /* \"#utility.yul\":297:436   */\n    tag_62:\n      0x00\n        /* \"#utility.yul\":381:387   */\n      dup2\n        /* \"#utility.yul\":368:388   */\n      calldataload\n        /* \"#utility.yul\":359:388   */\n      swap1\n      pop\n        /* \"#utility.yul\":397:430   */\n      tag_64\n        /* \"#utility.yul\":424:429   */\n      dup2\n        /* \"#utility.yul\":397:430   */\n      tag_65\n      jump\t// in\n    tag_64:\n        /* \"#utility.yul\":349:436   */\n      swap3\n      swap2\n      pop\n      pop\n      jump\t// out\n        /* \"#utility.yul\":442:1140   */\n    tag_28:\n      0x00\n      dup1\n      0x00\n      dup1\n        /* \"#utility.yul\":601:604   */\n      0x80\n        /* \"#utility.yul\":589:598   */\n      dup6\n        /* \"#utility.yul\":580:587   */\n      dup8\n        /* \"#utility.yul\":576:599   */\n      sub\n        /* \"#utility.yul\":572:605   */\n      slt\n        /* \"#utility.yul\":569:571   */\n      iszero\n      tag_67\n      jumpi\n        /* \"#utility.yul\":618:619   */\n      0x00\n        /* \"#utility.yul\":615:616   */\n      dup1\n        /* \"#utility.yul\":608:620   */\n      revert\n        /* \"#utility.yul\":569:571   */\n    tag_67:\n        /* \"#utility.yul\":661:662   */\n      0x00\n        /* \"#utility.yul\":686:739   */\n      tag_68\n        /* \"#utility.yul\":731:738   */\n      dup8\n        /* \"#utility.yul\":722:728   */\n      dup3\n        /* \"#utility.yul\":711:720   */\n      dup9\n        /* \"#utility.yul\":707:729   */\n      add\n        /* \"#utility.yul\":686:739   */\n      tag_58\n      jump\t// in\n    tag_68:\n        /* \"#utility.yul\":676:739   */\n      swap5\n      pop\n        /* \"#utility.yul\":632:749   */\n      pop\n        /* \"#utility.yul\":788:790   */\n      0x20\n        /* \"#utility.yul\":814:867   */\n      tag_69\n        /* \"#utility.yul\":859:866   */\n      dup8\n        /* \"#utility.yul\":850:856   */\n      dup3\n        /* \"#utility.yul\":839:848   */\n      dup9\n        /* \"#utility.yul\":835:857   */\n      add\n        /* \"#utility.yul\":814:867   */\n      tag_54\n      jump\t// in\n    tag_69:\n        /* \"#utility.yul\":804:867   */\n      swap4\n      pop\n        /* \"#utility.yul\":759:877   */\n      pop\n        /* \"#utility.yul\":916:918   */\n      0x40\n        /* \"#utility.yul\":942:995   */\n      tag_70\n        /* \"#utility.yul\":987:994   */\n      dup8\n        /* \"#utility.yul\":978:984   */\n      dup3\n        /* \"#utility.yul\":967:976   */\n      dup9\n        /* \"#utility.yul\":963:985   */\n      add\n        /* \"#utility.yul\":942:995   */\n      tag_54\n      jump\t// in\n    tag_70:\n        /* \"#utility.yul\":932:995   */\n      swap3\n      pop\n        /* \"#utility.yul\":887:1005   */\n      pop\n        /* \"#utility.yul\":1044:1046   */\n      0x60\n        /* \"#utility.yul\":1070:1123   */\n      tag_71\n        /* \"#utility.yul\":1115:1122   */\n      dup8\n        /* \"#utility.yul\":1106:1112   */\n      dup3\n        /* \"#utility.yul\":1095:1104   */\n      dup9\n        /* \"#utility.yul\":1091:1113   */\n      add\n        /* \"#utility.yul\":1070:1123   */\n      tag_58\n      jump\t// in\n    tag_71:\n        /* \"#utility.yul\":1060:1123   */\n      swap2\n      pop\n        /* \"#utility.yul\":1015:1133   */\n      pop\n        /* \"#utility.yul\":559:1140   */\n      swap3\n      swap6\n      swap2\n      swap5\n      pop\n      swap3\n      pop\n      jump\t// out\n        /* \"#utility.yul\":1146:1408   */\n    tag_22:\n      0x00\n        /* \"#utility.yul\":1254:1256   */\n      0x20\n        /* \"#utility.yul\":1242:1251   */\n      dup3\n        /* \"#utility.yul\":1233:1240   */\n      dup5\n        /* \"#utility.yul\":1229:1252   */\n      sub\n        /* \"#utility.yul\":1225:1257   */\n      slt\n        /* \"#utility.yul\":1222:1224   */\n      iszero\n      tag_73\n      jumpi\n        /* \"#utility.yul\":1270:1271   */\n      0x00\n        /* \"#utility.yul\":1267:1268   */\n      dup1\n        /* \"#utility.yul\":1260:1272   */\n      revert\n        /* \"#utility.yul\":1222:1224   */\n    tag_73:\n        /* \"#utility.yul\":1313:1314   */\n      0x00\n        /* \"#utility.yul\":1338:1391   */\n      tag_74\n        /* \"#utility.yul\":1383:1390   */\n      dup5\n        /* \"#utility.yul\":1374:1380   */\n      dup3\n        /* \"#utility.yul\":1363:1372   */\n      dup6\n        /* \"#utility.yul\":1359:1381   */\n      add\n        /* \"#utility.yul\":1338:1391   */\n      tag_62\n      jump\t// in\n    tag_74:\n        /* \"#utility.yul\":1328:1391   */\n      swap2\n      pop\n        /* \"#utility.yul\":1284:1401   */\n      pop\n        /* \"#utility.yul\":1212:1408   */\n      swap3\n      swap2\n      pop\n      pop\n      jump\t// out\n        /* \"#utility.yul\":1414:1677   */\n    tag_75:\n      0x00\n        /* \"#utility.yul\":1546:1634   */\n      tag_77\n        /* \"#utility.yul\":1630:1633   */\n      dup4\n        /* \"#utility.yul\":1622:1628   */\n      dup4\n        /* \"#utility.yul\":1546:1634   */\n      tag_78\n      jump\t// in\n    tag_77:\n        /* \"#utility.yul\":1666:1670   */\n      0xa0\n        /* \"#utility.yul\":1661:1664   */\n      dup4\n        /* \"#utility.yul\":1657:1671   */\n      add\n        /* \"#utility.yul\":1643:1671   */\n      swap1\n      pop\n        /* \"#utility.yul\":1536:1677   */\n      swap3\n      swap2\n      pop\n      pop\n      jump\t// out\n        /* \"#utility.yul\":1683:1791   */\n    tag_79:\n        /* \"#utility.yul\":1760:1784   */\n      tag_81\n        /* \"#utility.yul\":1778:1783   */\n      dup2\n        /* \"#utility.yul\":1760:1784   */\n      tag_82\n      jump\t// in\n    tag_81:\n        /* \"#utility.yul\":1755:1758   */\n      dup3\n        /* \"#utility.yul\":1748:1785   */\n      mstore\n        /* \"#utility.yul\":1738:1791   */\n      pop\n      pop\n      jump\t// out\n        /* \"#utility.yul\":1797:1915   */\n    tag_83:\n        /* \"#utility.yul\":1884:1908   */\n      tag_85\n        /* \"#utility.yul\":1902:1907   */\n      dup2\n        /* \"#utility.yul\":1884:1908   */\n      tag_82\n      jump\t// in\n    tag_85:\n        /* \"#utility.yul\":1879:1882   */\n      dup3\n        /* \"#utility.yul\":1872:1909   */\n      mstore\n        /* \"#utility.yul\":1862:1915   */\n      pop\n      pop\n      jump\t// out\n        /* \"#utility.yul\":1985:2885   */\n    tag_86:\n      0x00\n        /* \"#utility.yul\":2175:2250   */\n      tag_88\n        /* \"#utility.yul\":2244:2249   */\n      dup3\n        /* \"#utility.yul\":2175:2250   */\n      tag_89\n      jump\t// in\n    tag_88:\n        /* \"#utility.yul\":2266:2373   */\n      tag_90\n        /* \"#utility.yul\":2366:2372   */\n      dup2\n        /* \"#utility.yul\":2361:2364   */\n      dup6\n        /* \"#utility.yul\":2266:2373   */\n      tag_91\n      jump\t// in\n    tag_90:\n        /* \"#utility.yul\":2259:2373   */\n      swap4\n      pop\n        /* \"#utility.yul\":2397:2474   */\n      tag_92\n        /* \"#utility.yul\":2468:2473   */\n      dup4\n        /* \"#utility.yul\":2397:2474   */\n      tag_93\n      jump\t// in\n    tag_92:\n        /* \"#utility.yul\":2497:2504   */\n      dup1\n        /* \"#utility.yul\":2528:2529   */\n      0x00\n        /* \"#utility.yul\":2513:2860   */\n    tag_94:\n        /* \"#utility.yul\":2538:2544   */\n      dup4\n        /* \"#utility.yul\":2535:2536   */\n      dup2\n        /* \"#utility.yul\":2532:2545   */\n      lt\n        /* \"#utility.yul\":2513:2860   */\n      iszero\n      tag_96\n      jumpi\n        /* \"#utility.yul\":2614:2620   */\n      dup2\n        /* \"#utility.yul\":2608:2621   */\n      mload\n        /* \"#utility.yul\":2641:2746   */\n      tag_97\n        /* \"#utility.yul\":2742:2745   */\n      dup9\n        /* \"#utility.yul\":2727:2740   */\n      dup3\n        /* \"#utility.yul\":2641:2746   */\n      tag_75\n      jump\t// in\n    tag_97:\n        /* \"#utility.yul\":2634:2746   */\n      swap8\n      pop\n        /* \"#utility.yul\":2769:2850   */\n      tag_98\n        /* \"#utility.yul\":2843:2849   */\n      dup4\n        /* \"#utility.yul\":2769:2850   */\n      tag_99\n      jump\t// in\n    tag_98:\n        /* \"#utility.yul\":2759:2850   */\n      swap3\n      pop\n        /* \"#utility.yul\":2573:2860   */\n      pop\n        /* \"#utility.yul\":2560:2561   */\n      0x01\n        /* \"#utility.yul\":2557:2558   */\n      dup2\n        /* \"#utility.yul\":2553:2562   */\n      add\n        /* \"#utility.yul\":2548:2562   */\n      swap1\n      pop\n        /* \"#utility.yul\":2513:2860   */\n      jump(tag_94)\n    tag_96:\n        /* \"#utility.yul\":2517:2531   */\n      pop\n        /* \"#utility.yul\":2876:2879   */\n      dup6\n        /* \"#utility.yul\":2869:2879   */\n      swap4\n      pop\n        /* \"#utility.yul\":2151:2885   */\n      pop\n      pop\n      pop\n      swap3\n      swap2\n      pop\n      pop\n      jump\t// out\n        /* \"#utility.yul\":2891:2999   */\n    tag_100:\n        /* \"#utility.yul\":2968:2992   */\n      tag_102\n        /* \"#utility.yul\":2986:2991   */\n      dup2\n        /* \"#utility.yul\":2968:2992   */\n      tag_103\n      jump\t// in\n    tag_102:\n        /* \"#utility.yul\":2963:2966   */\n      dup3\n        /* \"#utility.yul\":2956:2993   */\n      mstore\n        /* \"#utility.yul\":2946:2999   */\n      pop\n      pop\n      jump\t// out\n        /* \"#utility.yul\":3005:3123   */\n    tag_104:\n        /* \"#utility.yul\":3092:3116   */\n      tag_106\n        /* \"#utility.yul\":3110:3115   */\n      dup2\n        /* \"#utility.yul\":3092:3116   */\n      tag_103\n      jump\t// in\n    tag_106:\n        /* \"#utility.yul\":3087:3090   */\n      dup3\n        /* \"#utility.yul\":3080:3117   */\n      mstore\n        /* \"#utility.yul\":3070:3123   */\n      pop\n      pop\n      jump\t// out\n        /* \"#utility.yul\":3129:3454   */\n    tag_107:\n      0x00\n        /* \"#utility.yul\":3292:3359   */\n      tag_109\n        /* \"#utility.yul\":3356:3358   */\n      0x1b\n        /* \"#utility.yul\":3351:3354   */\n      dup4\n        /* \"#utility.yul\":3292:3359   */\n      tag_110\n      jump\t// in\n    tag_109:\n        /* \"#utility.yul\":3285:3359   */\n      swap2\n      pop\n        /* \"#utility.yul\":3389:3418   */\n      0x5472616e73616374696f6e206572726f72206f63637572726564210000000000\n        /* \"#utility.yul\":3385:3386   */\n      0x00\n        /* \"#utility.yul\":3380:3383   */\n      dup4\n        /* \"#utility.yul\":3376:3387   */\n      add\n        /* \"#utility.yul\":3369:3419   */\n      mstore\n        /* \"#utility.yul\":3445:3447   */\n      0x20\n        /* \"#utility.yul\":3440:3443   */\n      dup3\n        /* \"#utility.yul\":3436:3448   */\n      add\n        /* \"#utility.yul\":3429:3448   */\n      swap1\n      pop\n        /* \"#utility.yul\":3275:3454   */\n      swap2\n      swap1\n      pop\n      jump\t// out\n        /* \"#utility.yul\":3520:4548   */\n    tag_78:\n        /* \"#utility.yul\":3649:3653   */\n      0xa0\n        /* \"#utility.yul\":3644:3647   */\n      dup3\n        /* \"#utility.yul\":3640:3654   */\n      add\n        /* \"#utility.yul\":3739:3743   */\n      0x00\n        /* \"#utility.yul\":3732:3737   */\n      dup3\n        /* \"#utility.yul\":3728:3744   */\n      add\n        /* \"#utility.yul\":3722:3745   */\n      mload\n        /* \"#utility.yul\":3758:3821   */\n      tag_112\n        /* \"#utility.yul\":3815:3819   */\n      0x00\n        /* \"#utility.yul\":3810:3813   */\n      dup6\n        /* \"#utility.yul\":3806:3820   */\n      add\n        /* \"#utility.yul\":3792:3804   */\n      dup3\n        /* \"#utility.yul\":3758:3821   */\n      tag_100\n      jump\t// in\n    tag_112:\n        /* \"#utility.yul\":3664:3831   */\n      pop\n        /* \"#utility.yul\":3917:3921   */\n      0x20\n        /* \"#utility.yul\":3910:3915   */\n      dup3\n        /* \"#utility.yul\":3906:3922   */\n      add\n        /* \"#utility.yul\":3900:3923   */\n      mload\n        /* \"#utility.yul\":3936:3999   */\n      tag_113\n        /* \"#utility.yul\":3993:3997   */\n      0x20\n        /* \"#utility.yul\":3988:3991   */\n      dup6\n        /* \"#utility.yul\":3984:3998   */\n      add\n        /* \"#utility.yul\":3970:3982   */\n      dup3\n        /* \"#utility.yul\":3936:3999   */\n      tag_79\n      jump\t// in\n    tag_113:\n        /* \"#utility.yul\":3841:4009   */\n      pop\n        /* \"#utility.yul\":4093:4097   */\n      0x40\n        /* \"#utility.yul\":4086:4091   */\n      dup3\n        /* \"#utility.yul\":4082:4098   */\n      add\n        /* \"#utility.yul\":4076:4099   */\n      mload\n        /* \"#utility.yul\":4112:4175   */\n      tag_114\n        /* \"#utility.yul\":4169:4173   */\n      0x40\n        /* \"#utility.yul\":4164:4167   */\n      dup6\n        /* \"#utility.yul\":4160:4174   */\n      add\n        /* \"#utility.yul\":4146:4158   */\n      dup3\n        /* \"#utility.yul\":4112:4175   */\n      tag_79\n      jump\t// in\n    tag_114:\n        /* \"#utility.yul\":4019:4185   */\n      pop\n        /* \"#utility.yul\":4270:4274   */\n      0x60\n        /* \"#utility.yul\":4263:4268   */\n      dup3\n        /* \"#utility.yul\":4259:4275   */\n      add\n        /* \"#utility.yul\":4253:4276   */\n      mload\n        /* \"#utility.yul\":4289:4352   */\n      tag_115\n        /* \"#utility.yul\":4346:4350   */\n      0x60\n        /* \"#utility.yul\":4341:4344   */\n      dup6\n        /* \"#utility.yul\":4337:4351   */\n      add\n        /* \"#utility.yul\":4323:4335   */\n      dup3\n        /* \"#utility.yul\":4289:4352   */\n      tag_100\n      jump\t// in\n    tag_115:\n        /* \"#utility.yul\":4195:4362   */\n      pop\n        /* \"#utility.yul\":4449:4453   */\n      0x80\n        /* \"#utility.yul\":4442:4447   */\n      dup3\n        /* \"#utility.yul\":4438:4454   */\n      add\n        /* \"#utility.yul\":4432:4455   */\n      mload\n        /* \"#utility.yul\":4468:4531   */\n      tag_116\n        /* \"#utility.yul\":4525:4529   */\n      0x80\n        /* \"#utility.yul\":4520:4523   */\n      dup6\n        /* \"#utility.yul\":4516:4530   */\n      add\n        /* \"#utility.yul\":4502:4514   */\n      dup3\n        /* \"#utility.yul\":4468:4531   */\n      tag_117\n      jump\t// in\n    tag_116:\n        /* \"#utility.yul\":4372:4541   */\n      pop\n        /* \"#utility.yul\":3618:4548   */\n      pop\n      pop\n      pop\n      jump\t// out\n        /* \"#utility.yul\":4554:4662   */\n    tag_117:\n        /* \"#utility.yul\":4631:4655   */\n      tag_119\n        /* \"#utility.yul\":4649:4654   */\n      dup2\n        /* \"#utility.yul\":4631:4655   */\n      tag_120\n      jump\t// in\n    tag_119:\n        /* \"#utility.yul\":4626:4629   */\n      dup3\n        /* \"#utility.yul\":4619:4656   */\n      mstore\n        /* \"#utility.yul\":4609:4662   */\n      pop\n      pop\n      jump\t// out\n        /* \"#utility.yul\":4668:4786   */\n    tag_121:\n        /* \"#utility.yul\":4755:4779   */\n      tag_123\n        /* \"#utility.yul\":4773:4778   */\n      dup2\n        /* \"#utility.yul\":4755:4779   */\n      tag_120\n      jump\t// in\n    tag_123:\n        /* \"#utility.yul\":4750:4753   */\n      dup3\n        /* \"#utility.yul\":4743:4780   */\n      mstore\n        /* \"#utility.yul\":4733:4786   */\n      pop\n      pop\n      jump\t// out\n        /* \"#utility.yul\":4792:5014   */\n    tag_11:\n      0x00\n        /* \"#utility.yul\":4923:4925   */\n      0x20\n        /* \"#utility.yul\":4912:4921   */\n      dup3\n        /* \"#utility.yul\":4908:4926   */\n      add\n        /* \"#utility.yul\":4900:4926   */\n      swap1\n      pop\n        /* \"#utility.yul\":4936:5007   */\n      tag_125\n        /* \"#utility.yul\":5004:5005   */\n      0x00\n        /* \"#utility.yul\":4993:5002   */\n      dup4\n        /* \"#utility.yul\":4989:5006   */\n      add\n        /* \"#utility.yul\":4980:4986   */\n      dup5\n        /* \"#utility.yul\":4936:5007   */\n      tag_83\n      jump\t// in\n    tag_125:\n        /* \"#utility.yul\":4890:5014   */\n      swap3\n      swap2\n      pop\n      pop\n      jump\t// out\n        /* \"#utility.yul\":5020:5477   */\n    tag_15:\n      0x00\n        /* \"#utility.yul\":5243:5245   */\n      0x20\n        /* \"#utility.yul\":5232:5241   */\n      dup3\n        /* \"#utility.yul\":5228:5246   */\n      add\n        /* \"#utility.yul\":5220:5246   */\n      swap1\n      pop\n        /* \"#utility.yul\":5292:5301   */\n      dup2\n        /* \"#utility.yul\":5286:5290   */\n      dup2\n        /* \"#utility.yul\":5282:5302   */\n      sub\n        /* \"#utility.yul\":5278:5279   */\n      0x00\n        /* \"#utility.yul\":5267:5276   */\n      dup4\n        /* \"#utility.yul\":5263:5280   */\n      add\n        /* \"#utility.yul\":5256:5303   */\n      mstore\n        /* \"#utility.yul\":5320:5470   */\n      tag_127\n        /* \"#utility.yul\":5465:5469   */\n      dup2\n        /* \"#utility.yul\":5456:5462   */\n      dup5\n        /* \"#utility.yul\":5320:5470   */\n      tag_86\n      jump\t// in\n    tag_127:\n        /* \"#utility.yul\":5312:5470   */\n      swap1\n      pop\n        /* \"#utility.yul\":5210:5477   */\n      swap3\n      swap2\n      pop\n      pop\n      jump\t// out\n        /* \"#utility.yul\":5483:6147   */\n    tag_25:\n      0x00\n        /* \"#utility.yul\":5726:5729   */\n      0xa0\n        /* \"#utility.yul\":5715:5724   */\n      dup3\n        /* \"#utility.yul\":5711:5730   */\n      add\n        /* \"#utility.yul\":5703:5730   */\n      swap1\n      pop\n        /* \"#utility.yul\":5740:5811   */\n      tag_129\n        /* \"#utility.yul\":5808:5809   */\n      0x00\n        /* \"#utility.yul\":5797:5806   */\n      dup4\n        /* \"#utility.yul\":5793:5810   */\n      add\n        /* \"#utility.yul\":5784:5790   */\n      dup9\n        /* \"#utility.yul\":5740:5811   */\n      tag_104\n      jump\t// in\n    tag_129:\n        /* \"#utility.yul\":5821:5893   */\n      tag_130\n        /* \"#utility.yul\":5889:5891   */\n      0x20\n        /* \"#utility.yul\":5878:5887   */\n      dup4\n        /* \"#utility.yul\":5874:5892   */\n      add\n        /* \"#utility.yul\":5865:5871   */\n      dup8\n        /* \"#utility.yul\":5821:5893   */\n      tag_83\n      jump\t// in\n    tag_130:\n        /* \"#utility.yul\":5903:5975   */\n      tag_131\n        /* \"#utility.yul\":5971:5973   */\n      0x40\n        /* \"#utility.yul\":5960:5969   */\n      dup4\n        /* \"#utility.yul\":5956:5974   */\n      add\n        /* \"#utility.yul\":5947:5953   */\n      dup7\n        /* \"#utility.yul\":5903:5975   */\n      tag_83\n      jump\t// in\n    tag_131:\n        /* \"#utility.yul\":5985:6057   */\n      tag_132\n        /* \"#utility.yul\":6053:6055   */\n      0x60\n        /* \"#utility.yul\":6042:6051   */\n      dup4\n        /* \"#utility.yul\":6038:6056   */\n      add\n        /* \"#utility.yul\":6029:6035   */\n      dup6\n        /* \"#utility.yul\":5985:6057   */\n      tag_104\n      jump\t// in\n    tag_132:\n        /* \"#utility.yul\":6067:6140   */\n      tag_133\n        /* \"#utility.yul\":6135:6138   */\n      0x80\n        /* \"#utility.yul\":6124:6133   */\n      dup4\n        /* \"#utility.yul\":6120:6139   */\n      add\n        /* \"#utility.yul\":6111:6117   */\n      dup5\n        /* \"#utility.yul\":6067:6140   */\n      tag_121\n      jump\t// in\n    tag_133:\n        /* \"#utility.yul\":5693:6147   */\n      swap7\n      swap6\n      pop\n      pop\n      pop\n      pop\n      pop\n      pop\n      jump\t// out\n        /* \"#utility.yul\":6153:6572   */\n    tag_49:\n      0x00\n        /* \"#utility.yul\":6357:6359   */\n      0x20\n        /* \"#utility.yul\":6346:6355   */\n      dup3\n        /* \"#utility.yul\":6342:6360   */\n      add\n        /* \"#utility.yul\":6334:6360   */\n      swap1\n      pop\n        /* \"#utility.yul\":6406:6415   */\n      dup2\n        /* \"#utility.yul\":6400:6404   */\n      dup2\n        /* \"#utility.yul\":6396:6416   */\n      sub\n        /* \"#utility.yul\":6392:6393   */\n      0x00\n        /* \"#utility.yul\":6381:6390   */\n      dup4\n        /* \"#utility.yul\":6377:6394   */\n      add\n        /* \"#utility.yul\":6370:6417   */\n      mstore\n        /* \"#utility.yul\":6434:6565   */\n      tag_135\n        /* \"#utility.yul\":6560:6564   */\n      dup2\n        /* \"#utility.yul\":6434:6565   */\n      tag_107\n      jump\t// in\n    tag_135:\n        /* \"#utility.yul\":6426:6565   */\n      swap1\n      pop\n        /* \"#utility.yul\":6324:6572   */\n      swap2\n      swap1\n      pop\n      jump\t// out\n        /* \"#utility.yul\":6578:6800   */\n    tag_19:\n      0x00\n        /* \"#utility.yul\":6709:6711   */\n      0x20\n        /* \"#utility.yul\":6698:6707   */\n      dup3\n        /* \"#utility.yul\":6694:6712   */\n      add\n        /* \"#utility.yul\":6686:6712   */\n      swap1\n      pop\n        /* \"#utility.yul\":6722:6793   */\n      tag_137\n        /* \"#utility.yul\":6790:6791   */\n      0x00\n        /* \"#utility.yul\":6779:6788   */\n      dup4\n        /* \"#utility.yul\":6775:6792   */\n      add\n        /* \"#utility.yul\":6766:6772   */\n      dup5\n        /* \"#utility.yul\":6722:6793   */\n      tag_121\n      jump\t// in\n    tag_137:\n        /* \"#utility.yul\":6676:6800   */\n      swap3\n      swap2\n      pop\n      pop\n      jump\t// out\n        /* \"#utility.yul\":6806:6959   */\n    tag_93:\n      0x00\n        /* \"#utility.yul\":6917:6920   */\n      dup2\n        /* \"#utility.yul\":6909:6920   */\n      swap1\n      pop\n        /* \"#utility.yul\":6947:6951   */\n      0x20\n        /* \"#utility.yul\":6942:6945   */\n      dup3\n        /* \"#utility.yul\":6938:6952   */\n      add\n        /* \"#utility.yul\":6930:6952   */\n      swap1\n      pop\n        /* \"#utility.yul\":6899:6959   */\n      swap2\n      swap1\n      pop\n      jump\t// out\n        /* \"#utility.yul\":6965:7100   */\n    tag_89:\n      0x00\n        /* \"#utility.yul\":7087:7092   */\n      dup2\n        /* \"#utility.yul\":7081:7093   */\n      mload\n        /* \"#utility.yul\":7071:7093   */\n      swap1\n      pop\n        /* \"#utility.yul\":7060:7100   */\n      swap2\n      swap1\n      pop\n      jump\t// out\n        /* \"#utility.yul\":7106:7240   */\n    tag_99:\n      0x00\n        /* \"#utility.yul\":7229:7233   */\n      0x20\n        /* \"#utility.yul\":7224:7227   */\n      dup3\n        /* \"#utility.yul\":7220:7234   */\n      add\n        /* \"#utility.yul\":7212:7234   */\n      swap1\n      pop\n        /* \"#utility.yul\":7202:7240   */\n      swap2\n      swap1\n      pop\n      jump\t// out\n        /* \"#utility.yul\":7246:7451   */\n    tag_91:\n      0x00\n        /* \"#utility.yul\":7400:7406   */\n      dup3\n        /* \"#utility.yul\":7395:7398   */\n      dup3\n        /* \"#utility.yul\":7388:7407   */\n      mstore\n        /* \"#utility.yul\":7440:7444   */\n      0x20\n        /* \"#utility.yul\":7435:7438   */\n      dup3\n        /* \"#utility.yul\":7431:7445   */\n      add\n        /* \"#utility.yul\":7416:7445   */\n      swap1\n      pop\n        /* \"#utility.yul\":7378:7451   */\n      swap3\n      swap2\n      pop\n      pop\n      jump\t// out\n        /* \"#utility.yul\":7457:7626   */\n    tag_110:\n      0x00\n        /* \"#utility.yul\":7575:7581   */\n      dup3\n        /* \"#utility.yul\":7570:7573   */\n      dup3\n        /* \"#utility.yul\":7563:7582   */\n      mstore\n        /* \"#utility.yul\":7615:7619   */\n      0x20\n        /* \"#utility.yul\":7610:7613   */\n      dup3\n        /* \"#utility.yul\":7606:7620   */\n      add\n        /* \"#utility.yul\":7591:7620   */\n      swap1\n      pop\n        /* \"#utility.yul\":7553:7626   */\n      swap3\n      swap2\n      pop\n      pop\n      jump\t// out\n        /* \"#utility.yul\":7632:7937   */\n    tag_51:\n      0x00\n        /* \"#utility.yul\":7691:7711   */\n      tag_144\n        /* \"#utility.yul\":7709:7710   */\n      dup3\n        /* \"#utility.yul\":7691:7711   */\n      tag_120\n      jump\t// in\n    tag_144:\n        /* \"#utility.yul\":7686:7711   */\n      swap2\n      pop\n        /* \"#utility.yul\":7725:7745   */\n      tag_145\n        /* \"#utility.yul\":7743:7744   */\n      dup4\n        /* \"#utility.yul\":7725:7745   */\n      tag_120\n      jump\t// in\n    tag_145:\n        /* \"#utility.yul\":7720:7745   */\n      swap3\n      pop\n        /* \"#utility.yul\":7879:7880   */\n      dup3\n        /* \"#utility.yul\":7811:7877   */\n      0xffffffffffffffffffffffffffffffffffffffffffffffffffffffffffffffff\n        /* \"#utility.yul\":7807:7881   */\n      sub\n        /* \"#utility.yul\":7804:7805   */\n      dup3\n        /* \"#utility.yul\":7801:7882   */\n      gt\n        /* \"#utility.yul\":7798:7800   */\n      iszero\n      tag_146\n      jumpi\n        /* \"#utility.yul\":7885:7903   */\n      tag_147\n      tag_148\n      jump\t// in\n    tag_147:\n        /* \"#utility.yul\":7798:7800   */\n    tag_146:\n        /* \"#utility.yul\":7929:7930   */\n      dup3\n        /* \"#utility.yul\":7926:7927   */\n      dup3\n        /* \"#utility.yul\":7922:7931   */\n      add\n        /* \"#utility.yul\":7915:7931   */\n      swap1\n      pop\n        /* \"#utility.yul\":7676:7937   */\n      swap3\n      swap2\n      pop\n      pop\n      jump\t// out\n        /* \"#utility.yul\":7943:8134   */\n    tag_46:\n      0x00\n        /* \"#utility.yul\":8003:8023   */\n      tag_150\n        /* \"#utility.yul\":8021:8022   */\n      dup3\n        /* \"#utility.yul\":8003:8023   */\n      tag_120\n      jump\t// in\n    tag_150:\n        /* \"#utility.yul\":7998:8023   */\n      swap2\n      pop\n        /* \"#utility.yul\":8037:8057   */\n      tag_151\n        /* \"#utility.yul\":8055:8056   */\n      dup4\n        /* \"#utility.yul\":8037:8057   */\n      tag_120\n      jump\t// in\n    tag_151:\n        /* \"#utility.yul\":8032:8057   */\n      swap3\n      pop\n        /* \"#utility.yul\":8076:8077   */\n      dup3\n        /* \"#utility.yul\":8073:8074   */\n      dup3\n        /* \"#utility.yul\":8070:8078   */\n      lt\n        /* \"#utility.yul\":8067:8069   */\n      iszero\n      tag_152\n      jumpi\n        /* \"#utility.yul\":8081:8099   */\n      tag_153\n      tag_148\n      jump\t// in\n    tag_153:\n        /* \"#utility.yul\":8067:8069   */\n    tag_152:\n        /* \"#utility.yul\":8126:8127   */\n      dup3\n        /* \"#utility.yul\":8123:8124   */\n      dup3\n        /* \"#utility.yul\":8119:8128   */\n      sub\n        /* \"#utility.yul\":8111:8128   */\n      swap1\n      pop\n        /* \"#utility.yul\":7988:8134   */\n      swap3\n      swap2\n      pop\n      pop\n      jump\t// out\n        /* \"#utility.yul\":8140:8236   */\n    tag_82:\n      0x00\n        /* \"#utility.yul\":8206:8230   */\n      tag_155\n        /* \"#utility.yul\":8224:8229   */\n      dup3\n        /* \"#utility.yul\":8206:8230   */\n      tag_156\n      jump\t// in\n    tag_155:\n        /* \"#utility.yul\":8195:8230   */\n      swap1\n      pop\n        /* \"#utility.yul\":8185:8236   */\n      swap2\n      swap1\n      pop\n      jump\t// out\n        /* \"#utility.yul\":8242:8319   */\n    tag_103:\n      0x00\n        /* \"#utility.yul\":8308:8313   */\n      dup2\n        /* \"#utility.yul\":8297:8313   */\n      swap1\n      pop\n        /* \"#utility.yul\":8287:8319   */\n      swap2\n      swap1\n      pop\n      jump\t// out\n        /* \"#utility.yul\":8325:8451   */\n    tag_156:\n      0x00\n        /* \"#utility.yul\":8402:8444   */\n      0xffffffffffffffffffffffffffffffffffffffff\n        /* \"#utility.yul\":8395:8400   */\n      dup3\n        /* \"#utility.yul\":8391:8445   */\n      and\n        /* \"#utility.yul\":8380:8445   */\n      swap1\n      pop\n        /* \"#utility.yul\":8370:8451   */\n      swap2\n      swap1\n      pop\n      jump\t// out\n        /* \"#utility.yul\":8457:8534   */\n    tag_120:\n      0x00\n        /* \"#utility.yul\":8523:8528   */\n      dup2\n        /* \"#utility.yul\":8512:8528   */\n      swap1\n      pop\n        /* \"#utility.yul\":8502:8534   */\n      swap2\n      swap1\n      pop\n      jump\t// out\n        /* \"#utility.yul\":8540:8773   */\n    tag_41:\n      0x00\n        /* \"#utility.yul\":8602:8626   */\n      tag_161\n        /* \"#utility.yul\":8620:8625   */\n      dup3\n        /* \"#utility.yul\":8602:8626   */\n      tag_120\n      jump\t// in\n    tag_161:\n        /* \"#utility.yul\":8593:8626   */\n      swap2\n      pop\n        /* \"#utility.yul\":8648:8714   */\n      0xffffffffffffffffffffffffffffffffffffffffffffffffffffffffffffffff\n        /* \"#utility.yul\":8641:8646   */\n      dup3\n        /* \"#utility.yul\":8638:8715   */\n      eq\n        /* \"#utility.yul\":8635:8637   */\n      iszero\n      tag_162\n      jumpi\n        /* \"#utility.yul\":8718:8736   */\n      tag_163\n      tag_148\n      jump\t// in\n    tag_163:\n        /* \"#utility.yul\":8635:8637   */\n    tag_162:\n        /* \"#utility.yul\":8765:8766   */\n      0x01\n        /* \"#utility.yul\":8758:8763   */\n      dup3\n        /* \"#utility.yul\":8754:8767   */\n      add\n        /* \"#utility.yul\":8747:8767   */\n      swap1\n      pop\n        /* \"#utility.yul\":8583:8773   */\n      swap2\n      swap1\n      pop\n      jump\t// out\n        /* \"#utility.yul\":8779:8959   */\n    tag_148:\n        /* \"#utility.yul\":8827:8904   */\n      0x4e487b7100000000000000000000000000000000000000000000000000000000\n        /* \"#utility.yul\":8824:8825   */\n      0x00\n        /* \"#utility.yul\":8817:8905   */\n      mstore\n        /* \"#utility.yul\":8924:8928   */\n      0x11\n        /* \"#utility.yul\":8921:8922   */\n      0x04\n        /* \"#utility.yul\":8914:8929   */\n      mstore\n        /* \"#utility.yul\":8948:8952   */\n      0x24\n        /* \"#utility.yul\":8945:8946   */\n      0x00\n        /* \"#utility.yul\":8938:8953   */\n      revert\n        /* \"#utility.yul\":8965:9087   */\n    tag_57:\n        /* \"#utility.yul\":9038:9062   */\n      tag_166\n        /* \"#utility.yul\":9056:9061   */\n      dup2\n        /* \"#utility.yul\":9038:9062   */\n      tag_82\n      jump\t// in\n    tag_166:\n        /* \"#utility.yul\":9031:9036   */\n      dup2\n        /* \"#utility.yul\":9028:9063   */\n      eq\n        /* \"#utility.yul\":9018:9020   */\n      tag_167\n      jumpi\n        /* \"#utility.yul\":9077:9078   */\n      0x00\n        /* \"#utility.yul\":9074:9075   */\n      dup1\n        /* \"#utility.yul\":9067:9079   */\n      revert\n        /* \"#utility.yul\":9018:9020   */\n    tag_167:\n        /* \"#utility.yul\":9008:9087   */\n      pop\n      jump\t// out\n        /* \"#utility.yul\":9093:9215   */\n    tag_61:\n        /* \"#utility.yul\":9166:9190   */\n      tag_169\n        /* \"#utility.yul\":9184:9189   */\n      dup2\n        /* \"#utility.yul\":9166:9190   */\n      tag_103\n      jump\t// in\n    tag_169:\n        /* \"#utility.yul\":9159:9164   */\n      dup2\n        /* \"#utility.yul\":9156:9191   */\n      eq\n        /* \"#utility.yul\":9146:9148   */\n      tag_170\n      jumpi\n        /* \"#utility.yul\":9205:9206   */\n      0x00\n        /* \"#utility.yul\":9202:9203   */\n      dup1\n        /* \"#utility.yul\":9195:9207   */\n      revert\n        /* \"#utility.yul\":9146:9148   */\n    tag_170:\n        /* \"#utility.yul\":9136:9215   */\n      pop\n      jump\t// out\n        /* \"#utility.yul\":9221:9343   */\n    tag_65:\n        /* \"#utility.yul\":9294:9318   */\n      tag_172\n        /* \"#utility.yul\":9312:9317   */\n      dup2\n        /* \"#utility.yul\":9294:9318   */\n      tag_120\n      jump\t// in\n    tag_172:\n        /* \"#utility.yul\":9287:9292   */\n      dup2\n        /* \"#utility.yul\":9284:9319   */\n      eq\n        /* \"#utility.yul\":9274:9276   */\n      tag_173\n      jumpi\n        /* \"#utility.yul\":9333:9334   */\n      0x00\n        /* \"#utility.yul\":9330:9331   */\n      dup1\n        /* \"#utility.yul\":9323:9335   */\n      revert\n        /* \"#utility.yul\":9274:9276   */\n    tag_173:\n        /* \"#utility.yul\":9264:9343   */\n      pop\n      jump\t// out\n\n    auxdata: 0xa26469706673582212205054f696c0487d79dde749afb612312c36e48ea1943cfa70b872b82f2c65e02664736f6c63430008000033\n}\n",
				"bytecode": {
					"linkReferences": {},
					"object": "6080604052600060025534801561001557600080fd5b50604051610d19380380610d1983398181016040528101906100379190610092565b806000806101000a81548173ffffffffffffffffffffffffffffffffffffffff021916908373ffffffffffffffffffffffffffffffffffffffff16021790555050610104565b60008151905061008c816100ed565b92915050565b6000602082840312156100a457600080fd5b60006100b28482850161007d565b91505092915050565b60006100c6826100cd565b9050919050565b600073ffffffffffffffffffffffffffffffffffffffff82169050919050565b6100f6816100bb565b811461010157600080fd5b50565b610c06806101136000396000f3fe608060405234801561001057600080fd5b50600436106100575760003560e01c806318bee97e1461005c57806327506f531461007a57806378ce1365146100985780639ace38c2146100b65780639e9ab89b146100ea575b600080fd5b610064610106565b604051610071919061092e565b60405180910390f35b61008261012a565b60405161008f9190610949565b60405180910390f35b6100a0610304565b6040516100ad91906109de565b60405180910390f35b6100d060048036038101906100cb919061078d565b61030a565b6040516100e195949392919061096b565b60405180910390f35b61010460048036038101906100ff919061072a565b610380565b005b60008054906101000a900473ffffffffffffffffffffffffffffffffffffffff1681565b60606000600254905060008167ffffffffffffffff811115610175577f4e487b7100000000000000000000000000000000000000000000000000000000600052604160045260246000fd5b6040519080825280602002602001820160405280156101ae57816020015b61019b61068a565b8152602001906001900390816101935790505b50905060005b828110156102fb57600160008281526020019081526020016000206040518060a0016040529081600082015481526020016001820160009054906101000a900473ffffffffffffffffffffffffffffffffffffffff1673ffffffffffffffffffffffffffffffffffffffff1673ffffffffffffffffffffffffffffffffffffffff1681526020016002820160009054906101000a900473ffffffffffffffffffffffffffffffffffffffff1673ffffffffffffffffffffffffffffffffffffffff1673ffffffffffffffffffffffffffffffffffffffff168152602001600382015481526020016004820154815250508282815181106102dd577f4e487b7100000000000000000000000000000000000000000000000000000000600052603260045260246000fd5b602002602001018190525080806102f390610b13565b9150506101b4565b50809250505090565b60025481565b60016020528060005260406000206000915090508060000154908060010160009054906101000a900473ffffffffffffffffffffffffffffffffffffffff16908060020160009054906101000a900473ffffffffffffffffffffffffffffffffffffffff16908060030154908060040154905085565b6000429050600060025414156104ac576040518060a001604052808681526020018573ffffffffffffffffffffffffffffffffffffffff1681526020018473ffffffffffffffffffffffffffffffffffffffff168152602001838152602001828152506001600060025481526020019081526020016000206000820151816000015560208201518160010160006101000a81548173ffffffffffffffffffffffffffffffffffffffff021916908373ffffffffffffffffffffffffffffffffffffffff16021790555060408201518160020160006101000a81548173ffffffffffffffffffffffffffffffffffffffff021916908373ffffffffffffffffffffffffffffffffffffffff160217905550606082015181600301556080820151816004015590505061062a565b816001600060016002546104c09190610a99565b81526020019081526020016000206000015414610512576040517f08c379a0000000000000000000000000000000000000000000000000000000008152600401610509906109be565b60405180910390fd5b6040518060a001604052808681526020018573ffffffffffffffffffffffffffffffffffffffff1681526020018473ffffffffffffffffffffffffffffffffffffffff168152602001838152602001828152506001600060025481526020019081526020016000206000820151816000015560208201518160010160006101000a81548173ffffffffffffffffffffffffffffffffffffffff021916908373ffffffffffffffffffffffffffffffffffffffff16021790555060408201518160020160006101000a81548173ffffffffffffffffffffffffffffffffffffffff021916908373ffffffffffffffffffffffffffffffffffffffff16021790555060608201518160030155608082015181600401559050505b60016002600082825461063d9190610a43565b925050819055507f08ce16702f64d2cdc93c2d36818cee685abd25dcf25f93b5008c07c328652bb6858585858560405161067b95949392919061096b565b60405180910390a15050505050565b6040518060a0016040528060008019168152602001600073ffffffffffffffffffffffffffffffffffffffff168152602001600073ffffffffffffffffffffffffffffffffffffffff16815260200160008019168152602001600081525090565b6000813590506106fa81610b8b565b92915050565b60008135905061070f81610ba2565b92915050565b60008135905061072481610bb9565b92915050565b6000806000806080858703121561074057600080fd5b600061074e87828801610700565b945050602061075f878288016106eb565b9350506040610770878288016106eb565b925050606061078187828801610700565b91505092959194509250565b60006020828403121561079f57600080fd5b60006107ad84828501610715565b91505092915050565b60006107c283836108a8565b60a08301905092915050565b6107d781610acd565b82525050565b6107e681610acd565b82525050565b60006107f782610a09565b6108018185610a21565b935061080c836109f9565b8060005b8381101561083d57815161082488826107b6565b975061082f83610a14565b925050600181019050610810565b5085935050505092915050565b61085381610adf565b82525050565b61086281610adf565b82525050565b6000610875601b83610a32565b91507f5472616e73616374696f6e206572726f72206f636375727265642100000000006000830152602082019050919050565b60a0820160008201516108be600085018261084a565b5060208201516108d160208501826107ce565b5060408201516108e460408501826107ce565b5060608201516108f7606085018261084a565b50608082015161090a6080850182610910565b50505050565b61091981610b09565b82525050565b61092881610b09565b82525050565b600060208201905061094360008301846107dd565b92915050565b6000602082019050818103600083015261096381846107ec565b905092915050565b600060a0820190506109806000830188610859565b61098d60208301876107dd565b61099a60408301866107dd565b6109a76060830185610859565b6109b4608083018461091f565b9695505050505050565b600060208201905081810360008301526109d781610868565b9050919050565b60006020820190506109f3600083018461091f565b92915050565b6000819050602082019050919050565b600081519050919050565b6000602082019050919050565b600082825260208201905092915050565b600082825260208201905092915050565b6000610a4e82610b09565b9150610a5983610b09565b9250827fffffffffffffffffffffffffffffffffffffffffffffffffffffffffffffffff03821115610a8e57610a8d610b5c565b5b828201905092915050565b6000610aa482610b09565b9150610aaf83610b09565b925082821015610ac257610ac1610b5c565b5b828203905092915050565b6000610ad882610ae9565b9050919050565b6000819050919050565b600073ffffffffffffffffffffffffffffffffffffffff82169050919050565b6000819050919050565b6000610b1e82610b09565b91507fffffffffffffffffffffffffffffffffffffffffffffffffffffffffffffffff821415610b5157610b50610b5c565b5b600182019050919050565b7f4e487b7100000000000000000000000000000000000000000000000000000000600052601160045260246000fd5b610b9481610acd565b8114610b9f57600080fd5b50565b610bab81610adf565b8114610bb657600080fd5b50565b610bc281610b09565b8114610bcd57600080fd5b5056fea26469706673582212205054f696c0487d79dde749afb612312c36e48ea1943cfa70b872b82f2c65e02664736f6c63430008000033",
					"opcodes": "PUSH1 0x80 PUSH1 0x40 MSTORE PUSH1 0x0 PUSH1 0x2 SSTORE CALLVALUE DUP1 ISZERO PUSH2 0x15 JUMPI PUSH1 0x0 DUP1 REVERT JUMPDEST POP PUSH1 0x40 MLOAD PUSH2 0xD19 CODESIZE SUB DUP1 PUSH2 0xD19 DUP4 CODECOPY DUP2 DUP2 ADD PUSH1 0x40 MSTORE DUP2 ADD SWAP1 PUSH2 0x37 SWAP2 SWAP1 PUSH2 0x92 JUMP JUMPDEST DUP1 PUSH1 0x0 DUP1 PUSH2 0x100 EXP DUP2 SLOAD DUP2 PUSH20 0xFFFFFFFFFFFFFFFFFFFFFFFFFFFFFFFFFFFFFFFF MUL NOT AND SWAP1 DUP4 PUSH20 0xFFFFFFFFFFFFFFFFFFFFFFFFFFFFFFFFFFFFFFFF AND MUL OR SWAP1 SSTORE POP POP PUSH2 0x104 JUMP JUMPDEST PUSH1 0x0 DUP2 MLOAD SWAP1 POP PUSH2 0x8C DUP2 PUSH2 0xED JUMP JUMPDEST SWAP3 SWAP2 POP POP JUMP JUMPDEST PUSH1 0x0 PUSH1 0x20 DUP3 DUP5 SUB SLT ISZERO PUSH2 0xA4 JUMPI PUSH1 0x0 DUP1 REVERT JUMPDEST PUSH1 0x0 PUSH2 0xB2 DUP5 DUP3 DUP6 ADD PUSH2 0x7D JUMP JUMPDEST SWAP2 POP POP SWAP3 SWAP2 POP POP JUMP JUMPDEST PUSH1 0x0 PUSH2 0xC6 DUP3 PUSH2 0xCD JUMP JUMPDEST SWAP1 POP SWAP2 SWAP1 POP JUMP JUMPDEST PUSH1 0x0 PUSH20 0xFFFFFFFFFFFFFFFFFFFFFFFFFFFFFFFFFFFFFFFF DUP3 AND SWAP1 POP SWAP2 SWAP1 POP JUMP JUMPDEST PUSH2 0xF6 DUP2 PUSH2 0xBB JUMP JUMPDEST DUP2 EQ PUSH2 0x101 JUMPI PUSH1 0x0 DUP1 REVERT JUMPDEST POP JUMP JUMPDEST PUSH2 0xC06 DUP1 PUSH2 0x113 PUSH1 0x0 CODECOPY PUSH1 0x0 RETURN INVALID PUSH1 0x80 PUSH1 0x40 MSTORE CALLVALUE DUP1 ISZERO PUSH2 0x10 JUMPI PUSH1 0x0 DUP1 REVERT JUMPDEST POP PUSH1 0x4 CALLDATASIZE LT PUSH2 0x57 JUMPI PUSH1 0x0 CALLDATALOAD PUSH1 0xE0 SHR DUP1 PUSH4 0x18BEE97E EQ PUSH2 0x5C JUMPI DUP1 PUSH4 0x27506F53 EQ PUSH2 0x7A JUMPI DUP1 PUSH4 0x78CE1365 EQ PUSH2 0x98 JUMPI DUP1 PUSH4 0x9ACE38C2 EQ PUSH2 0xB6 JUMPI DUP1 PUSH4 0x9E9AB89B EQ PUSH2 0xEA JUMPI JUMPDEST PUSH1 0x0 DUP1 REVERT JUMPDEST PUSH2 0x64 PUSH2 0x106 JUMP JUMPDEST PUSH1 0x40 MLOAD PUSH2 0x71 SWAP2 SWAP1 PUSH2 0x92E JUMP JUMPDEST PUSH1 0x40 MLOAD DUP1 SWAP2 SUB SWAP1 RETURN JUMPDEST PUSH2 0x82 PUSH2 0x12A JUMP JUMPDEST PUSH1 0x40 MLOAD PUSH2 0x8F SWAP2 SWAP1 PUSH2 0x949 JUMP JUMPDEST PUSH1 0x40 MLOAD DUP1 SWAP2 SUB SWAP1 RETURN JUMPDEST PUSH2 0xA0 PUSH2 0x304 JUMP JUMPDEST PUSH1 0x40 MLOAD PUSH2 0xAD SWAP2 SWAP1 PUSH2 0x9DE JUMP JUMPDEST PUSH1 0x40 MLOAD DUP1 SWAP2 SUB SWAP1 RETURN JUMPDEST PUSH2 0xD0 PUSH1 0x4 DUP1 CALLDATASIZE SUB DUP2 ADD SWAP1 PUSH2 0xCB SWAP2 SWAP1 PUSH2 0x78D JUMP JUMPDEST PUSH2 0x30A JUMP JUMPDEST PUSH1 0x40 MLOAD PUSH2 0xE1 SWAP6 SWAP5 SWAP4 SWAP3 SWAP2 SWAP1 PUSH2 0x96B JUMP JUMPDEST PUSH1 0x40 MLOAD DUP1 SWAP2 SUB SWAP1 RETURN JUMPDEST PUSH2 0x104 PUSH1 0x4 DUP1 CALLDATASIZE SUB DUP2 ADD SWAP1 PUSH2 0xFF SWAP2 SWAP1 PUSH2 0x72A JUMP JUMPDEST PUSH2 0x380 JUMP JUMPDEST STOP JUMPDEST PUSH1 0x0 DUP1 SLOAD SWAP1 PUSH2 0x100 EXP SWAP1 DIV PUSH20 0xFFFFFFFFFFFFFFFFFFFFFFFFFFFFFFFFFFFFFFFF AND DUP2 JUMP JUMPDEST PUSH1 0x60 PUSH1 0x0 PUSH1 0x2 SLOAD SWAP1 POP PUSH1 0x0 DUP2 PUSH8 0xFFFFFFFFFFFFFFFF DUP2 GT ISZERO PUSH2 0x175 JUMPI PUSH32 0x4E487B7100000000000000000000000000000000000000000000000000000000 PUSH1 0x0 MSTORE PUSH1 0x41 PUSH1 0x4 MSTORE PUSH1 0x24 PUSH1 0x0 REVERT JUMPDEST PUSH1 0x40 MLOAD SWAP1 DUP1 DUP3 MSTORE DUP1 PUSH1 0x20 MUL PUSH1 0x20 ADD DUP3 ADD PUSH1 0x40 MSTORE DUP1 ISZERO PUSH2 0x1AE JUMPI DUP2 PUSH1 0x20 ADD JUMPDEST PUSH2 0x19B PUSH2 0x68A JUMP JUMPDEST DUP2 MSTORE PUSH1 0x20 ADD SWAP1 PUSH1 0x1 SWAP1 SUB SWAP1 DUP2 PUSH2 0x193 JUMPI SWAP1 POP JUMPDEST POP SWAP1 POP PUSH1 0x0 JUMPDEST DUP3 DUP2 LT ISZERO PUSH2 0x2FB JUMPI PUSH1 0x1 PUSH1 0x0 DUP3 DUP2 MSTORE PUSH1 0x20 ADD SWAP1 DUP2 MSTORE PUSH1 0x20 ADD PUSH1 0x0 KECCAK256 PUSH1 0x40 MLOAD DUP1 PUSH1 0xA0 ADD PUSH1 0x40 MSTORE SWAP1 DUP2 PUSH1 0x0 DUP3 ADD SLOAD DUP2 MSTORE PUSH1 0x20 ADD PUSH1 0x1 DUP3 ADD PUSH1 0x0 SWAP1 SLOAD SWAP1 PUSH2 0x100 EXP SWAP1 DIV PUSH20 0xFFFFFFFFFFFFFFFFFFFFFFFFFFFFFFFFFFFFFFFF AND PUSH20 0xFFFFFFFFFFFFFFFFFFFFFFFFFFFFFFFFFFFFFFFF AND PUSH20 0xFFFFFFFFFFFFFFFFFFFFFFFFFFFFFFFFFFFFFFFF AND DUP2 MSTORE PUSH1 0x20 ADD PUSH1 0x2 DUP3 ADD PUSH1 0x0 SWAP1 SLOAD SWAP1 PUSH2 0x100 EXP SWAP1 DIV PUSH20 0xFFFFFFFFFFFFFFFFFFFFFFFFFFFFFFFFFFFFFFFF AND PUSH20 0xFFFFFFFFFFFFFFFFFFFFFFFFFFFFFFFFFFFFFFFF AND PUSH20 0xFFFFFFFFFFFFFFFFFFFFFFFFFFFFFFFFFFFFFFFF AND DUP2 MSTORE PUSH1 0x20 ADD PUSH1 0x3 DUP3 ADD SLOAD DUP2 MSTORE PUSH1 0x20 ADD PUSH1 0x4 DUP3 ADD SLOAD DUP2 MSTORE POP POP DUP3 DUP3 DUP2 MLOAD DUP2 LT PUSH2 0x2DD JUMPI PUSH32 0x4E487B7100000000000000000000000000000000000000000000000000000000 PUSH1 0x0 MSTORE PUSH1 0x32 PUSH1 0x4 MSTORE PUSH1 0x24 PUSH1 0x0 REVERT JUMPDEST PUSH1 0x20 MUL PUSH1 0x20 ADD ADD DUP2 SWAP1 MSTORE POP DUP1 DUP1 PUSH2 0x2F3 SWAP1 PUSH2 0xB13 JUMP JUMPDEST SWAP2 POP POP PUSH2 0x1B4 JUMP JUMPDEST POP DUP1 SWAP3 POP POP POP SWAP1 JUMP JUMPDEST PUSH1 0x2 SLOAD DUP2 JUMP JUMPDEST PUSH1 0x1 PUSH1 0x20 MSTORE DUP1 PUSH1 0x0 MSTORE PUSH1 0x40 PUSH1 0x0 KECCAK256 PUSH1 0x0 SWAP2 POP SWAP1 POP DUP1 PUSH1 0x0 ADD SLOAD SWAP1 DUP1 PUSH1 0x1 ADD PUSH1 0x0 SWAP1 SLOAD SWAP1 PUSH2 0x100 EXP SWAP1 DIV PUSH20 0xFFFFFFFFFFFFFFFFFFFFFFFFFFFFFFFFFFFFFFFF AND SWAP1 DUP1 PUSH1 0x2 ADD PUSH1 0x0 SWAP1 SLOAD SWAP1 PUSH2 0x100 EXP SWAP1 DIV PUSH20 0xFFFFFFFFFFFFFFFFFFFFFFFFFFFFFFFFFFFFFFFF AND SWAP1 DUP1 PUSH1 0x3 ADD SLOAD SWAP1 DUP1 PUSH1 0x4 ADD SLOAD SWAP1 POP DUP6 JUMP JUMPDEST PUSH1 0x0 TIMESTAMP SWAP1 POP PUSH1 0x0 PUSH1 0x2 SLOAD EQ ISZERO PUSH2 0x4AC JUMPI PUSH1 0x40 MLOAD DUP1 PUSH1 0xA0 ADD PUSH1 0x40 MSTORE DUP1 DUP7 DUP2 MSTORE PUSH1 0x20 ADD DUP6 PUSH20 0xFFFFFFFFFFFFFFFFFFFFFFFFFFFFFFFFFFFFFFFF AND DUP2 MSTORE PUSH1 0x20 ADD DUP5 PUSH20 0xFFFFFFFFFFFFFFFFFFFFFFFFFFFFFFFFFFFFFFFF AND DUP2 MSTORE PUSH1 0x20 ADD DUP4 DUP2 MSTORE PUSH1 0x20 ADD DUP3 DUP2 MSTORE POP PUSH1 0x1 PUSH1 0x0 PUSH1 0x2 SLOAD DUP2 MSTORE PUSH1 0x20 ADD SWAP1 DUP2 MSTORE PUSH1 0x20 ADD PUSH1 0x0 KECCAK256 PUSH1 0x0 DUP3 ADD MLOAD DUP2 PUSH1 0x0 ADD SSTORE PUSH1 0x20 DUP3 ADD MLOAD DUP2 PUSH1 0x1 ADD PUSH1 0x0 PUSH2 0x100 EXP DUP2 SLOAD DUP2 PUSH20 0xFFFFFFFFFFFFFFFFFFFFFFFFFFFFFFFFFFFFFFFF MUL NOT AND SWAP1 DUP4 PUSH20 0xFFFFFFFFFFFFFFFFFFFFFFFFFFFFFFFFFFFFFFFF AND MUL OR SWAP1 SSTORE POP PUSH1 0x40 DUP3 ADD MLOAD DUP2 PUSH1 0x2 ADD PUSH1 0x0 PUSH2 0x100 EXP DUP2 SLOAD DUP2 PUSH20 0xFFFFFFFFFFFFFFFFFFFFFFFFFFFFFFFFFFFFFFFF MUL NOT AND SWAP1 DUP4 PUSH20 0xFFFFFFFFFFFFFFFFFFFFFFFFFFFFFFFFFFFFFFFF AND MUL OR SWAP1 SSTORE POP PUSH1 0x60 DUP3 ADD MLOAD DUP2 PUSH1 0x3 ADD SSTORE PUSH1 0x80 DUP3 ADD MLOAD DUP2 PUSH1 0x4 ADD SSTORE SWAP1 POP POP PUSH2 0x62A JUMP JUMPDEST DUP2 PUSH1 0x1 PUSH1 0x0 PUSH1 0x1 PUSH1 0x2 SLOAD PUSH2 0x4C0 SWAP2 SWAP1 PUSH2 0xA99 JUMP JUMPDEST DUP2 MSTORE PUSH1 0x20 ADD SWAP1 DUP2 MSTORE PUSH1 0x20 ADD PUSH1 0x0 KECCAK256 PUSH1 0x0 ADD SLOAD EQ PUSH2 0x512 JUMPI PUSH1 0x40 MLOAD PUSH32 0x8C379A000000000000000000000000000000000000000000000000000000000 DUP2 MSTORE PUSH1 0x4 ADD PUSH2 0x509 SWAP1 PUSH2 0x9BE JUMP JUMPDEST PUSH1 0x40 MLOAD DUP1 SWAP2 SUB SWAP1 REVERT JUMPDEST PUSH1 0x40 MLOAD DUP1 PUSH1 0xA0 ADD PUSH1 0x40 MSTORE DUP1 DUP7 DUP2 MSTORE PUSH1 0x20 ADD DUP6 PUSH20 0xFFFFFFFFFFFFFFFFFFFFFFFFFFFFFFFFFFFFFFFF AND DUP2 MSTORE PUSH1 0x20 ADD DUP5 PUSH20 0xFFFFFFFFFFFFFFFFFFFFFFFFFFFFFFFFFFFFFFFF AND DUP2 MSTORE PUSH1 0x20 ADD DUP4 DUP2 MSTORE PUSH1 0x20 ADD DUP3 DUP2 MSTORE POP PUSH1 0x1 PUSH1 0x0 PUSH1 0x2 SLOAD DUP2 MSTORE PUSH1 0x20 ADD SWAP1 DUP2 MSTORE PUSH1 0x20 ADD PUSH1 0x0 KECCAK256 PUSH1 0x0 DUP3 ADD MLOAD DUP2 PUSH1 0x0 ADD SSTORE PUSH1 0x20 DUP3 ADD MLOAD DUP2 PUSH1 0x1 ADD PUSH1 0x0 PUSH2 0x100 EXP DUP2 SLOAD DUP2 PUSH20 0xFFFFFFFFFFFFFFFFFFFFFFFFFFFFFFFFFFFFFFFF MUL NOT AND SWAP1 DUP4 PUSH20 0xFFFFFFFFFFFFFFFFFFFFFFFFFFFFFFFFFFFFFFFF AND MUL OR SWAP1 SSTORE POP PUSH1 0x40 DUP3 ADD MLOAD DUP2 PUSH1 0x2 ADD PUSH1 0x0 PUSH2 0x100 EXP DUP2 SLOAD DUP2 PUSH20 0xFFFFFFFFFFFFFFFFFFFFFFFFFFFFFFFFFFFFFFFF MUL NOT AND SWAP1 DUP4 PUSH20 0xFFFFFFFFFFFFFFFFFFFFFFFFFFFFFFFFFFFFFFFF AND MUL OR SWAP1 SSTORE POP PUSH1 0x60 DUP3 ADD MLOAD DUP2 PUSH1 0x3 ADD SSTORE PUSH1 0x80 DUP3 ADD MLOAD DUP2 PUSH1 0x4 ADD SSTORE SWAP1 POP POP JUMPDEST PUSH1 0x1 PUSH1 0x2 PUSH1 0x0 DUP3 DUP3 SLOAD PUSH2 0x63D SWAP2 SWAP1 PUSH2 0xA43 JUMP JUMPDEST SWAP3 POP POP DUP2 SWAP1 SSTORE POP PUSH32 0x8CE16702F64D2CDC93C2D36818CEE685ABD25DCF25F93B5008C07C328652BB6 DUP6 DUP6 DUP6 DUP6 DUP6 PUSH1 0x40 MLOAD PUSH2 0x67B SWAP6 SWAP5 SWAP4 SWAP3 SWAP2 SWAP1 PUSH2 0x96B JUMP JUMPDEST PUSH1 0x40 MLOAD DUP1 SWAP2 SUB SWAP1 LOG1 POP POP POP POP POP JUMP JUMPDEST PUSH1 0x40 MLOAD DUP1 PUSH1 0xA0 ADD PUSH1 0x40 MSTORE DUP1 PUSH1 0x0 DUP1 NOT AND DUP2 MSTORE PUSH1 0x20 ADD PUSH1 0x0 PUSH20 0xFFFFFFFFFFFFFFFFFFFFFFFFFFFFFFFFFFFFFFFF AND DUP2 MSTORE PUSH1 0x20 ADD PUSH1 0x0 PUSH20 0xFFFFFFFFFFFFFFFFFFFFFFFFFFFFFFFFFFFFFFFF AND DUP2 MSTORE PUSH1 0x20 ADD PUSH1 0x0 DUP1 NOT AND DUP2 MSTORE PUSH1 0x20 ADD PUSH1 0x0 DUP2 MSTORE POP SWAP1 JUMP JUMPDEST PUSH1 0x0 DUP2 CALLDATALOAD SWAP1 POP PUSH2 0x6FA DUP2 PUSH2 0xB8B JUMP JUMPDEST SWAP3 SWAP2 POP POP JUMP JUMPDEST PUSH1 0x0 DUP2 CALLDATALOAD SWAP1 POP PUSH2 0x70F DUP2 PUSH2 0xBA2 JUMP JUMPDEST SWAP3 SWAP2 POP POP JUMP JUMPDEST PUSH1 0x0 DUP2 CALLDATALOAD SWAP1 POP PUSH2 0x724 DUP2 PUSH2 0xBB9 JUMP JUMPDEST SWAP3 SWAP2 POP POP JUMP JUMPDEST PUSH1 0x0 DUP1 PUSH1 0x0 DUP1 PUSH1 0x80 DUP6 DUP8 SUB SLT ISZERO PUSH2 0x740 JUMPI PUSH1 0x0 DUP1 REVERT JUMPDEST PUSH1 0x0 PUSH2 0x74E DUP8 DUP3 DUP9 ADD PUSH2 0x700 JUMP JUMPDEST SWAP5 POP POP PUSH1 0x20 PUSH2 0x75F DUP8 DUP3 DUP9 ADD PUSH2 0x6EB JUMP JUMPDEST SWAP4 POP POP PUSH1 0x40 PUSH2 0x770 DUP8 DUP3 DUP9 ADD PUSH2 0x6EB JUMP JUMPDEST SWAP3 POP POP PUSH1 0x60 PUSH2 0x781 DUP8 DUP3 DUP9 ADD PUSH2 0x700 JUMP JUMPDEST SWAP2 POP POP SWAP3 SWAP6 SWAP2 SWAP5 POP SWAP3 POP JUMP JUMPDEST PUSH1 0x0 PUSH1 0x20 DUP3 DUP5 SUB SLT ISZERO PUSH2 0x79F JUMPI PUSH1 0x0 DUP1 REVERT JUMPDEST PUSH1 0x0 PUSH2 0x7AD DUP5 DUP3 DUP6 ADD PUSH2 0x715 JUMP JUMPDEST SWAP2 POP POP SWAP3 SWAP2 POP POP JUMP JUMPDEST PUSH1 0x0 PUSH2 0x7C2 DUP4 DUP4 PUSH2 0x8A8 JUMP JUMPDEST PUSH1 0xA0 DUP4 ADD SWAP1 POP SWAP3 SWAP2 POP POP JUMP JUMPDEST PUSH2 0x7D7 DUP2 PUSH2 0xACD JUMP JUMPDEST DUP3 MSTORE POP POP JUMP JUMPDEST PUSH2 0x7E6 DUP2 PUSH2 0xACD JUMP JUMPDEST DUP3 MSTORE POP POP JUMP JUMPDEST PUSH1 0x0 PUSH2 0x7F7 DUP3 PUSH2 0xA09 JUMP JUMPDEST PUSH2 0x801 DUP2 DUP6 PUSH2 0xA21 JUMP JUMPDEST SWAP4 POP PUSH2 0x80C DUP4 PUSH2 0x9F9 JUMP JUMPDEST DUP1 PUSH1 0x0 JUMPDEST DUP4 DUP2 LT ISZERO PUSH2 0x83D JUMPI DUP2 MLOAD PUSH2 0x824 DUP9 DUP3 PUSH2 0x7B6 JUMP JUMPDEST SWAP8 POP PUSH2 0x82F DUP4 PUSH2 0xA14 JUMP JUMPDEST SWAP3 POP POP PUSH1 0x1 DUP2 ADD SWAP1 POP PUSH2 0x810 JUMP JUMPDEST POP DUP6 SWAP4 POP POP POP POP SWAP3 SWAP2 POP POP JUMP JUMPDEST PUSH2 0x853 DUP2 PUSH2 0xADF JUMP JUMPDEST DUP3 MSTORE POP POP JUMP JUMPDEST PUSH2 0x862 DUP2 PUSH2 0xADF JUMP JUMPDEST DUP3 MSTORE POP POP JUMP JUMPDEST PUSH1 0x0 PUSH2 0x875 PUSH1 0x1B DUP4 PUSH2 0xA32 JUMP JUMPDEST SWAP2 POP PUSH32 0x5472616E73616374696F6E206572726F72206F63637572726564210000000000 PUSH1 0x0 DUP4 ADD MSTORE PUSH1 0x20 DUP3 ADD SWAP1 POP SWAP2 SWAP1 POP JUMP JUMPDEST PUSH1 0xA0 DUP3 ADD PUSH1 0x0 DUP3 ADD MLOAD PUSH2 0x8BE PUSH1 0x0 DUP6 ADD DUP3 PUSH2 0x84A JUMP JUMPDEST POP PUSH1 0x20 DUP3 ADD MLOAD PUSH2 0x8D1 PUSH1 0x20 DUP6 ADD DUP3 PUSH2 0x7CE JUMP JUMPDEST POP PUSH1 0x40 DUP3 ADD MLOAD PUSH2 0x8E4 PUSH1 0x40 DUP6 ADD DUP3 PUSH2 0x7CE JUMP JUMPDEST POP PUSH1 0x60 DUP3 ADD MLOAD PUSH2 0x8F7 PUSH1 0x60 DUP6 ADD DUP3 PUSH2 0x84A JUMP JUMPDEST POP PUSH1 0x80 DUP3 ADD MLOAD PUSH2 0x90A PUSH1 0x80 DUP6 ADD DUP3 PUSH2 0x910 JUMP JUMPDEST POP POP POP POP JUMP JUMPDEST PUSH2 0x919 DUP2 PUSH2 0xB09 JUMP JUMPDEST DUP3 MSTORE POP POP JUMP JUMPDEST PUSH2 0x928 DUP2 PUSH2 0xB09 JUMP JUMPDEST DUP3 MSTORE POP POP JUMP JUMPDEST PUSH1 0x0 PUSH1 0x20 DUP3 ADD SWAP1 POP PUSH2 0x943 PUSH1 0x0 DUP4 ADD DUP5 PUSH2 0x7DD JUMP JUMPDEST SWAP3 SWAP2 POP POP JUMP JUMPDEST PUSH1 0x0 PUSH1 0x20 DUP3 ADD SWAP1 POP DUP2 DUP2 SUB PUSH1 0x0 DUP4 ADD MSTORE PUSH2 0x963 DUP2 DUP5 PUSH2 0x7EC JUMP JUMPDEST SWAP1 POP SWAP3 SWAP2 POP POP JUMP JUMPDEST PUSH1 0x0 PUSH1 0xA0 DUP3 ADD SWAP1 POP PUSH2 0x980 PUSH1 0x0 DUP4 ADD DUP9 PUSH2 0x859 JUMP JUMPDEST PUSH2 0x98D PUSH1 0x20 DUP4 ADD DUP8 PUSH2 0x7DD JUMP JUMPDEST PUSH2 0x99A PUSH1 0x40 DUP4 ADD DUP7 PUSH2 0x7DD JUMP JUMPDEST PUSH2 0x9A7 PUSH1 0x60 DUP4 ADD DUP6 PUSH2 0x859 JUMP JUMPDEST PUSH2 0x9B4 PUSH1 0x80 DUP4 ADD DUP5 PUSH2 0x91F JUMP JUMPDEST SWAP7 SWAP6 POP POP POP POP POP POP JUMP JUMPDEST PUSH1 0x0 PUSH1 0x20 DUP3 ADD SWAP1 POP DUP2 DUP2 SUB PUSH1 0x0 DUP4 ADD MSTORE PUSH2 0x9D7 DUP2 PUSH2 0x868 JUMP JUMPDEST SWAP1 POP SWAP2 SWAP1 POP JUMP JUMPDEST PUSH1 0x0 PUSH1 0x20 DUP3 ADD SWAP1 POP PUSH2 0x9F3 PUSH1 0x0 DUP4 ADD DUP5 PUSH2 0x91F JUMP JUMPDEST SWAP3 SWAP2 POP POP JUMP JUMPDEST PUSH1 0x0 DUP2 SWAP1 POP PUSH1 0x20 DUP3 ADD SWAP1 POP SWAP2 SWAP1 POP JUMP JUMPDEST PUSH1 0x0 DUP2 MLOAD SWAP1 POP SWAP2 SWAP1 POP JUMP JUMPDEST PUSH1 0x0 PUSH1 0x20 DUP3 ADD SWAP1 POP SWAP2 SWAP1 POP JUMP JUMPDEST PUSH1 0x0 DUP3 DUP3 MSTORE PUSH1 0x20 DUP3 ADD SWAP1 POP SWAP3 SWAP2 POP POP JUMP JUMPDEST PUSH1 0x0 DUP3 DUP3 MSTORE PUSH1 0x20 DUP3 ADD SWAP1 POP SWAP3 SWAP2 POP POP JUMP JUMPDEST PUSH1 0x0 PUSH2 0xA4E DUP3 PUSH2 0xB09 JUMP JUMPDEST SWAP2 POP PUSH2 0xA59 DUP4 PUSH2 0xB09 JUMP JUMPDEST SWAP3 POP DUP3 PUSH32 0xFFFFFFFFFFFFFFFFFFFFFFFFFFFFFFFFFFFFFFFFFFFFFFFFFFFFFFFFFFFFFFFF SUB DUP3 GT ISZERO PUSH2 0xA8E JUMPI PUSH2 0xA8D PUSH2 0xB5C JUMP JUMPDEST JUMPDEST DUP3 DUP3 ADD SWAP1 POP SWAP3 SWAP2 POP POP JUMP JUMPDEST PUSH1 0x0 PUSH2 0xAA4 DUP3 PUSH2 0xB09 JUMP JUMPDEST SWAP2 POP PUSH2 0xAAF DUP4 PUSH2 0xB09 JUMP JUMPDEST SWAP3 POP DUP3 DUP3 LT ISZERO PUSH2 0xAC2 JUMPI PUSH2 0xAC1 PUSH2 0xB5C JUMP JUMPDEST JUMPDEST DUP3 DUP3 SUB SWAP1 POP SWAP3 SWAP2 POP POP JUMP JUMPDEST PUSH1 0x0 PUSH2 0xAD8 DUP3 PUSH2 0xAE9 JUMP JUMPDEST SWAP1 POP SWAP2 SWAP1 POP JUMP JUMPDEST PUSH1 0x0 DUP2 SWAP1 POP SWAP2 SWAP1 POP JUMP JUMPDEST PUSH1 0x0 PUSH20 0xFFFFFFFFFFFFFFFFFFFFFFFFFFFFFFFFFFFFFFFF DUP3 AND SWAP1 POP SWAP2 SWAP1 POP JUMP JUMPDEST PUSH1 0x0 DUP2 SWAP1 POP SWAP2 SWAP1 POP JUMP JUMPDEST PUSH1 0x0 PUSH2 0xB1E DUP3 PUSH2 0xB09 JUMP JUMPDEST SWAP2 POP PUSH32 0xFFFFFFFFFFFFFFFFFFFFFFFFFFFFFFFFFFFFFFFFFFFFFFFFFFFFFFFFFFFFFFFF DUP3 EQ ISZERO PUSH2 0xB51 JUMPI PUSH2 0xB50 PUSH2 0xB5C JUMP JUMPDEST JUMPDEST PUSH1 0x1 DUP3 ADD SWAP1 POP SWAP2 SWAP1 POP JUMP JUMPDEST PUSH32 0x4E487B7100000000000000000000000000000000000000000000000000000000 PUSH1 0x0 MSTORE PUSH1 0x11 PUSH1 0x4 MSTORE PUSH1 0x24 PUSH1 0x0 REVERT JUMPDEST PUSH2 0xB94 DUP2 PUSH2 0xACD JUMP JUMPDEST DUP2 EQ PUSH2 0xB9F JUMPI PUSH1 0x0 DUP1 REVERT JUMPDEST POP JUMP JUMPDEST PUSH2 0xBAB DUP2 PUSH2 0xADF JUMP JUMPDEST DUP2 EQ PUSH2 0xBB6 JUMPI PUSH1 0x0 DUP1 REVERT JUMPDEST POP JUMP JUMPDEST PUSH2 0xBC2 DUP2 PUSH2 0xB09 JUMP JUMPDEST DUP2 EQ PUSH2 0xBCD JUMPI PUSH1 0x0 DUP1 REVERT JUMPDEST POP JUMP INVALID LOG2 PUSH5 0x6970667358 0x22 SLT KECCAK256 POP SLOAD 0xF6 SWAP7 0xC0 0x48 PUSH30 0x79DDE749AFB612312C36E48EA1943CFA70B872B82F2C65E02664736F6C63 NUMBER STOP ADDMOD STOP STOP CALLER "
				},
				"gasEstimates": {
					"creation": {
						"codeDepositCost": "615600",
						"executionCost": "infinite",
						"totalCost": "infinite"
					},
					"external": {
						"Creator()": "1189",
						"createTxnEntry(bytes32,address,address,bytes32)": "infinite",
						"getAllTransactions()": "infinite",
						"transactions(uint256)": "infinite",
						"txnCount()": "1151"
					}
				},
				"methodIdentifiers": {
					"Creator()": "18bee97e",
					"createTxnEntry(bytes32,address,address,bytes32)": "9e9ab89b",
					"getAllTransactions()": "27506f53",
					"transactions(uint256)": "9ace38c2",
					"txnCount()": "78ce1365"
				}
			},
			"storageLayout": {
				"storage": [
					{
						"astId": 245,
						"contract": "contracts/Transactions.sol:Transactions",
						"label": "Creator",
						"offset": 0,
						"slot": "0",
						"type": "t_address"
					},
					{
						"astId": 261,
						"contract": "contracts/Transactions.sol:Transactions",
						"label": "transactions",
						"offset": 0,
						"slot": "1",
						"type": "t_mapping(t_uint256,t_struct(Txns)256_storage)"
					},
					{
						"astId": 264,
						"contract": "contracts/Transactions.sol:Transactions",
						"label": "txnCount",
						"offset": 0,
						"slot": "2",
						"type": "t_uint256"
					}
				],
				"types": {
					"t_address": {
						"encoding": "inplace",
						"label": "address",
						"numberOfBytes": "20"
					},
					"t_bytes32": {
						"encoding": "inplace",
						"label": "bytes32",
						"numberOfBytes": "32"
					},
					"t_mapping(t_uint256,t_struct(Txns)256_storage)": {
						"encoding": "mapping",
						"key": "t_uint256",
						"label": "mapping(uint256 => struct Transactions.Txns)",
						"numberOfBytes": "32",
						"value": "t_struct(Txns)256_storage"
					},
					"t_struct(Txns)256_storage": {
						"encoding": "inplace",
						"label": "struct Transactions.Txns",
						"members": [
							{
								"astId": 247,
								"contract": "contracts/Transactions.sol:Transactions",
								"label": "txnHash",
								"offset": 0,
								"slot": "0",
								"type": "t_bytes32"
							},
							{
								"astId": 249,
								"contract": "contracts/Transactions.sol:Transactions",
								"label": "fromAddr",
								"offset": 0,
								"slot": "1",
								"type": "t_address"
							},
							{
								"astId": 251,
								"contract": "contracts/Transactions.sol:Transactions",
								"label": "toAddr",
								"offset": 0,
								"slot": "2",
								"type": "t_address"
							},
							{
								"astId": 253,
								"contract": "contracts/Transactions.sol:Transactions",
								"label": "prevTxn",
								"offset": 0,
								"slot": "3",
								"type": "t_bytes32"
							},
							{
								"astId": 255,
								"contract": "contracts/Transactions.sol:Transactions",
								"label": "timestamp",
								"offset": 0,
								"slot": "4",
								"type": "t_uint256"
							}
						],
						"numberOfBytes": "160"
					},
					"t_uint256": {
						"encoding": "inplace",
						"label": "uint256",
						"numberOfBytes": "32"
					}
				}
			},
			"userdoc": {
				"kind": "user",
				"methods": {},
				"version": 1
			}
		}
	}
}